024123693236Miramontes                                        Raymond                                                     2009-03-30M     080819647090000000Lennox                                                                                              19647096106736Lennox Middle                                                                                                    No       No No No No 2014-08-202018-02-162014-08-202022-08-17RFEPSPA01No    No YesYesNYesNo No No No No No No 50013 0000000191741515C0000000191897317C                                  0035913391002002Lennox                                                                                              19647090000000Lennox Middle                                                                                       19647096106736      N          Lennox                                                                                              19647090000000Lennox Middle                                                                                       19647096106736      N                                                                                                                                                                                                                                                                                                                                                                                                                                                                                      2023-05-182023-05-182023-05-182023-05-19                                        Lennox                                                                                              19647090000000Lennox Middle                                                                                       19647096106736      N2023-05-192023-04-172023-06-092023-04-172023-06-09                                        E2302023-06-152023-06-26                 YV OYNN  Y2023-06-011065Q                                             25660037252926032              017004      No Yes                                                                                                                                                                                                                                                                                                                                                                                                                                                                                                                                                                                                                                                                                                                                                                                                                                                                                                               TDS_TTS_Stim&TDS_TTS_ItemTDS_TTS_Stim&TDS_TTS_Item                                                                            No No                                                                                                                                                                                                                                                                                                                                                                                                                                                                                                                                                                                                                                                                                           Y07        003025783                                                                                                                                         35913391                                                                    ZZ
025447733467Medrano                                           Jeremiah                                                    2009-04-02M     080819768690000000Wiseburn Unified                                                                                    19768696023832Wiseburn Middle                                                                                           1976869No EMNEMNYesYesNo Yes2014-09-02          2014-09-022022-08-29EL  SPA01No    No YesYesNYesNo No No No No No No 50010 0000000190719264C0000000191770832C                                  0035740688002002Wiseburn Unified                                                                                    19768690000000Wiseburn Middle                                                                                     19768696023832      N          Wiseburn Unified                                                                                    19768690000000Wiseburn Middle                                                                                     19768696023832      N                                                                                                                                                                                                                                                                                                                                                                                                                                                                                      2023-05-162023-05-162023-05-182023-05-18                                        Wiseburn Unified                                                                                    19768690000000Wiseburn Middle                                                                                     19768696023832      N2023-05-182023-03-102023-06-152023-03-102023-06-15                                        E2302023-06-152023-07-20                 YV OYNN  Y2023-05-26630Q                                              23670055231224221              017005      YesYes                                                                                                                                                                                                                                                                                                                                 NEA_MTNEA_MT                                                                                                                                                                                                                                                                                                                                                                                                                                                                                                                                                                                                                                                                                                No No                                                                                                                                                                                                                                                                                                                                                                                                                                                                                                                                       NEDS_SSNEDS_SS              NEDS_SimpDirsNEDS_SimpDirs                                                                                              Y07        005523501                                                                                                                                         35740688                                                                    ZZ
028530175722Hernandez                                         Sebastian                                                   2009-03-27M     080819647090107508Century Community Charter                                                                           19647090107508Century Community Charter                                                                           0672DF       No       No No No No 2014-09-032019-02-152013-09-042022-08-29RFEPSPA01No    No YesYesNYesNo No No No No No No 50015 0000000187369764C0000000191851631C                                  0038331690002002Century Community Charter                                                                           19647090107508Century Community Charter                                                                           19647090107508DF0672N          Century Community Charter                                                                           19647090107508Century Community Charter                                                                           19647090107508DF0672N                                                                                                                                                                                                                                                                                                                                                                                                                                                                                      2023-05-082023-05-082023-05-182023-05-18                                        Century Community Charter                                                                           19647090107508Century Community Charter                                                                           19647090107508DF0672N2023-05-182023-03-142023-06-162023-03-142023-06-16                                        E2302023-06-162023-07-12                 YV OYNN  Y2023-05-26970Q                                              25220040248225622              017005      No No                                                                                                                                                                                                                                                                                                                                                                                                                                                                                                                                                                                                                                                                                                                                                                                                                                                                                                                                                                                                                                              No No                                                                                                                                                                                                                                                                                                                                                                                                                                                                                                                                                                                                                                                                                           Y07        003724932                                                                                                                                         38331690                                                                    ZZ
015120226753Lopez                                             Lourdes                       Beatriz                       2008-09-16F     080819647090000000Lennox                                                                                              19647096106736Lennox Middle                                                                                                    No       No No No Yes2013-09-04          2014-09-032022-08-17EL  SPA01No    No No No NYesNo No No No No No No 50015 0000000192202940C0000000192529747C                                  0035924928002014Lennox                                                                                              19647090000000Lennox Middle                                                                                       19647096106736      N          Lennox                                                                                              19647090000000Lennox Middle                                                                                       19647096106736      N                                                                                                                                                                                                                                                                                                                                                                                                                                                                                      2023-05-222023-05-232023-05-232023-05-23                                        Lennox                                                                                              19647090000000Lennox Middle                                                                                       19647096106736      N2023-05-232023-04-172023-06-092023-04-172023-06-09                                        E2302023-06-152023-06-26                 YV OYNN  Y2023-06-08905L                                              24420037240524791   NARR001MM  022003      No Yes                                                                                                                                                                                                                                                                                                                                                                                                                                                                                                                                                                                                                                                                                                                                                                                                                                                                                                               TDS_TTS_Item             TDS_TTS_Item                                                                                         No No                                                                                                                                                                                                                                                                                                                                                                                                                                                                                                                                                                                                                                                                                           Y07        003325643                                                                                                                                         35924928                                                                    ZZ
022102314072Negrete                                           Matthew                       Anthony                       2009-09-21M     080819647090000000Lennox                                                                                              19647096106736Lennox Middle                                                                                                    No       No No No No                     2014-08-202022-08-17EO  ENG00No    No No YesNYesNo No No No No No No 50011 0000000190076519C0000000190250982C                                  0035890810002002Lennox                                                                                              19647090000000Lennox Middle                                                                                       19647096106736      N          Lennox                                                                                              19647090000000Lennox Middle                                                                                       19647096106736      N                                                                                                                                                                                                                                                                                                                                                                                                                                                                                      2023-05-152023-05-152023-05-152023-05-16                                        Lennox                                                                                              19647090000000Lennox Middle                                                                                       19647096106736      N2023-05-162023-04-172023-06-092023-04-172023-06-09                                        E2302023-06-152023-06-26                 YV OYNN  Y2023-06-011205Q                                             26320030260226623              017004      No Yes                                                                                                                                                                                                                                                                                                                                                                                                                                                                                                                                                                                                                                                                                                                                                                                                                                                                                                               TDS_TTS_Stim&TDS_TTS_ItemTDS_TTS_Stim&TDS_TTS_Item                                                                            No No                                                                                                                                                                                                                                                                                                                                                                                                                                                                                                                                                                                                                                                                                           Y07        002926003                                                                                                                                         35890810                                                                    ZZ
025352037229Vera Cordero                                      Kaylie                                                      2008-12-31F     080819647090107508Century Community Charter                                                                           19647090107508Century Community Charter                                                                           0672DF       No       No No No No 2014-08-202018-01-11          2022-08-29RFEPSPA01No    No YesYesNYesNo No No No No No No 50015 0000000187368725C0000000187550927C                                  0038330142002002Century Community Charter                                                                           19647090107508Century Community Charter                                                                           19647090107508DF0672N          Century Community Charter                                                                           19647090107508Century Community Charter                                                                           19647090107508DF0672N                                                                                                                                                                                                                                                                                                                                                                                                                                                                                      2023-05-082023-05-082023-05-082023-05-08                                        Century Community Charter                                                                           19647090107508Century Community Charter                                                                           19647090107508DF0672N2023-05-082023-03-142023-06-162023-03-142023-06-16                                        E2302023-06-162023-07-10                 YV OYNN  Y2023-06-01860Q                                              24720044242825161              017006      No No                                                                                                                                                                                                                                                                                                                                                                                                                                                                                                                                                                                                                                                                                                                                                                                                                                                                                                                                                                                                                                              No No                                                                                                                                                                                                                                                                                                                                                                                                                                                                                                                                                                                                                                                                                           Y07        003924651                                                                                                                                         38330142                                                                    ZZ
017128367380Secayda de Leon                                   Heisel                        Anllely                       2008-06-20F     080819647090000000Lennox                                                                                              19647096106736Lennox Middle                                                                                                    No       No No No Yes2019-02-13          2019-01-102022-10-19EL  SPA01No    No YesYesNYesNo No No No No No No 50014 0000000192044937C0000000192091394C                                  0033723061002014Lennox                                                                                              19647090000000Lennox Middle                                                                                       19647096106736      N          Lennox                                                                                              19647090000000Lennox Middle                                                                                       19647096106736      N                                                                                                                                                                                                                                                                                                                                                                                                                                                                                      2023-05-192023-05-192023-05-192023-05-24                                        Lennox                                                                                              19647090000000Lennox Middle                                                                                       19647096106736      N2023-05-242023-04-172023-06-092023-04-172023-06-09                                        E2302023-06-152023-06-26                 YV OYNN  Y2023-05-31870L                                              24250039238624641   ARGU221    022003      No Yes                                                                                                                                                                                                                                                                                                                                                                                                                                                                                                                                                                                                                                                                                                                                                                                                                                                                                                               TDS_TTS_Item             TDS_TTS_Item                                                                                         No No                                                                                                                                                                                                                                                                                                                                                                                                                                                                                                                                                                                                                                                                                           Y07        005423051                                                                                                                                         33723061                                                                    ZZ
023482828831Herrera                                           Miguel                                                      2008-12-20M     080819647090000000Lennox                                                                                              19647096106736Lennox Middle                                                                                                    No       No No No Yes2014-08-20          2014-08-202022-08-17EL  SPA01No    No YesYesNYesNo No No No No No No 50014 0000000187092350C0000000187822651C                                  0035906337002002Lennox                                                                                              19647090000000Lennox Middle                                                                                       19647096106736      N          Lennox                                                                                              19647090000000Lennox Middle                                                                                       19647096106736      N                                                                                                                                                                                                                                                                                                                                                                                                                                                                                      2023-05-082023-05-082023-05-092023-05-09                                        Lennox                                                                                              19647090000000Lennox Middle                                                                                       19647096106736      N2023-05-092023-04-172023-06-092023-04-172023-06-09                                        E2302023-06-152023-06-26                 YV OYNN  Y2023-06-01860Q                                              24720044242825161              017005      No Yes                                                                                                                                                                                                                                                                                                                                                                                                                                                                                                                                                                                                                                                                                                                                                                                                                                                                                                               TDS_TTS_Stim&TDS_TTS_ItemTDS_TTS_Stim&TDS_TTS_Item                                                                            No No                                                                                                                                                                                                                                                                                                                                                                                                                                                                                                                                                                                                                                                                                           Y07        004923781                                                                                                                                         35906337                                                                    ZZ
027267266325Colmena-Aniceto                                   Denise                        Renata                        2009-03-21F     080819101990127498Environmental Charter Middle - Inglewood                                                            19101990127498Environmental Charter Middle - Inglewood                                                            1501DF       No       No No No No 2014-09-032016-06-05          2022-08-22RFEPSPA01No    No YesYesNYesNo No No No No No No 50013 0000000192590174C0000000192786974C                                  0034974594002002Environmental Charter Middle - Inglewood                                                            19101990127498Environmental Charter Middle - Inglewood                                                            19101990127498DF1501N          Environmental Charter Middle - Inglewood                                                            19101990127498Environmental Charter Middle - Inglewood                                                            19101990127498DF1501N                                                                                                                                                                                                                                                                                                                                                                                                                                                                                      2023-05-232023-05-232023-05-242023-05-24                                        Environmental Charter Middle - Inglewood                                                            19101990127498Environmental Charter Middle - Inglewood                                                            19101990127498DF1501N2023-05-242023-03-082023-06-152023-03-082023-06-15                                        E2302023-06-152023-07-25                 YV OYNN  Y2023-06-191235Q                                             26460029261726753              017005      No No                                                                                                                                                                                                                                                                                                                                                                                                                                                                                                                                                                                                                                                                                                                                                                                                                                                                                                                                                                                                                                              No No                                                                                                                                                                                                                                                                                                                                                                                                                                                                                                                                                                                                                                                                                           Y07        003425342                                                                                                                                         34974594                                                                    ZZ
019443791315Lopez                                             Abel                          Daniel                        2009-04-01M     080819647090000000Lennox                                                                                              19647096106736Lennox Middle                                                                                                    No       No No No No 2014-08-202018-02-212014-08-202022-08-17RFEPSPA01No    No No YesNYesNo No No No No No No 50015 0000000192206853C0000000192297038C                                  0035976903002014Lennox                                                                                              19647090000000Lennox Middle                                                                                       19647096106736      N          Lennox                                                                                              19647090000000Lennox Middle                                                                                       19647096106736      N                                                                                                                                                                                                                                                                                                                                                                                                                                                                                      2023-05-222023-05-222023-05-222023-05-22                                        Lennox                                                                                              19647090000000Lennox Middle                                                                                       19647096106736      N2023-05-222023-04-172023-06-092023-04-172023-06-09                                        E2302023-06-152023-06-26                 YV OYNN  Y2023-06-05990L                                              24830034244925171   EXPL111    022003      No Yes                                                                                                                                                                                                                                                                                                                                                                                                                                                                                                                                                                                                                                                                                                                                                                                                                                                                                                               TDS_TTS_Item             TDS_TTS_Item                                                                                         No No                                                                                                                                                                                                                                                                                                                                                                                                                                                                                                                                                                                                                                                                                           Y07        003724291                                                                                                                                         35976903                                                                    ZZ
023750404387Kuk                                               Manuel                                                      2009-07-21M     080819645920000000Hawthorne                                                                                           19645926115265Prairie Vista Middle                                                                                             No       No No No No                     2014-08-252022-08-24EO  ENG00No    No YesYesNYesNo No No No No No No 50014 0000000192859837C0000000193103104C                                  0035111833002002Hawthorne                                                                                           19645920000000Prairie Vista Middle                                                                                19645926115265      N          Hawthorne                                                                                           19645920000000Prairie Vista Middle                                                                                19645926115265      N                                                                                                                                                                                                                                                                                                                                                                                                                                                                                      2023-05-252023-05-252023-06-022023-06-02                                        Hawthorne                                                                                           19645920000000Prairie Vista Middle                                                                                19645926115265      N2023-06-022023-03-202023-06-232023-03-202023-06-23                                        E2302023-06-232023-07-15                 YV OYNN  Y2023-06-08785Q                                              24370046239124831              017004      No Yes                                                                                                                                                                                                                                                                                                                                                                                                                                                                                                                                                                                                                                                                                                                                                                                                                                                                                                               TDS_TTS_Stim&TDS_TTS_ItemTDS_TTS_Stim&TDS_TTS_Item                                                                            No No                                                                                                                                                                                                                                                                                                                                                                                                                                                                                                                                                                                                                                                                                           Y07        004324251                                                                                                                                         35111833                                                                    ZZ
025262752035Monrroy                                           Daniel                                                      2009-02-11M     080819647090000000Lennox                                                                                              19647096106736Lennox Middle                                                                                                    No       No No No No 2014-08-202018-02-232014-08-202022-08-17RFEPSPA01No    No YesYesNYesNo No No No No No No 50013 0000000191737443C0000000192043619C                                  0035926820002002Lennox                                                                                              19647090000000Lennox Middle                                                                                       19647096106736      N          Lennox                                                                                              19647090000000Lennox Middle                                                                                       19647096106736      N                                                                                                                                                                                                                                                                                                                                                                                                                                                                                      2023-05-182023-05-182023-05-192023-05-19                                        Lennox                                                                                              19647090000000Lennox Middle                                                                                       19647096106736      N2023-05-192023-04-172023-06-092023-04-172023-06-09                                        E2302023-06-152023-06-26                 YV OYNN  Y2023-06-01970Q                                              25230040248325632              017005      No Yes                                                                                                                                                                                                                                                                                                                                                                                                                                                                                                                                                                                                                                                                                                                                                                                                                                                                                                               TDS_TTS_Stim&TDS_TTS_ItemTDS_TTS_Stim&TDS_TTS_Item                                                                            No No                                                                                                                                                                                                                                                                                                                                                                                                                                                                                                                                                                                                                                                                                           Y07        003624982                                                                                                                                         35926820                                                                    ZZ
013694053025Velez                                             Anaida                        Guadalupe                     2009-02-06F     080819647090107508Century Community Charter                                                                           19647090107508Century Community Charter                                                                           0672DF       No       No No No Yes2014-09-03          2013-09-122022-08-29EL  SPA01No    No YesYesNYesNo No No No No No No 50015 0000000188196849C0000000188448776C                                  0038329399002014Century Community Charter                                                                           19647090107508Century Community Charter                                                                           19647090107508DF0672N          Century Community Charter                                                                           19647090107508Century Community Charter                                                                           19647090107508DF0672N                                                                                                                                                                                                                                                                                                                                                                                                                                                                                      2023-05-092023-05-092023-05-092023-05-10                                        Century Community Charter                                                                           19647090107508Century Community Charter                                                                           19647090107508DF0672N2023-05-102023-03-142023-06-162023-03-142023-06-16                                        E2302023-06-162023-07-07                 YV OYNN  Y2023-05-19870L                                              24260039238724651   EXPL111    022003      No No                                                                                                                                                                                                                                                                                                                                                                                                                                                                                                                                                                                                                                                                                                                                                                                                                                                                                                                                                                                                                                              No No                                                                                                                                                                                                                                                                                                                                                                                                                                                                                                                                                                                                                                                                                           Y07        003524481                                                                                                                                         38329399                                                                    ZZ
012453084302Escobedo                                          Alexandro                                                   2007-11-27M     080819647090000000Lennox                                                                                              19647096106736Lennox Middle                                                                                             1964709No SLDSLDYesYesNo Yes2013-09-04          2013-09-042022-08-17EL  SPA01No    No YesYesNYesNo No No No No No No 50014 0000000190083394C0000000190668215C                                  0035894292002014Lennox                                                                                              19647090000000Lennox Middle                                                                                       19647096106736      N          Lennox                                                                                              19647090000000Lennox Middle                                                                                       19647096106736      N                                                                                                                                                                                                                                                                                                                                                                                                                                                                                      2023-05-152023-05-152023-05-162023-05-16                                        Lennox                                                                                              19647090000000Lennox Middle                                                                                       19647096106736      N2023-05-162023-04-172023-06-092023-04-172023-06-09                                        E2302023-06-152023-06-26                 YV OYNN  Y2023-06-14710L                                              23500051229924011   EXPL000III 022003      YesYes                                                                                                                                TDS_TTS_StimTDS_TTS_Stim                                                                                                                                                                                                                                                                                                                                                                                                                                                                                                                                                                                                                                                                                                                                                       TDS_TTS_Item             TDS_TTS_Item                                                                                         No No                                                                                                                                                                                                                                                                                                                                                                                                                                                                                                                                       NEDS_SSNEDS_SS                                                                                                                                      Y07        009022601                                                                                                                                         35894292                                                                    ZZ
015629237380Esparza Chaidez                                   Ramon                         Alberto                       2008-12-23M     080819645920000000Hawthorne                                                                                           19645926013965Hawthorne Middle                                                                                                 No       No No No No 2014-08-252017-03-292014-08-252022-08-24RFEPSPA01No    No YesYesNYesNo No No No No No No 50012 0000000185667225C0000000188077189C                                  0035133326002014Hawthorne                                                                                           19645920000000Hawthorne Middle                                                                                    19645926013965      N          Hawthorne                                                                                           19645920000000Hawthorne Middle                                                                                    19645926013965      N                                                                                                                                                                                                                                                                                                                                                                                                                                                                                      2023-05-032023-05-042023-05-092023-05-09                                        Hawthorne                                                                                           19645920000000Hawthorne Middle                                                                                    19645926013965      N2023-05-092023-03-202023-06-232023-03-202023-06-23                                        E2302023-06-232023-07-13                 YV OYNN  Y2023-06-011195L                                             25790034254526133   EXPL221    022003      No No                                                                                                                                                                                                                                                                                                                                                                                                                                                                                                                                                                                                                                                                                                                                                                                                                                                                                                                                                                                                                                              No No                                                                                                                                                                                                                                                                                                                                                                                                                                                                                                                                                                                                                                                                                           Y07        003325142                                                                                                                                         35133326                                                                    ZZ
025629237380Esparza Chaidez                                   Ramon                         Alberto                       2008-12-23M     080819645920000000Hawthorne                                                                                           19645926013965Hawthorne Middle                                                                                                 No       No No No No 2014-08-252017-03-292014-08-252022-08-24RFEPSPA01No    No YesYesNYesNo No No No No No No 50012 0000000192491076C0000000192683252C                                  0035133326002002Hawthorne                                                                                           19645920000000Hawthorne Middle                                                                                    19645926013965      N          Hawthorne                                                                                           19645920000000Hawthorne Middle                                                                                    19645926013965      N                                                                                                                                                                                                                                                                                                                                                                                                                                                                                      2023-05-232023-05-232023-05-242023-05-24                                        Hawthorne                                                                                           19645920000000Hawthorne Middle                                                                                    19645926013965      N2023-05-242023-03-202023-06-232023-03-202023-06-23                                        E2302023-06-232023-07-13                 YV OYNN  Y2023-06-01700Q                                              23990050234924491              017005      No No                                                                                                                                                                                                                                                                                                                                                                                                                                                                                                                                                                                                                                                                                                                                                                                                                                                                                                                                                                                                                                              No No                                                                                                                                                                                                                                                                                                                                                                                                                                                                                                                                                                                                                                                                                           Y07        003824781                                                                                                                                         35133326                                                                    ZZ
027224201685Salazar Moran                                     Yancely                                                     2009-04-01F     080819647090000000Lennox                                                                                              19647096106736Lennox Middle                                                                                                    No       No No No No 2014-08-202018-03-072014-08-202022-08-17RFEPSPA01No    No No YesNYesNo No No No No No No 50012 0000000189388959C0000000189792251C                                  0035950835002002Lennox                                                                                              19647090000000Lennox Middle                                                                                       19647096106736      N          Lennox                                                                                              19647090000000Lennox Middle                                                                                       19647096106736      N                                                                                                                                                                                                                                                                                                                                                                                                                                                                                      2023-05-112023-05-112023-05-122023-05-12                                        Lennox                                                                                              19647090000000Lennox Middle                                                                                       19647096106736      N2023-05-122023-04-172023-06-092023-04-172023-06-09                                        E2302023-06-152023-06-26                 YV OYNN  Y2023-06-191185Q                                             26220031259126533              017004      No Yes                                                                                                                                                                                                                                                                                                                                                                                                                                                                                                                                                                                                                                                                                                                                                                                                                                                                                                               TDS_TTS_Stim&TDS_TTS_ItemTDS_TTS_Stim&TDS_TTS_Item                                                                            No No                                                                                                                                                                                                                                                                                                                                                                                                                                                                                                                                                                                                                                                                                           Y07        003225532                                                                                                                                         35950835                                                                    ZZ
014685797102Morales                                           Ricardo                       Antonio                       2009-08-13M     080819647090000000Lennox                                                                                              19647096106736Lennox Middle                                                                                                    No       No No No No 2014-08-202018-05-252014-08-202022-08-17RFEPSPA01No    No YesYesNYesNo No No No No No No 50015 0000000187115169C0000000187897888C                                  0035920734002014Lennox                                                                                              19647090000000Lennox Middle                                                                                       19647096106736      N          Lennox                                                                                              19647090000000Lennox Middle                                                                                       19647096106736      N                                                                                                                                                                                                                                                                                                                                                                                                                                                                                      2023-05-082023-05-082023-05-092023-05-09                                        Lennox                                                                                              19647090000000Lennox Middle                                                                                       19647096106736      N2023-05-092023-04-172023-06-092023-04-172023-06-09                                        E2302023-06-152023-06-26                 YV OYNN  Y2023-05-26960L                                              24690035243425041   ARGU000III 022003      No Yes                                                                                                                                                                                                                                                                                                                                                                                                                                                                                                                                                                                                                                                                                                                                                                                                                                                                                                               TDS_TTS_Item             TDS_TTS_Item                                                                                         No No                                                                                                                                                                                                                                                                                                                                                                                                                                                                                                                                                                                                                                                                                           Y07        003324902                                                                                                                                         35920734                                                                    ZZ
013532528844Martinez                                          Jose                          Jhovany                       2009-06-24M     080819647090000000Lennox                                                                                              19647096106736Lennox Middle                                                                                                    No       No No No Yes2014-08-22          2014-08-222022-08-17EL  SPA01No    No YesYesNYesNo No No No No No No 50015 0000000189385874C0000000191286811C                                  0035907009002014Lennox                                                                                              19647090000000Lennox Middle                                                                                       19647096106736      N          Lennox                                                                                              19647090000000Lennox Middle                                                                                       19647096106736      N                                                                                                                                                                                                                                                                                                                                                                                                                                                                                      2023-05-112023-05-172023-05-172023-05-17                                        Lennox                                                                                              19647090000000Lennox Middle                                                                                       19647096106736      N2023-05-172023-04-172023-06-092023-04-172023-06-09                                        E2302023-06-152023-06-26                 YV OYNN  Y2023-05-26930L                                              24550036241924911   ARGU000III 022003      No Yes                                                                                                                                                                                                                                                                                                                                                                                                                                                                                                                                                                                                                                                                                                                                                                                                                                                                                                               TDS_TTS_Item             TDS_TTS_Item                                                                                         No No                                                                                                                                                                                                                                                                                                                                                                                                                                                                                                                                                                                                                                                                                           Y07        003424771                                                                                                                                         35907009                                                                    ZZ
029443791315Lopez                                             Abel                          Daniel                        2009-04-01M     080819647090000000Lennox                                                                                              19647096106736Lennox Middle                                                                                                    No       No No No No 2014-08-202018-02-212014-08-202022-08-17RFEPSPA01No    No No YesNYesNo No No No No No No 50015 0000000190077112C0000000190656263C                                  0035976903002002Lennox                                                                                              19647090000000Lennox Middle                                                                                       19647096106736      N          Lennox                                                                                              19647090000000Lennox Middle                                                                                       19647096106736      N                                                                                                                                                                                                                                                                                                                                                                                                                                                                                      2023-05-152023-05-152023-05-162023-05-16                                        Lennox                                                                                              19647090000000Lennox Middle                                                                                       19647096106736      N2023-05-162023-04-172023-06-092023-04-172023-06-09                                        E2302023-06-152023-06-26                 YV OYNN  Y2023-06-05755Q                                              24240047237724711              017004      No Yes                                                                                                                                                                                                                                                                                                                                                                                                                                                                                                                                                                                                                                                                                                                                                                                                                                                                                                               TDS_TTS_Stim&TDS_TTS_ItemTDS_TTS_Stim&TDS_TTS_Item                                                                            No No                                                                                                                                                                                                                                                                                                                                                                                                                                                                                                                                                                                                                                                                                           Y07        004823891                                                                                                                                         35976903                                                                    ZZ
018292134632Villalobos Soriano                                Julian                        Jonathan                      2009-01-18M     080819647090000000Lennox                                                                                              19647096106736Lennox Middle                                                                                             1964709No OHIOHIYesYesNo Yes2014-08-20          2014-08-202022-08-17EL  SPA01No    No YesYesNYesNo No No No No No No 50014 0000000189371501C0000000189792134C                                  0035963258002014Lennox                                                                                              19647090000000Lennox Middle                                                                                       19647096106736      N          Lennox                                                                                              19647090000000Lennox Middle                                                                                       19647096106736      N                                                                                                                                                                                                                                                                                                                                                                                                                                                                                      2023-05-112023-05-112023-05-122023-05-12                                        Lennox                                                                                              19647090000000Lennox Middle                                                                                       19647096106736      N2023-05-122023-04-172023-06-092023-04-172023-06-09                                        E2302023-06-152023-06-26                 YV OYNN  Y2023-06-14885L                                              24320038239424701   NARR000III 022003      YesYes                                                                                                                                TDS_TTS_StimTDS_TTS_Stim                                                                                                                                                                                                                                                                                                                                                                                                                                                                                                                                                                                                                                                                                                                                                       TDS_TTS_Item             TDS_TTS_Item                                                                                         No No                                                                                                                                                                                                                                                                                                                                                                                                                                                                                                                                       NEDS_SSNEDS_SS                                                                                                                                      Y07        003324932                                                                                                                                         35963258                                                                    ZZ
027206540041Tobon Dolores                                     Lisa                          Fernanda                      2008-04-23F     080819645920000000Hawthorne                                                                                           19645926014021Bud Carson Middle                                                                                                No       No No No Yes2013-08-19          2013-08-192022-08-24EL  SPA01No    No YesYesNYesNo No No No No No No 50014 0000000192987324C0000000192943987C                                  0035151470002002Hawthorne                                                                                           19645920000000Bud Carson Middle                                                                                   19645926014021      N          Hawthorne                                                                                           19645920000000Bud Carson Middle                                                                                   19645926014021      N                                                                                                                                                                                                                                                                                                                                                                                                                                                                                      2023-05-302023-05-302023-05-262023-05-26                                        Hawthorne                                                                                           19645920000000Bud Carson Middle                                                                                   19645926014021      N2023-05-302023-03-202023-06-232023-03-202023-06-23                                        E2302023-06-232023-07-13                 YV OYNN  Y2023-06-02630Q                                              23660055231124211              017005      No No                                                                                                                                                                                                                                                                                                                                                                                                                                                                                                                                                                                                                                                                                                                                                                                                                                                                                                                                                                                                                                              No No                                                                                                                                                                                                                                                                                                                                                                                                                                                                                                                                                                                                                                                                                           Y07        013422501                                                                                                                                         35151470                                                                    ZZ
027156955621De Luna Garcia                                    Paola                         Guadalupe                     2009-06-20F     080819647090107508Century Community Charter                                                                           19647090107508Century Community Charter                                                                           0672DF       No       No No No No 2014-08-202022-08-292013-09-102022-08-29RFEPSPA01No    No YesYesNYesNo No No No No No No 50015 0000000187342355C0000000187528613C                                  0038330940002002Century Community Charter                                                                           19647090107508Century Community Charter                                                                           19647090107508DF0672N          Century Community Charter                                                                           19647090107508Century Community Charter                                                                           19647090107508DF0672N                                                                                                                                                                                                                                                                                                                                                                                                                                                                                      2023-05-082023-05-082023-05-082023-05-08                                        Century Community Charter                                                                           19647090107508Century Community Charter                                                                           19647090107508DF0672N2023-05-082023-03-142023-06-162023-03-142023-06-16                                        E2302023-06-162023-07-10                 YV OYNN  Y2023-05-241105Q                                             25860035255126213              017005      No No                                                                                                                                                                                                                                                                                                                                                                                                                                                                                                                                                                                                                                                                                                                                                                                                                                                                                                                                                                                                                                              No No                                                                                                                                                                                                                                                                                                                                                                                                                                                                                                                                                                                                                                                                                           Y07        003525162                                                                                                                                         38330940                                                                    ZZ
023418630367Lopez Robles                                      Daniel                                                      2009-03-27M     080819647090000000Lennox                                                                                              19647096106736Lennox Middle                                                                                                    No       No No No No 2014-09-032018-05-252014-09-032022-08-17RFEPSPA01No    No YesYesNYesNo No No No No No No 50014 0000000189407642C0000000189850561C                                  0035905496002002Lennox                                                                                              19647090000000Lennox Middle                                                                                       19647096106736      N          Lennox                                                                                              19647090000000Lennox Middle                                                                                       19647096106736      N                                                                                                                                                                                                                                                                                                                                                                                                                                                                                      2023-05-112023-05-122023-05-122023-05-12                                        Lennox                                                                                              19647090000000Lennox Middle                                                                                       19647096106736      N2023-05-122023-04-172023-06-092023-04-172023-06-09                                        E2302023-06-152023-06-26                 YV OYNN  Y2023-05-211055Q                                             25610037252425982              017006      No Yes                                                                                                                                                                                                                                                                                                                                                                                                                                                                                                                                                                                                                                                                                                                                                                                                                                                                                                               TDS_TTS_Stim&TDS_TTS_ItemTDS_TTS_Stim&TDS_TTS_Item                                                                            No No                                                                                                                                                                                                                                                                                                                                                                                                                                                                                                                                                                                                                                                                                           Y07        003425242                                                                                                                                         35905496                                                                    ZZ
