023425849493Hernandez                                         Allison                       Juliette                      2009-03-13F     080819647330124008Animo James B. Taylor Charter Middle                                                                19647330124008Animo James B. Taylor Charter Middle                                                                1287DF       No       No No No No 2014-09-052023-06-092014-08-122022-08-15RFEPSPA01No    YesYesYesNYesNo No No No No No No 50014 0000000191451846C0000000191829087C                                  0033463851002002Animo James B. Taylor Charter Middle                                                                19647330124008Animo James B. Taylor Charter Middle                                                                19647330124008DF1287N          Animo James B. Taylor Charter Middle                                                                19647330124008Animo James B. Taylor Charter Middle                                                                19647330124008DF1287N                                                                                                                                                                                                                                                                                                                                                                                                                                                                                      2023-05-172023-05-172023-05-182023-05-18                                        Animo James B. Taylor Charter Middle                                                                19647330124008Animo James B. Taylor Charter Middle                                                                19647330124008DF1287N2023-05-182023-04-172023-06-162023-04-172023-06-16                                        E2302023-06-162023-07-07                 YV OYNN  Y2023-06-05660Q                                              23810053232824341              017005      No Yes                                                                                                                                                                                                                                                                                                                                                                                                                                                                                                                                                                                                                                                                                                                                                                                                                                                                                                               TDS_TTS_Stim&TDS_TTS_ItemTDS_TTS_Stim&TDS_TTS_Item                                                                            No No                                                                                                                                                                                                                                                                                                                                                                                                                                                                                                                                                                   NEDS_SimpDirsNEDS_SimpDirs                                                                                              Y07        004424141                                                                                                                                         33463851                                                                    ZZ
013453971477Orozco                                            Dayana                                                      2008-11-18F     080819647330129270Animo Mae Jemison Charter Middle                                                                    19647330129270Animo Mae Jemison Charter Middle                                                                    1624DF       No       No No No No                               2022-08-15EO  ENG00No    No YesYesNYesNo No No No No No No 50014 0000000192733120C0000000192864800C                                  0033465887002014Animo Mae Jemison Charter Middle                                                                    19647330129270Animo Mae Jemison Charter Middle                                                                    19647330129270DF1624N          Animo Mae Jemison Charter Middle                                                                    19647330129270Animo Mae Jemison Charter Middle                                                                    19647330129270DF1624N                                                                                                                                                                                                                                                                                                                                                                                                                                                                                      2023-05-242023-05-242023-05-252023-05-25                                        Animo Mae Jemison Charter Middle                                                                    19647330129270Animo Mae Jemison Charter Middle                                                                    19647330129270DF1624N2023-05-252023-04-172023-06-162023-04-172023-06-16                                        E2302023-06-162023-07-11                 YV OYNN  Y2023-06-011215L                                             25880034255426223   EXPL332    022003      No No                                                                                                                                                                                                                                                                                                                                                                                                                                                                                                                                                                                                                                                                                                                                                                                                                                                                                                                                                                                                                                              No No                                                                                                                                                                                                                                                                                                                                                                                                                                                                                                                                                                                                                                                                                           Y07        003325132                                                                                                                                         33465887                                                                    ZZ
015432725618Ruelas                                            Anthony                       Josue                         2009-07-31M     080819647330129270Animo Mae Jemison Charter Middle                                                                    19647330129270Animo Mae Jemison Charter Middle                                                                    1624DF       No       No No No No                               2022-08-15EO  ENG00No    No No No NYesNo No No No No No No 50011 0000000192711819C0000000192863673C                                  0033609318002014Animo Mae Jemison Charter Middle                                                                    19647330129270Animo Mae Jemison Charter Middle                                                                    19647330129270DF1624N          Animo Mae Jemison Charter Middle                                                                    19647330129270Animo Mae Jemison Charter Middle                                                                    19647330129270DF1624N                                                                                                                                                                                                                                                                                                                                                                                                                                                                                      2023-05-242023-05-242023-05-252023-05-25                                        Animo Mae Jemison Charter Middle                                                                    19647330129270Animo Mae Jemison Charter Middle                                                                    19647330129270DF1624N2023-05-252023-04-172023-06-162023-04-172023-06-16                                        E2302023-06-162023-07-11                 YV OYNN  Y2023-06-051135L                                             25510034251725852   NARR112    022003      No No                                                                                                                                                                                                                                                                                                                                                                                                                                                                                                                                                                                                                                                                                                                                                                                                                                                                                                                                                                                                                                              No No                                                                                                                                                                                                                                                                                                                                                                                                                                                                                                                                                                                                                                                                                           Y07        003624421                                                                                                                                         33609318                                                                    ZZ
022434614570Flores                                            Ariana                        Elizabeth                     2009-08-24F     080819647330129270Animo Mae Jemison Charter Middle                                                                    19647330129270Animo Mae Jemison Charter Middle                                                                    1624DF       No       No No No No 2014-09-052023-06-082014-09-022022-08-15RFEPSPA01No    No YesYesNYesNo No No No No No No 50013 0000000191391883C0000000191785780C                                  0033396609002002Animo Mae Jemison Charter Middle                                                                    19647330129270Animo Mae Jemison Charter Middle                                                                    19647330129270DF1624N          Animo Mae Jemison Charter Middle                                                                    19647330129270Animo Mae Jemison Charter Middle                                                                    19647330129270DF1624N                                                                                                                                                                                                                                                                                                                                                                                                                                                                                      2023-05-172023-05-192023-05-182023-05-19                                        Animo Mae Jemison Charter Middle                                                                    19647330129270Animo Mae Jemison Charter Middle                                                                    19647330129270DF1624N2023-05-192023-04-172023-06-162023-04-172023-06-16                                        E2302023-06-162023-07-12                 YV OYNN  Y2023-06-11930Q                                              25050042246325472              017005      No Yes                                                                                                                                                                                                                                                                                                                                                                                                                                                                                                                                                                                                                                                                                                                                                                                                                                                                                                               TDS_TTS_Stim&TDS_TTS_ItemTDS_TTS_Stim&TDS_TTS_Item                                                                            No No                                                                                                                                                                                                                                                                                                                                                                                                                                                                                                                                                                   NEDS_SimpDirsNEDS_SimpDirs                                                                                              Y07        005023751                                                                                                                                         33396609                                                                    ZZ
012381208412Cueto                                             Vanessa M                                                   2008-12-04F     080819647330129270Animo Mae Jemison Charter Middle                                                                    19647330129270Animo Mae Jemison Charter Middle                                                                    1624DF       No       No No No No 2014-09-042017-05-312014-08-122022-08-15RFEPSPA01No    No YesYesNYesNo No No No No No No 50015 0000000192724195C0000000192871781C                                  0033392863002014Animo Mae Jemison Charter Middle                                                                    19647330129270Animo Mae Jemison Charter Middle                                                                    19647330129270DF1624N          Animo Mae Jemison Charter Middle                                                                    19647330129270Animo Mae Jemison Charter Middle                                                                    19647330129270DF1624N                                                                                                                                                                                                                                                                                                                                                                                                                                                                                      2023-05-242023-05-242023-05-252023-05-25                                        Animo Mae Jemison Charter Middle                                                                    19647330129270Animo Mae Jemison Charter Middle                                                                    19647330129270DF1624N2023-05-252023-04-172023-06-162023-04-172023-06-16                                        E2302023-06-162023-07-11                 YV OYNN  Y2023-06-191245L                                             26020034256826363   EXPL221    022003      No No                                                                                                                                                                                                                                                                                                                                                                                                                                                                                                                                                                                                                                                                                                                                                                                                                                                                                                                                                                                                                                              No No                                                                                                                                                                                                                                                                                                                                                                                                                                                                                                                                                                                                                                                                                           Y07        003524581                                                                                                                                         33392863                                                                    ZZ
017631815432Gonzalez                                          Josegael                                                    2009-07-13M     080819647330111518Alliance Jack H. Skirball Middle                                                                    19647330111518Alliance Jack H. Skirball Middle                                                                    0779DF1964733No SLISLIYesYesNo No 2014-09-032019-05-302014-09-152022-08-10RFEPSPA01No    No YesYesNYesNo No No No No No No 50012 0000000191202010C0000000191662782C                                  0038290193002014Alliance Jack H. Skirball Middle                                                                    19647330111518Alliance Jack H. Skirball Middle                                                                    19647330111518DF0779N          Alliance Jack H. Skirball Middle                                                                    19647330111518Alliance Jack H. Skirball Middle                                                                    19647330111518DF0779N                                                                                                                                                                                                                                                                                                                                                                                                                                                                                      2023-05-172023-05-172023-05-182023-05-19                                        Alliance Jack H. Skirball Middle                                                                    19647330111518Alliance Jack H. Skirball Middle                                                                    19647330111518DF0779N2023-05-192023-03-072023-06-162023-03-072023-06-16                                        E2302023-06-152023-07-27                 YV OYNN  Y2023-05-311415L                                             26820036264627184   ARGU332    022003      YesYes                                                                                                                                TDS_TTS_StimTDS_TTS_Stim                                                                                                                                                                                                                                                                                                                                                                                                                                                                                                                                                                                                                                                                                                                                                       TDS_TTS_Item             TDS_TTS_Item                                                                                         No No                                                                                                                                                                                                                                                                                                                                                                                                                                                                                                                                                                   NEDS_SimpDirsNEDS_SimpDirs                                                                                              Y07        003325282                                                                                                                                         38290193                                                                    ZZ
015003291935Ramos                                             Lesly                         Adriana                       2009-01-14F     080819647330129270Animo Mae Jemison Charter Middle                                                                    19647330129270Animo Mae Jemison Charter Middle                                                                    1624DF       No       No No No No 2014-08-222018-06-072014-08-122022-08-15RFEPSPA01No    No YesYesNYesNo No No No No No No 50014 0000000192707623C0000000192861786C                                  0033569470002014Animo Mae Jemison Charter Middle                                                                    19647330129270Animo Mae Jemison Charter Middle                                                                    19647330129270DF1624N          Animo Mae Jemison Charter Middle                                                                    19647330129270Animo Mae Jemison Charter Middle                                                                    19647330129270DF1624N                                                                                                                                                                                                                                                                                                                                                                                                                                                                                      2023-05-242023-05-242023-05-252023-05-25                                        Animo Mae Jemison Charter Middle                                                                    19647330129270Animo Mae Jemison Charter Middle                                                                    19647330129270DF1624N2023-05-252023-04-172023-06-162023-04-172023-06-16                                        E2302023-06-162023-07-12                 YV OYNN  Y2023-06-021275L                                             26160034258226503   ARGU222    022003      No No                                                                                                                                                                                                                                                                                                                                                                                                                                                                                                                                                                                                                                                                                                                                                                                                                                                                                                                                                                                                                                              No No                                                                                                                                                                                                                                                                                                                                                                                                                                                                                                                                                                                                                                                                                           Y07        003426183                                                                                                                                         33569470                                                                    ZZ
011303152996GONZALES IZAGUIRRE                                EDGARDO                       JAFET                         2008-11-25M     080819647330000000Los Angeles Unified                                                                                 19647336057962Charles Drew Middle                                                                                              No       No No No Yes2022-04-18          2022-03-142022-08-15EL  SPA01No    No YesYesNYesNo No No No No No No 50015 0000000185678723C0000000186781004C                                  0033317675002014Los Angeles Unified                                                                                 19647330000000Charles Drew Middle                                                                                 19647336057962      N          Los Angeles Unified                                                                                 19647330000000Charles Drew Middle                                                                                 19647336057962      N                                                                                                                                                                                                                                                                                                                                                                                                                                                                                      2023-05-032023-05-032023-05-052023-05-05                                        Los Angeles Unified                                                                                 19647330000000Charles Drew Middle                                                                                 19647336057962      N2023-05-052023-03-062023-06-092023-03-062023-06-09                                        E2302023-06-092023-06-22                 YV OYNN  Y2023-06-06740L                                              23640048231624121   EXPL000III 022003      No No                                                                                                                                                                                                                                                                                                                                                                                                                                                                                                                                                                                                                                                                                                                                                                                                                                                                                                                                                                                                                                              No No                                                                                                                                                                                                                                                                                                                                                                                                                                                                                                                                                                                                                                                                                           Y07                9NT                                                                                                                                       33317675                                                                    ZZ
019083420886Williams                                          Ty Jahnae                     Marie                         2008-11-30F     080819647330000000Los Angeles Unified                                                                                 19647336058028Samuel Gompers Middle                                                                                            No       No No No No                               2023-03-13EO  ENG00No    No YesYesNNo No No No No YesNo No 60015 0000000191847451C0000000190772213C                                  0038298000002014Los Angeles Unified                                                                                 19647330000000Samuel Gompers Middle                                                                               19647336058028      N          Los Angeles Unified                                                                                 19647330000000Samuel Gompers Middle                                                                               19647336058028      N                                                                                                                                                                                                                                                                                                                                                                                                                                                                                      2023-05-182023-05-232023-05-162023-05-18                                        Los Angeles Unified                                                                                 19647330000000Samuel Gompers Middle                                                                               19647336058028      N2023-05-232023-03-062023-06-092023-03-062023-06-09                                        E2302023-06-092023-06-23                 YV OYNN  Y2023-05-311280L                                             26170034258326513   EXPL332    022003      No No                                                                                                                                                                                                                                                                                                                                                                                                                                                                                                                                                                                                                                                                                                                                                                                                                                                                                                                                                                                                                                              No No                                                                                                                                                                                                                                                                                                                                                                                                                                                                                                                                                                                                                                                                                           Y07        003624411                                                                                                                                         38298000                                                                    ZZ
022381208412Cueto                                             Vanessa M                                                   2008-12-04F     080819647330129270Animo Mae Jemison Charter Middle                                                                    19647330129270Animo Mae Jemison Charter Middle                                                                    1624DF       No       No No No No 2014-09-042017-05-312014-08-122022-08-15RFEPSPA01No    No YesYesNYesNo No No No No No No 50015 0000000191434687C0000000191839758C                                  0033392863002002Animo Mae Jemison Charter Middle                                                                    19647330129270Animo Mae Jemison Charter Middle                                                                    19647330129270DF1624N          Animo Mae Jemison Charter Middle                                                                    19647330129270Animo Mae Jemison Charter Middle                                                                    19647330129270DF1624N                                                                                                                                                                                                                                                                                                                                                                                                                                                                                      2023-05-172023-05-172023-05-182023-05-18                                        Animo Mae Jemison Charter Middle                                                                    19647330129270Animo Mae Jemison Charter Middle                                                                    19647330129270DF1624N2023-05-182023-04-172023-06-162023-04-172023-06-16                                        E2302023-06-162023-07-11                 YV OYNN  Y2023-06-19800Q                                              24440046239824901              017004      No No                                                                                                                                                                                                                                                                                                                                                                                                                                                                                                                                                                                                                                                                                                                                                                                                                                                                                                                                                                                                                                              No No                                                                                                                                                                                                                                                                                                                                                                                                                                                                                                                                                                                                                                                                                           Y07        003924651                                                                                                                                         33392863                                                                    ZZ
013597463596Garcia                                            Josue                                                       2009-01-28M     080819734370000000Compton Unified                                                                                     19734376057558Bunche Middle                                                                                                    No       No No No No                     2014-08-122022-08-18IFEPSPA01No    No YesYesNYesNo No No No No No No 50013 0000000185165641C0000000188401379C                                  0037964971002014Compton Unified                                                                                     19734370000000Bunche Middle                                                                                       19734376057558      N          Compton Unified                                                                                     19734370000000Bunche Middle                                                                                       19734376057558      N                                                                                                                                                                                                                                                                                                                                                                                                                                                                                      2023-05-022023-05-172023-05-092023-05-17                                        Compton Unified                                                                                     19734370000000Bunche Middle                                                                                       19734376057558      N2023-05-172023-03-272023-06-092023-03-272023-06-09                                        E1552023-06-092023-06-13                 YV OYNN  Y2023-06-01805L                                              23950042235324371   NARR222    022003      No Yes                                                                                                                                                                                                                                                                                                                                                                                                                                                                                                                                                                                                                                                                                                                                                                                                                                                                                                               TDS_TTS_Item             TDS_TTS_Item                                                                                         No No                                                                                                                                                                                                                                                                                                                                                                                                                                                                                                                                                                                                                                                                                           Y07        003923971                                                                                                                                         37964971                                                                    ZZ
017424199101Montes                                            Alex                                                        2009-07-28M     080819647330124008Animo James B. Taylor Charter Middle                                                                19647330124008Animo James B. Taylor Charter Middle                                                                1287DF1964733No AUTAUTYesYesNo Yes2014-09-05          2014-08-122022-08-15EL  SPA01No    No YesYesNYesNo No No No No No No 50013 0000000192719363C0000000192864211C                                  0033745104002014Animo James B. Taylor Charter Middle                                                                19647330124008Animo James B. Taylor Charter Middle                                                                19647330124008DF1287N          Animo James B. Taylor Charter Middle                                                                19647330124008Animo James B. Taylor Charter Middle                                                                19647330124008DF1287N                                                                                                                                                                                                                                                                                                                                                                                                                                                                                      2023-05-242023-05-242023-05-252023-05-25                                        Animo James B. Taylor Charter Middle                                                                19647330124008Animo James B. Taylor Charter Middle                                                                19647330124008DF1287N2023-05-252023-04-172023-06-162023-04-172023-06-16                                        E2302023-06-162023-07-03                 YV OYNN  Y2023-06-01775L                                              23810045233624261   ARGU000III 022003      YesYes                                                                                                                                TDS_TTS_StimTDS_TTS_Stim                                                                                                                                                                                                                                                                                                                                                                                                                                                                                                                                                                                                                                                                                                                       TDS_SLM1TDS_SLM1                TDS_TTS_Item             TDS_TTS_Item                                                                                         No No                                                                                                                                                                                                                                                                                                                                                                                                                                                                                                                                       NEDS_SSNEDS_SS              NEDS_SimpDirsNEDS_SimpDirs                                                                                              Y07        003824131                                                                                                                                         33745104                                                                    ZZ
025432950157Mejia                                             Jamile                        Nayeli                        2009-05-06F     080819734370000000Compton Unified                                                                                     19734376012405Tibby Elementary                                                                                                 No       No No No No 2014-09-082017-01-172014-08-122022-08-18RFEPSPA01No    No YesYesNYesNo No No No No No No 50013 0000000188287052C0000000190356262C                                  0037972957002002Compton Unified                                                                                     19734370000000Tibby Elementary                                                                                    19734376012405      N          Compton Unified                                                                                     19734370000000Tibby Elementary                                                                                    19734376012405      N                                                                                                                                                                                                                                                                                                                                                                                                                                                                                      2023-05-092023-05-102023-05-152023-05-16                                        Compton Unified                                                                                     19734370000000Tibby Elementary                                                                                    19734376012405      N2023-05-162023-03-272023-06-092023-03-272023-06-09                                        E1552023-06-092023-06-13                 YV OYNN  Y2023-05-22650Q                                              23750053232224281              017005      No Yes                                                                                                                                                                                                                                                                                                                                                                                                                                                                                                                                                                                                                                                                                                                                                                                                                                                                                                               TDS_TTS_Stim&TDS_TTS_ItemTDS_TTS_Stim&TDS_TTS_Item                                                                            No No                                                                                                                                                                                                                                                                                                                                                                                                                                                                                                                                                                                                                                                                                           Y07        004024581                                                                                                                                         37972957                                                                    ZZ
014711742043Castorena                                         Alexa                                                       2009-05-18F     080819647330129270Animo Mae Jemison Charter Middle                                                                    19647330129270Animo Mae Jemison Charter Middle                                                                    1624DF       No       No No No No 2014-09-042017-01-242014-08-122022-08-15RFEPSPA01No    No YesYesNYesNo No No No No No No 50014 0000000192724238C0000000192871503C                                  0033555680002014Animo Mae Jemison Charter Middle                                                                    19647330129270Animo Mae Jemison Charter Middle                                                                    19647330129270DF1624N          Animo Mae Jemison Charter Middle                                                                    19647330129270Animo Mae Jemison Charter Middle                                                                    19647330129270DF1624N                                                                                                                                                                                                                                                                                                                                                                                                                                                                                      2023-05-242023-06-022023-05-252023-05-26                                        Animo Mae Jemison Charter Middle                                                                    19647330129270Animo Mae Jemison Charter Middle                                                                    19647330129270DF1624N2023-06-022023-04-172023-06-162023-04-172023-06-16                                        E2302023-06-162023-07-11                 YV OYNN  Y2023-06-191160L                                             25610034252725952   EXPL221    022003      No No                                                                                                                                                                                                                                                                                                                                                                                                                                                                                                                                                                                                                                                                                                                                                                                                                                                                                                                                                                                                                                              No No                                                                                                                                                                                                                                                                                                                                                                                                                                                                                                                                                                                                                                                                                           Y07        003326033                                                                                                                                         33555680                                                                    ZZ
026014423013Alejo                                             Erika                         Ruby                          2009-06-13F     080819647330129270Animo Mae Jemison Charter Middle                                                                    19647330129270Animo Mae Jemison Charter Middle                                                                    1624DF       No       No No No Yes2014-09-03          2014-08-122022-08-15EL  SPA01No    No YesYesNYesNo No No No No No No 50014 0000000191418722C0000000191830396C                                  0033641203002002Animo Mae Jemison Charter Middle                                                                    19647330129270Animo Mae Jemison Charter Middle                                                                    19647330129270DF1624N          Animo Mae Jemison Charter Middle                                                                    19647330129270Animo Mae Jemison Charter Middle                                                                    19647330129270DF1624N                                                                                                                                                                                                                                                                                                                                                                                                                                                                                      2023-05-172023-05-172023-05-182023-05-18                                        Animo Mae Jemison Charter Middle                                                                    19647330129270Animo Mae Jemison Charter Middle                                                                    19647330129270DF1624N2023-05-182023-04-172023-06-162023-04-172023-06-16                                        E2302023-06-162023-07-12                 YV OYNN  Y2023-06-02950Q                                              25140041247325552              017005      No Yes                                                                                                                                                                                                                                                                                                                                                                                                                                                                                                                                                                                                                                                                                                                                                                                                                                                                                                               TDS_TTS_Stim&TDS_TTS_ItemTDS_TTS_Stim&TDS_TTS_Item                                                                            No No                                                                                                                                                                                                                                                                                                                                                                                                                                                                                                                                                                   NEDS_SimpDirsNEDS_SimpDirs                                                                                              Y07        004424171                                                                                                                                         33641203                                                                    ZZ
026549197310Williams                                          Jalen                         Dee                           2008-12-02M     080819647330129270Animo Mae Jemison Charter Middle                                                                    19647330129270Animo Mae Jemison Charter Middle                                                                    1624DF       No       No No No No                     2013-08-132022-08-15EO  ENG00No    No YesYesNNo No No No No YesNo No 60013 0000000191405271C0000000191816312C                                  0033680911002002Animo Mae Jemison Charter Middle                                                                    19647330129270Animo Mae Jemison Charter Middle                                                                    19647330129270DF1624N          Animo Mae Jemison Charter Middle                                                                    19647330129270Animo Mae Jemison Charter Middle                                                                    19647330129270DF1624N                                                                                                                                                                                                                                                                                                                                                                                                                                                                                      2023-05-172023-05-172023-05-182023-05-18                                        Animo Mae Jemison Charter Middle                                                                    19647330129270Animo Mae Jemison Charter Middle                                                                    19647330129270DF1624N2023-05-182023-04-172023-06-162023-04-172023-06-16                                        E2302023-06-162023-07-13                 YV OYNN  Y2023-06-021115Q                                             25890034255526233              017006      No No                                                                                                                                                                                                                                                                                                                                                                                                                                                                                                                                                                                                                                                                                                                                                                                                                                                                                                                                                                                                                                              No No                                                                                                                                                                                                                                                                                                                                                                                                                                                                                                                                                                                                                                                                                           Y07        003425252                                                                                                                                         33680911                                                                    ZZ
019679426817Salcido                                           Pedro                         Angel                         2008-12-03M     080819101990132605Valiente College Preparatory Charter                                                                19101990132605Valiente College Preparatory Charter                                                                1744DF       No       No No No No                               2022-08-15EO  ENG00No    No YesYesNYesNo No No No No No No 50012 0000000190047774C0000000190582238C                                  0035069199002014Valiente College Preparatory Charter                                                                19101990132605Valiente College Preparatory Charter                                                                19101990132605DF1744N          Valiente College Preparatory Charter                                                                19101990132605Valiente College Preparatory Charter                                                                19101990132605DF1744N                                                                                                                                                                                                                                                                                                                                                                                                                                                                                      2023-05-152023-05-152023-05-162023-05-16                                        Valiente College Preparatory Charter                                                                19101990132605Valiente College Preparatory Charter                                                                19101990132605DF1744N2023-05-162023-04-192023-07-172023-04-192023-07-17                                        E2302023-06-082023-07-24                 YV OYNN  Y2023-06-14760L                                              23740046232824201   EXPL210    022003      No No                                                                                                                                                                                                                                                                                                                                                                                                                                                                                                                                                                                                                                                                                                                                                                                                                                                                                                                                                                                                                                              No No                                                                                                                                                                                                                                                                                                                                                                                                                                                                                                                                                                                                                                                                                           Y07        003324922                                                                                                                                         35069199                                                                    ZZ
021303152996GONZALES IZAGUIRRE                                EDGARDO                       JAFET                         2008-11-25M     080819647330000000Los Angeles Unified                                                                                 19647336057962Charles Drew Middle                                                                                              No       No No No Yes2022-04-18          2022-03-142022-08-15EL  SPA01No    No YesYesNYesNo No No No No No No 50015 0000000191315567C0000000192045837C                                  0033317675002002Los Angeles Unified                                                                                 19647330000000Charles Drew Middle                                                                                 19647336057962      N          Los Angeles Unified                                                                                 19647330000000Charles Drew Middle                                                                                 19647336057962      N                                                                                                                                                                                                                                                                                                                                                                                                                                                                                      2023-05-172023-05-172023-05-192023-05-19                                        Los Angeles Unified                                                                                 19647330000000Charles Drew Middle                                                                                 19647336057962      N2023-05-192023-03-062023-06-092023-03-062023-06-09                                        E2302023-06-092023-06-22                 YV OYNN  Y2023-06-06410Q                                              22650110226523751              017004      No No                                                                                                                                                                                                                                                                                                                                                                                                                                                                                                                                                                                                                                                                                                                                                                                                                                                                                                                                                                                                                                              No No                                                                                                                                                                                                                                                                                                                                                                                                                                                                                                                                                                                                                                                                                           Y07        004224311                                                                                                                                         33317675                                                                    ZZ
013004109471Garcia Callejas                                   Walner                        Anyelo Ovidio                 2009-02-09M     080819647330124016Animo Legacy Charter Middle                                                                         19647330124016Animo Legacy Charter Middle                                                                         1288DF1964733No HI HI YesYesNo No 2019-09-172022-10-052014-09-202022-08-15RFEPSPA01No    No YesYesNYesNo No No No No No No 50012 0000000190006283C0000000190306236C                                  0033433051002014Animo Legacy Charter Middle                                                                         19647330124016Animo Legacy Charter Middle                                                                         19647330124016DF1288N          Animo Legacy Charter Middle                                                                         19647330124016Animo Legacy Charter Middle                                                                         19647330124016DF1288N                                                                                                                                                                                                                                                                                                                                                                                                                                                                                      2023-05-152023-05-152023-05-152023-05-16                                        Animo Legacy Charter Middle                                                                         19647330124016Animo Legacy Charter Middle                                                                         19647330124016DF1288N2023-05-162023-04-172023-06-162023-04-172023-06-16                                        E2302023-06-162023-07-13                 YV OYNN  Y2023-06-01980L                                              24780035244325131   ARGU221    022003      No No                                                                                                                                                                                                                                                                                                                                                                                                                                                                                                                                                                                                                                                                                                                                                                                                                                                                                                                                                                                                                                              No No                                                                                                                                                                                                                                                                                                                                                                                                                                                                                                                                                                                                                                                                                           Y07        003524641                                                                                                                                         33433051                                                                    ZZ
026245807286GUTIERREZ                                         DENISE                        AILEEN                        2009-09-30F     080819647330000000Los Angeles Unified                                                                                 19647336066294Glenn Hammond Curtiss Middle                                                                                     No       No No No No 2014-09-042019-06-062014-08-122022-08-15RFEPSPA01No    No YesYesNYesNo No No No No No No 50013 0000000190157850C0000000190788024C                                  0033658231002002Los Angeles Unified                                                                                 19647330000000Glenn Hammond Curtiss Middle                                                                        19647336066294      N          Los Angeles Unified                                                                                 19647330000000Glenn Hammond Curtiss Middle                                                                        19647336066294      N                                                                                                                                                                                                                                                                                                                                                                                                                                                                                      2023-05-152023-05-152023-05-162023-05-16                                        Los Angeles Unified                                                                                 19647330000000Glenn Hammond Curtiss Middle                                                                        19647336066294      N2023-05-162023-03-062023-06-092023-03-062023-06-09                                        E2302023-06-092023-06-23                 YV OYNN  Y2023-05-301095Q                                             25800035254526152              017005      No No                                                                                                                                                                                                                                                                                                                                                                                                                                                                                                                                                                                                                                                                                                                                                                                                                                                                                                                                                                                                                                              No No                                                                                                                                                                                                                                                                                                                                                                                                                                                                                                                                                                                                                                                                                           Y07        003125642                                                                                                                                         33658231                                                                    ZZ
023597463596Garcia                                            Josue                                                       2009-01-28M     080819734370000000Compton Unified                                                                                     19734376057558Bunche Middle                                                                                                    No       No No No No                     2014-08-122022-08-18IFEPSPA01No    No YesYesNYesNo No No No No No No 50013 0000000191602232C0000000192373605C                                  0037964971002002Compton Unified                                                                                     19734370000000Bunche Middle                                                                                       19734376057558      N          Compton Unified                                                                                     19734370000000Bunche Middle                                                                                       19734376057558      N                                                                                                                                                                                                                                                                                                                                                                                                                                                                                      2023-05-172023-05-192023-05-222023-05-24                                        Compton Unified                                                                                     19734370000000Bunche Middle                                                                                       19734376057558      N2023-05-242023-03-272023-06-092023-03-272023-06-09                                        E1552023-06-092023-06-13                 YV OYNN  Y2023-06-01905Q                                              24940043245125371              017005      No Yes                                                                                                                                                                                                                                                                                                                                                                                                                                                                                                                                                                                                                                                                                                                                                                                                                                                                                                               TDS_TTS_Stim&TDS_TTS_ItemTDS_TTS_Stim&TDS_TTS_Item                                                                            No No                                                                                                                                                                                                                                                                                                                                                                                                                                                                                                                                                                                                                                                                                           Y07        003824771                                                                                                                                         37964971                                                                    ZZ
025003291935Ramos                                             Lesly                         Adriana                       2009-01-14F     080819647330129270Animo Mae Jemison Charter Middle                                                                    19647330129270Animo Mae Jemison Charter Middle                                                                    1624DF       No       No No No No 2014-08-222018-06-072014-08-122022-08-15RFEPSPA01No    No YesYesNYesNo No No No No No No 50014 0000000191399850C0000000191816722C                                  0033569470002002Animo Mae Jemison Charter Middle                                                                    19647330129270Animo Mae Jemison Charter Middle                                                                    19647330129270DF1624N          Animo Mae Jemison Charter Middle                                                                    19647330129270Animo Mae Jemison Charter Middle                                                                    19647330129270DF1624N                                                                                                                                                                                                                                                                                                                                                                                                                                                                                      2023-05-172023-05-172023-05-182023-05-18                                        Animo Mae Jemison Charter Middle                                                                    19647330129270Animo Mae Jemison Charter Middle                                                                    19647330129270DF1624N2023-05-182023-04-172023-06-162023-04-172023-06-16                                        E2302023-06-162023-07-12                 YV OYNN  Y2023-06-021235Q                                             26440029261526733              017004      No No                                                                                                                                                                                                                                                                                                                                                                                                                                                                                                                                                                                                                                                                                                                                                                                                                                                                                                                                                                                                                                              No No                                                                                                                                                                                                                                                                                                                                                                                                                                                                                                                                                                                                                                                                                           Y07        002826253                                                                                                                                         33569470                                                                    ZZ
027325944229Furman                                            Kenneth                                                     2009-06-28M     080819647330124016Animo Legacy Charter Middle                                                                         19647330124016Animo Legacy Charter Middle                                                                         1288DF       No       No No No No                               2022-12-13EO  ENG00No    No YesYesNYesNo No No No No No No 50013 0000000191240872C0000000191706787C                                  0033733905002002Animo Legacy Charter Middle                                                                         19647330124016Animo Legacy Charter Middle                                                                         19647330124016DF1288N          Animo Legacy Charter Middle                                                                         19647330124016Animo Legacy Charter Middle                                                                         19647330124016DF1288N                                                                                                                                                                                                                                                                                                                                                                                                                                                                                      2023-05-172023-05-172023-05-182023-05-18                                        Animo Legacy Charter Middle                                                                         19647330124016Animo Legacy Charter Middle                                                                         19647330124016DF1288N2023-05-182023-04-172023-06-162023-04-172023-06-16                                        E2302023-06-162023-07-15                 YV OYNN  Y2023-06-01630Q                                              23670055231224221              017005      No No                                                                                                                                                                                                                                                                                                                                                                                                                                                                                                                                                                                                                                                                                                                                                                                                                                                                                                                                                                                                                                              No No                                                                                                                                                                                                                                                                                                                                                                                                                                                                                                                                                                                                                                                                                           Y07        007222941                                                                                                                                         33733905                                                                    ZZ
017325944229Furman                                            Kenneth                                                     2009-06-28M     080819647330124016Animo Legacy Charter Middle                                                                         19647330124016Animo Legacy Charter Middle                                                                         1288DF       No       No No No No                               2022-12-13EO  ENG00No    No YesYesNYesNo No No No No No No 50013 0000000190031585C0000000190585245C                                  0033733905002014Animo Legacy Charter Middle                                                                         19647330124016Animo Legacy Charter Middle                                                                         19647330124016DF1288N          Animo Legacy Charter Middle                                                                         19647330124016Animo Legacy Charter Middle                                                                         19647330124016DF1288N                                                                                                                                                                                                                                                                                                                                                                                                                                                                                      2023-05-152023-05-162023-05-162023-05-16                                        Animo Legacy Charter Middle                                                                         19647330124016Animo Legacy Charter Middle                                                                         19647330124016DF1288N2023-05-162023-04-172023-06-162023-04-172023-06-16                                        E2302023-06-162023-07-15                 YV OYNN  Y2023-06-011060L                                             25150034248125492   ARGU221    022003      No No                                                                                                                                                                                                                                                                                                                                                                                                                                                                                                                                                                                                                                                                                                                                                                                                                                                                                                                                                                                                                                              No No                                                                                                                                                                                                                                                                                                                                                                                                                                                                                                                                                                                                                                                                                           Y07        003325042                                                                                                                                         33733905                                                                    ZZ
