019033442918LOPEZ                                             OMAR                          ANTONIO                       2008-10-03M     080819647330000000Los Angeles Unified                                                                                 19647336058127Marina del Rey Middle                                                                                            No       No No No No 2013-09-032016-06-102013-08-132022-08-15RFEPSPA01No    No YesYesNYesNo No No No No No No 50013 0000000190456664C0000000183594715C                                  0033846885002014Los Angeles Unified                                                                                 19647330000000Marina del Rey Middle                                                                               19647336058127      N          Los Angeles Unified                                                                                 19647330000000Marina del Rey Middle                                                                               19647336058127      N                                                                                                                                                                                                                                                                                                                                                                                                                                                                                      2023-05-152023-05-152023-04-282023-04-28                                        Los Angeles Unified                                                                                 19647330000000Marina del Rey Middle                                                                               19647336058127      N2023-05-152023-03-062023-06-092023-03-062023-06-09                                        E2302023-06-122023-06-22                 YV OYNN  Y2023-05-221075L                                             25210034248725552   EXPL111    022003      No No                                                                                                                                                                                                                                                                                                                                                                                                                                                                                                                                                                                                                                                                                                                                                                                                                                                                                                                                                                                                                                              No No                                                                                                                                                                                                                                                                                                                                                                                                                                                                                                                                                                                                                                                                                           Y07        003225462                                                                                                                                         33846885                                                                    ZZ
029033442918LOPEZ                                             OMAR                          ANTONIO                       2008-10-03M     080819647330000000Los Angeles Unified                                                                                 19647336058127Marina del Rey Middle                                                                                            No       No No No No 2013-09-032016-06-102013-08-132022-08-15RFEPSPA01No    No YesYesNYesNo No No No No No No 50013 0000000184262899C0000000189688020C                                  0033846885002002Los Angeles Unified                                                                                 19647330000000Marina del Rey Middle                                                                               19647336058127      N          Los Angeles Unified                                                                                 19647330000000Marina del Rey Middle                                                                               19647336058127      N                                                                                                                                                                                                                                                                                                                                                                                                                                                                                      2023-05-012023-05-012023-05-112023-05-11                                        Los Angeles Unified                                                                                 19647330000000Marina del Rey Middle                                                                               19647336058127      N2023-05-112023-03-062023-06-092023-03-062023-06-09                                        E2302023-06-122023-06-22                 YV OYNN  Y2023-05-22835Q                                              24610045241625061              017005      No No                                                                                                                                                                                                                                                                                                                                                                                                                                                                                                                                                                                                                                                                                                                                                                                                                                                                                                                                                                                                                                              No No                                                                                                                                                                                                                                                                                                                                                                                                                                                                                                                                                                                                                                                                                           Y07        004324241                                                                                                                                         33846885                                                                    ZZ
017131940784Waters                                            Ezekiel                       Maximus                       2009-12-22M     080819644440000000Culver City Unified                                                                                 19644446057608Culver City Middle                                                                                               No       No No No No                     2015-08-182022-09-08EO  ENG00No    No No No NNo No No No No No YesNo 70012 0000000182059669C0000000183266844C                                  0038296582002014Culver City Unified                                                                                 19644440000000Culver City Middle                                                                                  19644446057608      N          Culver City Unified                                                                                 19644440000000Culver City Middle                                                                                  19644446057608      N                                                                                                                                                                                                                                                                                                                                                                                                                                                                                      2023-04-252023-04-272023-04-272023-04-27                                        Culver City Unified                                                                                 19644440000000Culver City Middle                                                                                  19644446057608      N2023-04-272023-02-282023-06-092023-02-282023-06-09                                        E2302023-06-092023-06-13                 YV OYNN  Y2023-05-141500L                                             27220039268327614   ARGU222    022003      No No                                                                                                                                                                                                                                                                                                                                                                                                                                                                                                                                                                                                                                                                                                                                                                                                                                                                                                                                                                                                                                              No No                                                                                                                                                                                                                                                                                                                                                                                                                                                                                                                                                                                                                                                                                           Y07        003526463                                                                                                                                         38296582                                                                    ZZ
026608575214Casillas Rojas                                    Odalys                                                      2009-01-14F     080819647330115287ICEF Vista Middle Academy                                                                           19647330115287ICEF Vista Middle Academy                                                                           0953DF       No       No No No Yes2014-08-11          2014-08-112022-08-15EL  SPA01No    No YesYesNYesNo No No No No No No 50014 0000000190641914C0000000192879538C                                  0035776278002002ICEF Vista Middle Academy                                                                           19647330115287ICEF Vista Middle Academy                                                                           19647330115287DF0953N          ICEF Vista Middle Academy                                                                           19647330115287ICEF Vista Middle Academy                                                                           19647330115287DF0953N                                                                                                                                                                                                                                                                                                                                                                                                                                                                                      2023-05-162023-05-252023-05-252023-05-30                                        ICEF Vista Middle Academy                                                                           19647330115287ICEF Vista Middle Academy                                                                           19647330115287DF0953N2023-05-302023-03-032023-06-092023-03-032023-06-09                                        E2302023-06-092023-06-30                 YV OYNN  Y2023-06-05915Q                                              24980042245625401              017004      No No                                                                                                                                                                                                                                                                                                                                                                                                                                                                                                                                                                                                                                                                                                                                                                                                                                                                                                                                                                                                                                              No No                                                                                                                                                                                                                                                                                                                                                                                                                                                                                                                                                                                                                                                                                           Y07        003924611                                                                                                                                         35776278                                                                    ZZ
027131940784Waters                                            Ezekiel                       Maximus                       2009-12-22M     080819644440000000Culver City Unified                                                                                 19644446057608Culver City Middle                                                                                               No       No No No No                     2015-08-182022-09-08EO  ENG00No    No No No NNo No No No No No YesNo 70012 0000000183377605C0000000184597429C                                  0038296582002002Culver City Unified                                                                                 19644440000000Culver City Middle                                                                                  19644446057608      N          Culver City Unified                                                                                 19644440000000Culver City Middle                                                                                  19644446057608      N                                                                                                                                                                                                                                                                                                                                                                                                                                                                                      2023-04-282023-05-042023-05-022023-05-02                                        Culver City Unified                                                                                 19644440000000Culver City Middle                                                                                  19644446057608      N2023-05-042023-02-282023-06-092023-02-282023-06-09                                        E2302023-06-092023-06-13                 YV OYNN  Y2023-05-141370Q                                             27060028267827344              017005      No No                                                                                                                                                                                                                                                                                                                                                                                                                                                                                                                                                                                                                                                                                                                                                                                                                                                                                                                                                                                                                                              No No                                                                                                                                                                                                                                                                                                                                                                                                                                                                                                                                                                                                                                                                                           Y07        002726814                                                                                                                                         38296582                                                                    ZZ
028077679987Chavez                                            Carlos                        Alexander                     2008-08-01M     080819647330115287ICEF Vista Middle Academy                                                                           19647330115287ICEF Vista Middle Academy                                                                           0953DF       No       No No No No                               2022-08-15EO  ENG00No    No YesYesNYesNo No No No No No No 50012 0000000190650503C0000000193092004C                                  0035819117002002ICEF Vista Middle Academy                                                                           19647330115287ICEF Vista Middle Academy                                                                           19647330115287DF0953N          ICEF Vista Middle Academy                                                                           19647330115287ICEF Vista Middle Academy                                                                           19647330115287DF0953N                                                                                                                                                                                                                                                                                                                                                                                                                                                                                      2023-05-162023-06-012023-06-012023-06-05                                        ICEF Vista Middle Academy                                                                           19647330115287ICEF Vista Middle Academy                                                                           19647330115287DF0953N2023-06-052023-03-032023-06-092023-03-032023-06-09                                        E2302023-06-092023-06-30                 YV OYNN  Y2023-06-11640Q                                              23700054231624241              017005      No No                                                                                                                                                                                                                                                                                                                                                                                                                                                                                                                                                                                                                                                                                                                                                                                                                                                                                                                                                                                                                                              No No                                                                                                                                                                                                                                                                                                                                                                                                                                                                                                                                                                                                                                                                                           Y07        004224341                                                                                                                                         35819117                                                                    ZZ
016608575214Casillas Rojas                                    Odalys                                                      2009-01-14F     080819647330115287ICEF Vista Middle Academy                                                                           19647330115287ICEF Vista Middle Academy                                                                           0953DF       No       No No No Yes2014-08-11          2014-08-112022-08-15EL  SPA01No    No YesYesNYesNo No No No No No No 50014 0000000190702717C0000000191854971C                                  0035776278002014ICEF Vista Middle Academy                                                                           19647330115287ICEF Vista Middle Academy                                                                           19647330115287DF0953N          ICEF Vista Middle Academy                                                                           19647330115287ICEF Vista Middle Academy                                                                           19647330115287DF0953N                                                                                                                                                                                                                                                                                                                                                                                                                                                                                      2023-05-162023-05-182023-05-182023-05-22                                        ICEF Vista Middle Academy                                                                           19647330115287ICEF Vista Middle Academy                                                                           19647330115287DF0953N2023-05-222023-03-032023-06-092023-03-032023-06-09                                        E2302023-06-092023-06-30                 YV OYNN  Y2023-06-051105L                                             25360034250225702   ARGU332    022003      No No                                                                                                                                                                                                                                                                                                                                                                                                                                                                                                                                                                                                                                                                                                                                                                                                                                                                                                                                                                                                                                              No No                                                                                                                                                                                                                                                                                                                                                                                                                                                                                                                                                                                                                                                                                           Y07        003325643                                                                                                                                         35776278                                                                    ZZ
018077679987Chavez                                            Carlos                        Alexander                     2008-08-01M     080819647330115287ICEF Vista Middle Academy                                                                           19647330115287ICEF Vista Middle Academy                                                                           0953DF       No       No No No No                               2022-08-15EO  ENG00No    No YesYesNYesNo No No No No No No 50012 0000000190709201C0000000192029364C                                  0035819117002014ICEF Vista Middle Academy                                                                           19647330115287ICEF Vista Middle Academy                                                                           19647330115287DF0953N          ICEF Vista Middle Academy                                                                           19647330115287ICEF Vista Middle Academy                                                                           19647330115287DF0953N                                                                                                                                                                                                                                                                                                                                                                                                                                                                                      2023-05-162023-05-222023-05-192023-05-30                                        ICEF Vista Middle Academy                                                                           19647330115287ICEF Vista Middle Academy                                                                           19647330115287DF0953N2023-05-302023-03-032023-06-092023-03-032023-06-09                                        E2302023-06-092023-06-30                 YV OYNN  Y2023-06-11975L                                              24760035244125111   NARR221    022003      No No                                                                                                                                                                                                                                                                                                                                                                                                                                                                                                                                                                                                                                                                                                                                                                                                                                                                                                                                                                                                                                              No No                                                                                                                                                                                                                                                                                                                                                                                                                                                                                                                                                                                                                                                                                           Y07        003524581                                                                                                                                         35819117                                                                    ZZ
022203051926DE LA CRUZ                                        NICHOLAS                      VICTOR                        2009-08-17M     080819646340000000Inglewood Unified                                                                                   19646346014518La Tijera K-8 Academy of Excellence Charter                                                         1591LF       No       No No No No                     2014-08-012022-08-22EO  ENG00No    No YesYesNYesNo No No No No No No 50013 0000000187365657C                                                   0035206881002002Inglewood Unified                                                                                   19646340000000La Tijera K-8 Academy of Excellence Charter                                                         19646346014518LF1591N          Inglewood Unified                                                                                   19646340000000La Tijera K-8 Academy of Excellence Charter                                                         19646346014518LF1591N                                                                                                                                                                                                                                                                                                                                                                                                                                                                                      2023-05-082023-05-19                                                            Inglewood Unified                                                                                   19646340000000La Tijera K-8 Academy of Excellence Charter                                                         19646346014518LF1591N2023-05-192023-04-172023-06-082023-04-172023-06-08                                        E2302023-06-082023-06-19             NT  NV ONN   Y2023-06-28                                                                  9              017000      No No                                                                                                                                                                                                                                                                                                                                                                                                                                                                                                                                                                                                                                                                                                                                                                                                                                                                                                                                                                                                                                              No                                                                                                                                                                                                                                                                                                                                                                                                                                                                                                                                                                                                                                                                                              Y07        004923781                           Y06        004823631                                                                                          35206881                                                                    ZZ
012203051926DE LA CRUZ                                        NICHOLAS                      VICTOR                        2009-08-17M     080819646340000000Inglewood Unified                                                                                   19646346014518La Tijera K-8 Academy of Excellence Charter                                                         1591LF       No       No No No No                     2014-08-012022-08-22EO  ENG00No    No YesYesNYesNo No No No No No No 50013 0000000183539186C0000000181981182C                                  0035206881002014Inglewood Unified                                                                                   19646340000000La Tijera K-8 Academy of Excellence Charter                                                         19646346014518LF1591N          Inglewood Unified                                                                                   19646340000000La Tijera K-8 Academy of Excellence Charter                                                         19646346014518LF1591N                                                                                                                                                                                                                                                                                                                                                                                                                                                                                      2023-04-282023-04-282023-04-252023-04-28                                        Inglewood Unified                                                                                   19646340000000La Tijera K-8 Academy of Excellence Charter                                                         19646346014518LF1591N2023-04-282023-04-172023-06-082023-04-172023-06-08                                        E2302023-06-082023-06-19                 YV OYNN  Y2023-06-28740L                                              23640048231624121   EXPL000III 022003      No No                                                                                                                                                                                                                                                                                                                                                                                                                                                                                                                                                                                                                                                                                                                                                                                                                                                                                                                                                                                                                                              No No                                                                                                                                                                                                                                                                                                                                                                                                                                                                                                                                                                                                                                                                                           Y07        003824161                           Y06        003424231                                                                                          35206881                                                                    ZZ
026035566770Deloera                                           Julianna                      Emery                         2006-01-16F     111119647330106831Animo Venice Charter High                                                                           19647330106831Animo Venice Charter High                                                                           0648DF       No       No No No No                     2011-09-072022-08-15EO  ENG00No    No No No NYesNo No No No No No No 50013 0000000192251988C0000000192460537C                                  0033642647003002Animo Venice Charter High                                                                           19647330106831Animo Venice Charter High                                                                           19647330106831DF0648N          Animo Venice Charter High                                                                           19647330106831Animo Venice Charter High                                                                           19647330106831DF0648N                                                                                                                                                                                                                                                                                                                                                                                                                                                                                      2023-05-222023-05-222023-05-232023-05-23                                        Animo Venice Charter High                                                                           19647330106831Animo Venice Charter High                                                                           19647330106831DF0648N2023-05-232023-04-172023-06-162023-04-172023-06-16                                        E1552023-06-162023-07-10                 YV OYNN  Y2023-06-02960Q                                              24800050243025301             1018005      No No                                                                                                                                                                                                                                                                                                                                                                                                                                                                                                                                                                                                                                                                                                                                                                                                                                                                                                                                                                                                                                              No No                                                                                                                                                                                                                                                                                                                                                                                                                                                                                                                                                                                                                                                                                                                                                                                                                                                        33642647                                                                    ZZ
013798402682Mendoza                                           Jenifer                                                     2006-10-21F     111119647330106831Animo Venice Charter High                                                                           19647330106831Animo Venice Charter High                                                                           0648DF       No       No No No Yes2010-08-30          2011-10-212022-08-15EL  SPA01No    No YesYesNYesNo No No No No No No 50014 0000000192758003C0000000192883647C                                  0033492402003014Animo Venice Charter High                                                                           19647330106831Animo Venice Charter High                                                                           19647330106831DF0648N          Animo Venice Charter High                                                                           19647330106831Animo Venice Charter High                                                                           19647330106831DF0648N                                                                                                                                                                                                                                                                                                                                                                                                                                                                                      2023-05-242023-05-242023-05-252023-05-25                                        Animo Venice Charter High                                                                           19647330106831Animo Venice Charter High                                                                           19647330106831DF0648N2023-05-252023-04-172023-06-162023-04-172023-06-16                                        E1552023-06-162023-07-12                 YV OYNN  Y2023-06-05865L                                              24020049235324511   ARGU000III1022003      No Yes                                                                                                                                                                                                                                                                                                                                                                                                                                                                                                                                                                                                                                                                                                                                                                                                                                                                                                               TDS_TTS_Item             TDS_TTS_Item                                                                                         No No                                                                                                          NEDS_BD                                                                                                                                                                                                                                                                                                                                                                                                                                                  NEDS_SimpDirsNEDS_SimpDirs                          NEDS_TransDirs NEDS_TransDirs                                                                                                                                                                                                    33492402                                                                    ZZ
026330391468GOMEZ                                             MARYBETHANY                                                 2009-08-02F     080819647330000000Los Angeles Unified                                                                                 19647336058127Marina del Rey Middle                                                                                            No       No No No No                     2014-08-122022-08-15EO  ENG00No    No YesYesNYesNo No No No No No No 50012 0000000186794943C0000000189688008C                                  0035274910002002Los Angeles Unified                                                                                 19647330000000Marina del Rey Middle                                                                               19647336058127      N          Los Angeles Unified                                                                                 19647330000000Marina del Rey Middle                                                                               19647336058127      N                                                                                                                                                                                                                                                                                                                                                                                                                                                                                      2023-05-052023-05-052023-05-112023-05-11                                        Los Angeles Unified                                                                                 19647330000000Marina del Rey Middle                                                                               19647336058127      N2023-05-112023-03-062023-06-092023-03-062023-06-09                                        E2302023-06-122023-06-22                 YV OYNN  Y2023-05-30705Q                                              24010050235124511              017006      No No                                                                                                                                                                                                                                                                                                                                                                                                                                                                                                                                                                                                                                                                                                                                                                                                                                                                                                                                                                                                                                              No No                                                                                                                                                                                                                                                                                                                                                                                                                                                                                                                                                                                                                                                                                           Y07        004524081                                                                                                                                         35274910                                                                    ZZ
016330391468GOMEZ                                             MARYBETHANY                                                 2009-08-02F     080819647330000000Los Angeles Unified                                                                                 19647336058127Marina del Rey Middle                                                                                            No       No No No No                     2014-08-122022-08-15EO  ENG00No    No YesYesNYesNo No No No No No No 50012 0000000190452464C0000000183595589C                                  0035274910002014Los Angeles Unified                                                                                 19647330000000Marina del Rey Middle                                                                               19647336058127      N          Los Angeles Unified                                                                                 19647330000000Marina del Rey Middle                                                                               19647336058127      N                                                                                                                                                                                                                                                                                                                                                                                                                                                                                      2023-05-152023-05-152023-04-282023-05-19                                        Los Angeles Unified                                                                                 19647330000000Marina del Rey Middle                                                                               19647336058127      N2023-05-192023-03-062023-06-092023-03-062023-06-09                                        E2302023-06-122023-06-22                 YV OYNN  Y2023-05-30850L                                              24170040237724571   ARGU110    022003      No No                                                                                                                                                                                                                                                                                                                                                                                                                                                                                                                                                                                                                                                                                                                                                                                                                                                                                                                                                                                                                                              No No                                                                                                                                                                                                                                                                                                                                                                                                                                                                                                                                                                                                                                                                                           Y07        004123811                                                                                                                                         35274910                                                                    ZZ
021048121638Parada-Melgar                                     Hillary                       Emily                         2009-02-20F     080819644510000000Downey Unified                                                                                      19644516057640Stauffer (Mary R.) Middle                                                                                        No       No No No No                     2015-08-012022-08-15EO  ENG00No    No YesYesNYesNo No No No No No No 50010                                                                     0037095787002002Downey Unified                                                                                      19644510000000Stauffer (Mary R.) Middle                                                                           19644516057640      N          Downey Unified                                                                                      19644510000000Stauffer (Mary R.) Middle                                                                           19644516057640      N                                                                                                                                                                                                                                                                                                                                                                                                                                                                                                                                                                      Downey Unified                                                                                      19644510000000Stauffer (Mary R.) Middle                                                                           19644516057640      N          2023-03-022023-06-072023-03-022023-06-07                                        E2302023-06-072023-07-28             PGE N  ON    N                                                                                                                                                                                                                                                                                                                                                                                                                                                                                                                                                                                                                                                                                                                                                                                                                                                                                                                                                                                                                                                                                                                                                                                                                                                                                                                                                                                                                                                                                                                                                                                                                                                                                                                                                                                                                                                          Y07        003924731                                                                                                                                         37095787                                                                    ZZ
025517802833Garner                                            Kia'Juan                      Darnell                       2009-01-29M     080819734370132845Today's Fresh Start-Compton                                                                         19734370132845Today's Fresh Start-Compton                                                                         1772DF0132845No SLDSLDYesYesNo No                     2014-08-192022-09-06EO  ENG00No    No YesYesNNo No No No No YesNo No 60012 0000000190195402C0000000192237835C                                  0037689219002002Today's Fresh Start-Compton                                                                         19734370132845Today's Fresh Start-Compton                                                                         19734370132845DF1772N          Today's Fresh Start-Compton                                                                         19734370132845Today's Fresh Start-Compton                                                                         19734370132845DF1772N                                                                                                                                                                                                                                                                                                                                                                                                                                                                                      2023-05-152023-05-152023-05-222023-05-22                                        Today's Fresh Start-Compton                                                                         19734370132845Today's Fresh Start-Compton                                                                         19734370132845DF1772N2023-05-222023-04-032023-06-232023-04-032023-06-23                                        T1602023-06-232023-07-13                 YV OYNN  Y2023-06-01655Q                                              23790053232624321              017005      YesYes                                                                                                                                                                                                                                                                                                           NEA_CalcNEA_Calc                                                                                                                                                                                                                                                                                                                                                                                                              TDS_MP_Black_L  TDS_MP_Black_L                                                              TDS_PS_L1TDS_PS_L1                                                        TDS_TTS_Stim&TDS_TTS_ItemTDS_TTS_Stim&TDS_TTS_Item                                                                            No No                                                                                                                                                                                                                                                                                                                                                                                                                                                                                                                                       NEDS_SSNEDS_SS              NEDS_SimpDirsNEDS_SimpDirs                                                                                              Y07        005623491                           Y06        008522421                                                                                          37689219                                                                    ZZ
063798402682Mendoza                                           Jenifer                                                     2006-10-21F     111119647330106831Animo Venice Charter High                                                                           19647330106831Animo Venice Charter High                                                                           0648DF       No       No No No Yes2010-08-30          2011-10-212022-08-15EL  SPA01No    No YesYesNYesNo No No No No No No 50014 0000000191473886C                                                   0033492402009003Animo Venice Charter High                                                                           19647330106831Animo Venice Charter High                                                                           19647330106831DF0648N                                                                                                                                                                                                                                                                                                                                                                                                                                                                                                                                                                                                                                                                                                                                           2023-05-172023-05-25                                                            Animo Venice Charter High                                                                           19647330106831Animo Venice Charter High                                                                           19647330106831DF0648N2023-05-252023-04-172023-06-16                                                            E1552023-06-162023-07-12            1    YV OYN   Y2023-06-01                                                  581             2111           049         No Yes                                                                                                                                                                                                                                                                                                                                                                                                                                                                                                                                                                                                                                                                                                                                                                                                                                                                                                                                                                 TDS_WL_ESNGlossary                                                          No                                                                                                                                                                                                                                                                                                                                                                                                                                                                         NEDS_SciChart                                                                                NEDS_SimpDirs                                       NEDS_TransDirs                                                                                                                                                                                                                   33492402                                                                    ZZ
016035566770Deloera                                           Julianna                      Emery                         2006-01-16F     111119647330106831Animo Venice Charter High                                                                           19647330106831Animo Venice Charter High                                                                           0648DF       No       No No No No                     2011-09-072022-08-15EO  ENG00No    No No No NYesNo No No No No No No 50013 0000000192749769C0000000192850934C                                  0033642647003014Animo Venice Charter High                                                                           19647330106831Animo Venice Charter High                                                                           19647330106831DF0648N          Animo Venice Charter High                                                                           19647330106831Animo Venice Charter High                                                                           19647330106831DF0648N                                                                                                                                                                                                                                                                                                                                                                                                                                                                                      2023-05-242023-05-242023-05-252023-05-25                                        Animo Venice Charter High                                                                           19647330106831Animo Venice Charter High                                                                           19647330106831DF0648N2023-05-252023-04-172023-06-162023-04-172023-06-16                                        E1552023-06-162023-07-10                 YV OYNN  Y2023-06-021155L                                             25480037251125852   ARGU222   1022003      No No                                                                                                                                                                                                                                                                                                                                                                                                                                                                                                                                                                                                                                                                                                                                                                                                                                                                                                                                                                                                                                              No No                                                                                                                                                                                                                                                                                                                                                                                                                                                                                                                                                                                                                                                                                                                                                                                                                                                        33642647                                                                    ZZ
023551650773Lopez                                             Mariah                        Briana                        2006-05-02F     111119647330106831Animo Venice Charter High                                                                           19647330106831Animo Venice Charter High                                                                           0648DF       No       No No No No                     2010-09-012022-08-15EO  ENG00No    No YesYesNYesNo No No No No No No 50013 0000000192236078C0000000192486503C                                  0033471889003002Animo Venice Charter High                                                                           19647330106831Animo Venice Charter High                                                                           19647330106831DF0648N          Animo Venice Charter High                                                                           19647330106831Animo Venice Charter High                                                                           19647330106831DF0648N                                                                                                                                                                                                                                                                                                                                                                                                                                                                                      2023-05-222023-05-222023-05-232023-05-23                                        Animo Venice Charter High                                                                           19647330106831Animo Venice Charter High                                                                           19647330106831DF0648N2023-05-232023-04-172023-06-162023-04-172023-06-16                                        E1552023-06-162023-07-11                 YV OYNN  Y2023-06-061055Q                                             25320043248925751             2018005      No No                                                                                                                                                                                                                                                                                                                                                                                                                                                                                                                                                                                                                                                                                                                                                                                                                                                                                                                                                                                                                                              No No                                                                                                                                                                                                                                                                                                                                                                                                                                                                                                                                                                                                                                                                                                                                                                                                                                                        33471889                                                                    ZZ
063551650773Lopez                                             Mariah                        Briana                        2006-05-02F     111119647330106831Animo Venice Charter High                                                                           19647330106831Animo Venice Charter High                                                                           0648DF       No       No No No No                     2010-09-012022-08-15EO  ENG00No    No YesYesNYesNo No No No No No No 50013 0000000191602549C                                                   0033471889009003Animo Venice Charter High                                                                           19647330106831Animo Venice Charter High                                                                           19647330106831DF0648N                                                                                                                                                                                                                                                                                                                                                                                                                                                                                                                                                                                                                                                                                                                                           2023-05-172023-05-19                                                            Animo Venice Charter High                                                                           19647330106831Animo Venice Charter High                                                                           19647330106831DF0648N2023-05-192023-04-172023-06-16                                                            E1552023-06-162023-07-11            2    YV OYN   Y2023-05-22                                                  579             2111           049         No No                                                                                                                                                                                                                                                                                                                                                                                                                                                                                                                                                                                                                                                                                                                                                                                                                                                                                                                                                                                                                                              No                                                                                                                                                                                                                                                                                                                                                                                                                                                                                                                                                                                                                                                                                                                                                                                                                                                           33471889                                                                    ZZ
011601512356Sandoval                                          Marisol                                                     2009-01-29F     080819647330115287ICEF Vista Middle Academy                                                                           19647330115287ICEF Vista Middle Academy                                                                           0953DF       No       No No No No                     2014-08-122022-08-22IFEPSPA01No    No YesYesNYesNo No No No No No No 50014 0000000190740850C0000000191682018C                                  0035628445002014ICEF Vista Middle Academy                                                                           19647330115287ICEF Vista Middle Academy                                                                           19647330115287DF0953N          ICEF Vista Middle Academy                                                                           19647330115287ICEF Vista Middle Academy                                                                           19647330115287DF0953N                                                                                                                                                                                                                                                                                                                                                                                                                                                                                      2023-05-162023-05-172023-05-182023-05-22                                        ICEF Vista Middle Academy                                                                           19647330115287ICEF Vista Middle Academy                                                                           19647330115287DF0953N2023-05-222023-03-032023-06-092023-03-032023-06-09                                        E2302023-06-092023-06-30                 YV OYNN  Y2023-06-081035L                                             25040034247025382   NARR001MM  022003      No No                                                                                                                                                                                                                                                                                                                                                                                                                                                                                                                                                                                                                                                                                                                                                                                                                                                                                                                                                                                                                                              No No                                                                                                                                                                                                                                                                                                                                                                                                                                                                                                                                                                                                                                                                                           Y07        003325072                                                                                                                                         35628445                                                                    ZZ
024068272744Barrera                                           Samantha                      Selene                        2008-09-14F     080819647330102335Ocean Charter                                                                                       19647330102335Ocean Charter                                                                                       0569DF       No       No No No No 2013-09-042019-02-13          2022-09-22RFEPSPA01No    No YesYesNYesNo No No No No No No 50012 0000000189787424C0000000190060128C                                  0035234196002002Ocean Charter                                                                                       19647330102335Ocean Charter                                                                                       19647330102335DF0569N          Ocean Charter                                                                                       19647330102335Ocean Charter                                                                                       19647330102335DF0569N                                                                                                                                                                                                                                                                                                                                                                                                                                                                                      2023-05-122023-05-122023-05-152023-05-15                                        Ocean Charter                                                                                       19647330102335Ocean Charter                                                                                       19647330102335DF0569N2023-05-152023-05-012023-06-092023-05-012023-06-09                                        E2302023-06-092023-07-03                 YV OYNN  Y2023-05-21775Q                                              24320047238524791              017005      No No                                                                                                                                                                                                                                                                                                                                                                                                                                                                                                                                                                                                                                                                                                                                                                                                                                                                                                                                                                                                                                              No No                                                                                                                                                                                                                                                                                                                                                                                                                                                                                                                                                                                                                                                                                           Y07        004424201                           Y06        005623251                                                                                          35234196                                                                    ZZ
014623548747Santiago                                          Araceli                                                     2009-07-21F     080819647330126193Citizens of the World Charter School Mar Vista                                                      19647330126193Citizens of the World Charter School Mar Vista                                                      1414DF       No       No No No No 2014-10-302018-02-012014-08-262022-08-22RFEPSPA01No    No YesYesNYesNo No No No No No No 50015 0000000190331732C0000000191033411C                                  0035246417002014Citizens of the World Charter School Mar Vista                                                      19647330126193Citizens of the World Charter School Mar Vista                                                      19647330126193DF1414N          Citizens of the World Charter School Mar Vista                                                      19647330126193Citizens of the World Charter School Mar Vista                                                      19647330126193DF1414N                                                                                                                                                                                                                                                                                                                                                                                                                                                                                      2023-05-152023-05-152023-05-162023-05-18                                        Citizens of the World Charter School Mar Vista                                                      19647330126193Citizens of the World Charter School Mar Vista                                                      19647330126193DF1414N2023-05-182023-03-082023-06-152023-03-082023-06-15                                        E2302023-06-152023-06-23                 YV OYNN  Y2023-06-011245L                                             26020034256826363   NARR332    022003      No No                                                                                                                                                                                                                                                                                                                                                                                                                                                                                                                                                                                                                                                                                                                                                                                                                                                                                                                                                                                                                                              No No                                                                                                                                                                                                                                                                                                                                                                                                                                                                                                                                                                                                                                                                                           Y07        003326003                                                                                                                                         35246417                                                                    ZZ
017150637610Lopez-Sanchez                                     Esmeralda                     Liana                         2009-07-01F     080819647330115287ICEF Vista Middle Academy                                                                           19647330115287ICEF Vista Middle Academy                                                                           0953DF       No       No No No No 2014-08-112016-04-29          2022-08-15RFEPSPA01No    No YesYesNYesNo No No No No No No 50014 0000000190612555C0000000191706344C                                  0035791096002014ICEF Vista Middle Academy                                                                           19647330115287ICEF Vista Middle Academy                                                                           19647330115287DF0953N          ICEF Vista Middle Academy                                                                           19647330115287ICEF Vista Middle Academy                                                                           19647330115287DF0953N                                                                                                                                                                                                                                                                                                                                                                                                                                                                                      2023-05-162023-05-172023-05-182023-05-22                                        ICEF Vista Middle Academy                                                                           19647330115287ICEF Vista Middle Academy                                                                           19647330115287DF0953N2023-05-222023-03-032023-06-092023-03-032023-06-09                                        E2302023-06-092023-06-30                 YV OYNN  Y2023-06-051030L                                             25010034246725352   ARGU221    022003      No No                                                                                                                                                                                                                                                                                                                                                                                                                                                                                                                                                                                                                                                                                                                                                                                                                                                                                                                                                                                                                                              No No                                                                                                                                                                                                                                                                                                                                                                                                                                                                                                                                                                                                                                                                                           Y07        003325533                                                                                                                                         35791096                                                                    ZZ
