012214127416Morales                                           Mikey                                                       2008-12-14M     080819647330122481Animo Jefferson Charter Middle                                                                      19647330122481Animo Jefferson Charter Middle                                                                      1216DF       No       No No No No                     2014-08-212022-08-15EO  ENG00No    No YesYesNYesNo No No No No No No 50012 0000000188306206C0000000189032145C                                  0033373753002014Animo Jefferson Charter Middle                                                                      19647330122481Animo Jefferson Charter Middle                                                                      19647330122481DF1216N          Animo Jefferson Charter Middle                                                                      19647330122481Animo Jefferson Charter Middle                                                                      19647330122481DF1216N                                                                                                                                                                                                                                                                                                                                                                                                                                                                                      2023-05-092023-05-112023-05-102023-05-10                                        Animo Jefferson Charter Middle                                                                      19647330122481Animo Jefferson Charter Middle                                                                      19647330122481DF1216N2023-05-112023-04-172023-06-162023-04-172023-06-16                                        E2302023-06-162023-07-11                 YV OYNN  Y2023-05-261000L                                             24870034245325212   ARGU000III 022003      No No                                                                                                                                                                                                                                                                                                                                                                                                                                                                                                                                                                                                                                                                                                                                                                                                                                                                                                                                                                                                                                              No No                                                                                                                                                                                                                                                                                                                                                                                                                                                                                                                                                                                                                                                                                           Y07        003325192                                                                                                                                         33373753                                                                    ZZ
024303988482Camarillo                                         Antonio                                                     2009-02-01M     080819647330122481Animo Jefferson Charter Middle                                                                      19647330122481Animo Jefferson Charter Middle                                                                      1216DF       No       No No No No 2014-09-022016-05-202014-08-122022-08-15RFEPSPA01No    No YesYesNYesNo No No No No No No 50014 0000000190410416C0000000191611988C                                  0033520650002002Animo Jefferson Charter Middle                                                                      19647330122481Animo Jefferson Charter Middle                                                                      19647330122481DF1216N          Animo Jefferson Charter Middle                                                                      19647330122481Animo Jefferson Charter Middle                                                                      19647330122481DF1216N                                                                                                                                                                                                                                                                                                                                                                                                                                                                                      2023-05-152023-05-152023-05-172023-05-17                                        Animo Jefferson Charter Middle                                                                      19647330122481Animo Jefferson Charter Middle                                                                      19647330122481DF1216N2023-05-172023-04-172023-06-162023-04-172023-06-16                                        E2302023-06-162023-07-13                 YV OYNN  Y2023-05-26920Q                                              24990042245725411              017005      No No                                                                                                                                                                                                                                                                                                                                                                                                                                                                                                                                                                                                                                                                                                                                                                                                                                                                                                                                                                                                                                              No No                                                                                                                                                                                                                                                                                                                                                                                                                                                                                                                                                                                                                                                                                           Y07        003125652                                                                                                                                         33520650                                                                    ZZ
013221633204Barrera                                           Anthony                                                     2008-12-18M     080819647330122481Animo Jefferson Charter Middle                                                                      19647330122481Animo Jefferson Charter Middle                                                                      1216DF       No       No No No No 2014-09-032017-05-162014-08-122022-08-15RFEPSPA01No    No YesYesNYesNo No No No No No No 50015 0000000187411386C0000000189044297C                                  0033444163002014Animo Jefferson Charter Middle                                                                      19647330122481Animo Jefferson Charter Middle                                                                      19647330122481DF1216N          Animo Jefferson Charter Middle                                                                      19647330122481Animo Jefferson Charter Middle                                                                      19647330122481DF1216N                                                                                                                                                                                                                                                                                                                                                                                                                                                                                      2023-05-082023-05-092023-05-102023-05-11                                        Animo Jefferson Charter Middle                                                                      19647330122481Animo Jefferson Charter Middle                                                                      19647330122481DF1216N2023-05-112023-04-172023-06-162023-04-172023-06-16                                        E2302023-06-162023-07-10                 YV OYNN  Y2023-05-26805L                                              23960042235424381   NARR111    022003      No No                                                                                                                                                                                                                                                                                                                                                                                                                                                                                                                                                                                                                                                                                                                                                                                                                                                                                                                                                                                                                                              No No                                                                                                                                                                                                                                                                                                                                                                                                                                                                                                                                                                                                                                                                                           Y07        003424681                                                                                                                                         33444163                                                                    ZZ
027685799568Sebastian                                         Nathaniel                     Raul                          2009-04-24M     080819647330122481Animo Jefferson Charter Middle                                                                      19647330122481Animo Jefferson Charter Middle                                                                      1216DF       No       No No No Yes2014-09-09          2014-08-122022-08-15EL  SPA01No    No YesYesNYesNo No No No No No No 50013 0000000191085668C                                                   0033762859002002Animo Jefferson Charter Middle                                                                      19647330122481Animo Jefferson Charter Middle                                                                      19647330122481DF1216N          Animo Jefferson Charter Middle                                                                      19647330122481Animo Jefferson Charter Middle                                                                      19647330122481DF1216N                                                                                                                                                                                                                                                                                                                                                                                                                                                                                      2023-05-162023-05-16                                                            Animo Jefferson Charter Middle                                                                      19647330122481Animo Jefferson Charter Middle                                                                      19647330122481DF1216N2023-05-162023-04-172023-06-162023-04-172023-06-16                                        E2302023-06-162023-07-17             NT  NV ONN   Y2023-07-10                                                                  9              017000      No Yes                                                                                                                                                                                                                                                                                                                                                                                                                                                                                                                                                                                                                                                                                                                                                                                                                                                                                                               TDS_TTS_Stim&TDS_TTS_Item                                                                                                     No                                                                                                                                                                                                                                                                                                                                                                                                                                                                                                                                                                      NEDS_SimpDirs                                       NEDS_TransDirs                                                      Y07        004723951                                                                                                                                         33762859                                                                    ZZ
012362653281Gomez                                             Gilbert                                                     2009-07-05M     080819647330122481Animo Jefferson Charter Middle                                                                      19647330122481Animo Jefferson Charter Middle                                                                      1216DF       No       No No No No 2014-09-152021-08-252014-08-122022-08-15RFEPSPA01No    No YesYesNYesNo No No No No No No 50012 0000000187063328C0000000188555997C                                  0033391611002014Animo Jefferson Charter Middle                                                                      19647330122481Animo Jefferson Charter Middle                                                                      19647330122481DF1216N          Animo Jefferson Charter Middle                                                                      19647330122481Animo Jefferson Charter Middle                                                                      19647330122481DF1216N                                                                                                                                                                                                                                                                                                                                                                                                                                                                                      2023-05-082023-05-122023-05-102023-05-11                                        Animo Jefferson Charter Middle                                                                      19647330122481Animo Jefferson Charter Middle                                                                      19647330122481DF1216N2023-05-122023-04-172023-06-162023-04-172023-06-16                                        E2302023-06-162023-07-11                 YV OYNN  Y2023-06-011525L                                             27340040269427744   ARGU332    022003      No No                                                                                                                                                                                                                                                                                                                                                                                                                                                                                                                                                                                                                                                                                                                                                                                                                                                                                                                                                                                                                                              No No                                                                                                                                                                                                                                                                                                                                                                                                                                                                                                                                                                                                                                                                                           Y07        003927024                                                                                                                                         33391611                                                                    ZZ
022362653281Gomez                                             Gilbert                                                     2009-07-05M     080819647330122481Animo Jefferson Charter Middle                                                                      19647330122481Animo Jefferson Charter Middle                                                                      1216DF       No       No No No No 2014-09-152021-08-252014-08-122022-08-15RFEPSPA01No    No YesYesNYesNo No No No No No No 50012 0000000189989445C0000000191144735C                                  0033391611002002Animo Jefferson Charter Middle                                                                      19647330122481Animo Jefferson Charter Middle                                                                      19647330122481DF1216N          Animo Jefferson Charter Middle                                                                      19647330122481Animo Jefferson Charter Middle                                                                      19647330122481DF1216N                                                                                                                                                                                                                                                                                                                                                                                                                                                                                      2023-05-152023-05-162023-05-172023-05-17                                        Animo Jefferson Charter Middle                                                                      19647330122481Animo Jefferson Charter Middle                                                                      19647330122481DF1216N2023-05-172023-04-172023-06-162023-04-172023-06-16                                        E2302023-06-162023-07-11                 YV OYNN  Y2023-06-011195Q                                             26260031259526573              017005      No No                                                                                                                                                                                                                                                                                                                                                                                                                                                                                                                                                                                                                                                                                                                                                                                                                                                                                                                                                                                                                                              No No                                                                                                                                                                                                                                                                                                                                                                                                                                                                                                                                                                                                                                                                                           Y07        002726954                                                                                                                                         33391611                                                                    ZZ
026272811527Sifuentes                                         Santiago                                                    2009-07-31M     080819647330128058Alliance College-Ready Middle Academy 12                                                            19647330128058Alliance College-Ready Middle Academy 12                                                            1533DF       No       No No No No 2014-09-122017-05-232014-08-102022-08-10RFEPSPA01No    No YesYesNYesNo No No No No No No 50011 0000000191272897C0000000191726775C                                  0038231199002002Alliance College-Ready Middle Academy 12                                                            19647330128058Alliance College-Ready Middle Academy 12                                                            19647330128058DF1533N          Alliance College-Ready Middle Academy 12                                                            19647330128058Alliance College-Ready Middle Academy 12                                                            19647330128058DF1533N                                                                                                                                                                                                                                                                                                                                                                                                                                                                                      2023-05-172023-05-172023-05-182023-05-18                                        Alliance College-Ready Middle Academy 12                                                            19647330128058Alliance College-Ready Middle Academy 12                                                            19647330128058DF1533N2023-05-182023-03-072023-06-162023-03-072023-06-16                                        E2302023-06-152023-07-26                 YV OYNN  Y2023-05-261095Q                                             25800035254526152              017006      No No                                                                                                                                                                                                                                                                                                                                                                                                                                                                                                                                                                                                                                                                                                                                                                                                                                                                                                                                                                                                                                              No No                                                                                                                                                                                                                                                                                                                                                                                                                                                                                                                                                                                                                                                                                           Y07        003325402                                                                                                                                         38231199                                                                    ZZ
017724794138Soto                                              Melanie                       April                         2009-04-28F     080819647330122481Animo Jefferson Charter Middle                                                                      19647330122481Animo Jefferson Charter Middle                                                                      1216DF       No       No No No No                     2014-08-122022-08-15EO  ENG00No    No YesYesNYesNo No No No No No No 50013 0000000187585877C0000000189188068C                                  0033767096002014Animo Jefferson Charter Middle                                                                      19647330122481Animo Jefferson Charter Middle                                                                      19647330122481DF1216N          Animo Jefferson Charter Middle                                                                      19647330122481Animo Jefferson Charter Middle                                                                      19647330122481DF1216N                                                                                                                                                                                                                                                                                                                                                                                                                                                                                      2023-05-082023-05-092023-05-102023-05-10                                        Animo Jefferson Charter Middle                                                                      19647330122481Animo Jefferson Charter Middle                                                                      19647330122481DF1216N2023-05-102023-04-172023-06-162023-04-172023-06-16                                        E2302023-06-162023-07-11                 YV OYNN  Y2023-06-06910L                                              24450037240824821   NARR001MM  022003      No No                                                                                                                                                                                                                                                                                                                                                                                                                                                                                                                                                                                                                                                                                                                                                                                                                                                                                                                                                                                                                                              No No                                                                                                                                                                                                                                                                                                                                                                                                                                                                                                                                                                                                                                                                                           Y07        003325202                                                                                                                                         33767096                                                                    ZZ
029230216242Espinoza                                          Jairo                         Daniel                        2008-12-05M     080819647330124016Animo Legacy Charter Middle                                                                         19647330124016Animo Legacy Charter Middle                                                                         1288DF       No       No No No No 2014-02-102022-10-062014-01-142022-08-15RFEPSPA01No    No YesYesNYesNo No No No No No No 50015 0000000191257159C0000000191709205C                                  0033862308002002Animo Legacy Charter Middle                                                                         19647330124016Animo Legacy Charter Middle                                                                         19647330124016DF1288N          Animo Legacy Charter Middle                                                                         19647330124016Animo Legacy Charter Middle                                                                         19647330124016DF1288N                                                                                                                                                                                                                                                                                                                                                                                                                                                                                      2023-05-172023-05-172023-05-182023-05-18                                        Animo Legacy Charter Middle                                                                         19647330124016Animo Legacy Charter Middle                                                                         19647330124016DF1288N2023-05-182023-04-172023-06-162023-04-172023-06-16                                        E2302023-06-162023-07-13                 YV OYNN  Y2023-06-01880Q                                              24820043243925251              017005      No Yes                                                                                                                                                                                                                                                                                                                                                                                                                                                                                                                                                                                                                                                                                                                                                                                                                                                                                                               TDS_TTS_Stim&TDS_TTS_ItemTDS_TTS_Stim&TDS_TTS_Item                                                                            No No                                                                                                                                                                                                                                                                                                                                                                                                                                                                                                                                                                   NEDS_SimpDirsNEDS_SimpDirs                                                                                              Y07        004124471                                                                                                                                         33862308                                                                    ZZ
016144805956Hernandez                                         Bryan                                                       2008-11-01M     080819647330122481Animo Jefferson Charter Middle                                                                      19647330122481Animo Jefferson Charter Middle                                                                      1216DF       No       No No No Yes2016-09-08          2016-08-062022-08-15EL  SPA01No    No No No NYesNo No No No No No No 50013 0000000187057796C0000000188555474C                                  0033650120002014Animo Jefferson Charter Middle                                                                      19647330122481Animo Jefferson Charter Middle                                                                      19647330122481DF1216N          Animo Jefferson Charter Middle                                                                      19647330122481Animo Jefferson Charter Middle                                                                      19647330122481DF1216N                                                                                                                                                                                                                                                                                                                                                                                                                                                                                      2023-05-082023-05-122023-05-102023-05-11                                        Animo Jefferson Charter Middle                                                                      19647330122481Animo Jefferson Charter Middle                                                                      19647330122481DF1216N2023-05-122023-04-172023-06-162023-04-172023-06-16                                        E2302023-06-162023-07-10                 YV OYNN  Y2023-05-26960L                                              24680035243325031   EXPL110    022003      No Yes                                                                                                                                                                                                                                                                                                                                                                                                                                                                                                                                                                                                                                                                                                                                                                                                                                                                                                               TDS_TTS_Item             TDS_TTS_Item                                                                                         No No                                                                                                                                                                                                                                                                                                                                                                                                                                                                                                                                                                   NEDS_SimpDirsNEDS_SimpDirs                                                                                              Y07        003624431                                                                                                                                         33650120                                                                    ZZ
026205759446Nava                                              Anthony                                                     2009-06-04M     080819647330122481Animo Jefferson Charter Middle                                                                      19647330122481Animo Jefferson Charter Middle                                                                      1216DF1964733No OHIOHIYesYesNo No 2014-09-102023-03-232014-08-122022-08-15RFEPSPA01No    No YesYesNYesNo No No No No No No 50014 0000000190003465C0000000191383691C                                  0033655375002002Animo Jefferson Charter Middle                                                                      19647330122481Animo Jefferson Charter Middle                                                                      19647330122481DF1216N          Animo Jefferson Charter Middle                                                                      19647330122481Animo Jefferson Charter Middle                                                                      19647330122481DF1216N                                                                                                                                                                                                                                                                                                                                                                                                                                                                                      2023-05-152023-05-162023-05-172023-05-17                                        Animo Jefferson Charter Middle                                                                      19647330122481Animo Jefferson Charter Middle                                                                      19647330122481DF1216N2023-05-172023-04-172023-06-162023-04-172023-06-16                                        E2302023-06-162023-07-11                 YV OYNN  Y2023-06-11410Q                                              22650110226523751              017005      No Yes                                                                                                                                                                                                                                                                                                                                                                                                                                                                                                                                                                                                                                                                                                                                                                                                                                                                                                                                                                                                                                             No No                                                                                                                                                                                                                                                                                                                                                                                                                                                                                                                                       NEDS_SSNEDS_SS              NEDS_SimpDirsNEDS_SimpDirs                                                                                              Y07        013422501                                                                                                                                         33655375                                                                    ZZ
014303988482Camarillo                                         Antonio                                                     2009-02-01M     080819647330122481Animo Jefferson Charter Middle                                                                      19647330122481Animo Jefferson Charter Middle                                                                      1216DF       No       No No No No 2014-09-022016-05-202014-08-122022-08-15RFEPSPA01No    No YesYesNYesNo No No No No No No 50014 0000000187587971C0000000189188840C                                  0033520650002014Animo Jefferson Charter Middle                                                                      19647330122481Animo Jefferson Charter Middle                                                                      19647330122481DF1216N          Animo Jefferson Charter Middle                                                                      19647330122481Animo Jefferson Charter Middle                                                                      19647330122481DF1216N                                                                                                                                                                                                                                                                                                                                                                                                                                                                                      2023-05-082023-05-092023-05-102023-05-11                                        Animo Jefferson Charter Middle                                                                      19647330122481Animo Jefferson Charter Middle                                                                      19647330122481DF1216N2023-05-112023-04-172023-06-162023-04-172023-06-16                                        E2302023-06-162023-07-13                 YV OYNN  Y2023-05-261210L                                             25860034255226203   EXPL222    022003      No No                                                                                                                                                                                                                                                                                                                                                                                                                                                                                                                                                                                                                                                                                                                                                                                                                                                                                                                                                                                                                                              No No                                                                                                                                                                                                                                                                                                                                                                                                                                                                                                                                                                                                                                                                                           Y07        003526463                                                                                                                                         33520650                                                                    ZZ
028089511624Tellez                                            Yatzury                                                     2009-06-30F     080819647330122481Animo Jefferson Charter Middle                                                                      19647330122481Animo Jefferson Charter Middle                                                                      1216DF       No       No No No No 2014-09-102018-06-072014-08-122022-08-15RFEPSPA01No    No YesYesNYesNo No No No No No No 50011 0000000190408113C0000000191609948C                                  0033785110002002Animo Jefferson Charter Middle                                                                      19647330122481Animo Jefferson Charter Middle                                                                      19647330122481DF1216N          Animo Jefferson Charter Middle                                                                      19647330122481Animo Jefferson Charter Middle                                                                      19647330122481DF1216N                                                                                                                                                                                                                                                                                                                                                                                                                                                                                      2023-05-152023-05-152023-05-172023-05-17                                        Animo Jefferson Charter Middle                                                                      19647330122481Animo Jefferson Charter Middle                                                                      19647330122481DF1216N2023-05-172023-04-172023-06-162023-04-172023-06-16                                        E2302023-06-162023-07-11                 YV OYNN  Y2023-05-261065Q                                             25660037252926032              017005      No No                                                                                                                                                                                                                                                                                                                                                                                                                                                                                                                                                                                                                                                                                                                                                                                                                                                                                                                                                                                                                                              No No                                                                                                                                                                                                                                                                                                                                                                                                                                                                                                                                                                                                                                                                                           Y07        003225592                                                                                                                                         33785110                                                                    ZZ
011536558568Espinoza                                          Bryan                         Raul                          2009-06-16M     080819647330122481Animo Jefferson Charter Middle                                                                      19647330122481Animo Jefferson Charter Middle                                                                      1216DF       No       No No No No 2014-08-252019-06-072014-08-252022-08-15RFEPSPA01No    No YesYesNYesNo No No No No No No 50013 0000000187588003C0000000189188811C                                  0033331979002014Animo Jefferson Charter Middle                                                                      19647330122481Animo Jefferson Charter Middle                                                                      19647330122481DF1216N          Animo Jefferson Charter Middle                                                                      19647330122481Animo Jefferson Charter Middle                                                                      19647330122481DF1216N                                                                                                                                                                                                                                                                                                                                                                                                                                                                                      2023-05-082023-05-092023-05-102023-05-11                                        Animo Jefferson Charter Middle                                                                      19647330122481Animo Jefferson Charter Middle                                                                      19647330122481DF1216N2023-05-112023-04-172023-06-162023-04-172023-06-16                                        E2302023-06-162023-07-10                 YV OYNN  Y2023-05-261215L                                             25870034255326213   EXPL221    022003      No No                                                                                                                                                                                                                                                                                                                                                                                                                                                                                                                                                                                                                                                                                                                                                                                                                                                                                                                                                                                                                                              No No                                                                                                                                                                                                                                                                                                                                                                                                                                                                                                                                                                                                                                                                                           Y07        003325943                                                                                                                                         33331979                                                                    ZZ
017102624320Ramirez                                           Amy                           Aracely                       2009-06-24F     080819647330122481Animo Jefferson Charter Middle                                                                      19647330122481Animo Jefferson Charter Middle                                                                      1216DF       No       No No No No                     2014-08-122022-08-15EO  ENG00No    No YesYesNYesNo No No No No No No 50013 0000000187409792C0000000189032319C                                  0033721303002014Animo Jefferson Charter Middle                                                                      19647330122481Animo Jefferson Charter Middle                                                                      19647330122481DF1216N          Animo Jefferson Charter Middle                                                                      19647330122481Animo Jefferson Charter Middle                                                                      19647330122481DF1216N                                                                                                                                                                                                                                                                                                                                                                                                                                                                                      2023-05-082023-05-092023-05-102023-05-10                                        Animo Jefferson Charter Middle                                                                      19647330122481Animo Jefferson Charter Middle                                                                      19647330122481DF1216N2023-05-102023-04-172023-06-162023-04-172023-06-16                                        E2302023-06-162023-07-10                 YV OYNN  Y2023-06-051145L                                             25540034252025882   EXPL221    022003      No No                                                                                                                                                                                                                                                                                                                                                                                                                                                                                                                                                                                                                                                                                                                                                                                                                                                                                                                                                                                                                                              No No                                                                                                                                                                                                                                                                                                                                                                                                                                                                                                                                                                                                                                                                                           Y07        003324962                                                                                                                                         33721303                                                                    ZZ
026710877494Arzate Gomez                                      Rafael                                                      2008-10-22M     080819647330122481Animo Jefferson Charter Middle                                                                      19647330122481Animo Jefferson Charter Middle                                                                      1216DF       No       No No No No 2013-08-132022-10-062013-08-132022-08-15RFEPSPA01No    No YesYesNYesNo No No No No No No 50015 0000000190278554C0000000191495354C                                  0033694798002002Animo Jefferson Charter Middle                                                                      19647330122481Animo Jefferson Charter Middle                                                                      19647330122481DF1216N          Animo Jefferson Charter Middle                                                                      19647330122481Animo Jefferson Charter Middle                                                                      19647330122481DF1216N                                                                                                                                                                                                                                                                                                                                                                                                                                                                                      2023-05-152023-05-162023-05-172023-05-17                                        Animo Jefferson Charter Middle                                                                      19647330122481Animo Jefferson Charter Middle                                                                      19647330122481DF1216N2023-05-172023-04-172023-06-162023-04-172023-06-16                                        E2302023-06-162023-07-10                 YV OYNN  Y2023-05-261070Q                                             25700036253426062              017005      No No                                                                                                                                                                                                                                                                                                                                                                                                                                                                                                                                                                                                                                                                                                                                                                                                                                                                                                                                                                                                                                              No No                                                                                                                                                                                                                                                                                                                                                                                                                                                                                                                                                                                                                                                                                           Y07        003325362                                                                                                                                         33694798                                                                    ZZ
026144805956Hernandez                                         Bryan                                                       2008-11-01M     080819647330122481Animo Jefferson Charter Middle                                                                      19647330122481Animo Jefferson Charter Middle                                                                      1216DF       No       No No No Yes2016-09-08          2016-08-062022-08-15EL  SPA01No    No No No NYesNo No No No No No No 50013 0000000189992345C0000000191150113C                                  0033650120002002Animo Jefferson Charter Middle                                                                      19647330122481Animo Jefferson Charter Middle                                                                      19647330122481DF1216N          Animo Jefferson Charter Middle                                                                      19647330122481Animo Jefferson Charter Middle                                                                      19647330122481DF1216N                                                                                                                                                                                                                                                                                                                                                                                                                                                                                      2023-05-152023-05-162023-05-172023-05-18                                        Animo Jefferson Charter Middle                                                                      19647330122481Animo Jefferson Charter Middle                                                                      19647330122481DF1216N2023-05-182023-04-172023-06-162023-04-172023-06-16                                        E2302023-06-162023-07-10                 YV OYNN  Y2023-05-26720Q                                              24080049235924571              017006      No Yes                                                                                                                                                                                                                                                                                                                                                                                                                                                                                                                                                                                                                                                                                                                                                                                                                                                                                                               TDS_TTS_Stim&TDS_TTS_ItemTDS_TTS_Stim&TDS_TTS_Item                                                                            No No                                                                                                                                                                                                                                                                                                                                                                                                                                                                                                                                                                   NEDS_SimpDirsNEDS_SimpDirs                                                                                              Y07        006823051                                                                                                                                         33650120                                                                    ZZ
019230216242Espinoza                                          Jairo                         Daniel                        2008-12-05M     080819647330124016Animo Legacy Charter Middle                                                                         19647330124016Animo Legacy Charter Middle                                                                         1288DF       No       No No No No 2014-02-102022-10-062014-01-142022-08-15RFEPSPA01No    No YesYesNYesNo No No No No No No 50015 0000000190038358C0000000191637191C                                  0033862308002014Animo Legacy Charter Middle                                                                         19647330124016Animo Legacy Charter Middle                                                                         19647330124016DF1288N          Animo Legacy Charter Middle                                                                         19647330124016Animo Legacy Charter Middle                                                                         19647330124016DF1288N                                                                                                                                                                                                                                                                                                                                                                                                                                                                                      2023-05-152023-05-162023-05-172023-05-22                                        Animo Legacy Charter Middle                                                                         19647330124016Animo Legacy Charter Middle                                                                         19647330124016DF1288N2023-05-222023-04-172023-06-162023-04-172023-06-16                                        E2302023-06-162023-07-13                 YV OYNN  Y2023-06-011170L                                             25670034253326013   EXPL221    022003      No Yes                                                                                                                                                                                                                                                                                                                                                                                                                                                                                                                                                                                                                                                                                                                                                                                                                                                                                                               TDS_TTS_Item             TDS_TTS_Item                                                                                         No No                                                                                                                                                                                                                                                                                                                                                                                                                                                                                                                                                                   NEDS_SimpDirsNEDS_SimpDirs                                                                                              Y07        003324902                                                                                                                                         33862308                                                                    ZZ
023426648906Hernandez                                         Stefany                                                     2008-12-02F     080819647330122481Animo Jefferson Charter Middle                                                                      19647330122481Animo Jefferson Charter Middle                                                                      1216DF       No       No No No No 2014-04-182018-02-082013-08-132022-08-15RFEPSPA01No    No YesYesNYesNo No No No No No No 50013 0000000189987375C0000000191144277C                                  0033463903002002Animo Jefferson Charter Middle                                                                      19647330122481Animo Jefferson Charter Middle                                                                      19647330122481DF1216N          Animo Jefferson Charter Middle                                                                      19647330122481Animo Jefferson Charter Middle                                                                      19647330122481DF1216N                                                                                                                                                                                                                                                                                                                                                                                                                                                                                      2023-05-152023-05-172023-05-172023-05-18                                        Animo Jefferson Charter Middle                                                                      19647330122481Animo Jefferson Charter Middle                                                                      19647330122481DF1216N2023-05-182023-04-172023-06-162023-04-172023-06-16                                        E2302023-06-162023-07-11                 YV OYNN  Y2023-05-261405Q                                             27240028269627524              017005      No No                                                                                                                                                                                                                                                                                                                                                                                                                                                                                                                                                                                                                                                                                                                                                                                                                                                                                                                                                                                                                                              No No                                                                                                                                                                                                                                                                                                                                                                                                                                                                                                                                                                                                                                                                                           Y07        002826343                                                                                                                                         33463903                                                                    ZZ
023220893246Avalos                                            David                         Alejandro                     2009-08-15M     080819650940112706California Virtual Academy @ Los Angeles                                                            19650940112706California Virtual Academy @ Los Angeles                                                            0838DF       No       No No No No 2014-08-262018-06-01          2022-08-18RFEPSPA01No    No YesYesNYesNo No No No No No No 50015 0000000187419958C0000000188290124C                                  0037617309002002California Virtual Academy @ Los Angeles                                                            19650940112706California Virtual Academy @ Los Angeles                                                            19650940112706DF0838N          California Virtual Academy @ Los Angeles                                                            19650940112706California Virtual Academy @ Los Angeles                                                            19650940112706DF0838N                                                                                                                                                                                                                                                                                                                                                                                                                                                                                      2023-05-082023-05-082023-05-092023-05-09                                        California Virtual Academy @ Los Angeles                                                            19650940112706California Virtual Academy @ Los Angeles                                                            19650940112706DF0838N2023-05-092023-04-242023-06-092023-04-242023-06-09                                        T1602023-06-092023-06-26                 YV OYYY  Y2023-06-01735Q                                              24140048236624621              017004      No No                                                                                                                                                                                                                                                                                                                                                                                                                                                                                                                                                                                                                                                                                                                                                                                                                                                                                                                                                                                                                                              No No                                                                                                                                                                                                                                                                                                                                                                                                                                                                                                                                                                                                                                                                                           Y07        003425262                           Y06        004423811                                                                                          37617309                                                                    ZZ
016172173966Cruz-Flores                                       Randy                                                       2009-03-18M     080819647330122481Animo Jefferson Charter Middle                                                                      19647330122481Animo Jefferson Charter Middle                                                                      1216DF       No       No No No No                     2014-08-122022-08-15EO  ENG00No    No YesYesNYesNo No No No No No No 50014 0000000187587966C0000000189188835C                                  0033652156002014Animo Jefferson Charter Middle                                                                      19647330122481Animo Jefferson Charter Middle                                                                      19647330122481DF1216N          Animo Jefferson Charter Middle                                                                      19647330122481Animo Jefferson Charter Middle                                                                      19647330122481DF1216N                                                                                                                                                                                                                                                                                                                                                                                                                                                                                      2023-05-082023-05-112023-05-102023-05-10                                        Animo Jefferson Charter Middle                                                                      19647330122481Animo Jefferson Charter Middle                                                                      19647330122481DF1216N2023-05-112023-04-172023-06-162023-04-172023-06-16                                        E2302023-06-162023-07-13                 YV OYNN  Y2023-05-26865L                                              24240039238524631   ARGU000III 022003      No No                                                                                                                                                                                                                                                                                                                                                                                                                                                                                                                                                                                                                                                                                                                                                                                                                                                                                                                                                                                                                                              No No                                                                                                                                                                                                                                                                                                                                                                                                                                                                                                                                                                                                                                                                                           Y07        003624391                                                                                                                                         33652156                                                                    ZZ
017685799568Sebastian                                         Nathaniel                     Raul                          2009-04-24M     080819647330122481Animo Jefferson Charter Middle                                                                      19647330122481Animo Jefferson Charter Middle                                                                      1216DF       No       No No No Yes2014-09-09          2014-08-122022-08-15EL  SPA01No    No YesYesNYesNo No No No No No No 50013 0000000187585783C0000000189616119C                                  0033762859002014Animo Jefferson Charter Middle                                                                      19647330122481Animo Jefferson Charter Middle                                                                      19647330122481DF1216N          Animo Jefferson Charter Middle                                                                      19647330122481Animo Jefferson Charter Middle                                                                      19647330122481DF1216N                                                                                                                                                                                                                                                                                                                                                                                                                                                                                      2023-05-082023-05-092023-05-112023-05-11                                        Animo Jefferson Charter Middle                                                                      19647330122481Animo Jefferson Charter Middle                                                                      19647330122481DF1216N2023-05-112023-04-172023-06-162023-04-172023-06-16                                        E2302023-06-162023-07-17                 YV OYNN  Y2023-07-10715L                                              23540050230424041   NARR000III 022003      No Yes                                                                                                                                                                                                                                                                                                                                                                                                                                                                                                                                                                                                                                                                                                                                                                                                                                                                                                               TDS_TTS_Item             TDS_TTS_Item                                                                                         No No                                                                                                          NEDS_BD                                                                                                                                                                                                                                                                                                                                                                                                                                                  NEDS_SimpDirsNEDS_SimpDirs                          NEDS_TransDirs NEDS_TransDirs                                       Y07        004523561                                                                                                                                         33762859                                                                    ZZ
018380685733Aldana-Fierro                                     Desteny                                                     2008-07-02F     080819647330122481Animo Jefferson Charter Middle                                                                      19647330122481Animo Jefferson Charter Middle                                                                      1216DF       No       No No No No 2013-09-062015-03-042013-08-012022-08-15RFEPSPA01No    No YesYesNYesNo No No No No No No 50013 0000000188311404C0000000189043872C                                  0033807236002014Animo Jefferson Charter Middle                                                                      19647330122481Animo Jefferson Charter Middle                                                                      19647330122481DF1216N          Animo Jefferson Charter Middle                                                                      19647330122481Animo Jefferson Charter Middle                                                                      19647330122481DF1216N                                                                                                                                                                                                                                                                                                                                                                                                                                                                                      2023-05-092023-05-092023-05-102023-05-16                                        Animo Jefferson Charter Middle                                                                      19647330122481Animo Jefferson Charter Middle                                                                      19647330122481DF1216N2023-05-162023-04-172023-06-162023-04-172023-06-16                                        E2302023-06-162023-07-10                 YV OYNN  Y2023-06-081135L                                             25490034251525832   EXPL112    022003      No No                                                                                                                                                                                                                                                                                                                                                                                                                                                                                                                                                                                                                                                                                                                                                                                                                                                                                                                                                                                                                                              No No                                                                                                                                                                                                                                                                                                                                                                                                                                                                                                                                                                                                                                                                                           Y07        003426153                                                                                                                                         33807236                                                                    ZZ
016205759446Nava                                              Anthony                                                     2009-06-04M     080819647330122481Animo Jefferson Charter Middle                                                                      19647330122481Animo Jefferson Charter Middle                                                                      1216DF1964733No OHIOHIYesYesNo No 2014-09-102023-03-232014-08-122022-08-15RFEPSPA01No    No YesYesNYesNo No No No No No No 50014 0000000187945709C0000000189404056C                                  0033655375002014Animo Jefferson Charter Middle                                                                      19647330122481Animo Jefferson Charter Middle                                                                      19647330122481DF1216N          Animo Jefferson Charter Middle                                                                      19647330122481Animo Jefferson Charter Middle                                                                      19647330122481DF1216N                                                                                                                                                                                                                                                                                                                                                                                                                                                                                      2023-05-092023-05-112023-05-112023-05-12                                        Animo Jefferson Charter Middle                                                                      19647330122481Animo Jefferson Charter Middle                                                                      19647330122481DF1216N2023-05-122023-04-172023-06-162023-04-172023-06-16                                        E2302023-06-162023-07-11                 YV OYNN  Y2023-06-11760L                                              23740046232824201   ARGU000III 022003      No Yes                                                                                                                                                                                                                                                                                                                                                                                                                                                                                                                                                                                                                                                                                                                                                                                                                                                                                                                                                                                                                                             No No                                                                                                                                                                                                                                                                                                                                                                                                                                                                                                                                       NEDS_SSNEDS_SS              NEDS_SimpDirsNEDS_SimpDirs                                                                                              Y07        004023891                                                                                                                                         33655375                                                                    ZZ
