028917419936Martinez                                          Alexis                                                      2010-10-13M     060619647330123992Animo Ellen Ochoa Charter Middle                                                                    19647330123992Animo Ellen Ochoa Charter Middle                                                                    1286DF       No       No No No No 2015-08-172018-06-122015-08-172022-08-15RFEPSPA01No    No YesYesNYesNo No No No No No No 50015 0000000187178384C0000000187792476C                                  0035847344002002Animo Ellen Ochoa Charter Middle                                                                    19647330123992Animo Ellen Ochoa Charter Middle                                                                    19647330123992DF1286N          Animo Ellen Ochoa Charter Middle                                                                    19647330123992Animo Ellen Ochoa Charter Middle                                                                    19647330123992DF1286N                                                                                                                                                                                                                                                                                                                                                                                                                                                                                      2023-05-082023-05-082023-05-092023-05-09                                        Animo Ellen Ochoa Charter Middle                                                                    19647330123992Animo Ellen Ochoa Charter Middle                                                                    19647330123992DF1286N2023-05-092023-04-172023-06-162023-04-172023-06-16                                        E1552023-06-162023-07-17                 YV OYNN  Y2023-06-051080Q                                             26010027257426283              017005      No No                                                                                                                                                                                                                                                                                                                                                                                                                                                                                                                                                                                                                                                                                                                                                                                                                                                                                                                                                                                                                                              No No                                                                                                                                                                                                                                                                                                                                                                                                                                                                                                                                                                                                                                                                                           Y05        002525363                           Y04        002524382                                                                                          35847344                                                                    ZZ
027131391885LOPEZ                                             EDWIN                                                       2010-12-01M     060619647330000000Los Angeles Unified                                                                                 19647336016976Evergreen Avenue Elementary                                                                               1964733No SLDSLDYesYesNo Yes2015-09-11          2015-08-182022-08-15EL  SPA01No    No YesYesNYesNo No No No No No No 50010 0000000190685024C0000000191793922C                                  0033723299002002Los Angeles Unified                                                                                 19647330000000Evergreen Avenue Elementary                                                                         19647336016976      N          Los Angeles Unified                                                                                 19647330000000Evergreen Avenue Elementary                                                                         19647336016976      N                                                                                                                                                                                                                                                                                                                                                                                                                                                                                      2023-05-162023-05-172023-05-182023-05-18                                        Los Angeles Unified                                                                                 19647330000000Evergreen Avenue Elementary                                                                         19647336016976      N2023-05-182023-03-062023-06-092023-03-062023-06-09                                        E2302023-06-092023-06-22                 YV OYNN  Y2023-05-26570Q                                              24030041236224441              017006      YesYes                                                                                                                                                        NEA_NumTblNEA_NumTbl                                                                                                                                                     NEA_MTNEA_MT                                                                                                                                                                                                                                                                                                                                                                                                                                                                                                                                                                  TDS_TTS_Stim&TDS_TTS_ItemTDS_TTS_Stim&TDS_TTS_Item                                                                            No No                                                                                                                                                                                                                                                                            NEDS_NoiseBufNEDS_NoiseBuf                                                                                                                                                                                                                                 NEDS_SSNEDS_SS              NEDS_SimpDirsNEDS_SimpDirs                                                                                              Y05        004023831                                                                                                                                         33723299                                                                    ZZ
026283986096Martinez                                          Heiley                        Dianely                       2010-10-07F     060619647330123992Animo Ellen Ochoa Charter Middle                                                                    19647330123992Animo Ellen Ochoa Charter Middle                                                                    1286DF       No       No No No No 2015-08-252022-06-172015-08-252022-08-15RFEPSPA01No    No YesYesNYesNo No No No No No No 50013 0000000187293259C0000000188078175C                                  0033660971002002Animo Ellen Ochoa Charter Middle                                                                    19647330123992Animo Ellen Ochoa Charter Middle                                                                    19647330123992DF1286N          Animo Ellen Ochoa Charter Middle                                                                    19647330123992Animo Ellen Ochoa Charter Middle                                                                    19647330123992DF1286N                                                                                                                                                                                                                                                                                                                                                                                                                                                                                      2023-05-082023-05-082023-05-092023-05-09                                        Animo Ellen Ochoa Charter Middle                                                                    19647330123992Animo Ellen Ochoa Charter Middle                                                                    19647330123992DF1286N2023-05-092023-04-172023-06-162023-04-172023-06-16                                        E1552023-06-162023-07-15                 YV OYNN  Y2023-05-31435Q                                              23510050230124011              017006      No No                                                                                                                                                                                                                                                                                                                                                                                                                                                                                                                                                                                                                                                                                                                                                                                                                                                                                                                                                                                                                                              No No                                                                                                                                                                                                                                                                                                                                                                                                                                                                                                                                                                                                                                                                                           Y05        003923891                                                                                                                                         33660971                                                                    ZZ
025923428074Ibarra                                            Delilah                       Marie                         2010-01-15F     070719647330123992Animo Ellen Ochoa Charter Middle                                                                    19647330123992Animo Ellen Ochoa Charter Middle                                                                    1286DF       No       No No No No 2015-09-162018-05-142015-08-192022-08-15RFEPSPA01No    No YesYesNYesNo No No No No No No 50013 0000000187237930C0000000188041279C                                  0033632633002002Animo Ellen Ochoa Charter Middle                                                                    19647330123992Animo Ellen Ochoa Charter Middle                                                                    19647330123992DF1286N          Animo Ellen Ochoa Charter Middle                                                                    19647330123992Animo Ellen Ochoa Charter Middle                                                                    19647330123992DF1286N                                                                                                                                                                                                                                                                                                                                                                                                                                                                                      2023-05-082023-05-082023-05-092023-05-09                                        Animo Ellen Ochoa Charter Middle                                                                    19647330123992Animo Ellen Ochoa Charter Middle                                                                    19647330123992DF1286N2023-05-092023-04-172023-06-162023-04-172023-06-16                                        E1552023-06-162023-07-17                 YV OYNN  Y2023-06-11560Q                                              23940047234724411              017005      No No                                                                                                                                                                                                                                                                                                                                                                                                                                                                                                                                                                                                                                                                                                                                                                                                                                                                                                                                                                                                                                              No No                                                                                                                                                                                                                                                                                                                                                                                                                                                                                                                                                                                                                                                                                           Y06        004723701                                                                                                                                         33632633                                                                    ZZ
018683479494Gonzalez                                          Danielle                      Christine                     2012-06-30F     050519647330128132Extera Public School No. 2                                                                          19647330128132Extera Public School No. 2                                                                          1562DF       No       No No No No 2017-08-142019-03-192017-08-142022-08-15RFEPSPA01No    No YesYesNYesNo No No No No No No 50013 0000000187076495C0000000187756367C                                  0034687408002014Extera Public School No. 2                                                                          19647330128132Extera Public School No. 2                                                                          19647330128132DF1562N          Extera Public School No. 2                                                                          19647330128132Extera Public School No. 2                                                                          19647330128132DF1562N                                                                                                                                                                                                                                                                                                                                                                                                                                                                                      2023-05-082023-05-082023-05-092023-05-10                                        Extera Public School No. 2                                                                          19647330128132Extera Public School No. 2                                                                          19647330128132DF1562N2023-05-102023-04-242023-06-142023-04-242023-06-14                                        E2302023-06-142023-06-30                 YV OYNN  Y2023-05-26560L                                              23520037231523891   INFO332    020003      No Yes                                                                                                                                                                                                                                                                                                                                                                                                                                                                                                                                                                                                                                                                                                                                                                                                                                                                                                               TDS_TTS_Item             TDS_TTS_Item                                                                                         No No                                                                                                                                                                                                                                                                                                                                                                                                                                                                                                                                                                   NEDS_SimpDirsNEDS_SimpDirs                                                                                              Y04        003324773                           Y03        003423481                                                                                          34687408                                                                    ZZ
016529246176PEREZ                                             JANELLE                       ADRIANA                       2011-05-16F     060619647330000000Los Angeles Unified                                                                                 19647336017446William R. Anton Elementary                                                                                      No       No No No No                     2016-08-162022-08-15EO  ENG00No    No YesYesNYesNo No No No No No No 50013 0000000181429197C0000000182226002C                                  0033678483002014Los Angeles Unified                                                                                 19647330000000William R. Anton Elementary                                                                         19647336017446      N          Los Angeles Unified                                                                                 19647330000000William R. Anton Elementary                                                                         19647336017446      N                                                                                                                                                                                                                                                                                                                                                                                                                                                                                      2023-04-252023-04-252023-04-262023-04-27                                        Los Angeles Unified                                                                                 19647330000000William R. Anton Elementary                                                                         19647336017446      N2023-04-272023-03-062023-06-092023-03-062023-06-09                                        N4702022-08-142023-06-21                 YV OYNN  Y2023-05-18820L                                              24670032243524992   EXPL222    022003      No No                                                                                                                                                                                                                                                                                                                                                                                                                                                                                                                                                                                                                                                                                                                                                                                                                                                                                                                                                                                                                                              No No                                                                                                                                                                                                                                                                                                                                                                                                                                                                                                                                                                                                                                                                                           Y05        003423991                                                                                                                                         33678483                                                                    ZZ
028674895035Maldonado                                         Tyler                         Thomas                        2010-08-16M     070719647330123992Animo Ellen Ochoa Charter Middle                                                                    19647330123992Animo Ellen Ochoa Charter Middle                                                                    1286DF       No       No No No No 2015-08-172017-03-272015-08-172022-08-15RFEPSPA01No    No YesYesNYesNo No No No No No No 50013 0000000187225088C0000000187946636C                                  0033821952002002Animo Ellen Ochoa Charter Middle                                                                    19647330123992Animo Ellen Ochoa Charter Middle                                                                    19647330123992DF1286N          Animo Ellen Ochoa Charter Middle                                                                    19647330123992Animo Ellen Ochoa Charter Middle                                                                    19647330123992DF1286N                                                                                                                                                                                                                                                                                                                                                                                                                                                                                      2023-05-082023-05-082023-05-092023-05-09                                        Animo Ellen Ochoa Charter Middle                                                                    19647330123992Animo Ellen Ochoa Charter Middle                                                                    19647330123992DF1286N2023-05-092023-04-172023-06-162023-04-172023-06-16                                        E1552023-06-162023-07-17                 YV OYNN  Y2023-05-261145Q                                             26190028259126473              017006      No No                                                                                                                                                                                                                                                                                                                                                                                                                                                                                                                                                                                                                                                                                                                                                                                                                                                                                                                                                                                                                                              No No                                                                                                                                                                                                                                                                                                                                                                                                                                                                                                                                                                                                                                                                                           Y06        002725893                           Y05        002525533                                                                                          33821952                                                                    ZZ
028615263904Campos Flores                                     Leslie                        Rachel                        2011-11-24F     050519647330128132Extera Public School No. 2                                                                          19647330128132Extera Public School No. 2                                                                          1562DF       No       No No No No 2017-08-142018-06-202017-08-142022-08-22RFEPSPA01No    No YesYesNYesNo No No No No No No 50013 0000000189991126C0000000190509182C                                  0035566500002002Extera Public School No. 2                                                                          19647330128132Extera Public School No. 2                                                                          19647330128132DF1562N          Extera Public School No. 2                                                                          19647330128132Extera Public School No. 2                                                                          19647330128132DF1562N                                                                                                                                                                                                                                                                                                                                                                                                                                                                                      2023-05-152023-05-302023-05-162023-05-16                                        Extera Public School No. 2                                                                          19647330128132Extera Public School No. 2                                                                          19647330128132DF1562N2023-05-302023-04-242023-06-142023-04-242023-06-14                                        E2302023-06-142023-06-30                 YV OYNN  Y2023-06-01565Q                                              24270035239224621              017006      No Yes                                                                                                                                                                                                                                                                                                                                                                                                                                                                                                                                                                                                                                                                                                                                                                                                                                                                                                               TDS_TTS_Stim&TDS_TTS_ItemTDS_TTS_Stim&TDS_TTS_Item                                                                            No No                                                                                                                                                                                                                                                                                                                                                                                                                                                                                                                                                                   NEDS_SimpDirsNEDS_SimpDirs                                                                                              Y04        002424712                           Y03        002523942                                                                                          35566500                                                                    ZZ
015692201446Gonzalez                                          Oliver                                                      2011-08-20M     060619647330123992Animo Ellen Ochoa Charter Middle                                                                    19647330123992Animo Ellen Ochoa Charter Middle                                                                    1286DF1964733No OHIOHIYesYesNo Yes2016-08-18          2016-08-182022-08-15EL  SPA01No    No YesYesNYesNo No No No No No No 50014 0000000188823416C0000000189444877C                                  0034611708002014Animo Ellen Ochoa Charter Middle                                                                    19647330123992Animo Ellen Ochoa Charter Middle                                                                    19647330123992DF1286N          Animo Ellen Ochoa Charter Middle                                                                    19647330123992Animo Ellen Ochoa Charter Middle                                                                    19647330123992DF1286N                                                                                                                                                                                                                                                                                                                                                                                                                                                                                      2023-05-102023-05-102023-05-112023-05-11                                        Animo Ellen Ochoa Charter Middle                                                                    19647330123992Animo Ellen Ochoa Charter Middle                                                                    19647330123992DF1286N2023-05-112023-04-172023-06-162023-04-172023-06-16                                        N4702022-08-142023-07-17                 YV OYNN  Y2023-05-21480L                                              23110048226323591   EXPL000TTT 022003      No Yes                                                                                                                                                                                                                                                                                                                                                                                                                                                                                                                                                                                                                                                                                                                                                                                                                                                                                                                                                                                                                                             No No                                                                                                                                                                                                                                                                                                                                                                                                                                                                                                                                       NEDS_SSNEDS_SS              NEDS_SimpDirsNEDS_SimpDirs                                                                                              Y05        003723591                                                                                                                                         34611708                                                                    ZZ
024462270806Robles                                            Laylah                                                      2009-11-24F     070719647330123992Animo Ellen Ochoa Charter Middle                                                                    19647330123992Animo Ellen Ochoa Charter Middle                                                                    1286DF1964733No SLDSLDYesYesNo No                               2022-08-15EO  ENG00No    No No No NYesNo No No No No No No 50013 0000000187312026C0000000188124326C                                  0033536453002002Animo Ellen Ochoa Charter Middle                                                                    19647330123992Animo Ellen Ochoa Charter Middle                                                                    19647330123992DF1286N          Animo Ellen Ochoa Charter Middle                                                                    19647330123992Animo Ellen Ochoa Charter Middle                                                                    19647330123992DF1286N                                                                                                                                                                                                                                                                                                                                                                                                                                                                                      2023-05-082023-05-082023-05-092023-05-09                                        Animo Ellen Ochoa Charter Middle                                                                    19647330123992Animo Ellen Ochoa Charter Middle                                                                    19647330123992DF1286N2023-05-092023-04-172023-06-162023-04-172023-06-16                                        E1552023-06-162023-07-17                 YV OYNN  Y2023-05-24500Q                                              23710051232024221              019000      YesYes                                                                                                                                                                                                                                                                                                                                 NEA_MTNEA_MT                                                                                                                                                                                                                                                                                                                                                                                                                                                                                                                                                                  TDS_TTS_Stim&TDS_TTS_ItemTDS_TTS_Stim&TDS_TTS_Item                                                                            No No                                                                                                                                                                                                                                                                                                                                                                                                                                                                                                                                       NEDS_SSNEDS_SS                                                                                                                                      Y06        003025222                           Y05                9NT                                                                                        33536453                                                                    ZZ
026556127174Banda Teofilo                                     Emily                                                       2011-04-22F     050519647330128132Extera Public School No. 2                                                                          19647330128132Extera Public School No. 2                                                                          1562DF       No       No No No Yes2016-08-19          2016-08-182022-08-16EL  SPA01No    No YesYesNYesNo No No No No No No 50014 0000000189984568C0000000190506571C                                  0034635849002002Extera Public School No. 2                                                                          19647330128132Extera Public School No. 2                                                                          19647330128132DF1562N          Extera Public School No. 2                                                                          19647330128132Extera Public School No. 2                                                                          19647330128132DF1562N                                                                                                                                                                                                                                                                                                                                                                                                                                                                                      2023-05-152023-05-152023-05-162023-05-16                                        Extera Public School No. 2                                                                          19647330128132Extera Public School No. 2                                                                          19647330128132DF1562N2023-05-162023-04-242023-06-142023-04-242023-06-14                                        E2302023-06-142023-06-30                 YV OYNN  Y2023-05-31470Q                                              23930038235524311              017004      No Yes                                                                                                                                                                                                                                                                                                                                                                                                                                                                                                                                                                                                                                                                                                                                                                                                                                                                                                               TDS_TTS_Stim&TDS_TTS_ItemTDS_TTS_Stim&TDS_TTS_Item                                                                            No No                                                                                                                                                                                                                                                                                                                                                                                                                                                                                                                                                                   NEDS_SimpDirsNEDS_SimpDirs                                                                                              Y04        003123631                           Y03        004222441                                                                                          34635849                                                                    ZZ
014583003027Rojas                                             Luis                          Emanuel                       2011-03-15M     060619647330123992Animo Ellen Ochoa Charter Middle                                                                    19647330123992Animo Ellen Ochoa Charter Middle                                                                    1286DF       No       No No No Yes2016-09-13          2016-08-162022-11-08EL  SPA01No    No No No NYesNo No No No No No No 50010 0000000188656539C0000000189385031C                                  0033543977002014Animo Ellen Ochoa Charter Middle                                                                    19647330123992Animo Ellen Ochoa Charter Middle                                                                    19647330123992DF1286N          Animo Ellen Ochoa Charter Middle                                                                    19647330123992Animo Ellen Ochoa Charter Middle                                                                    19647330123992DF1286N                                                                                                                                                                                                                                                                                                                                                                                                                                                                                      2023-05-102023-05-102023-05-112023-05-11                                        Animo Ellen Ochoa Charter Middle                                                                    19647330123992Animo Ellen Ochoa Charter Middle                                                                    19647330123992DF1286N2023-05-112023-04-172023-06-162023-04-172023-06-16                                        E1552023-06-162023-07-18                 YV OYNN  Y2023-06-11760L                                              24400033240724731   NARR001MM  022003      No No                                                                                                                                                                                                                                                                                                                                                                                                                                                                                                                                                                                                                                                                                                                                                                                                                                                                                                                                                                                                                                              No No                                                                                                                                                                                                                                                                                                                                                                                                                                                                                                                                                                                                                                                                                           Y05        003224622                                                                                                                                         33543977                                                                    ZZ
026528752324Elizalde                                          Angel                         Gabriel                       2010-08-06M     070719647330123992Animo Ellen Ochoa Charter Middle                                                                    19647330123992Animo Ellen Ochoa Charter Middle                                                                    1286DF       No       No No No No 2015-09-152018-01-192015-08-182022-08-15RFEPSPA01No    No YesYesNYesNo No No No No No No 50014 0000000187346614C0000000188059825C                                  0033678453002002Animo Ellen Ochoa Charter Middle                                                                    19647330123992Animo Ellen Ochoa Charter Middle                                                                    19647330123992DF1286N          Animo Ellen Ochoa Charter Middle                                                                    19647330123992Animo Ellen Ochoa Charter Middle                                                                    19647330123992DF1286N                                                                                                                                                                                                                                                                                                                                                                                                                                                                                      2023-05-082023-05-082023-05-092023-05-09                                        Animo Ellen Ochoa Charter Middle                                                                    19647330123992Animo Ellen Ochoa Charter Middle                                                                    19647330123992DF1286N2023-05-092023-04-172023-06-162023-04-172023-06-16                                        E1552023-06-162023-07-15                 YV OYNN  Y2023-06-05910Q                                              25290034249525632              017005      No No                                                                                                                                                                                                                                                                                                                                                                                                                                                                                                                                                                                                                                                                                                                                                                                                                                                                                                                                                                                                                                              No No                                                                                                                                                                                                                                                                                                                                                                                                                                                                                                                                                                                                                                                                                           Y06        003324711                                                                                                                                         33678453                                                                    ZZ
026253905892MORENO                                            HAWK                          BRUNO                         2011-03-23M     060619647330000000Los Angeles Unified                                                                                 19647336019210Sierra Park Elementary                                                                                           No       No No No No                     2016-08-162022-08-15EO  ENG00No    No YesYesNYesNo No No No No No No 50013 0000000191047558C0000000191386996C                                  0033658827002002Los Angeles Unified                                                                                 19647330000000Sierra Park Elementary                                                                              19647336019210      N          Los Angeles Unified                                                                                 19647330000000Sierra Park Elementary                                                                              19647336019210      N                                                                                                                                                                                                                                                                                                                                                                                                                                                                                      2023-05-162023-05-162023-05-172023-05-17                                        Los Angeles Unified                                                                                 19647330000000Sierra Park Elementary                                                                              19647336019210      N2023-05-172023-03-062023-06-092023-03-062023-06-09                                        E2302023-06-092023-06-23                 YV OYNN  Y2023-05-26435Q                                              23510050230124011              017005      No No                                                                                                                                                                                                                                                                                                                                                                                                                                                                                                                                                                                                                                                                                                                                                                                                                                                                                                                                                                                                                                              No No                                                                                                                                                                                                                                                                                                                                                                                                                                                                                                                                                                                                                                                                                           Y05        004123691                                                                                                                                         33658827                                                                    ZZ
014696294241Olivares                                          Edward                                                      2009-11-25M     070719647330123992Animo Ellen Ochoa Charter Middle                                                                    19647330123992Animo Ellen Ochoa Charter Middle                                                                    1286DF       No       No No No No 2014-09-092021-10-212014-08-122022-08-15RFEPSPA01No    No YesYesNYesNo No No No No No No 50013 0000000188830124C0000000189430818C                                  0033554618002014Animo Ellen Ochoa Charter Middle                                                                    19647330123992Animo Ellen Ochoa Charter Middle                                                                    19647330123992DF1286N          Animo Ellen Ochoa Charter Middle                                                                    19647330123992Animo Ellen Ochoa Charter Middle                                                                    19647330123992DF1286N                                                                                                                                                                                                                                                                                                                                                                                                                                                                                      2023-05-102023-05-102023-05-112023-05-11                                        Animo Ellen Ochoa Charter Middle                                                                    19647330123992Animo Ellen Ochoa Charter Middle                                                                    19647330123992DF1286N2023-05-112023-04-172023-06-162023-04-172023-06-16                                        E1552023-06-162023-07-17                 YV OYNN  Y2023-05-241125L                                             25700033253726033              026000      No No                                                                                                                                                                                                                                                                                                                                                                                                                                                                                                                                                                                                                                                                                                                                                                                                                                                                                                                                                                                                                                              No No                                                                                                                                                                                                                                                                                                                                                                                                                                                                                                                                                                                                                                                                                           Y06        003224582                                                                                                                                         33554618                                                                    ZZ
016278366992Castro                                            Alan                                                        2010-06-19M     070719647330123992Animo Ellen Ochoa Charter Middle                                                                    19647330123992Animo Ellen Ochoa Charter Middle                                                                    1286DF1964733No SLDSLDYesYesNo No                               2022-08-15EO  ENG00No    No YesYesNYesNo No No No No No No 50015 0000000188843378C0000000189430690C                                  0033660561002014Animo Ellen Ochoa Charter Middle                                                                    19647330123992Animo Ellen Ochoa Charter Middle                                                                    19647330123992DF1286N          Animo Ellen Ochoa Charter Middle                                                                    19647330123992Animo Ellen Ochoa Charter Middle                                                                    19647330123992DF1286N                                                                                                                                                                                                                                                                                                                                                                                                                                                                                      2023-05-102023-05-102023-05-112023-05-11                                        Animo Ellen Ochoa Charter Middle                                                                    19647330123992Animo Ellen Ochoa Charter Middle                                                                    19647330123992DF1286N2023-05-112023-04-172023-06-162023-04-172023-06-16                                        E1552023-06-162023-07-17                 YV OYNN  Y2023-05-22895L                                              24600035242524951   EXPL110    022003      YesYes                                                                                                                                TDS_TTS_StimTDS_TTS_Stim                                                                                                                                                                                                                                                                                                                                                                                                                                                                                                                                                                                                                                                                                                                                                       TDS_TTS_Item             TDS_TTS_Item                                                                                         No No                                                                                                                                                                                                                                                                            NEDS_NoiseBufNEDS_NoiseBuf                                                                                                                                                                                                                                 NEDS_SSNEDS_SS              NEDS_SimpDirsNEDS_SimpDirs                                                                                              Y06        004423351                                                                                                                                         33660561                                                                    ZZ
026610662472Cortes                                            Samantha                      Isabella                      2010-10-05F     070719647330123992Animo Ellen Ochoa Charter Middle                                                                    19647330123992Animo Ellen Ochoa Charter Middle                                                                    1286DF       No       No No No No 2015-08-172021-06-162015-08-172022-08-15RFEPSPA01No    No YesYesNYesNo No No No No No No 50012 0000000187237529C0000000188054173C                                  0033688156002002Animo Ellen Ochoa Charter Middle                                                                    19647330123992Animo Ellen Ochoa Charter Middle                                                                    19647330123992DF1286N          Animo Ellen Ochoa Charter Middle                                                                    19647330123992Animo Ellen Ochoa Charter Middle                                                                    19647330123992DF1286N                                                                                                                                                                                                                                                                                                                                                                                                                                                                                      2023-05-082023-05-082023-05-092023-05-09                                        Animo Ellen Ochoa Charter Middle                                                                    19647330123992Animo Ellen Ochoa Charter Middle                                                                    19647330123992DF1286N2023-05-092023-04-172023-06-162023-04-172023-06-16                                        E1552023-06-162023-07-15                 YV OYNN  Y2023-05-241075Q                                             25930029256426223              017005      No No                                                                                                                                                                                                                                                                                                                                                                                                                                                                                                                                                                                                                                                                                                                                                                                                                                                                                                                                                                                                                                              No No                                                                                                                                                                                                                                                                                                                                                                                                                                                                                                                                                                                                                                                                                           Y06        003524571                           Y05        004523441                                                                                          33688156                                                                    ZZ
023079297405Felix Martinez                                    Diego                                                       2011-10-15M     050519648080000000Montebello Unified                                                                                  19648086020689Winter Gardens Elementary                                                                                        No       No No No No 2016-08-182022-12-092016-08-182022-08-15RFEPSPA01No    No YesYesNYesNo No No No No No No 50015 0000000186379597C0000000186804180C                                  0034543951002002Montebello Unified                                                                                  19648080000000Winter Gardens Elementary                                                                           19648086020689      N          Montebello Unified                                                                                  19648080000000Winter Gardens Elementary                                                                           19648086020689      N                                                                                                                                                                                                                                                                                                                                                                                                                                                                                      2023-05-042023-05-042023-05-052023-05-05                                        Montebello Unified                                                                                  19648080000000Winter Gardens Elementary                                                                           19648086020689      N2023-05-052023-03-032023-06-092023-03-032023-06-09                                        E2302023-06-092023-07-17                 YV OYNN  Y2023-05-261125Q                                             26440025261926694              017005      No No                                                                                                                                                                                                                                                                                                                                                                                                                                                                                                                                                                                                                                                                                                                                                                                                                                                                                                                                                                                                                                              No No                                                                                                                                                                                                                                                                                                                                                                                                                                                                                                                                                                                                                                                                                           Y04        002826324                           Y03        002224983                                                                                          34543951                                                                    ZZ
014940393117Paz                                               Alfred                        S                             2009-11-15M     070719647330123992Animo Ellen Ochoa Charter Middle                                                                    19647330123992Animo Ellen Ochoa Charter Middle                                                                    1286DF       No       No No No No 2014-08-112017-12-122014-08-112022-08-15RFEPSPA01No    No YesYesNYesNo No No No No No No 50014 0000000188833219C0000000189414898C                                  0033564959002014Animo Ellen Ochoa Charter Middle                                                                    19647330123992Animo Ellen Ochoa Charter Middle                                                                    19647330123992DF1286N          Animo Ellen Ochoa Charter Middle                                                                    19647330123992Animo Ellen Ochoa Charter Middle                                                                    19647330123992DF1286N                                                                                                                                                                                                                                                                                                                                                                                                                                                                                      2023-05-102023-05-102023-05-112023-05-11                                        Animo Ellen Ochoa Charter Middle                                                                    19647330123992Animo Ellen Ochoa Charter Middle                                                                    19647330123992DF1286N2023-05-112023-04-172023-06-162023-04-172023-06-16                                        E1552023-06-162023-07-15                 YV OYNN  Y2023-05-241030L                                             25240033249125572   ARGU112    022003      No No                                                                                                                                                                                                                                                                                                                                                                                                                                                                                                                                                                                                                                                                                                                                                                                                                                                                                                                                                                                                                                              No No                                                                                                                                                                                                                                                                                                                                                                                                                                                                                                                                                                                                                                                                                           Y06        003125122                           Y05        003224472                                                                                          33564959                                                                    ZZ
016481458573CAL                                               JOAQUIN                                                     2012-05-21M     050519647330000000Los Angeles Unified                                                                                 19647336017859Liberty Boulevard Elementary                                                                                     No       No No No No                     2017-08-152022-08-15EO  ENG00No    No YesYesNYesNo No No No No No No 50013 0000000190644708C0000000187934555C                                  0033682407002014Los Angeles Unified                                                                                 19647330000000Liberty Boulevard Elementary                                                                        19647336017859      N          Los Angeles Unified                                                                                 19647330000000Liberty Boulevard Elementary                                                                        19647336017859      N                                                                                                                                                                                                                                                                                                                                                                                                                                                                                      2023-05-162023-05-172023-05-092023-05-11                                        Los Angeles Unified                                                                                 19647330000000Liberty Boulevard Elementary                                                                        19647336017859      N2023-05-172023-03-062023-06-092023-03-062023-06-09                                        E1552023-06-092023-06-21                 YV OYNN  Y2023-05-30850L                                              24810032244925132   OPIN331    020003      No No                                                                                                                                                                                                                                                                                                                                                                                                                                                                                                                                                                                                                                                                                                                                                                                                                                                                                                                                                                                                                                              No No                                                                                                                                                                                                                                                                                                                                                                                                                                                                                                                                                                                                                                                                                           Y04        003424532                                                                                                                                         33682407                                                                    ZZ
029441217067Alexander                                         My'layah                      Beautiful                     2010-02-16F     070719647330123992Animo Ellen Ochoa Charter Middle                                                                    19647330123992Animo Ellen Ochoa Charter Middle                                                                    1286DF       No       No No No No                               2022-10-28EO  ENG00No    No YesYesNNo No No No No YesNo No 60013 0000000187223265C0000000187946610C                                  0033889505002002Animo Ellen Ochoa Charter Middle                                                                    19647330123992Animo Ellen Ochoa Charter Middle                                                                    19647330123992DF1286N          Animo Ellen Ochoa Charter Middle                                                                    19647330123992Animo Ellen Ochoa Charter Middle                                                                    19647330123992DF1286N                                                                                                                                                                                                                                                                                                                                                                                                                                                                                      2023-05-082023-05-082023-05-092023-05-09                                        Animo Ellen Ochoa Charter Middle                                                                    19647330123992Animo Ellen Ochoa Charter Middle                                                                    19647330123992DF1286N2023-05-092023-04-172023-06-162023-04-172023-06-16                                        E1552023-06-162023-07-18                 YV OYNN  Y2023-05-22940Q                                              25410033250825742              017004      No No                                                                                                                                                                                                                                                                                                                                                                                                                                                                                                                                                                                                                                                                                                                                                                                                                                                                                                                                                                                                                                              No No                                                                                                                                                                                                                                                                                                                                                                                                                                                                                                                                                                                                                                                                                           Y06        002725843                                                                                                                                         33889505                                                                    ZZ
015951602978AGUILAR OCOTLAN                                   ANAHI                                                       2011-02-14F     060619647330000000Los Angeles Unified                                                                                 19647336017446William R. Anton Elementary                                                                                      No       No No No No                     2016-08-162022-08-15EO  ENG00No    No YesYesNYesNo No No No No No No 50014 0000000181417996C0000000182226957C                                  0033634719002014Los Angeles Unified                                                                                 19647330000000William R. Anton Elementary                                                                         19647336017446      N          Los Angeles Unified                                                                                 19647330000000William R. Anton Elementary                                                                         19647336017446      N                                                                                                                                                                                                                                                                                                                                                                                                                                                                                      2023-04-252023-05-012023-04-262023-04-27                                        Los Angeles Unified                                                                                 19647330000000William R. Anton Elementary                                                                         19647336017446      N2023-05-012023-03-062023-06-092023-03-062023-06-09                                        E2302023-06-092023-06-22                 YV OYNN  Y2023-05-18860L                                              24860031245525172   EXPL112    022003      No No                                                                                                                                                                                                                                                                                                                                                                                                                                                                                                                                                                                                                                                                                                                                                                                                                                                                                                                                                                                                                                              No No                                                                                                                                                                                                                                                                                                                                                                                                                                                                                                                                                                                                                                                                                           Y05        003225043                                                                                                                                         33634719                                                                    ZZ
021001411706MEDINA                                            CHLOE                         EMILY                         2012-02-16F     050519647330000000Los Angeles Unified                                                                                 19647336018998Rowan Avenue Elementary                                                                                          No       No No No No                     2020-08-262022-08-15EO  ENG00No    No YesYesNYesNo No No No No No No 50015 0000000189327750C0000000190793210C                                  0033296247002002Los Angeles Unified                                                                                 19647330000000Rowan Avenue Elementary                                                                             19647336018998      N          Los Angeles Unified                                                                                 19647330000000Rowan Avenue Elementary                                                                             19647336018998      N                                                                                                                                                                                                                                                                                                                                                                                                                                                                                      2023-05-112023-05-162023-05-162023-05-17                                        Los Angeles Unified                                                                                 19647330000000Rowan Avenue Elementary                                                                             19647336018998      N2023-05-172023-03-062023-06-092023-03-062023-06-09                                        E2302023-06-082023-06-22                 YV OYNN  Y2023-05-31685Q                                              24700030244025002              017006      No No                                                                                                                                                                                                                                                                                                                                                                                                                                                                                                                                                                                                                                                                                                                                                                                                                                                                                                                                                                                                                                              No No                                                                                                                                                                                                                                                                                                                                                                                                                                                                                                                                                                                                                                                                                           Y04        002524442                                                                                                                                         33296247                                                                    ZZ
013485311031Gonzalez                                          Jaslene                       Destiny                       2010-09-10F     060619647330123992Animo Ellen Ochoa Charter Middle                                                                    19647330123992Animo Ellen Ochoa Charter Middle                                                                    1286DF       No       No No No No                     2015-08-182022-08-15IFEPSPA01No    No YesYesNYesNo No No No No No No 50015 0000000188894085C0000000189501037C                                  0033471849002014Animo Ellen Ochoa Charter Middle                                                                    19647330123992Animo Ellen Ochoa Charter Middle                                                                    19647330123992DF1286N          Animo Ellen Ochoa Charter Middle                                                                    19647330123992Animo Ellen Ochoa Charter Middle                                                                    19647330123992DF1286N                                                                                                                                                                                                                                                                                                                                                                                                                                                                                      2023-05-102023-05-102023-05-112023-05-11                                        Animo Ellen Ochoa Charter Middle                                                                    19647330123992Animo Ellen Ochoa Charter Middle                                                                    19647330123992DF1286N2023-05-112023-04-172023-06-162023-04-172023-06-16                                        E1552023-06-162023-07-15                 YV OYNN  Y2023-05-191165L                                             26270034259326614   EXPL222    022003      No No                                                                                                                                                                                                                                                                                                                                                                                                                                                                                                                                                                                                                                                                                                                                                                                                                                                                                                                                                                                                                                              No No                                                                                                                                                                                                                                                                                                                                                                                                                                                                                                                                                                                                                                                                                           Y05        003626054                                                                                                                                         33471849                                                                    ZZ
