021462600372RODRIGUEZ                                         OLIVER                        CESAR                         2012-08-19M     050519647330000000Los Angeles Unified                                                                                 19647336019293South Park Elementary                                                                                            No       No No No No 2017-09-112019-02-212017-08-152022-08-15RFEPCHI03No    No YesYesNYesNo No No No No No No 50013 0000000191326992C0000000191748857C                                  0033329878002002Los Angeles Unified                                                                                 19647330000000South Park Elementary                                                                               19647336019293      N          Los Angeles Unified                                                                                 19647330000000South Park Elementary                                                                               19647336019293      N                                                                                                                                                                                                                                                                                                                                                                                                                                                                                      2023-05-172023-05-172023-05-182023-05-18                                        Los Angeles Unified                                                                                 19647330000000South Park Elementary                                                                               19647336019293      N2023-05-182023-03-062023-06-092023-03-062023-06-09                                        E1552023-06-092023-06-23                 YV OYNN  Y2023-06-14885Q                                              25390025251425643              017004      No No                                                                                                                                                                                                                                                                                                                                                                                                                                                                                                                                                                                                                                                                                                                                                                                                                                                                                                                                                                                                                                              No No                                                                                                                                                                                                                                                                                                                                                                                                                                                                                                                                                                                                                                                                                           Y04        002324983                                                                                                                                         33329878                                                                    ZZ
015669033095MARTINEZ                                          EFRAIN                        ISAIAS                        2012-02-28M     050519647330000000Los Angeles Unified                                                                                 19647336018378Ninety-Sixth Street Elementary                                                                            1964733No SLDSLDYesYesNo No 2017-09-052022-02-152017-08-152022-08-15RFEPSPA01No    No YesYesNYesNo No No No No No No 50013 0000000187291900C0000000189039549C                                  0033619458002014Los Angeles Unified                                                                                 19647330000000Ninety-Sixth Street Elementary                                                                      19647336018378      N          Los Angeles Unified                                                                                 19647330000000Ninety-Sixth Street Elementary                                                                      19647336018378      N                                                                                                                                                                                                                                                                                                                                                                                                                                                                                      2023-05-082023-05-102023-05-102023-05-18                                        Los Angeles Unified                                                                                 19647330000000Ninety-Sixth Street Elementary                                                                      19647336018378      N2023-05-182023-03-062023-06-092023-03-062023-06-09                                        E1552023-06-092023-06-23                 YV OYNN  Y2023-06-19845L                                              24790032244725112   NARR000III 020003      YesYes                                                                                                                                TDS_TTS_StimTDS_TTS_Stim                                                                                                                                                                                                                                                                                                                                                                                                                                                                                                                                                                                                                                                                                                                                                       TDS_TTS_Item             TDS_TTS_Item                                                                                         No No                                                                                                                                                                                                                                                                                                                                                                                                                                                                                                                                                                   NEDS_SimpDirsNEDS_SimpDirs                                                                                              Y04        003324773                                                                                                                                         33619458                                                                    ZZ
026793671003Arias Cruz                                        Belen                         Sarai                         2010-04-27F     070719647330134023Animo Florence-Firestone Charter Middle                                                             19647330134023Animo Florence-Firestone Charter Middle                                                             1794DF       No       No No No No 2015-08-242018-02-262015-08-182022-08-15RFEPSPA01No    No YesYesNYesNo No No No No No No 50013 0000000191589506C0000000192124359C                                  0033720720002002Animo Florence-Firestone Charter Middle                                                             19647330134023Animo Florence-Firestone Charter Middle                                                             19647330134023DF1794N          Animo Florence-Firestone Charter Middle                                                             19647330134023Animo Florence-Firestone Charter Middle                                                             19647330134023DF1794N                                                                                                                                                                                                                                                                                                                                                                                                                                                                                      2023-05-172023-05-172023-05-192023-05-19                                        Animo Florence-Firestone Charter Middle                                                             19647330134023Animo Florence-Firestone Charter Middle                                                             19647330134023DF1794N2023-05-192023-04-172023-06-162023-04-172023-06-16                                        E1552023-06-162023-07-05                 YV OYNN  Y2023-06-01800Q                                              24870037245025242              017006      No No                                                                                                                                                                                                                                                                                                                                                                                                                                                                                                                                                                                                                                                                                                                                                                                                                                                                                                                                                                                                                                              No No                                                                                                                                                                                                                                                                                                                                                                                                                                                                                                                                                                                                                                                                                           Y06        003724371                                                                                                                                         33720720                                                                    ZZ
016241167336Gomez                                             Emily                                                       2009-09-11F     070719647330134023Animo Florence-Firestone Charter Middle                                                             19647330134023Animo Florence-Firestone Charter Middle                                                             1794DF       No       No No No No 2014-08-182022-05-27          2022-08-15RFEPSPA01No    YesYesYesNYesNo No No No No No No 50013 0000000191770994C0000000192213682C                                  0033657899002014Animo Florence-Firestone Charter Middle                                                             19647330134023Animo Florence-Firestone Charter Middle                                                             19647330134023DF1794N          Animo Florence-Firestone Charter Middle                                                             19647330134023Animo Florence-Firestone Charter Middle                                                             19647330134023DF1794N                                                                                                                                                                                                                                                                                                                                                                                                                                                                                      2023-05-182023-05-182023-05-222023-05-23                                        Animo Florence-Firestone Charter Middle                                                             19647330134023Animo Florence-Firestone Charter Middle                                                             19647330134023DF1794N2023-05-232023-04-172023-06-162023-04-172023-06-16                                        E1552023-06-162023-07-03                 YV OYNN  Y2023-06-011120L                                             25690033253626023   ARGU222    022003      No No                                                                                                                                                                                                                                                                                                                                                                                                                                                                                                                                                                                                                                                                                                                                                                                                                                                                                                                                                                                                                                              No No                                                                                                                                                                                                                                                                                                                                                                                                                                                                                                                                                                                                                                                                                           Y06        003325763                                                                                                                                         33657899                                                                    ZZ
013994965775PALMA MEJIA                                       JESUS                         MANUEL                        2012-02-23M     050519647330000000Los Angeles Unified                                                                                 19647336018915Ritter Elementary                                                                                                No       No No No No 2021-10-082023-05-312021-09-142022-08-16RFEPSPA01No    YesYesYesNYesNo No No No No No No 50013 0000000187893730C0000000189376299C                                  0033498401002014Los Angeles Unified                                                                                 19647330000000Ritter Elementary                                                                                   19647336018915      N          Los Angeles Unified                                                                                 19647330000000Ritter Elementary                                                                                   19647336018915      N                                                                                                                                                                                                                                                                                                                                                                                                                                                                                      2023-05-092023-05-102023-05-112023-05-12                                        Los Angeles Unified                                                                                 19647330000000Ritter Elementary                                                                                   19647336018915      N2023-05-122023-03-062023-06-092023-03-062023-06-09                                        E2302023-06-092023-06-23                 YV OYNN  Y2023-06-01795L                                              24570032242524892   INFO110    020003      No No                                                                                                                                                                                                                                                                                                                                                                                                                                                                                                                                                                                                                                                                                                                                                                                                                                                                                                                                                                                                                                              No No                                                                                                                                                                                                                                                                                                                                                                                                                                                                                                                                                                                                                                                                                           Y04        003524172                                                                                                                                         33498401                                                                    ZZ
011319974806Tellez                                            Jordan                        Dominique                     2009-09-30M     070719647330134023Animo Florence-Firestone Charter Middle                                                             19647330134023Animo Florence-Firestone Charter Middle                                                             1794DF1964733No SLDSLDYesYesNo No 2014-09-102019-05-232014-09-022022-08-15RFEPSPA01No    YesYesYesNYesNo No No No No No No 50013 0000000191745385C0000000192217439C                                  0033318856002014Animo Florence-Firestone Charter Middle                                                             19647330134023Animo Florence-Firestone Charter Middle                                                             19647330134023DF1794N          Animo Florence-Firestone Charter Middle                                                             19647330134023Animo Florence-Firestone Charter Middle                                                             19647330134023DF1794N                                                                                                                                                                                                                                                                                                                                                                                                                                                                                      2023-05-182023-05-182023-05-222023-05-24                                        Animo Florence-Firestone Charter Middle                                                             19647330134023Animo Florence-Firestone Charter Middle                                                             19647330134023DF1794N2023-05-242023-04-172023-06-162023-04-172023-06-16                                        E1552023-06-162023-07-03                 YV OYNN  Y2023-05-311320L                                             26650036262927014   NARR332    022003      YesYes                                                                                                                                TDS_TTS_StimTDS_TTS_Stim                                                                                                                                                                                                                                                                                                                                                                                                                                                                                                                                                                                                                                                                                                                                                       TDS_TTS_Item             TDS_TTS_Item                                                                                         No No                                                                                                                                                                                                                                                                                                                                                                                                                                                                                                                                       NEDS_SSNEDS_SS                                                                                                                                      Y06        003125192                                                                                                                                         33318856                                                                    ZZ
025021772557OCHOA-TEJEDA                                      KAYLEE                        MARLENE                       2012-01-23F     050519647330000000Los Angeles Unified                                                                                 19647336018352Ninety-Second Street Elementary                                                                           1964733No SLDSLDYesYesNo Yes2017-09-12          2017-08-152022-09-29EL  SPA01No    No YesYesNYesNo No No No No No No 50015 0000000190055081C0000000191262304C                                  0033570794002002Los Angeles Unified                                                                                 19647330000000Ninety-Second Street Elementary                                                                     19647336018352      N          Los Angeles Unified                                                                                 19647330000000Ninety-Second Street Elementary                                                                     19647336018352      N                                                                                                                                                                                                                                                                                                                                                                                                                                                                                      2023-05-152023-05-162023-05-172023-05-19                                        Los Angeles Unified                                                                                 19647330000000Ninety-Second Street Elementary                                                                     19647336018352      N2023-05-192023-03-062023-06-092023-03-062023-06-09                                        E1552023-06-092023-06-22                 YV OYNN  Y2023-05-30190Q                                              22960054224223501              019000      YesYes                                                                                                  TDS_Dictation_1TDS_Dictation_1                        NEA_NumTblNEA_NumTbl                                                                                                                                                     NEA_MTNEA_MT                                                                                                                                                  NEA_STTNEA_STT                                                                                                                                                                                                                                                                                                                                                                                                  TDS_TTS_Stim&TDS_TTS_ItemTDS_TTS_Stim&TDS_TTS_Item                                                                            No No                                                                                                                                                                                                                                                                            NEDS_NoiseBufNEDS_NoiseBuf                          NEDS_RA_Items        NEDS_RA_Items                                                                                                                 NEDS_SC_ItemsNEDS_SC_Items                                                      NEDS_SimpDirsNEDS_SimpDirs                                                                                              Y04        012022051                                                                                                                                         33570794                                                                    ZZ
024011990467Vidrio                                            Alexandra                                                   2011-02-15F     060619647330134023Animo Florence-Firestone Charter Middle                                                             19647330134023Animo Florence-Firestone Charter Middle                                                             1794DF       No       No No No No 2016-08-262019-06-07          2022-08-15RFEPSPA01No    No No No NYesNo No No No No No No 50015 0000000191586726C0000000192123762C                                  0033499469002002Animo Florence-Firestone Charter Middle                                                             19647330134023Animo Florence-Firestone Charter Middle                                                             19647330134023DF1794N          Animo Florence-Firestone Charter Middle                                                             19647330134023Animo Florence-Firestone Charter Middle                                                             19647330134023DF1794N                                                                                                                                                                                                                                                                                                                                                                                                                                                                                      2023-05-172023-05-172023-05-192023-05-19                                        Animo Florence-Firestone Charter Middle                                                             19647330134023Animo Florence-Firestone Charter Middle                                                             19647330134023DF1794N2023-05-192023-04-172023-06-162023-04-172023-06-16                                        E1552023-06-162023-07-05                 YV OYNN  Y2023-06-011080Q                                             26020027257526293              017005      No No                                                                                                                                                                                                                                                                                                                                                                                                                                                                                                                                                                                                                                                                                                                                                                                                                                                                                                                                                                                                                                              No No                                                                                                                                                                                                                                                                                                                                                                                                                                                                                                                                                                                                                                                                                           Y05        002426214                                                                                                                                         33499469                                                                    ZZ
011680156843LOPEZ                                             MARELYN                                                     2010-12-29F     060619647330000000Los Angeles Unified                                                                                 19647336019004Russell Elementary                                                                                               No       No No No No 2016-08-262023-05-192016-08-192022-08-15RFEPSPA01No    No YesYesNYesNo No No No No No No 50015 0000000191367403C0000000190197507C                                  0033346077002014Los Angeles Unified                                                                                 19647330000000Russell Elementary                                                                                  19647336019004      N          Los Angeles Unified                                                                                 19647330000000Russell Elementary                                                                                  19647336019004      N                                                                                                                                                                                                                                                                                                                                                                                                                                                                                      2023-05-172023-05-172023-05-152023-05-15                                        Los Angeles Unified                                                                                 19647330000000Russell Elementary                                                                                  19647336019004      N2023-05-172023-03-062023-06-092023-03-062023-06-09                                        E2302023-06-092023-06-22                 YV OYNN  Y2023-05-261035L                                             25670032253525993   EXPL232    022003      No No                                                                                                                                                                                                                                                                                                                                                                                                                                                                                                                                                                                                                                                                                                                                                                                                                                                                                                                                                                                                                                              No No                                                                                                                                                                                                                                                                                                                                                                                                                                                                                                                                                                                                                                                                                           Y05        003224982                                                                                                                                         33346077                                                                    ZZ
029497041896Ramos Leanos                                      Eden                                                        2009-10-28M     070719647330134023Animo Florence-Firestone Charter Middle                                                             19647330134023Animo Florence-Firestone Charter Middle                                                             1794DF       No       No No No No 2014-09-082018-02-13          2022-08-15RFEPSPA01No    No YesYesNYesNo No No No No No No 50013 0000000191356623C0000000192042593C                                  0033893430002002Animo Florence-Firestone Charter Middle                                                             19647330134023Animo Florence-Firestone Charter Middle                                                             19647330134023DF1794N          Animo Florence-Firestone Charter Middle                                                             19647330134023Animo Florence-Firestone Charter Middle                                                             19647330134023DF1794N                                                                                                                                                                                                                                                                                                                                                                                                                                                                                      2023-05-172023-05-172023-05-192023-05-19                                        Animo Florence-Firestone Charter Middle                                                             19647330134023Animo Florence-Firestone Charter Middle                                                             19647330134023DF1794N2023-05-192023-04-172023-06-162023-04-172023-06-16                                        E1552023-06-162023-07-10                 YV OYNN  Y2023-06-021025Q                                             25730031254226043              017005      No No                                                                                                                                                                                                                                                                                                                                                                                                                                                                                                                                                                                                                                                                                                                                                                                                                                                                                                                                                                                                                                              No No                                                                                                                                                                                                                                                                                                                                                                                                                                                                                                                                                                                                                                                                                           Y06        003224942                                                                                                                                         33893430                                                                    ZZ
028355179968VARGAS                                            VALERIA                                                     2012-05-14F     050519647330000000Los Angeles Unified                                                                                 19647336019293South Park Elementary                                                                                            No       No No No Yes2021-09-21          2021-08-162022-08-15EL  SPA01No    No YesYesNYesNo No No No No No No 50012 0000000191239222C0000000191710809C                                  0033803239002002Los Angeles Unified                                                                                 19647330000000South Park Elementary                                                                               19647336019293      N          Los Angeles Unified                                                                                 19647330000000South Park Elementary                                                                               19647336019293      N                                                                                                                                                                                                                                                                                                                                                                                                                                                                                      2023-05-172023-05-172023-05-182023-05-18                                        Los Angeles Unified                                                                                 19647330000000South Park Elementary                                                                               19647336019293      N2023-05-182023-03-062023-06-092023-03-062023-06-09                                        E1552023-06-092023-06-23                 YV OYNN  Y2023-05-26660Q                                              24600031242924912              017006      No No                                                                                                                                                                                                                                                                                                                                                                                                                                                                                                                                                                                                                                                                                                                                                                                                                                                                                                                                                                                                                                              No No                                                                                                                                                                                                                                                                                                                                                                                                                                                                                                                                                                                                                                                                                           Y04        002624112                                                                                                                                         33803239                                                                    ZZ
028748383297Alvarez                                           Adrian                        Isaac                         2009-10-28M     070719647330134023Animo Florence-Firestone Charter Middle                                                             19647330134023Animo Florence-Firestone Charter Middle                                                             1794DF       No       No No No No 2014-08-112016-04-062014-08-112022-08-15RFEPSPA01No    YesYesYesNYesNo No No No No No No 50013 0000000191418326C0000000192049907C                                  0033834967002002Animo Florence-Firestone Charter Middle                                                             19647330134023Animo Florence-Firestone Charter Middle                                                             19647330134023DF1794N          Animo Florence-Firestone Charter Middle                                                             19647330134023Animo Florence-Firestone Charter Middle                                                             19647330134023DF1794N                                                                                                                                                                                                                                                                                                                                                                                                                                                                                      2023-05-172023-05-182023-05-192023-05-19                                        Animo Florence-Firestone Charter Middle                                                             19647330134023Animo Florence-Firestone Charter Middle                                                             19647330134023DF1794N2023-05-192023-04-172023-06-162023-04-172023-06-16                                        E1552023-06-162023-07-03                 YV OYNN  Y2023-06-011050Q                                             25830030255326133              017005      No No                                                                                                                                                                                                                                                                                                                                                                                                                                                                                                                                                                                                                                                                                                                                                                                                                                                                                                                                                                                                                                              No No                                                                                                                                                                                                                                                                                                                                                                                                                                                                                                                                                                                                                                                                                           Y06        002925512                                                                                                                                         33834967                                                                    ZZ
017323004743ORTIZ                                             JIMENA                        ANDREA                        2010-12-25F     050519647330000000Los Angeles Unified                                                                                 19647336018188Miramonte Elementary                                                                                             No       No No No Yes2022-03-08          2022-02-082022-08-15EL  SPA01No    No YesYesNYesNo No No No No No No 50011 0000000187803334C0000000188659433C                                  0033733687002014Los Angeles Unified                                                                                 19647330000000Miramonte Elementary                                                                                19647336018188      N          Los Angeles Unified                                                                                 19647330000000Miramonte Elementary                                                                                19647336018188      N                                                                                                                                                                                                                                                                                                                                                                                                                                                                                      2023-05-092023-05-092023-05-102023-05-10                                        Los Angeles Unified                                                                                 19647330000000Miramonte Elementary                                                                                19647336018188      N2023-05-102023-03-062023-06-092023-03-062023-06-09                                        E2302023-06-082023-06-23                 YV OYNN  Y2023-05-30635L                                              23860034235224201   INFO110    020003      No No                                                                                                                                                                                                                                                                                                                                                                                                                                                                                                                                                                                                                                                                                                                                                                                                                                                                                                                                                                                                                                              No No                                                                                                                                                                                                                                                                                                                                                                                                                                                                                                                                                                                                                                                                                           Y04        005222531                                                                                                                                         33733687                                                                    ZZ
013476243395QUINTERO-MONTES                                   JONATHAN                      JESUS                         2010-12-25M     060619647330000000Los Angeles Unified                                                                                 19647336018378Ninety-Sixth Street Elementary                                                                                   No       No No No Yes2016-09-07          2016-08-162022-08-15EL  SPA01No    No YesYesNYesNo No No No No No No 50014 0000000190167702C0000000191400260C                                  0033470207002014Los Angeles Unified                                                                                 19647330000000Ninety-Sixth Street Elementary                                                                      19647336018378      N          Los Angeles Unified                                                                                 19647330000000Ninety-Sixth Street Elementary                                                                      19647336018378      N                                                                                                                                                                                                                                                                                                                                                                                                                                                                                      2023-05-152023-05-162023-05-172023-05-19                                        Los Angeles Unified                                                                                 19647330000000Ninety-Sixth Street Elementary                                                                      19647336018378      N2023-05-192023-03-062023-06-092023-03-062023-06-09                                        E2302023-06-092023-06-23                 YV OYNN  Y2023-05-22755L                                              24390033240624721              026000      No No                                                                                                                                                                                                                                                                                                                                                                                                                                                                                                                                                                                                                                                                                                                                                                                                                                                                                                                                                                                                                                              No No                                                                                                                                                                                                                                                                                                                                                                                                                                                                                                                                                                                                                                                                                           Y05        003723541                                                                                                                                         33470207                                                                    ZZ
019778361433CARRASCO                                          LEA                           ARIEL                         2012-04-28F     050519647330000000Los Angeles Unified                                                                                 19647336017610Holmes Avenue Elementary                                                                                         No       No No No Yes2017-09-08          2017-08-162022-08-15EL  SPA01No    No YesYesNYesNo No No No No No No 50015 0000000187117868C0000000188717149C                                  0033913565002014Los Angeles Unified                                                                                 19647330000000Holmes Avenue Elementary                                                                            19647336017610      N          Los Angeles Unified                                                                                 19647330000000Holmes Avenue Elementary                                                                            19647336017610      N                                                                                                                                                                                                                                                                                                                                                                                                                                                                                      2023-05-082023-05-092023-05-102023-05-11                                        Los Angeles Unified                                                                                 19647330000000Holmes Avenue Elementary                                                                            19647336017610      N2023-05-112023-03-062023-06-092023-03-062023-06-09                                        E1552023-06-092023-06-21                 YV OYNN  Y2023-05-30395L                                              22770049222823261   INFO000III 020003      No Yes                                                                                                                                                                                                                                                                                                                                                                                                                                                                                                                                                                                                                                                                                                                                                                                                                                                                                                               TDS_TTS_Item             TDS_TTS_Item                                                                                         No No                                                                                                                                                                                                                                                                                                                                                                                                                                                                                                                                                                                                                                                                                           Y04        004622831                                                                                                                                         33913565                                                                    ZZ
012247447600GARCIA                                            SANDRA                                                      2011-09-23F     050519647330000000Los Angeles Unified                                                                                 19647336019137Seventy-Fifth Street Elementary                                                                                  No       No No No No 2016-09-082018-06-072016-08-162022-08-15RFEPSPA01No    No YesYesNYesNo No No No No No No 50013 0000000187992616C0000000188839651C                                  0033375463002014Los Angeles Unified                                                                                 19647330000000Seventy-Fifth Street Elementary                                                                     19647336019137      N          Los Angeles Unified                                                                                 19647330000000Seventy-Fifth Street Elementary                                                                     19647336019137      N                                                                                                                                                                                                                                                                                                                                                                                                                                                                                      2023-05-092023-05-092023-05-102023-05-12                                        Los Angeles Unified                                                                                 19647330000000Seventy-Fifth Street Elementary                                                                     19647336019137      N2023-05-122023-03-062023-06-092023-03-062023-06-09                                        E1552023-06-092023-06-22                 YV OYNN  Y2023-05-26860L                                              24870032245525192   OPIN222    020003      No No                                                                                                                                                                                                                                                                                                                                                                                                                                                                                                                                                                                                                                                                                                                                                                                                                                                                                                                                                                                                                                              No No                                                                                                                                                                                                                                                                                                                                                                                                                                                                                                                                                                                                                                                                                           Y04        003525584                                                                                                                                         33375463                                                                    ZZ
019797940022FELIP                                             IVAN                                                        2012-06-22M     050519647330000000Los Angeles Unified                                                                                 19647336018352Ninety-Second Street Elementary                                                                                  No       No No No No 2017-09-062019-02-152017-08-152022-08-15RFEPSPA01No    No YesYesNYesNo No No No No No No 50015 0000000192452458C0000000187985811C                                  0033914974002014Los Angeles Unified                                                                                 19647330000000Ninety-Second Street Elementary                                                                     19647336018352      N          Los Angeles Unified                                                                                 19647330000000Ninety-Second Street Elementary                                                                     19647336018352      N                                                                                                                                                                                                                                                                                                                                                                                                                                                                                      2023-05-232023-05-242023-05-092023-05-10                                        Los Angeles Unified                                                                                 19647330000000Ninety-Second Street Elementary                                                                     19647336018352      N2023-05-242023-03-062023-06-092023-03-062023-06-09                                        E1552023-06-092023-06-21                 YV OYNN  Y2023-05-301075L                                             25820035254726174   NARR332    020003      No No                                                                                                                                                                                                                                                                                                                                                                                                                                                                                                                                                                                                                                                                                                                                                                                                                                                                                                                                                                                                                                              No No                                                                                                                                                                                                                                                                                                                                                                                                                                                                                                                                                                                                                                                                                           Y04        003424572                                                                                                                                         33914974                                                                    ZZ
029500524964Perez                                             Saul                                                        2010-10-21M     060619647330134023Animo Florence-Firestone Charter Middle                                                             19647330134023Animo Florence-Firestone Charter Middle                                                             1794DF       No       No No No No 2015-09-092017-12-14          2022-08-15RFEPSPA01No    No YesYesNYesNo No No No No No No 50015 0000000191394183C0000000192055535C                                  0033877365002002Animo Florence-Firestone Charter Middle                                                             19647330134023Animo Florence-Firestone Charter Middle                                                             19647330134023DF1794N          Animo Florence-Firestone Charter Middle                                                             19647330134023Animo Florence-Firestone Charter Middle                                                             19647330134023DF1794N                                                                                                                                                                                                                                                                                                                                                                                                                                                                                      2023-05-172023-05-172023-05-192023-05-19                                        Animo Florence-Firestone Charter Middle                                                             19647330134023Animo Florence-Firestone Charter Middle                                                             19647330134023DF1794N2023-05-192023-04-172023-06-162023-04-172023-06-16                                        E1552023-06-162023-07-11                 YV OYNN  Y2023-06-14985Q                                              25640028253625923              017006      No No                                                                                                                                                                                                                                                                                                                                                                                                                                                                                                                                                                                                                                                                                                                                                                                                                                                                                                                                                                                                                                              No No                                                                                                                                                                                                                                                                                                                                                                                                                                                                                                                                                                                                                                                                                           Y05        003324421                                                                                                                                         33877365                                                                    ZZ
025573785735Moran                                             Maria                         De Jesus                      2010-02-05F     070719647330134023Animo Florence-Firestone Charter Middle                                                             19647330134023Animo Florence-Firestone Charter Middle                                                             1794DF       No       No No No No 2015-08-242018-01-222015-08-182022-08-15RFEPSPA01No    No YesYesNYesNo No No No No No No 50015 0000000191355615C0000000192042785C                                  0033605153002002Animo Florence-Firestone Charter Middle                                                             19647330134023Animo Florence-Firestone Charter Middle                                                             19647330134023DF1794N          Animo Florence-Firestone Charter Middle                                                             19647330134023Animo Florence-Firestone Charter Middle                                                             19647330134023DF1794N                                                                                                                                                                                                                                                                                                                                                                                                                                                                                      2023-05-172023-05-172023-05-192023-05-19                                        Animo Florence-Firestone Charter Middle                                                             19647330134023Animo Florence-Firestone Charter Middle                                                             19647330134023DF1794N2023-05-192023-04-172023-06-162023-04-172023-06-16                                        E1552023-06-162023-07-07                 YV OYNN  Y2023-06-01835Q                                              25010036246525372              017005      No No                                                                                                                                                                                                                                                                                                                                                                                                                                                                                                                                                                                                                                                                                                                                                                                                                                                                                                                                                                                                                                              No No                                                                                                                                                                                                                                                                                                                                                                                                                                                                                                                                                                                                                                                                                           Y06        003125082                                                                                                                                         33605153                                                                    ZZ
021332817020MARTINEZ                                          JACOB                         DANIEL                        2011-11-28M     050519647330000000Los Angeles Unified                                                                                 19647336019004Russell Elementary                                                                                               No       No No No No 2016-08-262018-12-142016-08-162022-08-15RFEPSPA01No    No No No NYesNo No No No No No No 50015 0000000192394517C0000000192163883C                                  0033320783002002Los Angeles Unified                                                                                 19647330000000Russell Elementary                                                                                  19647336019004      N          Los Angeles Unified                                                                                 19647330000000Russell Elementary                                                                                  19647336019004      N                                                                                                                                                                                                                                                                                                                                                                                                                                                                                      2023-05-232023-05-232023-05-222023-05-22                                        Los Angeles Unified                                                                                 19647330000000Russell Elementary                                                                                  19647336019004      N2023-05-232023-03-062023-06-092023-03-062023-06-09                                        E1552023-06-092023-06-22                 YV OYNN  Y2023-06-14920Q                                              25510025252625763              017006      No No                                                                                                                                                                                                                                                                                                                                                                                                                                                                                                                                                                                                                                                                                                                                                                                                                                                                                                                                                                                                                                              No No                                                                                                                                                                                                                                                                                                                                                                                                                                                                                                                                                                                                                                                                                           Y04        002325413                                                                                                                                         33320783                                                                    ZZ
014272076462ESPINOZA                                          AMY                           BIBELOT                       2010-11-28F     060619647330000000Los Angeles Unified                                                                                 19647336018105McKinley Avenue Elementary                                                                                       No       No No No No 2016-09-142023-05-262016-08-162022-08-15RFEPSPA01No    No YesYesNYesNo No No No No No No 50015 0000000187148547C0000000187895791C                                  0033515595002014Los Angeles Unified                                                                                 19647330000000McKinley Avenue Elementary                                                                          19647336018105      N          Los Angeles Unified                                                                                 19647330000000McKinley Avenue Elementary                                                                          19647336018105      N                                                                                                                                                                                                                                                                                                                                                                                                                                                                                      2023-05-082023-05-082023-05-092023-05-09                                        Los Angeles Unified                                                                                 19647330000000McKinley Avenue Elementary                                                                          19647336018105      N2023-05-092023-03-062023-06-092023-03-062023-06-09                                        E2302023-06-092023-06-23                 YV OYNN  Y2023-05-24830L                                              24730032244125052   ARGU111    022003      No Yes                                                                                                                                                                                                                                                                                                                                                                                                                                                                                                                                                                                                                                                                                                                                                                                                                                                                                                               TDS_TTS_Item             TDS_TTS_Item                                                                                         No No                                                                                                                                                                                                                                                                                                                                                                                                                                                                                                                                                                                                                                                                                           Y05        003224592                                                                                                                                         33515595                                                                    ZZ
026338910172Martinez Romero                                   Israel                        Erick                         2010-02-02M     070719647330134023Animo Florence-Firestone Charter Middle                                                             19647330134023Animo Florence-Firestone Charter Middle                                                             1794DF1964733No SLISLIYesYesNo No                               2022-08-15IFEPSPA01No    No YesYesNYesNo No No No No No No 50013 0000000191579822C0000000192123927C                                  0033664948002002Animo Florence-Firestone Charter Middle                                                             19647330134023Animo Florence-Firestone Charter Middle                                                             19647330134023DF1794N          Animo Florence-Firestone Charter Middle                                                             19647330134023Animo Florence-Firestone Charter Middle                                                             19647330134023DF1794N                                                                                                                                                                                                                                                                                                                                                                                                                                                                                      2023-05-172023-05-172023-05-192023-05-19                                        Animo Florence-Firestone Charter Middle                                                             19647330134023Animo Florence-Firestone Charter Middle                                                             19647330134023DF1794N2023-05-192023-04-172023-06-162023-04-172023-06-16                                        E1552023-06-162023-07-10                 YV OYNN  Y2023-06-01970Q                                              25520032252025842              017004      No No                                                                                                                                                                                                                                                                                                                                                                                                                                                                                                                                                                                                                                                                                                                                                                                                                                                                                                                                                                                                                                              No No                                                                                                                                                                                                                                                                                                                                                                                                                                                                                                                                                                                                                                                                                           Y06        003025302                                                                                                                                         33664948                                                                    ZZ
024543342457MARTINEZ                                          ROSALIE                       GABRIELA                      2012-02-28F     050519647330000000Los Angeles Unified                                                                                 19647336018378Ninety-Sixth Street Elementary                                                                                   No       No No No No 2017-09-072022-08-262017-08-152022-08-15RFEPSPA01No    No YesYesNYesNo No No No No No No 50015 0000000192212069C0000000192706715C                                  0033540712002002Los Angeles Unified                                                                                 19647330000000Ninety-Sixth Street Elementary                                                                      19647336018378      N          Los Angeles Unified                                                                                 19647330000000Ninety-Sixth Street Elementary                                                                      19647336018378      N                                                                                                                                                                                                                                                                                                                                                                                                                                                                                      2023-05-222023-05-232023-05-242023-05-24                                        Los Angeles Unified                                                                                 19647330000000Ninety-Sixth Street Elementary                                                                      19647336018378      N2023-05-242023-03-062023-06-092023-03-062023-06-09                                        E1552023-06-092023-06-23                 YV OYNN  Y2023-06-06820Q                                              25160026249025422              017005      No No                                                                                                                                                                                                                                                                                                                                                                                                                                                                                                                                                                                                                                                                                                                                                                                                                                                                                                                                                                                                                                              No No                                                                                                                                                                                                                                                                                                                                                                                                                                                                                                                                                                                                                                                                                           Y04        002524382                                                                                                                                         33540712                                                                    ZZ
024131167449Vasquez                                           Aimi                          Elizabeth                     2009-09-05F     070719647330134023Animo Florence-Firestone Charter Middle                                                             19647330134023Animo Florence-Firestone Charter Middle                                                             1794DF       No       No No No No 2014-09-032018-06-042014-08-122022-08-15RFEPSPA01No    YesYesYesNYesNo No No No No No No 50015 0000000191584298C0000000192125001C                                  0033509599002002Animo Florence-Firestone Charter Middle                                                             19647330134023Animo Florence-Firestone Charter Middle                                                             19647330134023DF1794N          Animo Florence-Firestone Charter Middle                                                             19647330134023Animo Florence-Firestone Charter Middle                                                             19647330134023DF1794N                                                                                                                                                                                                                                                                                                                                                                                                                                                                                      2023-05-172023-05-172023-05-192023-05-19                                        Animo Florence-Firestone Charter Middle                                                             19647330134023Animo Florence-Firestone Charter Middle                                                             19647330134023DF1794N2023-05-192023-04-172023-06-162023-04-172023-06-16                                        E1552023-06-162023-07-10                 YV OYNN  Y2023-06-05390Q                                              23290060226923891              017004      No No                                                                                                                                                                                                                                                                                                                                                                                                                                                                                                                                                                                                                                                                                                                                                                                                                                                                                                                                                                                                                                              No No                                                                                                                                                                                                                                                                                                                                                                                                                                                                                                                                                                                                                                                                                           Y06        004423831                                                                                                                                         33509599                                                                    ZZ
