018479368404Hurtado                                           Victoria                      Angela                        2011-01-23F     060619647330129270Animo Mae Jemison Charter Middle                                                                    19647330129270Animo Mae Jemison Charter Middle                                                                    1624DF       No       No No No No                               2022-08-15EO  ENG00No    No YesYesNYesNo No No No No No No 50014 0000000192724454C0000000192873914C                                  0033815154002014Animo Mae Jemison Charter Middle                                                                    19647330129270Animo Mae Jemison Charter Middle                                                                    19647330129270DF1624N          Animo Mae Jemison Charter Middle                                                                    19647330129270Animo Mae Jemison Charter Middle                                                                    19647330129270DF1624N                                                                                                                                                                                                                                                                                                                                                                                                                                                                                      2023-05-242023-05-242023-05-252023-05-25                                        Animo Mae Jemison Charter Middle                                                                    19647330129270Animo Mae Jemison Charter Middle                                                                    19647330129270DF1624N2023-05-252023-04-172023-06-162023-04-172023-06-16                                        E1552023-06-162023-07-11                 YV OYNN  Y2023-06-01480L                                              23110048226323591   EXPL000III 022003      No Yes                                                                                                                                                                                                                                                                                                                                                                                                                                                                                                                                                                                                                                                                                                                                                                                                                                                                                                               TDS_TTS_Item             TDS_TTS_Item                                                                                         No No                                                                                                                                                                                                                                                                                                                                                                                                                                                                                                                                                                                                                                                                                           Y05        004622911                                                                                                                                         33815154                                                                    ZZ
028479368404Hurtado                                           Victoria                      Angela                        2011-01-23F     060619647330129270Animo Mae Jemison Charter Middle                                                                    19647330129270Animo Mae Jemison Charter Middle                                                                    1624DF       No       No No No No                               2022-08-15EO  ENG00No    No YesYesNYesNo No No No No No No 50014 0000000191416925C0000000191835830C                                  0033815154002002Animo Mae Jemison Charter Middle                                                                    19647330129270Animo Mae Jemison Charter Middle                                                                    19647330129270DF1624N          Animo Mae Jemison Charter Middle                                                                    19647330129270Animo Mae Jemison Charter Middle                                                                    19647330129270DF1624N                                                                                                                                                                                                                                                                                                                                                                                                                                                                                      2023-05-172023-05-172023-05-182023-05-18                                        Animo Mae Jemison Charter Middle                                                                    19647330129270Animo Mae Jemison Charter Middle                                                                    19647330129270DF1624N2023-05-182023-04-172023-06-162023-04-172023-06-16                                        E1552023-06-162023-07-11                 YV OYNN  Y2023-06-01325Q                                              23080060224823681              017006      No Yes                                                                                                                                                                                                                                                                                                                                                                                                                                                                                                                                                                                                                                                                                                                                                                                                                                                                                                               TDS_TTS_Stim&TDS_TTS_ItemTDS_TTS_Stim&TDS_TTS_Item                                                                            No No                                                                                                                                                                                                                                                                                                                                                                                                                                                                                                                                                                                                                                                                                           Y05        004923201                                                                                                                                         33815154                                                                    ZZ
027262789670AGUILAR                                           LUIS                          FERNANDO                      2012-01-17M     050519647330000000Los Angeles Unified                                                                                 19647336018576One Hundred Twenty-Second Street Elementary                                                               1964733No SLDSLDYesYesNo No 2016-09-012023-04-192016-08-162022-08-15RFEPSPA01No    No YesYesNYesNo No No No No No No 50014 0000000190367502C0000000192595084C                                  0033736564002002Los Angeles Unified                                                                                 19647330000000One Hundred Twenty-Second Street Elementary                                                         19647336018576      N          Los Angeles Unified                                                                                 19647330000000One Hundred Twenty-Second Street Elementary                                                         19647336018576      N                                                                                                                                                                                                                                                                                                                                                                                                                                                                                      2023-05-152023-05-152023-05-232023-05-23                                        Los Angeles Unified                                                                                 19647330000000One Hundred Twenty-Second Street Elementary                                                         19647336018576      N2023-05-232023-03-062023-06-092023-03-062023-06-09                                        E2302023-06-092023-06-23                 YV OYNN  Y2023-06-02395Q                                              23680041232724091              019000      YesYes                                                                                                                                                                                                                                                                                                                                 NEA_MTNEA_MT                                                                                                                                                  NEA_STTNEA_STT                                                                                                                                                                                                                                                                                                                                                                                                  TDS_TTS_Stim&TDS_TTS_ItemTDS_TTS_Stim&TDS_TTS_Item                                                                            No No                                                                                                                                                                                                                                                                                                                                                                                                                                                                                                                                       NEDS_SSNEDS_SS              NEDS_SimpDirsNEDS_SimpDirs                                                                                              Y04        002424762                                                                                                                                         33736564                                                                    ZZ
015038384634Arismendi                                         Efrain                                                      2010-05-20M     070719647330129270Animo Mae Jemison Charter Middle                                                                    19647330129270Animo Mae Jemison Charter Middle                                                                    1624DF       No       No No No No                     2015-08-182022-08-15IFEPSPA01No    No YesYesNYesNo No No No No No No 50012 0000000192719994C0000000192862689C                                  0033571986002014Animo Mae Jemison Charter Middle                                                                    19647330129270Animo Mae Jemison Charter Middle                                                                    19647330129270DF1624N          Animo Mae Jemison Charter Middle                                                                    19647330129270Animo Mae Jemison Charter Middle                                                                    19647330129270DF1624N                                                                                                                                                                                                                                                                                                                                                                                                                                                                                      2023-05-242023-05-242023-05-252023-05-25                                        Animo Mae Jemison Charter Middle                                                                    19647330129270Animo Mae Jemison Charter Middle                                                                    19647330129270DF1624N2023-05-252023-04-172023-06-162023-04-172023-06-16                                        E1552023-06-162023-07-12                 YV OYNN  Y2023-06-011045L                                             25310033249825642   ARGU222    022003      No No                                                                                                                                                                                                                                                                                                                                                                                                                                                                                                                                                                                                                                                                                                                                                                                                                                                                                                                                                                                                                                              No No                                                                                                                                                                                                                                                                                                                                                                                                                                                                                                                                                                                                                                                                                           Y06        003124812                                                                                                                                         33571986                                                                    ZZ
017229024313Arechiga-Morales                                  Daniel                                                      2009-10-02M     070719647330129270Animo Mae Jemison Charter Middle                                                                    19647330129270Animo Mae Jemison Charter Middle                                                                    1624DF       No       No No No No 2014-08-262016-05-13          2022-08-15RFEPSPA01No    No YesYesNYesNo No No No No No No 50014 0000000192710861C0000000192865577C                                  0033732107002014Animo Mae Jemison Charter Middle                                                                    19647330129270Animo Mae Jemison Charter Middle                                                                    19647330129270DF1624N          Animo Mae Jemison Charter Middle                                                                    19647330129270Animo Mae Jemison Charter Middle                                                                    19647330129270DF1624N                                                                                                                                                                                                                                                                                                                                                                                                                                                                                      2023-05-242023-05-242023-05-252023-05-25                                        Animo Mae Jemison Charter Middle                                                                    19647330129270Animo Mae Jemison Charter Middle                                                                    19647330129270DF1624N2023-05-252023-04-172023-06-162023-04-172023-06-16                                        E1552023-06-162023-07-11                 YV OYNN  Y2023-06-01725L                                              23770041233624181   EXPL000III 022003      No No                                                                                                                                                                                                                                                                                                                                                                                                                                                                                                                                                                                                                                                                                                                                                                                                                                                                                                                                                                                                                                              No No                                                                                                                                                                                                                                                                                                                                                                                                                                                                                                                                                                                                                                                                                           Y06        003823851                                                                                                                                         33732107                                                                    ZZ
015767468784Melendez                                          Alexa                         Fernanda                      2010-10-06F     060619647330129270Animo Mae Jemison Charter Middle                                                                    19647330129270Animo Mae Jemison Charter Middle                                                                    1624DF       No       No No No No 2015-09-112018-06-072015-08-182022-08-15RFEPSPA01No    YesYesYesNYesNo No No No No No No 50012 0000000192703941C0000000192857165C                                  0033628633002014Animo Mae Jemison Charter Middle                                                                    19647330129270Animo Mae Jemison Charter Middle                                                                    19647330129270DF1624N          Animo Mae Jemison Charter Middle                                                                    19647330129270Animo Mae Jemison Charter Middle                                                                    19647330129270DF1624N                                                                                                                                                                                                                                                                                                                                                                                                                                                                                      2023-05-242023-05-242023-05-252023-05-25                                        Animo Mae Jemison Charter Middle                                                                    19647330129270Animo Mae Jemison Charter Middle                                                                    19647330129270DF1624N2023-05-252023-04-172023-06-162023-04-172023-06-16                                        E1552023-06-162023-07-11                 YV OYNN  Y2023-06-14950L                                              25300031249925612   NARR002MM  022003      No Yes                                                                                                                                                                                                                                                                                                                                                                                                                                                                                                                                                                                                                                                                                                                                                                                                                                                                                                               TDS_TTS_Item             TDS_TTS_Item                                                                                         No No                                                                                                                                                                                                                                                                                                                                                                                                                                                                                                                                                                                                                                                                                           Y05        003224632                                                                                                                                         33628633                                                                    ZZ
018566126997CARRASCO                                          JAMES                         OWEN                          2012-01-09M     050519647330000000Los Angeles Unified                                                                                 19647336018469One Hundred Eighteenth Street                                                                                    No       No No No No                     2016-08-162022-08-15EO  ENG00No    No YesYesNYesNo No No No No No No 50013 0000000188148127C0000000190259507C                                  0033829028002014Los Angeles Unified                                                                                 19647330000000One Hundred Eighteenth Street                                                                       19647336018469      N          Los Angeles Unified                                                                                 19647330000000One Hundred Eighteenth Street                                                                       19647336018469      N                                                                                                                                                                                                                                                                                                                                                                                                                                                                                      2023-05-092023-05-152023-05-152023-05-19                                        Los Angeles Unified                                                                                 19647330000000One Hundred Eighteenth Street                                                                       19647336018469      N2023-05-192023-03-062023-06-092023-03-062023-06-09                                        E2302023-06-092023-06-22                 YV OYNN  Y2023-06-05975L                                              25380033250525713   INFO111    020003      No No                                                                                                                                                                                                                                                                                                                                                                                                                                                                                                                                                                                                                                                                                                                                                                                                                                                                                                                                                                                                                                              No No                                                                                                                                                                                                                                                                                                                                                                                                                                                                                                                                                                                                                                                                                           Y04        003325083                                                                                                                                         33829028                                                                    ZZ
025699197877SOLANO                                            ISABELLA                                                    2012-06-16F     050519647330000000Los Angeles Unified                                                                                 19647336018568One Hundred Twelfth Street Elementary                                                                            No       No No No Yes2016-09-01          2016-08-162022-08-15EL  SPA01No    No YesYesNYesNo No No No No No No 50015 0000000192508600C0000000192873129C                                  0033621636002002Los Angeles Unified                                                                                 19647330000000One Hundred Twelfth Street Elementary                                                               19647336018568      N          Los Angeles Unified                                                                                 19647330000000One Hundred Twelfth Street Elementary                                                               19647336018568      N                                                                                                                                                                                                                                                                                                                                                                                                                                                                                      2023-05-232023-05-242023-05-252023-05-25                                        Los Angeles Unified                                                                                 19647330000000One Hundred Twelfth Street Elementary                                                               19647336018568      N2023-05-252023-03-062023-06-092023-03-062023-06-09                                        E2302023-06-092023-06-23                 YV OYNN  Y2023-06-01680Q                                              24680031243724992              017006      No Yes                                                                                                                                                                                                                                                                                                                                                                                                                                                                                                                                                                                                                                                                                                                                                                                                                                                                                                               TDS_TTS_Stim&TDS_TTS_ItemTDS_TTS_Stim&TDS_TTS_Item                                                                            No No                                                                                                                                                                                                                                                                                                                                NEDS_RA_Items        NEDS_RA_Items                                                                                                                 NEDS_SC_ItemsNEDS_SC_Items                          NEDS_SSNEDS_SS              NEDS_SimpDirsNEDS_SimpDirs                                                                                              Y04        002923751                                                                                                                                         33621636                                                                    ZZ
018502940912HERRERA                                           NADIA                         EVA                           2011-09-27F     050519647330000000Los Angeles Unified                                                                                 19647336018576One Hundred Twenty-Second Street Elementary                                                                      No       No No No No                     2016-08-162022-08-15EO  ENG00No    No YesYesNYesNo No No No No No No 50011 0000000192707979C0000000191822204C                                  0033823967002014Los Angeles Unified                                                                                 19647330000000One Hundred Twenty-Second Street Elementary                                                         19647336018576      N          Los Angeles Unified                                                                                 19647330000000One Hundred Twenty-Second Street Elementary                                                         19647336018576      N                                                                                                                                                                                                                                                                                                                                                                                                                                                                                      2023-05-242023-05-242023-05-182023-05-18                                        Los Angeles Unified                                                                                 19647330000000One Hundred Twenty-Second Street Elementary                                                         19647336018576      N2023-05-242023-03-062023-06-092023-03-062023-06-09                                        E2302023-06-092023-06-22                 YV OYNN  Y2023-06-15645L                                              23890034235524231   NARR001MM  020003      No Yes                                                                                                                                                                                                                                                                                                                                                                                                                                                                                                                                                                                                                                                                                                                                                                                                                                                                                                               TDS_TTS_Item             TDS_TTS_Item                                                                                         No No                                                                                                                                                                                                                                                                                                                                                                                                                                                                                                                                                                                                                                                                                           Y04        003524302                                                                                                                                         33823967                                                                    ZZ
027289929686Flores                                            Carmen                                                      2010-05-11F     060619647330129270Animo Mae Jemison Charter Middle                                                                    19647330129270Animo Mae Jemison Charter Middle                                                                    1624DF       No       No No No No                               2022-08-22EO  ENG00No    No YesYesNYesNo No No No No No No 50014 0000000191421449C0000000191836842C                                  0033740522002002Animo Mae Jemison Charter Middle                                                                    19647330129270Animo Mae Jemison Charter Middle                                                                    19647330129270DF1624N          Animo Mae Jemison Charter Middle                                                                    19647330129270Animo Mae Jemison Charter Middle                                                                    19647330129270DF1624N                                                                                                                                                                                                                                                                                                                                                                                                                                                                                      2023-05-172023-05-172023-05-182023-05-18                                        Animo Mae Jemison Charter Middle                                                                    19647330129270Animo Mae Jemison Charter Middle                                                                    19647330129270DF1624N2023-05-182023-04-172023-06-162023-04-172023-06-16                                        E1552023-06-162023-07-11                 YV OYNN  Y2023-06-14655Q                                              24360037239924731              017006      No Yes                                                                                                                                                                                                                                                                                                                                                                                                                                                                                                                                                                                                                                                                                                                                         TDS_MP_Green_L  TDS_MP_Green_L                                                                                                                                        TDS_TTS_Stim&TDS_TTS_ItemTDS_TTS_Stim&TDS_TTS_Item                                                                            No No                                                                                                                                                                                                                                                                                                                                                                                                                                                                                                                                                                                                                                                                                           Y05        003724071                                                                                                                                         33740522                                                                    ZZ
025345885687Harrington III                                    Derrick                                                     2009-12-30M     070719647330129270Animo Mae Jemison Charter Middle                                                                    19647330129270Animo Mae Jemison Charter Middle                                                                    1624DF       No       No No No No                               2022-09-06EO  ENG00No    No YesYesNNo No No No No YesNo No 60013 0000000191497982C0000000191798203C                                  0036788388002002Animo Mae Jemison Charter Middle                                                                    19647330129270Animo Mae Jemison Charter Middle                                                                    19647330129270DF1624N          Animo Mae Jemison Charter Middle                                                                    19647330129270Animo Mae Jemison Charter Middle                                                                    19647330129270DF1624N                                                                                                                                                                                                                                                                                                                                                                                                                                                                                      2023-05-172023-05-172023-05-182023-05-18                                        Animo Mae Jemison Charter Middle                                                                    19647330129270Animo Mae Jemison Charter Middle                                                                    19647330129270DF1624N2023-05-182023-04-172023-06-162023-04-172023-06-16                                        E1552023-06-162023-07-13                 YV OYNN  Y2023-06-02740Q                                              24640039242525031              017004      No No                                                                                                                                                                                                                                                                                                                                                                                                                                                                                                                                                                                                                                                                                                                                                                                                                                                                                                                                                                                                                                              No No                                                                                                                                                                                                                                                                                                                                                                                                                                                                                                                                                                                                                                                                                           Y06        003624501                                                                                                                                         36788388                                                                    ZZ
025248843110Jimenez                                           Omar                          Alexander                     2010-11-19M     060619647330129270Animo Mae Jemison Charter Middle                                                                    19647330129270Animo Mae Jemison Charter Middle                                                                    1624DF       No       No No No No                               2022-08-15EO  ENG00No    No YesYesNYesNo No No No No No No 50013 0000000191450402C0000000191849958C                                  0033587636002002Animo Mae Jemison Charter Middle                                                                    19647330129270Animo Mae Jemison Charter Middle                                                                    19647330129270DF1624N          Animo Mae Jemison Charter Middle                                                                    19647330129270Animo Mae Jemison Charter Middle                                                                    19647330129270DF1624N                                                                                                                                                                                                                                                                                                                                                                                                                                                                                      2023-05-172023-05-172023-05-182023-05-18                                        Animo Mae Jemison Charter Middle                                                                    19647330129270Animo Mae Jemison Charter Middle                                                                    19647330129270DF1624N2023-05-182023-04-172023-06-162023-04-172023-06-16                                        E1552023-06-162023-07-11                 YV OYNN  Y2023-06-05735Q                                              24670034243325011              017005      No No                                                                                                                                                                                                                                                                                                                                                                                                                                                                                                                                                                                                                                                                                                                                                                                                                                                                                                                                                                                                                                              No No                                                                                                                                                                                                                                                                                                                                                                                                                                                                                                                                                                                                                                                                                           Y05        002824982                                                                                                                                         33587636                                                                    ZZ
017536787727Larin                                             Jenifer                       Cristina                      2011-02-17F     060619647330124792Aspire Juanita Tate Academy Charter                                                                 19647330124792Aspire Juanita Tate Academy Charter                                                                 1331DF       No       No No No Yes2017-04-06          2017-01-232022-08-15EL  SPA01No    No YesYesNYesNo No No No No No No 50014 0000000190636940C0000000192029787C                                  0033755028002014Aspire Juanita Tate Academy Charter                                                                 19647330124792Aspire Juanita Tate Academy Charter                                                                 19647330124792DF1331N          Aspire Juanita Tate Academy Charter                                                                 19647330124792Aspire Juanita Tate Academy Charter                                                                 19647330124792DF1331N                                                                                                                                                                                                                                                                                                                                                                                                                                                                                      2023-05-162023-05-182023-05-192023-05-23                                        Aspire Juanita Tate Academy Charter                                                                 19647330124792Aspire Juanita Tate Academy Charter                                                                 19647330124792DF1331N2023-05-232023-04-172023-06-162023-04-172023-06-16                                        T1602023-06-162023-06-27                 YV OYNN  Y2023-06-051040L                                             25710032253926033   NARR221    022003      No Yes                                                                                                                                                                                                                                                                                                                                                                                                                                                                                                                                                                                                                                                                                                                                                                                                                                                                                                               TDS_TTS_Item             TDS_TTS_Item                                                                                         No No                                                                                                                                                                                                                                                                                                                                                                                                                                                                                                                                                                                                                                                                                           Y05        003324311                                                                                                                                         33755028                                                                    ZZ
028793930723GONZALEZ COLATO                                   NICOLAS                       BENNY                         2011-12-09M     050519647330000000Los Angeles Unified                                                                                 19647336017073Figueroa Street Elementary                                                                                       No       No No No No                     2017-09-182022-08-15EO  ENG00No    No YesYesNYesNo No No No No No No 50012 0000000190637550C0000000191210607C                                  0033838185002002Los Angeles Unified                                                                                 19647330000000Figueroa Street Elementary                                                                          19647336017073      N          Los Angeles Unified                                                                                 19647330000000Figueroa Street Elementary                                                                          19647336017073      N                                                                                                                                                                                                                                                                                                                                                                                                                                                                                      2023-05-162023-05-162023-05-172023-05-17                                        Los Angeles Unified                                                                                 19647330000000Figueroa Street Elementary                                                                          19647336017073      N2023-05-172023-03-062023-06-092023-03-062023-06-09                                        E2302023-06-092023-06-22                 YV OYNN  Y2023-06-09910Q                                              25480025252325733              017006      No No                                                                                                                                                                                                                                                                                                                                                                                                                                                                                                                                                                                                                                                                                                                                                                                                                                                                                                                                                                                                                                              No No                                                                                                                                                                                                                                                                                                                                                                                                                                                                                                                                                                                                                                                                                           Y04        002325153                                                                                                                                         33838185                                                                    ZZ
014128044174ZELAYA                                            CHRISTIAN                     RICARDO                       2011-06-13M     050519647330000000Los Angeles Unified                                                                                 19647336018568One Hundred Twelfth Street Elementary                                                                            No       No No No No                     2022-08-152022-08-15EO  ENG00No    No YesYesNYesNo No No No No No No 50013 0000000188324175C0000000189512645C                                  0034157766002014Los Angeles Unified                                                                                 19647330000000One Hundred Twelfth Street Elementary                                                               19647336018568      N          Los Angeles Unified                                                                                 19647330000000One Hundred Twelfth Street Elementary                                                               19647336018568      N                                                                                                                                                                                                                                                                                                                                                                                                                                                                                      2023-05-092023-05-102023-05-112023-05-18                                        Los Angeles Unified                                                                                 19647330000000One Hundred Twelfth Street Elementary                                                               19647336018568      N2023-05-182023-03-062023-06-092023-03-062023-06-09                                        E2302023-06-092023-06-23                 YV OYNN  Y2023-06-051070L                                             25800034254626143   INFO222    020003      No Yes                                                                                                                                                                                                                                                                                                                                                                                                                                                                                                                                                                                                                                                                                                                                                                                                                                                                                                               TDS_TTS_Item             TDS_TTS_Item                                                                                         No No                                                                                                                                                                                                                                                                                                                                NEDS_RA_Items        NEDS_RA_Items                                                                                                                 NEDS_SC_ItemsNEDS_SC_Items                          NEDS_SSNEDS_SS              NEDS_SimpDirsNEDS_SimpDirs                                                                                              Y04        003425554                                                                                                                                         34157766                                                                    ZZ
019938439718MOORE                                             TYLER                         TRAVEON                       2010-09-27M     060619647330000000Los Angeles Unified                                                                                 19647336018345Ninety-Ninth Street Elementary                                                                            1964733YesOHIOHIYesYesNo No                     2016-08-232023-01-31EO  ENG00No    No No No NNo No No No No No No Yes80013 0000000190061377C0000000190662248C                                  0035183331002014Los Angeles Unified                                                                                 19647330000000Ninety-Ninth Street Elementary                                                                      19647336018345      N          Los Angeles Unified                                                                                 19647330000000Ninety-Ninth Street Elementary                                                                      19647336018345      N                                                                                                                                                                                                                                                                                                                                                                                                                                                                                      2023-05-152023-05-152023-05-162023-05-17                                        Los Angeles Unified                                                                                 19647330000000Ninety-Ninth Street Elementary                                                                      19647336018345      N2023-05-172023-03-062023-06-092023-03-062023-06-09                                        E2302023-06-092023-06-22                 YV OYNN  Y2023-06-01805L                                              24610032242924932   ARGU111    022003      No Yes                                                                                                                                                                                                                                                                                                                                                                                                                                                                                                                                                                                                                                                                                                                                                                                                                                                                                                                                                                                                                                             No No                                                                                                                                                                                                                                                                                                                                                                                                                                                                                                                                                                   NEDS_SimpDirsNEDS_SimpDirs                                                                                              Y05        003224802                                                                                                                                         35183331                                                                    ZZ
021271235464Benitez                                           Heidy                                                       2010-11-29F     060619647330129270Animo Mae Jemison Charter Middle                                                                    19647330129270Animo Mae Jemison Charter Middle                                                                    1624DF       No       No No No No 2015-08-172017-12-212015-05-212022-08-15RFEPSPA01No    YesYesYesNYesNo No No No No No No 50014 0000000191423891C0000000191844494C                                  0033309486002002Animo Mae Jemison Charter Middle                                                                    19647330129270Animo Mae Jemison Charter Middle                                                                    19647330129270DF1624N          Animo Mae Jemison Charter Middle                                                                    19647330129270Animo Mae Jemison Charter Middle                                                                    19647330129270DF1624N                                                                                                                                                                                                                                                                                                                                                                                                                                                                                      2023-05-172023-05-172023-05-182023-05-18                                        Animo Mae Jemison Charter Middle                                                                    19647330129270Animo Mae Jemison Charter Middle                                                                    19647330129270DF1624N2023-05-182023-04-172023-06-162023-04-172023-06-16                                        E1552023-06-162023-07-11                 YV OYNN  Y2023-06-15755Q                                              24760033244325092              017006      No Yes                                                                                                                                                                                                                                                                                                                                                                                                                                                                                                                                                                                                                                                                                                                                                                                                                                                                                                               TDS_TTS_Stim&TDS_TTS_ItemTDS_TTS_Stim&TDS_TTS_Item                                                                            No No                                                                                                                                                                                                                                                                                                                                                                                                                                                                                                                                                                                                                                                                                           Y05        004123661                                                                                                                                         33309486                                                                    ZZ
013095109325Coles                                             Anthony                       Laron Pain                    2010-04-30M     070719647330129270Animo Mae Jemison Charter Middle                                                                    19647330129270Animo Mae Jemison Charter Middle                                                                    1624DF       No       No No No No                               2022-08-15EO  ENG00No    No YesYesNYesNo No No No No No No 50012 0000000192711393C0000000192882370C                                  0033439232002014Animo Mae Jemison Charter Middle                                                                    19647330129270Animo Mae Jemison Charter Middle                                                                    19647330129270DF1624N          Animo Mae Jemison Charter Middle                                                                    19647330129270Animo Mae Jemison Charter Middle                                                                    19647330129270DF1624N                                                                                                                                                                                                                                                                                                                                                                                                                                                                                      2023-05-242023-05-242023-05-252023-05-25                                        Animo Mae Jemison Charter Middle                                                                    19647330129270Animo Mae Jemison Charter Middle                                                                    19647330129270DF1624N2023-05-252023-04-172023-06-162023-04-172023-06-16                                        E1552023-06-162023-07-11                 YV OYNN  Y2023-06-01960L                                              24900033245725232   NARR110    022003      No No                                                                                                                                                                                                                                                                                                                                                                                                                                                                                                                                                                                                                                                                                                                                                                                                                                                                                                                                                                                                                                              No No                                                                                                                                                                                                                                                                                                                                                                                                                                                                                                                                                                                                                                                                                           Y06        003524121                                                                                                                                         33439232                                                                    ZZ
025671122502Allen                                             Johnta                        Twan                          2009-11-16M     070719647330129270Animo Mae Jemison Charter Middle                                                                    19647330129270Animo Mae Jemison Charter Middle                                                                    1624DF       No       No No No No                               2022-08-15EO  ENG00No    No YesYesNNo No No No No YesNo No 60013 0000000191422993C0000000192083570C                                  0033619622002002Animo Mae Jemison Charter Middle                                                                    19647330129270Animo Mae Jemison Charter Middle                                                                    19647330129270DF1624N          Animo Mae Jemison Charter Middle                                                                    19647330129270Animo Mae Jemison Charter Middle                                                                    19647330129270DF1624N                                                                                                                                                                                                                                                                                                                                                                                                                                                                                      2023-05-172023-05-172023-05-192023-05-19                                        Animo Mae Jemison Charter Middle                                                                    19647330129270Animo Mae Jemison Charter Middle                                                                    19647330129270DF1624N2023-05-192023-04-172023-06-162023-04-172023-06-16                                        E1552023-06-162023-07-12                 YV OYNN  Y2023-06-01760Q                                              24720039243325111              017006      No No                                                                                                                                                                                                                                                                                                                                                                                                                                                                                                                                                                                                                                                                                                                                                                                                                                                                                                                                                                                                                                              No No                                                                                                                                                                                                                                                                                                                                                                                                                                                                                                                                                                                                                                                                                           Y06        004423821                                                                                                                                         33619622                                                                    ZZ
013347574930OLVERA                                            CARLOS                        TADEO                         2011-10-18M     050519647330000000Los Angeles Unified                                                                                 19647336019004Russell Elementary                                                                                               No       No No No No 2016-08-262018-12-142016-08-162022-08-16RFEPSPA01No    No YesYesNYesNo No No No No No No 50012 0000000182723207C0000000180490159C                                  0033458210002014Los Angeles Unified                                                                                 19647330000000Russell Elementary                                                                                  19647336019004      N          Los Angeles Unified                                                                                 19647330000000Russell Elementary                                                                                  19647336019004      N                                                                                                                                                                                                                                                                                                                                                                                                                                                                                      2023-04-262023-04-272023-04-212023-04-28                                        Los Angeles Unified                                                                                 19647330000000Russell Elementary                                                                                  19647336019004      N2023-04-282023-03-062023-06-092023-03-062023-06-09                                        E1552023-06-092023-06-23                 YV OYNN  Y2023-05-241100L                                             25930035255826284   INFO332    020003      No No                                                                                                                                                                                                                                                                                                                                                                                                                                                                                                                                                                                                                                                                                                                                                                                                                                                                                                                                                                                                                                              No No                                                                                                                                                                                                                                                                                                                                                                                                                                                                                                                                                                                                                                                                                           Y04        003324953                                                                                                                                         33458210                                                                    ZZ
022358152324CHATMON                                           JAIDEN                        ERIC                          2012-07-31M     050519647330000000Los Angeles Unified                                                                                 19647336018469One Hundred Eighteenth Street                                                                                    No       No No No No                     2017-08-152022-08-16EO  ENG00No    No YesYesNNo No No No No YesNo No 60012 0000000189489745C0000000191822781C                                  0033391279002002Los Angeles Unified                                                                                 19647330000000One Hundred Eighteenth Street                                                                       19647336018469      N          Los Angeles Unified                                                                                 19647330000000One Hundred Eighteenth Street                                                                       19647336018469      N                                                                                                                                                                                                                                                                                                                                                                                                                                                                                      2023-05-112023-05-112023-05-182023-05-18                                        Los Angeles Unified                                                                                 19647330000000One Hundred Eighteenth Street                                                                       19647336018469      N2023-05-182023-03-062023-06-092023-03-062023-06-09                                        E2302023-06-092023-06-23                 YV OYNN  Y2023-05-26495Q                                              24020037236524391              017005      No Yes                                                                                                                                                                                                                                                                                                                                                                                                                                                                                                                                                                                                                                                                                                                                         TDS_MP_Green_L  TDS_MP_Green_L                                                                                                                                        TDS_TTS_Stim&TDS_TTS_ItemTDS_TTS_Stim&TDS_TTS_Item                                                                            No No                                                                                                                                                                                                                                                                                                                                                                                                                                                                                                                                                                                                                                                                                           Y04        003823151                                                                                                                                         33391279                                                                    ZZ
025155345214Rosales                                           Michelle                                                    2010-11-19F     060619647330129270Animo Mae Jemison Charter Middle                                                                    19647330129270Animo Mae Jemison Charter Middle                                                                    1624DF       No       No No No No 2015-09-112018-06-072015-08-182022-08-15RFEPSPA01No    No YesYesNYesNo No No No No No No 50013 0000000191418454C0000000191843191C                                  0033580226002002Animo Mae Jemison Charter Middle                                                                    19647330129270Animo Mae Jemison Charter Middle                                                                    19647330129270DF1624N          Animo Mae Jemison Charter Middle                                                                    19647330129270Animo Mae Jemison Charter Middle                                                                    19647330129270DF1624N                                                                                                                                                                                                                                                                                                                                                                                                                                                                                      2023-05-172023-05-172023-05-182023-05-18                                        Animo Mae Jemison Charter Middle                                                                    19647330129270Animo Mae Jemison Charter Middle                                                                    19647330129270DF1624N2023-05-182023-04-172023-06-162023-04-172023-06-16                                        E1552023-06-162023-07-20                 YV OYNN  Y2023-06-05695Q                                              24520035241724871              017006      No Yes                                                                                                                                                                                                                                                                                                                                                                                                                                                                                                                                                                                                                                                                                                                                                                                                                                                                                                               TDS_TTS_Stim&TDS_TTS_ItemTDS_TTS_Stim&TDS_TTS_Item                                                                            No No                                                                                                                                                                                                                                                                                                                                                                                                                                                                                                                                                                                                                                                                                           Y05        003724001                                                                                                                                         33580226                                                                    ZZ
022988061255Calvario Acevedo                                  Bryan                         Gabriel                       2009-10-27M     070719734370000000Compton Unified                                                                                     19734376012231Bursch Elementary                                                                                                No       No No No No 2014-08-182017-04-052014-08-182022-08-18RFEPSPA01No    No YesYesNYesNo No No No No No No 50014 0000000191292440C0000000192225470C                                  0037962074002002Compton Unified                                                                                     19734370000000Bursch Elementary                                                                                   19734376012231      N          Compton Unified                                                                                     19734370000000Bursch Elementary                                                                                   19734376012231      N                                                                                                                                                                                                                                                                                                                                                                                                                                                                                      2023-05-172023-05-182023-05-222023-05-23                                        Compton Unified                                                                                     19734370000000Bursch Elementary                                                                                   19734376012231      N2023-05-232023-03-272023-06-092023-03-272023-06-09                                        E1552023-06-092023-06-13                 YV OYNN  Y2023-06-011325Q                                             27220029269327514              017004      No Yes                                                                                                                                                                                                                                                                                                                                                                                                                                                                                                                                                                                                                                                                                                                                                                                                                                                                                                               TDS_TTS_Stim&TDS_TTS_ItemTDS_TTS_Stim&TDS_TTS_Item                                                                            No No                                                                                                                                                                                                                                                                                                                                                                                                                                                                                                                                                                                                                                                                                           Y06        002826804                                                                                                                                         37962074                                                                    ZZ
023007308960Robinson                                          Aaliyah                       Mo'nea                        2010-01-12F     070719647330129270Animo Mae Jemison Charter Middle                                                                    19647330129270Animo Mae Jemison Charter Middle                                                                    1624DF       No       No No No No                               2022-08-15EO  ENG00No    No YesYesNNo No No No No YesNo No 60013 0000000191428632C0000000192958704C                                  0034128022002002Animo Mae Jemison Charter Middle                                                                    19647330129270Animo Mae Jemison Charter Middle                                                                    19647330129270DF1624N          Animo Mae Jemison Charter Middle                                                                    19647330129270Animo Mae Jemison Charter Middle                                                                    19647330129270DF1624N                                                                                                                                                                                                                                                                                                                                                                                                                                                                                      2023-05-172023-05-172023-05-262023-05-26                                        Animo Mae Jemison Charter Middle                                                                    19647330129270Animo Mae Jemison Charter Middle                                                                    19647330129270DF1624N2023-05-262023-04-172023-06-162023-04-172023-06-16                                        N4702022-08-152023-07-11                 YV OYNN  Y2023-06-05955Q                                              25470033251425802              017004      No No                                                                                                                                                                                                                                                                                                                                                                                                                                                                                                                                                                                                                                                                                                                                                                                                                                                                                                                                                                                                                                              No No                                                                                                                                                                                                                                                                                                                                                                                                                                                                                                                                                                                                                                                                                           Y06                9NT                                                                                                                                       34128022                                                                    ZZ
