026130018348ESTRADA                                           AGUSTIN                       MATEO                         2008-11-17M     080819646340000000Inglewood Unified                                                                                   19646346014450Centinela TK-8 Elementary                                                                                        No    SLINo YesNo No 2013-01-302019-12-182014-08-272022-08-22RFEPSPA01No    No YesYesNYesNo No No No No No No 50011 0000000183820729C0000000184936156C                                  0035270110002002Inglewood Unified                                                                                   19646340000000Centinela TK-8 Elementary                                                                           19646346014450      N          Inglewood Unified                                                                                   19646340000000Centinela TK-8 Elementary                                                                           19646346014450      N                                                                                                                                                                                                                                                                                                                                                                                                                                                                                      2023-05-012023-05-022023-05-022023-05-03                                        Inglewood Unified                                                                                   19646340000000Centinela TK-8 Elementary                                                                           19646346014450      N2023-05-032023-04-172023-06-082023-04-172023-06-08                                        E1552023-06-082023-06-09                 YV OYNN  Y2023-05-211435Q                                             27360029270727654              017005      No No                                                                                                                                                                                                                                                                                                                                                                                                                                                                                                                                                                                                                                                                                                                                                                                                                                                                                                                                                                                                                                              No No                                                                                                                                                                                                                                                                                                                                                                                                                                                                                                                                                                                                                                                                                           Y07        002826323                           Y06        002726514                                                                                          35270110                                                                    ZZ
027323108941Montalvo                                          Natalia                       Paz                           2009-05-30F     080819647090107508Century Community Charter                                                                           19647090107508Century Community Charter                                                                           0672DF       No       No No No No                               2022-08-29EO  ENG00No    No YesYesNYesNo No No No No No No 50015 0000000187368908C0000000187560899C                                  0038331016002002Century Community Charter                                                                           19647090107508Century Community Charter                                                                           19647090107508DF0672N          Century Community Charter                                                                           19647090107508Century Community Charter                                                                           19647090107508DF0672N                                                                                                                                                                                                                                                                                                                                                                                                                                                                                      2023-05-082023-05-082023-05-082023-05-08                                        Century Community Charter                                                                           19647090107508Century Community Charter                                                                           19647090107508DF0672N2023-05-082023-03-142023-06-162023-03-142023-06-16                                        E2302023-06-162023-07-07                 YV OYNN  Y2023-06-01935Q                                              25070042246525492              019000      No No                                                                                                                                                                                                                                                                                                                                                                                                                                                                                                                                                                                                                                                                                                                                                                                                                                                                                                                                                                                                                                              No No                                                                                                                                                                                                                                                                                                                                                                                                                                                                                                                                                                                                                                                                                           Y07        004124491                           Y06        003724391                                                                                          38331016                                                                    ZZ
026296737083HERNANDEZ                                         HERMINIA                      DJ                            2009-07-15F     080819646340000000Inglewood Unified                                                                                   19646346014450Centinela TK-8 Elementary                                                                                        No       No No No Yes2014-09-03          2014-09-032022-08-22EL  SPA01No    No YesYesNYesNo No No No No No No 50014 0000000183846448C0000000185465839C                                  0035274138002002Inglewood Unified                                                                                   19646340000000Centinela TK-8 Elementary                                                                           19646346014450      N          Inglewood Unified                                                                                   19646340000000Centinela TK-8 Elementary                                                                           19646346014450      N                                                                                                                                                                                                                                                                                                                                                                                                                                                                                      2023-05-012023-05-022023-05-032023-05-03                                        Inglewood Unified                                                                                   19646340000000Centinela TK-8 Elementary                                                                           19646346014450      N2023-05-032023-04-172023-06-082023-04-172023-06-08                                        E1552023-06-082023-06-09                 YV OYNN  Y2023-05-181110Q                                             25870034255326213              019000      No No                                                                                                                                                                                                                                                                                                                                                                                                                                                                                                                                                                                                                                                                                                                                                                                                                                                                                                                                                                                                                                              No No                                                                                                                                                                                                                                                                                                                                                                                                                                                                                                                                                                                                                                                                                           Y07        003924641                           Y06        014022351                                                                                          35274138                                                                    ZZ
029713652445Flores Torres                                     Kimberly                      Alexa                         2009-06-03F     080819101990127498Environmental Charter Middle - Inglewood                                                            19101990127498Environmental Charter Middle - Inglewood                                                            1501DF       No       No No No No                               2022-08-22IFEPSPA01No    No YesYesNYesNo No No No No No No 50013 0000000192785036C0000000192946227C                                  0035070731002002Environmental Charter Middle - Inglewood                                                            19101990127498Environmental Charter Middle - Inglewood                                                            19101990127498DF1501N          Environmental Charter Middle - Inglewood                                                            19101990127498Environmental Charter Middle - Inglewood                                                            19101990127498DF1501N                                                                                                                                                                                                                                                                                                                                                                                                                                                                                      2023-05-242023-05-262023-05-262023-05-26                                        Environmental Charter Middle - Inglewood                                                            19101990127498Environmental Charter Middle - Inglewood                                                            19101990127498DF1501N2023-05-262023-03-082023-06-152023-03-082023-06-15                                        E2302023-06-152023-07-24                 YV OYNN  Y2023-06-201270Q                                             26600028263226884              017005      No No                                                                                                                                                                                                                                                                                                                                                                                                                                                                                                                                                                                                                                                                                                                                                                                                                                                                                                                                                                                                                                              No No                                                                                                                                                                                                                                                                                                                                                                                                                                                                                                                                                                                                                                                                                           Y07        002826173                                                                                                                                         35070731                                                                    ZZ
028236609121CASTRO LIZAMA                                     ANTHONY                       ALEJANDRO                     2008-11-29M     080819647330000000Los Angeles Unified                                                                                 19647331996651CDS Secondary                                                                                                    No       No No No Yes2013-09-03          2013-08-132022-11-08EL  SPA01No    No YesYesNYesNo No No No No No No 50014 0000000191000448C0000000191399834C                                  0033788458002002Los Angeles Unified                                                                                 19647330000000CDS Secondary                                                                                       19647331996651      N          Los Angeles Unified                                                                                 19647330000000CDS Secondary                                                                                       19647331996651      N                                                                                                                                                                                                                                                                                                                                                                                                                                                                                      2023-05-162023-05-162023-05-172023-05-17                                        Los Angeles Unified                                                                                 19647330000000CDS Secondary                                                                                       19647331996651      N2023-05-172023-03-062023-06-092023-03-062023-06-09                                        E1552023-06-092023-06-23                 YV OYNN  Y2023-06-09515Q                                              23140066226523801              017005      No No                                                                                                                                                                                                                                                                                                                                                                                                                                                                                                                                                                                                                                                                                                                                                                                                                                                                                                                                                                                                                                              No No                                                                                                                                                                                                                                                                                                                                                                                                                                                                                                                                                                                                                                                                                           Y07        004723931                                                                                                                                         33788458                                                                    ZZ
029016243975Morgan                                            Elijah                        Scott                         2009-02-20M     080819646340000000Inglewood Unified                                                                                   19646346014575Woodworth-Monroe TK-8 Academy                                                                                    No       No No No No                     2014-08-112022-08-22EO  ENG00No    No YesYesNNo No No No No YesNo No 60011 0000000183819714C0000000185515061C                                  0035321195002002Inglewood Unified                                                                                   19646340000000Woodworth-Monroe TK-8 Academy                                                                       19646346014575      N          Inglewood Unified                                                                                   19646340000000Woodworth-Monroe TK-8 Academy                                                                       19646346014575      N                                                                                                                                                                                                                                                                                                                                                                                                                                                                                      2023-05-012023-05-022023-05-032023-05-04                                        Inglewood Unified                                                                                   19646340000000Woodworth-Monroe TK-8 Academy                                                                       19646346014575      N2023-05-042023-04-172023-06-082023-04-172023-06-08                                        E2302023-06-082023-06-09                 YV OYNN  Y2023-05-191005Q                                             25400039250125792              017005      No No                                                                                                                                                                                                                                                                                                                                                                                                                                                                                                                                                                                                                                                                                                                                                                                                                                                                                                                                                                                                                                              No No                                                                                                                                                                                                                                                                                                                                                                                                                                                                                                                                                                                                                                                                                           Y07        002826113                           Y06        003124982                                                                                          35321195                                                                    ZZ
016525366750JIMENEZ-FLORES                                    IRVIN                         ANDERSON                      2008-03-25M     080819646340000000Inglewood Unified                                                                                   19646346014534Oak Street Elementary                                                                                            No       No No No No 2015-08-242022-09-012015-08-242022-08-31RFEPSPA01No    No YesYesNYesNo No No No No No No 50015 0000000183674862C0000000184981328C                                  0035279342002014Inglewood Unified                                                                                   19646340000000Oak Street Elementary                                                                               19646346014534      N          Inglewood Unified                                                                                   19646340000000Oak Street Elementary                                                                               19646346014534      N                                                                                                                                                                                                                                                                                                                                                                                                                                                                                      2023-05-012023-05-022023-05-022023-05-03                                        Inglewood Unified                                                                                   19646340000000Oak Street Elementary                                                                               19646346014534      N2023-05-032023-04-172023-06-082023-04-172023-06-08                                        E2302023-06-082023-06-09                 YV OYNN  Y2023-06-01630L                                              23130059229023721   ARGU000III 022003      No No                                                                                                                                                                                                                                                                                                                                                                                                                                                                                                                                                                                                                                                                                                                                                                                                                                                                                                                                                                                                                                              No No                                                                                                                                                                                                                                                                                                                                                                                                                                                                                                                                                                                                                                                                                           Y07        003424681                           Y06        004423331                                                                                          35279342                                                                    ZZ
027028299800Prestegui                                         Eudes                         Damian                        2009-05-01M     080819650940112706California Virtual Academy @ Los Angeles                                                            19650940112706California Virtual Academy @ Los Angeles                                                            0838DF       No       No No No No 2014-09-032018-05-25          2022-10-03RFEPSPA01No    No YesYesNYesNo No No No No No No 50015 0000000183989145C0000000184882657C                                  0038257655002002California Virtual Academy @ Los Angeles                                                            19650940112706California Virtual Academy @ Los Angeles                                                            19650940112706DF0838N          California Virtual Academy @ Los Angeles                                                            19650940112706California Virtual Academy @ Los Angeles                                                            19650940112706DF0838N                                                                                                                                                                                                                                                                                                                                                                                                                                                                                      2023-05-012023-05-012023-05-022023-05-02                                        California Virtual Academy @ Los Angeles                                                            19650940112706California Virtual Academy @ Los Angeles                                                            19650940112706DF0838N2023-05-022023-04-242023-06-092023-04-242023-06-09                                        E1552023-06-092023-06-26                 YV OYYY  Y2023-05-211245Q                                             26500029262126793              017006      No No                                                                                                                                                                                                                                                                                                                                                                                                                                                                                                                                                                                                                                                                                                                                                                                                                                                                                                                                                                                                                                              No No                                                                                                                                                                                                                                                                                                                                                                                                                                                                                                                                                                                                                                                                                           Y07        002826343                                                                                                                                         38257655                                                                    ZZ
023744135011Nario                                             Jose                          Alejandro                     2009-03-03M     080819647090107508Century Community Charter                                                                           19647090107508Century Community Charter                                                                           0672DF       No       No No No No 2014-09-032018-03-232014-05-222022-08-29RFEPSPA01No    No YesYesNYesNo No No No No No No 50015 0000000187345099C0000000187526626C                                  0038329420002002Century Community Charter                                                                           19647090107508Century Community Charter                                                                           19647090107508DF0672N          Century Community Charter                                                                           19647090107508Century Community Charter                                                                           19647090107508DF0672N                                                                                                                                                                                                                                                                                                                                                                                                                                                                                      2023-05-082023-05-082023-05-082023-05-08                                        Century Community Charter                                                                           19647090107508Century Community Charter                                                                           19647090107508DF0672N2023-05-082023-03-142023-06-162023-03-142023-06-16                                        E2302023-06-162023-07-10                 YV OYNN  Y2023-05-191335Q                                             26910028266327194              017005      No No                                                                                                                                                                                                                                                                                                                                                                                                                                                                                                                                                                                                                                                                                                                                                                                                                                                                                                                                                                                                                                              No No                                                                                                                                                                                                                                                                                                                                                                                                                                                                                                                                                                                                                                                                                           Y07        002726764                                                                                                                                         38329420                                                                    ZZ
017506690377WRIGHT                                            MELANIE                       KAYLE BRIANNA                 2009-02-24F     080819647330101444KIPP Academy of Opportunity                                                                         19647330101444KIPP Academy of Opportunity                                                                         0530DF       No       No No No No                               2022-08-15EO  ENG00No    No YesYesNNo No No No No YesNo No 60011 0000000188687882C0000000187916749C                                  0033748830002014KIPP Academy of Opportunity                                                                         19647330101444KIPP Academy of Opportunity                                                                         19647330101444DF0530N          KIPP Academy of Opportunity                                                                         19647330101444KIPP Academy of Opportunity                                                                         19647330101444DF0530N                                                                                                                                                                                                                                                                                                                                                                                                                                                                                      2023-05-102023-05-122023-05-092023-05-09                                        KIPP Academy of Opportunity                                                                         19647330101444KIPP Academy of Opportunity                                                                         19647330101444DF0530N2023-05-122023-03-072023-06-092023-03-072023-06-09                                        E2302023-06-092023-07-17                 YV OYNN  Y2023-06-06885L                                              24340038239624721   NARR001MM  022003      No No                                                                                                                                                                                                                                                                                                                                                                                                                                                                                                                                                                                                                                                                                                                                                                                                                                                                                                                                                                                                                                              No No                                                                                                                                                                                                                                                                                                                                                                                                                                                                                                                                                                                                                                                                                           Y07        003424731                                                                                                                                         33748830                                                                    ZZ
024553031532RODRIGUEZ-GARCIA                                  ANTHONY                                                     2009-02-28M     080819646340000000Inglewood Unified                                                                                   19646346014518La Tijera K-8 Academy of Excellence Charter                                                         1591LF1964634No SLISLIYesYesNo No 2014-09-032019-12-192014-09-032022-08-22RFEPSPA01No    No YesYesNYesNo No No No No No No 50015 0000000187356997C0000000189797369C                                  0035244532002002Inglewood Unified                                                                                   19646340000000La Tijera K-8 Academy of Excellence Charter                                                         19646346014518LF1591N          Inglewood Unified                                                                                   19646340000000La Tijera K-8 Academy of Excellence Charter                                                         19646346014518LF1591N                                                                                                                                                                                                                                                                                                                                                                                                                                                                                      2023-05-082023-05-102023-05-122023-05-18                                        Inglewood Unified                                                                                   19646340000000La Tijera K-8 Academy of Excellence Charter                                                         19646346014518LF1591N2023-05-182023-04-172023-06-082023-04-172023-06-08                                        E2302023-06-082023-06-19                 YV OYNN  Y2023-05-26985Q                                              25300040249025702              017005      No No                                                                                                                                                                                                                                                                                                                                                                                                                                                                                                                                                                                                                                                                                                                                                                                                                                                                                                                                                                                                                                              No No                                                                                                                                                                                                                                                                                                                                                                                                                                                                                                                                                                                                                                                                                           Y07        003724862                           Y06        002825773                                                                                          35244532                                                                    ZZ
026282690647VAZQUEZ                                           DAVID                         ALEXANDER                     2008-12-17M     080819646340000000Inglewood Unified                                                                                   19646346014534Oak Street Elementary                                                                                            No       No No No No                     2014-09-032022-08-22EO  ENG00No    No YesYesNYesNo No No No No No No 50013 0000000187028335C0000000188607975C                                  0035273796002002Inglewood Unified                                                                                   19646340000000Oak Street Elementary                                                                               19646346014534      N          Inglewood Unified                                                                                   19646340000000Oak Street Elementary                                                                               19646346014534      N                                                                                                                                                                                                                                                                                                                                                                                                                                                                                      2023-05-082023-05-092023-05-102023-05-10                                        Inglewood Unified                                                                                   19646340000000Oak Street Elementary                                                                               19646346014534      N2023-05-102023-04-172023-06-082023-04-172023-06-08                                        E2302023-06-082023-06-09                 YV OYNN  Y2023-05-19905Q                                              24940043245125371              017005      No No                                                                                                                                                                                                                                                                                                                                                                                                                                                                                                                                                                                                                                                                                                                                                                                                                                                                                                                                                                                                                                              No No                                                                                                                                                                                                                                                                                                                                                                                                                                                                                                                                                                                                                                                                                           Y07        003724962                           Y06        002925372                                                                                          35273796                                                                    ZZ
018236609121CASTRO LIZAMA                                     ANTHONY                       ALEJANDRO                     2008-11-29M     080819647330000000Los Angeles Unified                                                                                 19647331996651CDS Secondary                                                                                                    No       No No No Yes2013-09-03          2013-08-132022-11-08EL  SPA01No    No YesYesNYesNo No No No No No No 50014 0000000188371843C0000000189075447C                                  0033788458002014Los Angeles Unified                                                                                 19647330000000CDS Secondary                                                                                       19647331996651      N          Los Angeles Unified                                                                                 19647330000000CDS Secondary                                                                                       19647331996651      N                                                                                                                                                                                                                                                                                                                                                                                                                                                                                      2023-05-092023-05-092023-05-102023-05-10                                        Los Angeles Unified                                                                                 19647330000000CDS Secondary                                                                                       19647331996651      N2023-05-102023-03-062023-06-092023-03-062023-06-09                                        E1552023-06-092023-06-23                 YV OYNN  Y2023-06-09635L                                              23150059229023741   NARR000III 022003      No No                                                                                                                                                                                                                                                                                                                                                                                                                                                                                                                                                                                                                                                                                                                                                                                                                                                                                                                                                                                                                                              No No                                                                                                                                                                                                                                                                                                                                                                                                                                                                                                                                                                                                                                                                                           Y07        003824091                                                                                                                                         33788458                                                                    ZZ
019016243975Morgan                                            Elijah                        Scott                         2009-02-20M     080819646340000000Inglewood Unified                                                                                   19646346014575Woodworth-Monroe TK-8 Academy                                                                                    No       No No No No                     2014-08-112022-08-22EO  ENG00No    No YesYesNNo No No No No YesNo No 60011 0000000181457528C0000000182854952C                                  0035321195002014Inglewood Unified                                                                                   19646340000000Woodworth-Monroe TK-8 Academy                                                                       19646346014575      N          Inglewood Unified                                                                                   19646340000000Woodworth-Monroe TK-8 Academy                                                                       19646346014575      N                                                                                                                                                                                                                                                                                                                                                                                                                                                                                      2023-04-252023-04-252023-04-272023-05-04                                        Inglewood Unified                                                                                   19646340000000Woodworth-Monroe TK-8 Academy                                                                       19646346014575      N2023-05-042023-04-172023-06-082023-04-172023-06-08                                        E2302023-06-082023-06-09                 YV OYNN  Y2023-05-191355L                                             26530035261826883   EXPL331    022003      No No                                                                                                                                                                                                                                                                                                                                                                                                                                                                                                                                                                                                                                                                                                                                                                                                                                                                                                                                                                                                                                              No No                                                                                                                                                                                                                                                                                                                                                                                                                                                                                                                                                                                                                                                                                           Y07        003326053                           Y06        003125032                                                                                          35321195                                                                    ZZ
028420699002GONZALEZ                                          JULIAN                                                      2009-08-04M     080819646340000000Inglewood Unified                                                                                   19646346014559Beulah Payne P-8 STEAM Academy                                                                                   No       No No No No                     2014-09-032022-08-22EO  ENG00No    No YesYesNYesNo No No No No No No 50013 0000000183787170C0000000182400116C                                  0035311914002002Inglewood Unified                                                                                   19646340000000Beulah Payne P-8 STEAM Academy                                                                      19646346014559      N          Inglewood Unified                                                                                   19646340000000Beulah Payne P-8 STEAM Academy                                                                      19646346014559      N                                                                                                                                                                                                                                                                                                                                                                                                                                                                                      2023-05-012023-05-012023-04-262023-04-26                                        Inglewood Unified                                                                                   19646340000000Beulah Payne P-8 STEAM Academy                                                                      19646346014559      N2023-05-012023-04-172023-06-082023-04-172023-06-08                                        E2302023-06-082023-06-09                 YV OYNN  Y2023-06-02790Q                                              24400046239424861              017005      No No                                                                                                                                                                                                                                                                                                                                                                                                                                                                                                                                                                                                                                                                                                                                                                                                                                                                                                                                                                                                                                              No No                                                                                                                                                                                                                                                                                                                                                                                                                                                                                                                                                                                                                                                                                           Y07        004124411                           Y06        004423821                                                                                          35311914                                                                    ZZ
026956321883Enriquez-Sanchez                                  Naomi                         Isabel                        2009-06-19F     080819646340000000Inglewood Unified                                                                                   19646346014518La Tijera K-8 Academy of Excellence Charter                                                         1591LF       No       No No No No 2014-09-082018-02-022014-09-082022-08-22RFEPSPA01No    No YesYesNYesNo No No No No No No 50012 0000000187397221C0000000190239408C                                  0035286608002002Inglewood Unified                                                                                   19646340000000La Tijera K-8 Academy of Excellence Charter                                                         19646346014518LF1591N          Inglewood Unified                                                                                   19646340000000La Tijera K-8 Academy of Excellence Charter                                                         19646346014518LF1591N                                                                                                                                                                                                                                                                                                                                                                                                                                                                                      2023-05-082023-05-122023-05-152023-05-18                                        Inglewood Unified                                                                                   19646340000000La Tijera K-8 Academy of Excellence Charter                                                         19646346014518LF1591N2023-05-182023-04-172023-06-082023-04-172023-06-08                                        E2302023-06-082023-06-19                 YV OYNN  Y2023-06-241180Q                                             26200031258926513              019000      No No                                                                                                                                                                                                                                                                                                                                                                                                                                                                                                                                                                                                                                                                                                                                                                                                                                                                                                                                                                                                                                              No No                                                                                                                                                                                                                                                                                                                                                                                                                                                                                                                                                                                                                                                                                           Y07        003724922                           Y06        002925432                                                                                          35286608                                                                    ZZ
015770696004SANCHEZ                                           ETHAN                         PHILIP                        2009-06-01M     080819646340000000Inglewood Unified                                                                                   19646346014450Centinela TK-8 Elementary                                                                                        No       No No No Yes2014-09-03          2014-09-032022-08-22EL  SPA01No    No YesYesNYesNo No No No No No No 50011 0000000184234363C0000000186621056C                                  0035264915002014Inglewood Unified                                                                                   19646340000000Centinela TK-8 Elementary                                                                           19646346014450      N          Inglewood Unified                                                                                   19646340000000Centinela TK-8 Elementary                                                                           19646346014450      N                                                                                                                                                                                                                                                                                                                                                                                                                                                                                      2023-05-012023-05-042023-05-042023-05-11                                        Inglewood Unified                                                                                   19646340000000Centinela TK-8 Elementary                                                                           19646346014450      N2023-05-112023-04-172023-06-082023-04-172023-06-08                                        E1552023-06-082023-06-09                 YV OYNN  Y2023-05-221240L                                             26000034256626343   EXPL222    022003      No No                                                                                                                                                                                                                                                                                                                                                                                                                                                                                                                                                                                                                                                                                                                                                                                                                                                                                                                                                                                                                                              No No                                                                                                                                                                                                                                                                                                                                                                                                                                                                                                                                                                                                                                                                                           Y07        003325523                           Y06        003125052                                                                                          35264915                                                                    ZZ
026525366750JIMENEZ-FLORES                                    IRVIN                         ANDERSON                      2008-03-25M     080819646340000000Inglewood Unified                                                                                   19646346014534Oak Street Elementary                                                                                            No       No No No No 2015-08-242022-09-012015-08-242022-08-31RFEPSPA01No    No YesYesNYesNo No No No No No No 50015 0000000187043576C0000000188686091C                                  0035279342002002Inglewood Unified                                                                                   19646340000000Oak Street Elementary                                                                               19646346014534      N          Inglewood Unified                                                                                   19646340000000Oak Street Elementary                                                                               19646346014534      N                                                                                                                                                                                                                                                                                                                                                                                                                                                                                      2023-05-082023-05-102023-05-102023-05-10                                        Inglewood Unified                                                                                   19646340000000Oak Street Elementary                                                                               19646346014534      N2023-05-102023-04-172023-06-082023-04-172023-06-08                                        E2302023-06-082023-06-09                 YV OYNN  Y2023-06-01570Q                                              23390061227824001              017006      No No                                                                                                                                                                                                                                                                                                                                                                                                                                                                                                                                                                                                                                                                                                                                                                                                                                                                                                                                                                                                                                              No No                                                                                                                                                                                                                                                                                                                                                                                                                                                                                                                                                                                                                                                                                           Y07        006323211                           Y06        003524551                                                                                          35279342                                                                    ZZ
013905205761CERDA-FLORES                                      ASIS                          EMILIANO                      2009-04-21M     080819646340000000Inglewood Unified                                                                                   19646346014559Beulah Payne P-8 STEAM Academy                                                                                   No       No No No Yes2019-09-12          2019-08-182022-08-22EL  SPA01No    No YesYesNYesNo No No No No No No 50011 0000000191927744C0000000187501504C                                  0035233205002014Inglewood Unified                                                                                   19646340000000Beulah Payne P-8 STEAM Academy                                                                      19646346014559      N          Inglewood Unified                                                                                   19646340000000Beulah Payne P-8 STEAM Academy                                                                      19646346014559      N                                                                                                                                                                                                                                                                                                                                                                                                                                                                                      2023-05-182023-05-222023-05-082023-05-22                                        Inglewood Unified                                                                                   19646340000000Beulah Payne P-8 STEAM Academy                                                                      19646346014559      N2023-05-222023-04-172023-06-082023-04-172023-06-08                                        T1602023-06-082023-06-09                 YV OYNN  Y2023-06-01920L                                              24490037241224861   EXPL110    022003      No No                                                                                                                                                                                                                                                                                                                                                                                                                                                                                                                                                                                                                                                                                                                                                                                                                                                                                                                                                                                                                                              No No                                                                                                                                                                                                                                                                                                                                                                                                                                                                                                                                                                                                                                                                                           Y07        003923981                           Y06        004523261                                                                                          35233205                                                                    ZZ
027506690377WRIGHT                                            MELANIE                       KAYLE BRIANNA                 2009-02-24F     080819647330101444KIPP Academy of Opportunity                                                                         19647330101444KIPP Academy of Opportunity                                                                         0530DF       No       No No No No                               2022-08-15EO  ENG00No    No YesYesNNo No No No No YesNo No 60011 0000000189338731C0000000189777524C                                  0033748830002002KIPP Academy of Opportunity                                                                         19647330101444KIPP Academy of Opportunity                                                                         19647330101444DF0530N          KIPP Academy of Opportunity                                                                         19647330101444KIPP Academy of Opportunity                                                                         19647330101444DF0530N                                                                                                                                                                                                                                                                                                                                                                                                                                                                                      2023-05-112023-05-112023-05-122023-05-12                                        KIPP Academy of Opportunity                                                                         19647330101444KIPP Academy of Opportunity                                                                         19647330101444DF0530N2023-05-122023-03-072023-06-092023-03-072023-06-09                                        E2302023-06-092023-07-17                 YV OYNN  Y2023-06-06625Q                                              23630056230724191              017005      No No                                                                                                                                                                                                                                                                                                                                                                                                                                                                                                                                                                                                                                                                                                                                                                                                                                                                                                                                                                                                                                              No No                                                                                                                                                                                                                                                                                                                                                                                                                                                                                                                                                                                                                                                                                           Y07        004624031                                                                                                                                         33748830                                                                    ZZ
013744135011Nario                                             Jose                          Alejandro                     2009-03-03M     080819647090107508Century Community Charter                                                                           19647090107508Century Community Charter                                                                           0672DF       No       No No No No 2014-09-032018-03-232014-05-222022-08-29RFEPSPA01No    No YesYesNYesNo No No No No No No 50015 0000000188197846C0000000188438685C                                  0038329420002014Century Community Charter                                                                           19647090107508Century Community Charter                                                                           19647090107508DF0672N          Century Community Charter                                                                           19647090107508Century Community Charter                                                                           19647090107508DF0672N                                                                                                                                                                                                                                                                                                                                                                                                                                                                                      2023-05-092023-05-092023-05-092023-05-10                                        Century Community Charter                                                                           19647090107508Century Community Charter                                                                           19647090107508DF0672N2023-05-102023-03-142023-06-162023-03-142023-06-16                                        E2302023-06-162023-07-10                 YV OYNN  Y2023-05-191595L                                             27650043272228084   ARGU222    022003      No No                                                                                                                                                                                                                                                                                                                                                                                                                                                                                                                                                                                                                                                                                                                                                                                                                                                                                                                                                                                                                                              No No                                                                                                                                                                                                                                                                                                                                                                                                                                                                                                                                                                                                                                                                                           Y07        004727694                                                                                                                                         38329420                                                                    ZZ
023905205761CERDA-FLORES                                      ASIS                          EMILIANO                      2009-04-21M     080819646340000000Inglewood Unified                                                                                   19646346014559Beulah Payne P-8 STEAM Academy                                                                                   No       No No No Yes2019-09-12          2019-08-182022-08-22EL  SPA01No    No YesYesNYesNo No No No No No No 50011 0000000183785332C0000000182406161C                                  0035233205002002Inglewood Unified                                                                                   19646340000000Beulah Payne P-8 STEAM Academy                                                                      19646346014559      N          Inglewood Unified                                                                                   19646340000000Beulah Payne P-8 STEAM Academy                                                                      19646346014559      N                                                                                                                                                                                                                                                                                                                                                                                                                                                                                      2023-05-012023-05-032023-04-262023-04-26                                        Inglewood Unified                                                                                   19646340000000Beulah Payne P-8 STEAM Academy                                                                      19646346014559      N2023-05-032023-04-172023-06-082023-04-172023-06-08                                        T1602023-06-082023-06-09                 YV OYNN  Y2023-06-01895Q                                              24880043244525311              017004      No No                                                                                                                                                                                                                                                                                                                                                                                                                                                                                                                                                                                                                                                                                                                                                                                                                                                                                                                                                                                                                                              No No                                                                                                                                                                                                                                                                                                                                                                                                                                                                                                                                                                                                                                                                                           Y07        004124461                           Y06        003224912                                                                                          35233205                                                                    ZZ
064398916746Hernandez                                         Yocelin                                                     2006-02-20F     111119646341996586Animo Inglewood Charter High                                                                        19646341996586Animo Inglewood Charter High                                                                        0432DF       No       No No No No 2014-10-102022-09-282011-09-202022-08-15RFEPSPA01No    No YesYesNYesNo No No No No No No 50014 0000000192944762C                                                   0033529547009003Animo Inglewood Charter High                                                                        19646341996586Animo Inglewood Charter High                                                                        19646341996586DF0432N                                                                                                                                                                                                                                                                                                                                                                                                                                                                                                                                                                                                                                                                                                                                           2023-05-262023-05-26                                                            Animo Inglewood Charter High                                                                        19646341996586Animo Inglewood Charter High                                                                        19646341996586DF0432N2023-05-262023-04-172023-06-16                                                            E1552023-06-162023-07-11            1    YV OYN   Y2023-06-01                                                  600             2212           050         No No                                                                                                                                                                                                                                                                                                                                                                                                                                                                                                                                                                                                                                                                                                                                                                                                                                                                                                                                                                                                                                              No                                                                                                                                                                                                                                                                                                                                                                                                                                                                                                                                                                                                                                                                                                                                                                                                                                                           33529547                                                                    ZZ
069016243975Morgan                                            Elijah                        Scott                         2009-02-20M     080819646340000000Inglewood Unified                                                                                   19646346014575Woodworth-Monroe TK-8 Academy                                                                                    No       No No No No                     2014-08-112022-08-22EO  ENG00No    No YesYesNNo No No No No YesNo No 60011 0000000187067690C                                                   0035321195009003Inglewood Unified                                                                                   19646340000000Woodworth-Monroe TK-8 Academy                                                                       19646346014575      N                                                                                                                                                                                                                                                                                                                                                                                                                                                                                                                                                                                                                                                                                                                                           2023-05-082023-05-11                                                            Inglewood Unified                                                                                   19646340000000Woodworth-Monroe TK-8 Academy                                                                       19646346014575      N2023-05-112023-04-172023-06-08                                                            E2302023-06-082023-06-09                 YV OYN   Y2023-05-14                                                  413             2222           045         No No                                                                                                                                                                                                                                                                                                                                                                                                                                                                                                                                                                                                                                                                                                                                                                                                                                                                                                                                                                                                                                              No                                                                                                                                                                                                                                                                                                                                                                                                                                                                                                                                                                                                                                                                                                                                                                                                                                                           35321195                                                                    ZZ
