028652117892Orozco                                            Jimena                                                      2009-07-28F     080819647330124016Animo Legacy Charter Middle                                                                         19647330124016Animo Legacy Charter Middle                                                                         1288DF       No       No No No No 2014-10-102018-06-052014-08-122022-08-15RFEPSPA01No    No YesYesNYesNo No No No No No No 50013 0000000191241497C0000000191752101C                                  0033820412002002Animo Legacy Charter Middle                                                                         19647330124016Animo Legacy Charter Middle                                                                         19647330124016DF1288N          Animo Legacy Charter Middle                                                                         19647330124016Animo Legacy Charter Middle                                                                         19647330124016DF1288N                                                                                                                                                                                                                                                                                                                                                                                                                                                                                      2023-05-172023-05-172023-05-182023-05-18                                        Animo Legacy Charter Middle                                                                         19647330124016Animo Legacy Charter Middle                                                                         19647330124016DF1288N2023-05-182023-04-172023-06-162023-04-172023-06-16                                        E2302023-06-162023-07-13                 YV OYNN  Y2023-06-011035Q                                             25530038251525912              017004      No No                                                                                                                                                                                                                                                                                                                                                                                                                                                                                                                                                                                                                                                                                                                                                                                                                                                                                                                                                                                                                                              No No                                                                                                                                                                                                                                                                                                                                                                                                                                                                                                                                                                                                                                                                                           Y07        003025903                                                                                                                                         33820412                                                                    ZZ
018652117892Orozco                                            Jimena                                                      2009-07-28F     080819647330124016Animo Legacy Charter Middle                                                                         19647330124016Animo Legacy Charter Middle                                                                         1288DF       No       No No No No 2014-10-102018-06-052014-08-122022-08-15RFEPSPA01No    No YesYesNYesNo No No No No No No 50013 0000000190164706C0000000190719261C                                  0033820412002014Animo Legacy Charter Middle                                                                         19647330124016Animo Legacy Charter Middle                                                                         19647330124016DF1288N          Animo Legacy Charter Middle                                                                         19647330124016Animo Legacy Charter Middle                                                                         19647330124016DF1288N                                                                                                                                                                                                                                                                                                                                                                                                                                                                                      2023-05-152023-05-172023-05-162023-05-16                                        Animo Legacy Charter Middle                                                                         19647330124016Animo Legacy Charter Middle                                                                         19647330124016DF1288N2023-05-172023-04-172023-06-162023-04-172023-06-16                                        E2302023-06-162023-07-13                 YV OYNN  Y2023-06-011310L                                             26320034259826663   EXPL222    022003      No No                                                                                                                                                                                                                                                                                                                                                                                                                                                                                                                                                                                                                                                                                                                                                                                                                                                                                                                                                                                                                                              No No                                                                                                                                                                                                                                                                                                                                                                                                                                                                                                                                                                                                                                                                                           Y07        003426273                                                                                                                                         33820412                                                                    ZZ
011046367821Espinosa                                          Alexandro                                                   2008-12-09M     080819647330124016Animo Legacy Charter Middle                                                                         19647330124016Animo Legacy Charter Middle                                                                         1288DF       No       No No No No 2014-09-042021-03-052014-08-122022-08-15RFEPSPA01No    No YesYesNYesNo No No No No No No 50012 0000000190282605C0000000190678847C                                  0033305366002014Animo Legacy Charter Middle                                                                         19647330124016Animo Legacy Charter Middle                                                                         19647330124016DF1288N          Animo Legacy Charter Middle                                                                         19647330124016Animo Legacy Charter Middle                                                                         19647330124016DF1288N                                                                                                                                                                                                                                                                                                                                                                                                                                                                                      2023-05-152023-05-162023-05-162023-05-16                                        Animo Legacy Charter Middle                                                                         19647330124016Animo Legacy Charter Middle                                                                         19647330124016DF1288N2023-05-162023-04-172023-06-162023-04-172023-06-16                                        E2302023-06-162023-07-15                 YV OYNN  Y2023-06-011095L                                             25310034249725652   ARGU222    022003      No No                                                                                                                                                                                                                                                                                                                                                                                                                                                                                                                                                                                                                                                                                                                                                                                                                                                                                                                                                                                                                                              No No                                                                                                                                                                                                                                                                                                                                                                                                                                                                                                                                                                                                                                                                                           Y07        003324962                                                                                                                                         33305366                                                                    ZZ
016145945312Quezada-Pollon                                    Elitman                       Josue                         2009-09-15M     080819647330124016Animo Legacy Charter Middle                                                                         19647330124016Animo Legacy Charter Middle                                                                         1288DF       No       No No No Yes2014-09-05          2014-08-122022-08-15EL  SPA01No    No YesYesNYesNo No No No No No No 50014 0000000190106792C0000000190247534C                                  0033650204002014Animo Legacy Charter Middle                                                                         19647330124016Animo Legacy Charter Middle                                                                         19647330124016DF1288N          Animo Legacy Charter Middle                                                                         19647330124016Animo Legacy Charter Middle                                                                         19647330124016DF1288N                                                                                                                                                                                                                                                                                                                                                                                                                                                                                      2023-05-152023-05-152023-05-152023-05-15                                        Animo Legacy Charter Middle                                                                         19647330124016Animo Legacy Charter Middle                                                                         19647330124016DF1288N2023-05-152023-04-172023-06-162023-04-172023-06-16                                        E2302023-06-162023-07-13                 YV OYNN  Y2023-06-01910L                                              24450037240824821   ARGU110    022003      No Yes                                                                                                                                                                                                                                                                                                                                                                                                                                                                                                                                                                                                                                                                                                                                                                                                                                                                                                               TDS_TTS_Item             TDS_TTS_Item                                                                                         No No                                                                                                          NEDS_BD                                                                                                                                                                                                                                                                                                                                                                                                                                                  NEDS_SimpDirsNEDS_SimpDirs                                                                                              Y07        003524521                                                                                                                                         33650204                                                                    ZZ
018123508977Quintanilla-Canales                               Andrea                        Vanessa                       2009-01-10F     080819647330124016Animo Legacy Charter Middle                                                                         19647330124016Animo Legacy Charter Middle                                                                         1288DF       No       No No No No 2014-09-082017-05-162014-08-122022-08-15RFEPSPA01No    No YesYesNYesNo No No No No No No 50015 0000000190034090C0000000190766877C                                  0033795593002014Animo Legacy Charter Middle                                                                         19647330124016Animo Legacy Charter Middle                                                                         19647330124016DF1288N          Animo Legacy Charter Middle                                                                         19647330124016Animo Legacy Charter Middle                                                                         19647330124016DF1288N                                                                                                                                                                                                                                                                                                                                                                                                                                                                                      2023-05-152023-05-162023-05-162023-05-16                                        Animo Legacy Charter Middle                                                                         19647330124016Animo Legacy Charter Middle                                                                         19647330124016DF1288N2023-05-162023-04-172023-06-162023-04-172023-06-16                                        E2302023-06-162023-07-13                 YV OYNN  Y2023-06-011065L                                             25180034248425522   EXPL222    022003      No No                                                                                                                                                                                                                                                                                                                                                                                                                                                                                                                                                                                                                                                                                                                                                                                                                                                                                                                                                                                                                                              No No                                                                                                                                                                                                                                                                                                                                                                                                                                                                                                                                                                                                                                                                                           Y07        003424691                                                                                                                                         33795593                                                                    ZZ
021090363487Ruiz Tol                                          Edwin                         Tomas                         2008-01-22M     080819647330124016Animo Legacy Charter Middle                                                                         19647330124016Animo Legacy Charter Middle                                                                         1288DF       No       No No No Yes2016-03-10          2015-12-012022-08-15EL  SPA01No    No YesYesNYesNo No No No No No No 50013 0000000191256774C0000000191708271C                                  0033316713002002Animo Legacy Charter Middle                                                                         19647330124016Animo Legacy Charter Middle                                                                         19647330124016DF1288N          Animo Legacy Charter Middle                                                                         19647330124016Animo Legacy Charter Middle                                                                         19647330124016DF1288N                                                                                                                                                                                                                                                                                                                                                                                                                                                                                      2023-05-172023-05-172023-05-182023-05-18                                        Animo Legacy Charter Middle                                                                         19647330124016Animo Legacy Charter Middle                                                                         19647330124016DF1288N2023-05-182023-04-172023-06-162023-04-172023-06-16                                        E2302023-06-162023-07-13                 YV OYNN  Y2023-05-26655Q                                              23780053232524311              017004      No Yes                                                                                                                                                                                                                                                                                                                                                                                                                                                                                                                                                                                                                                                                                                                                                                                                                                                                                                               TDS_TTS_Stim&TDS_TTS_ItemTDS_TTS_Stim&TDS_TTS_Item                                                                            No No                                                                                                                                                                                                                                                                                                                                                                                                                                                                                                                                                                   NEDS_SimpDirsNEDS_SimpDirs                                                                                              Y07        004124461                                                                                                                                         33316713                                                                    ZZ
028641656990Wade                                              Kashis                        Sheila Chanel                 2009-06-17F     080819647330124016Animo Legacy Charter Middle                                                                         19647330124016Animo Legacy Charter Middle                                                                         1288DF       No       No No No No                     2014-09-032022-08-15EO  ENG00No    No YesYesNNo No No No No No No Yes80012 0000000191305522C0000000191670872C                                  0033819629002002Animo Legacy Charter Middle                                                                         19647330124016Animo Legacy Charter Middle                                                                         19647330124016DF1288N          Animo Legacy Charter Middle                                                                         19647330124016Animo Legacy Charter Middle                                                                         19647330124016DF1288N                                                                                                                                                                                                                                                                                                                                                                                                                                                                                      2023-05-172023-05-172023-05-182023-05-18                                        Animo Legacy Charter Middle                                                                         19647330124016Animo Legacy Charter Middle                                                                         19647330124016DF1288N2023-05-182023-04-172023-06-162023-04-172023-06-16                                        E2302023-06-162023-07-13                 YV OYNN  Y2023-05-26835Q                                              24610045241625061              017004      No No                                                                                                                                                                                                                                                                                                                                                                                                                                                                                                                                                                                                                                                                                                                                                                                                                                                                                                                                                                                                                                              No No                                                                                                                                                                                                                                                                                                                                                                                                                                                                                                                                                                                                                                                                                           Y07        004524061                                                                                                                                         33819629                                                                    ZZ
019041334750Moreno                                            Jonathan                                                    2009-12-19M     080819647330124016Animo Legacy Charter Middle                                                                         19647330124016Animo Legacy Charter Middle                                                                         1288DF       No       No No No Yes2021-09-08          2021-08-262022-08-15EL  SPA01No    No YesYesNYesNo No No No No No No 50013 0000000190118185C0000000190275300C                                  0033847415002014Animo Legacy Charter Middle                                                                         19647330124016Animo Legacy Charter Middle                                                                         19647330124016DF1288N          Animo Legacy Charter Middle                                                                         19647330124016Animo Legacy Charter Middle                                                                         19647330124016DF1288N                                                                                                                                                                                                                                                                                                                                                                                                                                                                                      2023-05-152023-05-152023-05-152023-05-15                                        Animo Legacy Charter Middle                                                                         19647330124016Animo Legacy Charter Middle                                                                         19647330124016DF1288N2023-05-152023-04-172023-06-162023-04-172023-06-16                                        E2302023-06-162023-07-17                 YV OYNN  Y2023-05-26825L                                              24050041236424461   ARGU000III 022003      No Yes                                                                                                                                                                                                                                                                                                                                                                                                                                                                                                                                                                                                                                                                                                                                                                                                                                                                                                               TDS_TTS_Item             TDS_TTS_Item                                                                                         No No                                                                                                          NEDS_BD                                                                                                                                                                                                                                                                                                                                                                                                                                                  NEDS_SimpDirsNEDS_SimpDirs                          NEDS_TransDirs NEDS_TransDirs                                       Y07                9NEL                                                                                                                                      33847415                                                                    ZZ
017582605339Miller                                            Breiony                       Yevette                       2008-10-02F     080819734370137240Ingenium Clarion Charter Middle                                                                     19734370137240Ingenium Clarion Charter Middle                                                                     1952DF       No       No No No No                     2013-08-142022-08-15EO  ENG00No    No YesYesNYesNo No No No No No No 50014 0000000189457245C0000000192075425C                                  0033762074002014Ingenium Clarion Charter Middle                                                                     19734370137240Ingenium Clarion Charter Middle                                                                     19734370137240DF1952N          Ingenium Clarion Charter Middle                                                                     19734370137240Ingenium Clarion Charter Middle                                                                     19734370137240DF1952N                                                                                                                                                                                                                                                                                                                                                                                                                                                                                      2023-05-112023-05-122023-05-192023-05-19                                        Ingenium Clarion Charter Middle                                                                     19734370137240Ingenium Clarion Charter Middle                                                                     19734370137240DF1952N2023-05-192023-03-062023-06-092023-03-062023-06-09                                        E2302023-06-092023-06-23                 YV OYNN  Y2023-06-01965L                                              24700035243525051   ARGU111    022003      No No                                                                                                                                                                                                                                                                                                                                                                                                                                                                                                                                                                                                                                                                                                                                                                                                                                                                                                                                                                                                                                              No No                                                                                                                                                                                                                                                                                                                                                                                                                                                                                                                                                                                                                                                                                           Y07        004023881                                                                                                                                         33762074                                                                    ZZ
018641656990Wade                                              Kashis                        Sheila Chanel                 2009-06-17F     080819647330124016Animo Legacy Charter Middle                                                                         19647330124016Animo Legacy Charter Middle                                                                         1288DF       No       No No No No                     2014-09-032022-08-15EO  ENG00No    No YesYesNNo No No No No No No Yes80012 0000000190115297C0000000190527172C                                  0033819629002014Animo Legacy Charter Middle                                                                         19647330124016Animo Legacy Charter Middle                                                                         19647330124016DF1288N          Animo Legacy Charter Middle                                                                         19647330124016Animo Legacy Charter Middle                                                                         19647330124016DF1288N                                                                                                                                                                                                                                                                                                                                                                                                                                                                                      2023-05-152023-05-152023-05-162023-05-16                                        Animo Legacy Charter Middle                                                                         19647330124016Animo Legacy Charter Middle                                                                         19647330124016DF1288N2023-05-162023-04-172023-06-162023-04-172023-06-16                                        E2302023-06-162023-07-13                 YV OYNN  Y2023-05-261185L                                             25740034254026083              026000      No No                                                                                                                                                                                                                                                                                                                                                                                                                                                                                                                                                                                                                                                                                                                                                                                                                                                                                                                                                                                                                                              No No                                                                                                                                                                                                                                                                                                                                                                                                                                                                                                                                                                                                                                                                                           Y07        003524641                                                                                                                                         33819629                                                                    ZZ
026591092308Montes Romero                                     Jasmine                                                     2009-07-31F     080819647330124016Animo Legacy Charter Middle                                                                         19647330124016Animo Legacy Charter Middle                                                                         1288DF       No       No No No Yes2014-09-02          2014-08-122022-08-15EL  SPA01No    No YesYesNYesNo No No No No No No 50014 0000000191263490C0000000191714523C                                  0033686268002002Animo Legacy Charter Middle                                                                         19647330124016Animo Legacy Charter Middle                                                                         19647330124016DF1288N          Animo Legacy Charter Middle                                                                         19647330124016Animo Legacy Charter Middle                                                                         19647330124016DF1288N                                                                                                                                                                                                                                                                                                                                                                                                                                                                                      2023-05-172023-05-172023-05-182023-05-18                                        Animo Legacy Charter Middle                                                                         19647330124016Animo Legacy Charter Middle                                                                         19647330124016DF1288N2023-05-182023-04-172023-06-162023-04-172023-06-16                                        E2302023-06-162023-07-15                 YV OYNN  Y2023-06-01700Q                                              23990050234924491              017005      No Yes                                                                                                                                                                                                                                                                                                                                                                                                                                                                                                                                                                                                                                                                                                                                                                                                                                                                                                               TDS_TTS_Stim&TDS_TTS_ItemTDS_TTS_Stim&TDS_TTS_Item                                                                            No No                                                                                                                                                                                                                                                                                                                                                                                                                                                                                                                                                                   NEDS_SimpDirsNEDS_SimpDirs                                                                                              Y07        004923811                                                                                                                                         33686268                                                                    ZZ
016591092308Montes Romero                                     Jasmine                                                     2009-07-31F     080819647330124016Animo Legacy Charter Middle                                                                         19647330124016Animo Legacy Charter Middle                                                                         1288DF       No       No No No Yes2014-09-02          2014-08-122022-08-15EL  SPA01No    No YesYesNYesNo No No No No No No 50014 0000000190117713C0000000190647406C                                  0033686268002014Animo Legacy Charter Middle                                                                         19647330124016Animo Legacy Charter Middle                                                                         19647330124016DF1288N          Animo Legacy Charter Middle                                                                         19647330124016Animo Legacy Charter Middle                                                                         19647330124016DF1288N                                                                                                                                                                                                                                                                                                                                                                                                                                                                                      2023-05-152023-05-162023-05-162023-05-16                                        Animo Legacy Charter Middle                                                                         19647330124016Animo Legacy Charter Middle                                                                         19647330124016DF1288N2023-05-162023-04-172023-06-162023-04-172023-06-16                                        E2302023-06-162023-07-15                 YV OYNN  Y2023-06-01725L                                              23570049230824061   EXPL110    022003      No Yes                                                                                                                                                                                                                                                                                                                                                                                                                                                                                                                                                                                                                                                                                                                                                                                                                                                                                                               TDS_TTS_Item             TDS_TTS_Item                                                                                         No No                                                                                                          NEDS_BD                                                                                                                                                                                                                                                                                                                                                                                                                                                  NEDS_SimpDirsNEDS_SimpDirs                                                                                              Y07        003924011                                                                                                                                         33686268                                                                    ZZ
029041334750Moreno                                            Jonathan                                                    2009-12-19M     080819647330124016Animo Legacy Charter Middle                                                                         19647330124016Animo Legacy Charter Middle                                                                         1288DF       No       No No No Yes2021-09-08          2021-08-262022-08-15EL  SPA01No    No YesYesNYesNo No No No No No No 50013 0000000191211262C0000000191671920C                                  0033847415002002Animo Legacy Charter Middle                                                                         19647330124016Animo Legacy Charter Middle                                                                         19647330124016DF1288N          Animo Legacy Charter Middle                                                                         19647330124016Animo Legacy Charter Middle                                                                         19647330124016DF1288N                                                                                                                                                                                                                                                                                                                                                                                                                                                                                      2023-05-172023-05-172023-05-182023-05-18                                        Animo Legacy Charter Middle                                                                         19647330124016Animo Legacy Charter Middle                                                                         19647330124016DF1288N2023-05-182023-04-172023-06-162023-04-172023-06-16                                        E2302023-06-162023-07-17                 YV OYNN  Y2023-05-26790Q                                              24400046239424861              017005      No Yes                                                                                                                                                                                                                                                                                                                                                                                                                                                                                                                                                                                                                                                                                                                                                                                                                                                                                                               TDS_TTS_Stim&TDS_TTS_ItemTDS_TTS_Stim&TDS_TTS_Item                                                                            No No                                                                                                                                                                                                                                                                                                                                                                                                                                                                                                                                                                   NEDS_SimpDirsNEDS_SimpDirs                          NEDS_TransDirs NEDS_TransDirs                                       Y07        013422501                                                                                                                                         33847415                                                                    ZZ
027582605339Miller                                            Breiony                       Yevette                       2008-10-02F     080819734370137240Ingenium Clarion Charter Middle                                                                     19734370137240Ingenium Clarion Charter Middle                                                                     1952DF       No       No No No No                     2013-08-142022-08-15EO  ENG00No    No YesYesNYesNo No No No No No No 50014 0000000188248570C0000000192098643C                                  0033762074002002Ingenium Clarion Charter Middle                                                                     19734370137240Ingenium Clarion Charter Middle                                                                     19734370137240DF1952N          Ingenium Clarion Charter Middle                                                                     19734370137240Ingenium Clarion Charter Middle                                                                     19734370137240DF1952N                                                                                                                                                                                                                                                                                                                                                                                                                                                                                      2023-05-092023-05-192023-05-192023-05-22                                        Ingenium Clarion Charter Middle                                                                     19734370137240Ingenium Clarion Charter Middle                                                                     19734370137240DF1952N2023-05-222023-03-062023-06-092023-03-062023-06-09                                        E2302023-06-092023-06-23                 YV OYNN  Y2023-06-01820Q                                              24550045241025001              017005      No No                                                                                                                                                                                                                                                                                                                                                                                                                                                                                                                                                                                                                                                                                                                                                                                                                                                                                                                                                                                                                                              No No                                                                                                                                                                                                                                                                                                                                                                                                                                                                                                                                                                                                                                                                                           Y07        013422501                                                                                                                                         33762074                                                                    ZZ
065722799848Cole                                              Janae                         Ashley                        2006-06-03F     111119647330102434Animo South Los Angeles Charter                                                                     19647330102434Animo South Los Angeles Charter                                                                     0602DF       No       No No No No                     2011-09-062022-08-15EO  ENG00No    No YesYesNNo No No No No YesNo No 60012 0000000192093669C                                                   0033625417009003Animo South Los Angeles Charter                                                                     19647330102434Animo South Los Angeles Charter                                                                     19647330102434DF0602N                                                                                                                                                                                                                                                                                                                                                                                                                                                                                                                                                                                                                                                                                                                                           2023-05-192023-05-19                                                            Animo South Los Angeles Charter                                                                     19647330102434Animo South Los Angeles Charter                                                                     19647330102434DF0602N2023-05-192023-04-172023-06-16                                                            E1552023-06-162023-07-18            1    YV OYN   Y2023-05-22                                                  579             2111           050         No No                                                                                                                                                                                                                                                                                                                                                                                                                                                                                                                                                                                                                                                                                                                                                                                                                                                                                                                                                                                                                                              No                                                                                                                                                                                                                                                                                                                                                                                                                                                                                                                                                                                                                                                                                                                                                                                                                                                           33625417                                                                    ZZ
068641656990Wade                                              Kashis                        Sheila Chanel                 2009-06-17F     080819647330124016Animo Legacy Charter Middle                                                                         19647330124016Animo Legacy Charter Middle                                                                         1288DF       No       No No No No                     2014-09-032022-08-15EO  ENG00No    No YesYesNNo No No No No No No Yes80012 0000000192026051C                                                   0033819629009003Animo Legacy Charter Middle                                                                         19647330124016Animo Legacy Charter Middle                                                                         19647330124016DF1288N                                                                                                                                                                                                                                                                                                                                                                                                                                                                                                                                                                                                                                                                                                                                           2023-05-192023-05-19                                                            Animo Legacy Charter Middle                                                                         19647330124016Animo Legacy Charter Middle                                                                         19647330124016DF1288N2023-05-192023-04-172023-06-16                                                            E2302023-06-162023-07-13                 YV OYN   Y2023-05-22                                                  374             1111           044         No No                                                                                                                                                                                                                                                                                                                                                                                                                                                                                                                                                                                                                                                                                                                                                                                                                                                                                                                                                                                                                                              No                                                                                                                                                                                                                                                                                                                                                                                                                                                                                                                                                                                                                                                                                                                                                                                                                                                           33819629                                                                    ZZ
012093445292Atterberry                                        Taraji                                                      2009-02-10F     080819647330124016Animo Legacy Charter Middle                                                                         19647330124016Animo Legacy Charter Middle                                                                         1288DF1964733No SLDSLDYesYesNo No                               2022-08-15EO  ENG00No    No YesYesNNo No No No No YesNo No 60012 0000000190034613C0000000190579228C                                  0033372283002014Animo Legacy Charter Middle                                                                         19647330124016Animo Legacy Charter Middle                                                                         19647330124016DF1288N          Animo Legacy Charter Middle                                                                         19647330124016Animo Legacy Charter Middle                                                                         19647330124016DF1288N                                                                                                                                                                                                                                                                                                                                                                                                                                                                                      2023-05-152023-05-162023-05-162023-05-16                                        Animo Legacy Charter Middle                                                                         19647330124016Animo Legacy Charter Middle                                                                         19647330124016DF1288N2023-05-162023-04-172023-06-162023-04-172023-06-16                                        E2302023-06-162023-07-13                 YV OYNN  Y2023-06-01855L                                              24190039238024581   EXPL111    022003      YesYes                                                                      TDS_ClosedCap1                                                                                                                                                                                                                                                                                                                                                                                                                                                                                                                                                                                                                                                                                                                                                                                                                           TDS_TTS_Item             TDS_TTS_Item                                                                                         No No                                                                                                                                                                                                                                                                                                                                                                                                                                                                                                                                       NEDS_SSNEDS_SS                                                                                                                                      Y07        003724191                                                                                                                                         33372283                                                                    ZZ
022093445292Atterberry                                        Taraji                                                      2009-02-10F     080819647330124016Animo Legacy Charter Middle                                                                         19647330124016Animo Legacy Charter Middle                                                                         1288DF1964733No SLDSLDYesYesNo No                               2022-08-15EO  ENG00No    No YesYesNNo No No No No YesNo No 60012 0000000191199451C0000000191757444C                                  0033372283002002Animo Legacy Charter Middle                                                                         19647330124016Animo Legacy Charter Middle                                                                         19647330124016DF1288N          Animo Legacy Charter Middle                                                                         19647330124016Animo Legacy Charter Middle                                                                         19647330124016DF1288N                                                                                                                                                                                                                                                                                                                                                                                                                                                                                      2023-05-172023-05-172023-05-182023-05-18                                        Animo Legacy Charter Middle                                                                         19647330124016Animo Legacy Charter Middle                                                                         19647330124016DF1288N2023-05-182023-04-172023-06-162023-04-172023-06-16                                        E2302023-06-162023-07-13                 YV OYNN  Y2023-06-01585Q                                              23460059228724051              017005      YesYes                                                                                                                                                                                                                                                                                                                                 NEA_MTNEA_MT                                                                                                                                                                                                                                                                                                                                                                                                                                                                                                                                                                  TDS_TTS_Stim&TDS_TTS_ItemTDS_TTS_Stim&TDS_TTS_Item                                                                            No No                                                                                                                                                                                                                                                                                                                                                                                                                                                                                                                                       NEDS_SSNEDS_SS                                                                                                                                      Y07        013422501                                                                                                                                         33372283                                                                    ZZ
022149967880Araiza- Barrera                                   Frankie                       Ivan                          2008-11-29M     080819647330124016Animo Legacy Charter Middle                                                                         19647330124016Animo Legacy Charter Middle                                                                         1288DF       No       No No No No                     2014-08-122022-08-15IFEPSPA01No    No YesYesNYesNo No No No No No No 50012 0000000191266998C0000000191714257C                                  0033382794002002Animo Legacy Charter Middle                                                                         19647330124016Animo Legacy Charter Middle                                                                         19647330124016DF1288N          Animo Legacy Charter Middle                                                                         19647330124016Animo Legacy Charter Middle                                                                         19647330124016DF1288N                                                                                                                                                                                                                                                                                                                                                                                                                                                                                      2023-05-172023-05-172023-05-182023-05-18                                        Animo Legacy Charter Middle                                                                         19647330124016Animo Legacy Charter Middle                                                                         19647330124016DF1288N2023-05-182023-04-172023-06-162023-04-172023-06-16                                        E2302023-06-162023-07-13                 YV OYNN  Y2023-06-01605Q                                              23550057229824121              017006      No No                                                                                                                                                                                                                                                                                                                                                                                                                                                                                                                                                                                                                                                                                                                                                                                                                                                                                                                                                                                                                                              No No                                                                                                                                                                                                                                                                                                                                                                                                                                                                                                                                                                                                                                                                                           Y07        004723971                                                                                                                                         33382794                                                                    ZZ
015512311584Beiza                                             Alan                                                        2009-08-29M     080819647330124016Animo Legacy Charter Middle                                                                         19647330124016Animo Legacy Charter Middle                                                                         1288DF       No       No No No Yes2014-09-04          2014-08-122022-08-15EL  SPA01No    No YesYesNYesNo No No No No No No 50014 0000000190108673C0000000190307410C                                  0033601443002014Animo Legacy Charter Middle                                                                         19647330124016Animo Legacy Charter Middle                                                                         19647330124016DF1288N          Animo Legacy Charter Middle                                                                         19647330124016Animo Legacy Charter Middle                                                                         19647330124016DF1288N                                                                                                                                                                                                                                                                                                                                                                                                                                                                                      2023-05-152023-05-152023-05-152023-05-16                                        Animo Legacy Charter Middle                                                                         19647330124016Animo Legacy Charter Middle                                                                         19647330124016DF1288N2023-05-162023-04-172023-06-162023-04-172023-06-16                                        E2302023-06-162023-07-13                 YV OYNN  Y2023-06-011025L                                             24980034246425322   NARR222    022003      No Yes                                                                                                                                                                                                                                                                                                                                                                                                                                                                                                                                                                                                                                                                                                                                                                                                                                                                                                               TDS_TTS_Item             TDS_TTS_Item                                                                                         No No                                                                                                                                                                                                                                                                                                                                                                                                                                                                                                                                                                   NEDS_SimpDirsNEDS_SimpDirs                                                                                              Y07        005622981                                                                                                                                         33601443                                                                    ZZ
013228350242Lopez                                             Alicia                                                      2009-07-13F     080819647330124016Animo Legacy Charter Middle                                                                         19647330124016Animo Legacy Charter Middle                                                                         1288DF       No       No No No No                     2014-08-122022-08-15EO  ENG00No    No YesYesNYesNo No No No No No No 50013 0000000190155455C0000000190505411C                                  0033445574002014Animo Legacy Charter Middle                                                                         19647330124016Animo Legacy Charter Middle                                                                         19647330124016DF1288N          Animo Legacy Charter Middle                                                                         19647330124016Animo Legacy Charter Middle                                                                         19647330124016DF1288N                                                                                                                                                                                                                                                                                                                                                                                                                                                                                      2023-05-152023-05-152023-05-162023-05-16                                        Animo Legacy Charter Middle                                                                         19647330124016Animo Legacy Charter Middle                                                                         19647330124016DF1288N2023-05-162023-04-172023-06-162023-04-172023-06-16                                        E2302023-06-162023-07-26                 YV OYNN  Y2023-05-261335L                                             26430035260826783   ARGU331    022003      No No                                                                                                                                                                                                                                                                                                                                                                                                                                                                                                                                                                                                                                                                                                                                                                                                                                                                                                                                                                                                                                              No No                                                                                                                                                                                                                                                                                                                                                                                                                                                                                                                                                                                                                                                                                           Y07        003225412                                                                                                                                         33445574                                                                    ZZ
015505788428Lainez                                            Angel                         Giovanni                      2009-04-10M     080819647330124016Animo Legacy Charter Middle                                                                         19647330124016Animo Legacy Charter Middle                                                                         1288DF       No       No No No Yes2014-09-05          2014-08-122022-08-15EL  SPA01No    No YesYesNYesNo No No No No No No 50014 0000000190029470C0000000190255898C                                  0033600986002014Animo Legacy Charter Middle                                                                         19647330124016Animo Legacy Charter Middle                                                                         19647330124016DF1288N          Animo Legacy Charter Middle                                                                         19647330124016Animo Legacy Charter Middle                                                                         19647330124016DF1288N                                                                                                                                                                                                                                                                                                                                                                                                                                                                                      2023-05-152023-05-152023-05-152023-05-16                                        Animo Legacy Charter Middle                                                                         19647330124016Animo Legacy Charter Middle                                                                         19647330124016DF1288N2023-05-162023-04-172023-06-162023-04-172023-06-16                                        E2302023-06-162023-07-13                 YV OYNN  Y2023-06-01770L                                              23790045233424241   ARGU000III 022003      No Yes                                                                                                                                                                                                                                                                                                                                                                                                                                                                                                                                                                                                                                                                                                                                                                                                                                                                                                               TDS_TTS_Item             TDS_TTS_Item                                                                                         No No                                                                                                                                                                                                                                                                                                                                                                                                                                                                                                                                                                   NEDS_SimpDirsNEDS_SimpDirs                                                                                              Y07        005223141                                                                                                                                         33600986                                                                    ZZ
025377102885Isidoro                                           Diego                                                       2009-05-09M     080819647330137521Vox Collegiate of Los Angeles                                                                       19647330137521Vox Collegiate of Los Angeles                                                                       1917DF       No       No No No Yes2014-09-10          2014-08-122022-08-10EL  SPA01No    No YesYesNYesNo No No No No No No 50014 0000000180134421C0000000180510900C                                  0037133266002002Vox Collegiate of Los Angeles                                                                       19647330137521Vox Collegiate of Los Angeles                                                                       19647330137521DF1917N          Vox Collegiate of Los Angeles                                                                       19647330137521Vox Collegiate of Los Angeles                                                                       19647330137521DF1917N                                                                                                                                                                                                                                                                                                                                                                                                                                                                                      2023-04-202023-04-202023-04-212023-04-21                                        Vox Collegiate of Los Angeles                                                                       19647330137521Vox Collegiate of Los Angeles                                                                       19647330137521DF1917N2023-04-212023-04-102023-05-312023-04-102023-05-31                                        E2302023-06-092023-07-10                 YV OYNN  Y2023-05-09965Q                                              25200041247925612              017006      No No                                                                                                                                                                                                                                                                                                                                                                                                                                                                                                                                                                                                                                                                                                                                                                                                                                                                                                                                                                                                                                              No No                                                                                                                                                                                                                                                                                                                                                                                                                                                                                                                                                                                                                                                                                           Y07        004823881                           Y06        003624441                                                                                          37133266                                                                    ZZ
016518611473Rojas                                             Karla                                                       2009-08-06F     080819647330124016Animo Legacy Charter Middle                                                                         19647330124016Animo Legacy Charter Middle                                                                         1288DF       No       No No No No 2014-09-042017-05-162014-08-122022-08-15RFEPSPA01No    No YesYesNYesNo No No No No No No 50013 0000000190057931C0000000190537708C                                  0033676536002014Animo Legacy Charter Middle                                                                         19647330124016Animo Legacy Charter Middle                                                                         19647330124016DF1288N          Animo Legacy Charter Middle                                                                         19647330124016Animo Legacy Charter Middle                                                                         19647330124016DF1288N                                                                                                                                                                                                                                                                                                                                                                                                                                                                                      2023-05-152023-05-152023-05-162023-05-16                                        Animo Legacy Charter Middle                                                                         19647330124016Animo Legacy Charter Middle                                                                         19647330124016DF1288N2023-05-162023-04-172023-06-162023-04-172023-06-16                                        E2302023-06-162023-07-13                 YV OYNN  Y2023-06-071195L                                             25790034254526133   NARR002MM  022003      No No                                                                                                                                                                                                                                                                                                                                                                                                                                                                                                                                                                                                                                                                                                                                                                                                                                                                                                                                                                                                                                              No No                                                                                                                                                                                                                                                                                                                                                                                                                                                                                                                                                                                                                                                                                           Y07        003624441                                                                                                                                         33676536                                                                    ZZ
