023695231733Lopez                                             Anabelle                      Ibette                        2011-07-12F     060619734370137984Animo Compton Charter                                                                               19734370137984Animo Compton Charter                                                                               1990DF       No       No No No Yes2016-08-25          2016-08-252022-08-15EL  SPA01No    No YesYesNYesNo No No No No No No 50012 0000000191371747C0000000192065908C                                  0033483791002002Animo Compton Charter                                                                               19734370137984Animo Compton Charter                                                                               19734370137984DF1990N          Animo Compton Charter                                                                               19734370137984Animo Compton Charter                                                                               19734370137984DF1990N                                                                                                                                                                                                                                                                                                                                                                                                                                                                                      2023-05-172023-05-172023-05-192023-05-19                                        Animo Compton Charter                                                                               19734370137984Animo Compton Charter                                                                               19734370137984DF1990N2023-05-192023-04-172023-06-162023-04-172023-06-16                                        E1552023-06-162023-07-15                 YV OYNN  Y2023-05-26550Q                                              23960042235424381              019000      No Yes                                                                                                                                                                                                                                                                                                                                                                                                                                                                                                                                                                                                                                                                                                                                                                                                                                                                                                               TDS_TTS_Stim&TDS_TTS_ItemTDS_TTS_Stim&TDS_TTS_Item                                                                            No No                                                                                                                                                                                                                                                                                                                                                                                                                                                                                                                                                                   NEDS_SimpDirsNEDS_SimpDirs                                                                                              Y05        003624181                                                                                                                                         33483791                                                                    ZZ
013695231733Lopez                                             Anabelle                      Ibette                        2011-07-12F     060619734370137984Animo Compton Charter                                                                               19734370137984Animo Compton Charter                                                                               1990DF       No       No No No Yes2016-08-25          2016-08-252022-08-15EL  SPA01No    No YesYesNYesNo No No No No No No 50012 0000000190859616C0000000191825824C                                  0033483791002014Animo Compton Charter                                                                               19734370137984Animo Compton Charter                                                                               19734370137984DF1990N          Animo Compton Charter                                                                               19734370137984Animo Compton Charter                                                                               19734370137984DF1990N                                                                                                                                                                                                                                                                                                                                                                                                                                                                                      2023-05-162023-05-162023-05-182023-05-18                                        Animo Compton Charter                                                                               19734370137984Animo Compton Charter                                                                               19734370137984DF1990N2023-05-182023-04-172023-06-162023-04-172023-06-16                                        E1552023-06-162023-07-15                 YV OYNN  Y2023-05-26720L                                              24210034238724551   ARGU110    022003      No Yes                                                                                                                                                                                                                                                                                                                                                                                                                                                                                                                                                                                                                                                                                                                                                                                                                                                                                                               TDS_TTS_Item             TDS_TTS_Item                                                                                         No No                                                                                                                                                                                                                                                                                                                                                                                                                                                                                                                                                                   NEDS_SimpDirsNEDS_SimpDirs                                                                                              Y05        003423891                                                                                                                                         33483791                                                                    ZZ
021224869725WILLIAMS                                          SAMIEYA                       ELISE                         2012-06-22F     050519647330000000Los Angeles Unified                                                                                 19647336016497Cimarron Avenue Elementary                                                                                       No       No No No No                     2016-08-252022-08-15EO  ENG00No    No No No NNo No No No No YesNo No 60013 0000000190597217C0000000191271847C                                  0033297986002002Los Angeles Unified                                                                                 19647330000000Cimarron Avenue Elementary                                                                          19647336016497      N          Los Angeles Unified                                                                                 19647330000000Cimarron Avenue Elementary                                                                          19647336016497      N                                                                                                                                                                                                                                                                                                                                                                                                                                                                                      2023-05-162023-05-162023-05-172023-05-17                                        Los Angeles Unified                                                                                 19647330000000Cimarron Avenue Elementary                                                                          19647336016497      N2023-05-172023-03-062023-06-092023-03-062023-06-09                                        E2302023-06-092023-06-22                 YV OYNN  Y2023-05-30925Q                                              25540025252925793              017005      No No                                                                                                                                                                                                                                                                                                                                                                                                                                                                                                                                                                                                                                                                                                                                                                                                                                                                                                                                                                                                                                              No No                                                                                                                                                                                                                                                                                                                                                                                                                                                                                                                                                                                                                                                                                           Y04        002424572                                                                                                                                         33297986                                                                    ZZ
015093855458TORO                                              JAVIER                        ALEJANDRO                     2012-08-07M     050519647330000000Los Angeles Unified                                                                                 19647336018386Ninety-Third Street Elementary                                                                                   Yes      No No No No                     2017-08-152022-08-15EO  ENG00No    No No No NYesNo No No No No No No 50013 0000000192194793C0000000192697748C                                  0033575812002014Los Angeles Unified                                                                                 19647330000000Ninety-Third Street Elementary                                                                      19647336018386      N          Los Angeles Unified                                                                                 19647330000000Ninety-Third Street Elementary                                                                      19647336018386      N                                                                                                                                                                                                                                                                                                                                                                                                                                                                                      2023-05-222023-05-222023-05-242023-05-25                                        Los Angeles Unified                                                                                 19647330000000Ninety-Third Street Elementary                                                                      19647336018386      N2023-05-252023-03-062023-06-092023-03-062023-06-09                                        E2302023-06-092023-06-22                 YV OYNN  Y2023-06-05720L                                              24240033239124571   INFO110    020003      No No                                                                                                                                                                                                                                                                                                                                                                                                                                                                                                                                                                                                                                                                                                                                                                                                                                                                                                                                                                                                                                              No No                                                                                                                                                                                                                                                                                                                                                                                                                                                                                                                                                                                                                                                                                           Y04        003324773                                                                                                                                         33575812                                                                    ZZ
015361488526Ramirez                                           Jose                          Alberto                       2010-12-29M     070719734370137984Animo Compton Charter                                                                               19734370137984Animo Compton Charter                                                                               1990DF       No       No No No Yes2019-03-27          2019-03-122022-08-15EL  SPA01No    No YesYesNYesNo No No No No No No 50014 0000000191464523C0000000191350763C                                  0033597727002014Animo Compton Charter                                                                               19734370137984Animo Compton Charter                                                                               19734370137984DF1990N          Animo Compton Charter                                                                               19734370137984Animo Compton Charter                                                                               19734370137984DF1990N                                                                                                                                                                                                                                                                                                                                                                                                                                                                                      2023-05-172023-05-172023-05-172023-05-17                                        Animo Compton Charter                                                                               19734370137984Animo Compton Charter                                                                               19734370137984DF1990N2023-05-172023-04-172023-06-162023-04-172023-06-16                                        E1552023-06-162023-07-17                 YV OYNN  Y2023-08-30725L                                              23770041233624181   NARR000III 022003      No Yes                                                                                                                                                                                                                                                                                                                                                                                                                                                                                                                                                                                                                                                                                                                                                                                                                                                                                                               TDS_TTS_Item             TDS_TTS_Item                                                                                         No No                                                                                                          NEDS_BD                                                                                                                                                                                                                                                                                                                                                                                                                                                  NEDS_SimpDirsNEDS_SimpDirs                          NEDS_TransDirs NEDS_TransDirs                                       Y06        003524161                                                                                                                                         33597727                                                                    ZZ
023912656308Guzman                                            Anthony                       Jr                            2009-05-25M     070719647330124008Animo James B. Taylor Charter Middle                                                                19647330124008Animo James B. Taylor Charter Middle                                                                1287DF       No       No No No Yes2014-09-10          2015-08-182022-08-15EL  SPA01No    No YesYesNYesNo No No No No No No 50014 0000000191362711C0000000191810362C                                  0033492070002002Animo James B. Taylor Charter Middle                                                                19647330124008Animo James B. Taylor Charter Middle                                                                19647330124008DF1287N          Animo James B. Taylor Charter Middle                                                                19647330124008Animo James B. Taylor Charter Middle                                                                19647330124008DF1287N                                                                                                                                                                                                                                                                                                                                                                                                                                                                                      2023-05-172023-05-172023-05-182023-05-18                                        Animo James B. Taylor Charter Middle                                                                19647330124008Animo James B. Taylor Charter Middle                                                                19647330124008DF1287N2023-05-182023-04-172023-06-162023-04-172023-06-16                                        E1552023-06-162023-07-05                 YV OYNN  Y2023-06-01735Q                                              24610039242225001              017004      No Yes                                                                                                                                                                                                                                                                                                                                                                                                                                                                                                                                                                                                                                                                                                                                                                                                                                                                                                               TDS_TTS_Stim&TDS_TTS_ItemTDS_TTS_Stim&TDS_TTS_Item                                                                            No No                                                                                                                                                                                                                                                                                                                                                                                                                                                                                                                                                                   NEDS_SimpDirsNEDS_SimpDirs                                                                                              Y06        003724391                                                                                                                                         33492070                                                                    ZZ
011224869725WILLIAMS                                          SAMIEYA                       ELISE                         2012-06-22F     050519647330000000Los Angeles Unified                                                                                 19647336016497Cimarron Avenue Elementary                                                                                       No       No No No No                     2016-08-252022-08-15EO  ENG00No    No No No NNo No No No No YesNo No 60013 0000000187916806C0000000188727069C                                  0033297986002014Los Angeles Unified                                                                                 19647330000000Cimarron Avenue Elementary                                                                          19647336016497      N          Los Angeles Unified                                                                                 19647330000000Cimarron Avenue Elementary                                                                          19647336016497      N                                                                                                                                                                                                                                                                                                                                                                                                                                                                                      2023-05-092023-05-092023-05-102023-05-11                                        Los Angeles Unified                                                                                 19647330000000Cimarron Avenue Elementary                                                                          19647336016497      N2023-05-112023-03-062023-06-092023-03-062023-06-09                                        E2302023-06-092023-06-22                 YV OYNN  Y2023-05-301175L                                             26280038259026664   INFO232    020003      No No                                                                                                                                                                                                                                                                                                                                                                                                                                                                                                                                                                                                                                                                                                                                                                                                                                                                                                                                                                                                                                              No No                                                                                                                                                                                                                                                                                                                                                                                                                                                                                                                                                                                                                                                                                           Y04        003424642                                                                                                                                         33297986                                                                    ZZ
025093855458TORO                                              JAVIER                        ALEJANDRO                     2012-08-07M     050519647330000000Los Angeles Unified                                                                                 19647336018386Ninety-Third Street Elementary                                                                                   Yes      No No No No                     2017-08-152022-08-15EO  ENG00No    No No No NYesNo No No No No No No 50013 0000000192941676C0000000193040295C                                  0033575812002002Los Angeles Unified                                                                                 19647330000000Ninety-Third Street Elementary                                                                      19647336018386      N          Los Angeles Unified                                                                                 19647330000000Ninety-Third Street Elementary                                                                      19647336018386      N                                                                                                                                                                                                                                                                                                                                                                                                                                                                                      2023-05-262023-05-302023-05-312023-05-31                                        Los Angeles Unified                                                                                 19647330000000Ninety-Third Street Elementary                                                                      19647336018386      N2023-05-312023-03-062023-06-092023-03-062023-06-09                                        E2302023-06-092023-06-22                 YV OYNN  Y2023-06-05795Q                                              25080027248125352              017005      No No                                                                                                                                                                                                                                                                                                                                                                                                                                                                                                                                                                                                                                                                                                                                                                                                                                                                                                                                                                                                                                              No No                                                                                                                                                                                                                                                                                                                                                                                                                                                                                                                                                                                                                                                                                           Y04        002325333                                                                                                                                         33575812                                                                    ZZ
019708269962Santos                                            Ethan                         Jacob                         2010-10-30M     060619734370137984Animo Compton Charter                                                                               19734370137984Animo Compton Charter                                                                               1990DF       No       No No No No                               2022-08-15EO  ENG00No    No YesYesNYesNo No No No No No No 50013 0000000190861186C0000000191831145C                                  0033905102002014Animo Compton Charter                                                                               19734370137984Animo Compton Charter                                                                               19734370137984DF1990N          Animo Compton Charter                                                                               19734370137984Animo Compton Charter                                                                               19734370137984DF1990N                                                                                                                                                                                                                                                                                                                                                                                                                                                                                      2023-05-162023-05-162023-05-182023-05-18                                        Animo Compton Charter                                                                               19734370137984Animo Compton Charter                                                                               19734370137984DF1990N2023-05-182023-04-172023-06-162023-04-172023-06-16                                        E1552023-06-162023-07-17                 YV OYNN  Y2023-05-311140L                                             26170034258326513   EXPL221    022003      No No                                                                                                                                                                                                                                                                                                                                                                                                                                                                                                                                                                                                                                                                                                                                                                                                                                                                                                                                                                                                                                              No No                                                                                                                                                                                                                                                                                                                                                                                                                                                                                                                                                                                                                                                                                           Y05        003826294                                                                                                                                         33905102                                                                    ZZ
013489815136Butler                                            Joe'Syiah                                                   2011-11-17M     060619734370137984Animo Compton Charter                                                                               19734370137984Animo Compton Charter                                                                               1990DF       No       No No No No                               2022-08-15EO  ENG00No    YesYesYesNYesNo No No No No No No 50013 0000000190853690C0000000191826157C                                  0033472495002014Animo Compton Charter                                                                               19734370137984Animo Compton Charter                                                                               19734370137984DF1990N          Animo Compton Charter                                                                               19734370137984Animo Compton Charter                                                                               19734370137984DF1990N                                                                                                                                                                                                                                                                                                                                                                                                                                                                                      2023-05-162023-05-162023-05-182023-05-18                                        Animo Compton Charter                                                                               19734370137984Animo Compton Charter                                                                               19734370137984DF1990N2023-05-182023-04-172023-06-162023-04-172023-06-16                                        E1552023-06-162023-07-15                 YV OYNN  Y2023-06-05870L                                              24910031246025222   EXPL221    022003      No Yes                                                                                                                                                                                                                                                                                                                                                                                                                                                                                                                                                                                                                                                                                         TDS_Masking1TDS_Masking1                                                                                                                                                                                              TDS_TTS_Item             TDS_TTS_Item                                                                                         No No                                                                                                                                                                                                                                                                                                                                                                                                                                                                                                                                                                   NEDS_SimpDirsNEDS_SimpDirs                                                                                              Y05        003325253                                                                                                                                         33472495                                                                    ZZ
023695058235Walter                                            Jamelia                       Eugina- Lee                   2009-11-14F     070719734370137984Animo Compton Charter                                                                               19734370137984Animo Compton Charter                                                                               1990DF       No       No No No No                               2022-08-15EO  ENG00No    No YesYesNNo No No No No YesNo No 60013 0000000191293368C0000000192037112C                                  0033483776002002Animo Compton Charter                                                                               19734370137984Animo Compton Charter                                                                               19734370137984DF1990N          Animo Compton Charter                                                                               19734370137984Animo Compton Charter                                                                               19734370137984DF1990N                                                                                                                                                                                                                                                                                                                                                                                                                                                                                      2023-05-172023-05-172023-05-192023-05-19                                        Animo Compton Charter                                                                               19734370137984Animo Compton Charter                                                                               19734370137984DF1990N2023-05-192023-04-172023-06-162023-04-172023-06-16                                        E1552023-06-162023-07-15                 YV OYNN  Y2023-06-01900Q                                              25250034249125592              017005      No No                                                                                                                                                                                                                                                                                                                                                                                                                                                                                                                                                                                                                                                                                                                                                                                                                                                                                                                                                                                                                                              No No                                                                                                                                                                                                                                                                                                                                                                                                                                                                                                                                                                                                                                                                                           Y06        004423821                                                                                                                                         33483776                                                                    ZZ
012756756215CHAMBERS                                          MICHAEL                                                     2011-01-12M     060619647330000000Los Angeles Unified                                                                                 19647336015903Avalon Gardens Elementary                                                                                 1964733No SLDSLDYesYesNo No                     2019-08-202022-08-15EO  ENG00No    No YesYesNNo No No No No YesNo No 60013 0000000190643932C0000000191785212C                                  0033422365002014Los Angeles Unified                                                                                 19647330000000Avalon Gardens Elementary                                                                           19647336015903      N          Los Angeles Unified                                                                                 19647330000000Avalon Gardens Elementary                                                                           19647336015903      N                                                                                                                                                                                                                                                                                                                                                                                                                                                                                      2023-05-162023-05-172023-05-182023-05-18                                        Los Angeles Unified                                                                                 19647330000000Avalon Gardens Elementary                                                                           19647336015903      N2023-05-182023-03-062023-06-092023-03-062023-06-09                                        E2302023-06-092023-06-21                 YV OYNN  Y2023-06-05725L                                              24230034238924571   EXPL000III 022003      No Yes                                                                                                                                                                                                                                                                                                                                                                                                                                                                                                                                                                                                                                                                                                                                                                                                                                                                                                                                                                                                                                             No No                                                                                                                                                                                                                                                                            NEDS_NoiseBufNEDS_NoiseBuf                          NEDS_RA_Items        NEDS_RA_Items                                                                                                                                                                                                                                                                                                                         Y05        003823481                                                                                                                                         33422365                                                                    ZZ
027388538028Trujillo Casio                                    Catherine                     Chantelle                     2009-10-09F     070719734370000000Compton Unified                                                                                     19734376012405Tibby Elementary                                                                                                 No       No No No No 2014-09-292018-03-012014-08-182022-08-18RFEPSPA01No    No YesYesNYesNo No No No No No No 50014 0000000189140051C0000000191328467C                                  0037981437002002Compton Unified                                                                                     19734370000000Tibby Elementary                                                                                    19734376012405      N          Compton Unified                                                                                     19734370000000Tibby Elementary                                                                                    19734376012405      N                                                                                                                                                                                                                                                                                                                                                                                                                                                                                      2023-05-102023-05-162023-05-172023-05-19                                        Compton Unified                                                                                     19734370000000Tibby Elementary                                                                                    19734376012405      N2023-05-192023-03-272023-06-092023-03-272023-06-09                                        E1552023-06-092023-06-13                 YV OYNN  Y2023-06-01825Q                                              24970036246125332              017005      No Yes                                                                                                                                                                                                                                                                                                                                                                                                                                                                                                                                                                                                                                                                                                                                                                                                                                                                                                               TDS_TTS_Stim&TDS_TTS_ItemTDS_TTS_Stim&TDS_TTS_Item                                                                            No No                                                                                                                                                                                                                                                                                                                                                                                                                                                                                                                                                                                                                                                                                           Y06        002825773                                                                                                                                         37981437                                                                    ZZ
012742568097Cuxcun                                            Carlos                        Andres                        2010-10-10M     060619734370137984Animo Compton Charter                                                                               19734370137984Animo Compton Charter                                                                               1990DF       No       No No No Yes2015-08-17          2015-08-012022-08-15EL  SPA01No    No YesYesNYesNo No No No No No No 50013 0000000190850832C0000000191825390C                                  0033421351002014Animo Compton Charter                                                                               19734370137984Animo Compton Charter                                                                               19734370137984DF1990N          Animo Compton Charter                                                                               19734370137984Animo Compton Charter                                                                               19734370137984DF1990N                                                                                                                                                                                                                                                                                                                                                                                                                                                                                      2023-05-162023-05-162023-05-182023-05-18                                        Animo Compton Charter                                                                               19734370137984Animo Compton Charter                                                                               19734370137984DF1990N2023-05-182023-04-172023-06-162023-04-172023-06-16                                        E1552023-06-162023-07-17                 YV OYNN  Y2023-06-05755L                                              24380033240524711   ARGU111    022003      No Yes                                                                                                                                                                                                                                                                                                                                                                                                                                                                                                                                                                                                                                                                                                                                                                                                                                                                                                               TDS_TTS_Item             TDS_TTS_Item                                                                                         No No                                                                                                                                                                                                                                                                                                                                                                                                                                                                                                                                                                   NEDS_SimpDirsNEDS_SimpDirs                                                                                              Y05        003823471                                                                                                                                         33421351                                                                    ZZ
015395845960Hernandez                                         Trisha                        Amalia                        2008-07-11F     080819650600000000Torrance Unified                                                                                    19650606023030Casimir Middle                                                                                                   No       No No No No                     2013-08-132022-08-25EO  ENG00No    No YesYesNYesNo No No No No No No 50012 0000000188015325C0000000189408765C                                  0035738970002014Torrance Unified                                                                                    19650600000000Casimir Middle                                                                                      19650606023030      N          Torrance Unified                                                                                    19650600000000Casimir Middle                                                                                      19650606023030      N                                                                                                                                                                                                                                                                                                                                                                                                                                                                                      2023-05-092023-05-092023-05-112023-05-11                                        Torrance Unified                                                                                    19650600000000Casimir Middle                                                                                      19650606023030      N2023-05-112023-03-092023-06-152023-03-092023-06-15                                        T1602023-06-152023-07-07                 YV OYNN  Y2023-05-261065L                                             25170034248325512   EXPL222    022003      No No                                                                                                                                                                                                                                                                                                                                                                                                                                                                                                                                                                                                                                                                                                                                                                                                                                                                                                                                                                                                                                              No No                                                                                                                                                                                                                                                                                                                                                                                                                                                                                                                                                                                                                                                                                           Y08        003425022                                                                                                                                         35738970                                                                    ZZ
019202554641Baez                                              Anai                          Gisselle                      2012-04-28F     050519734370118760Barack Obama Charter                                                                                19734370118760Barack Obama Charter                                                                                1062DF0118760No SLDSLDYesYesNo Yes2017-09-06          2017-08-152022-08-15EL  SPA01No    No YesYesNNo No No No No No YesNo 70013 0000000188621028C0000000189641167C                                  0036637043002014Barack Obama Charter                                                                                19734370118760Barack Obama Charter                                                                                19734370118760DF1062N          Barack Obama Charter                                                                                19734370118760Barack Obama Charter                                                                                19734370118760DF1062N                                                                                                                                                                                                                                                                                                                                                                                                                                                                                      2023-05-102023-05-102023-05-112023-05-11                                        Barack Obama Charter                                                                                19734370118760Barack Obama Charter                                                                                19734370118760DF1062N2023-05-112023-04-102023-06-092023-04-102023-06-09                                        E2302023-06-092023-06-22                 YV OYNN  Y2023-05-26755L                                              24390032240724711   NARR111    020003      No Yes                                                                                                                                                                                                                                                                                                                                                                                                                                                                                                                                                                                                                                                                                                                                                                                                                                                                                                                                                                                                                                             No No                                                                                                                                                                                                                                                                            NEDS_NoiseBufNEDS_NoiseBuf                                                                                                                                                                                                                                 NEDS_SSNEDS_SS              NEDS_SimpDirsNEDS_SimpDirs                                                                                              Y04        004322971                                                                                                                                         36637043                                                                    ZZ
018946659013Hall                                              Elijah                                                      2010-08-28M     070719734370137984Animo Compton Charter                                                                               19734370137984Animo Compton Charter                                                                               1990DF       No       No No No No                               2022-08-15EO  ENG00No    No YesYesNNo No No No No YesNo No 60011 0000000190834429C0000000191837659C                                  0033841954002014Animo Compton Charter                                                                               19734370137984Animo Compton Charter                                                                               19734370137984DF1990N          Animo Compton Charter                                                                               19734370137984Animo Compton Charter                                                                               19734370137984DF1990N                                                                                                                                                                                                                                                                                                                                                                                                                                                                                      2023-05-162023-05-162023-05-182023-05-18                                        Animo Compton Charter                                                                               19734370137984Animo Compton Charter                                                                               19734370137984DF1990N2023-05-182023-04-172023-06-162023-04-172023-06-16                                        E1552023-06-162023-07-15                 YV OYNN  Y2023-06-01835L                                              24300037239324671   EXPL111    022003      No No                                                                                                                                                                                                                                                                                                                                                                                                                                                                                                                                                                                                                                                                                                                                                                                                                                                                                                                                                                                                                                              No No                                                                                                                                                                                                                                                                                                                                                                                                                                                                                                                                                                                                                                                                                           Y06        004123531                                                                                                                                         33841954                                                                    ZZ
028946659013Hall                                              Elijah                                                      2010-08-28M     070719734370137984Animo Compton Charter                                                                               19734370137984Animo Compton Charter                                                                               1990DF       No       No No No No                               2022-08-15EO  ENG00No    No YesYesNNo No No No No YesNo No 60011 0000000191404072C0000000192098059C                                  0033841954002002Animo Compton Charter                                                                               19734370137984Animo Compton Charter                                                                               19734370137984DF1990N          Animo Compton Charter                                                                               19734370137984Animo Compton Charter                                                                               19734370137984DF1990N                                                                                                                                                                                                                                                                                                                                                                                                                                                                                      2023-05-172023-05-172023-05-192023-05-19                                        Animo Compton Charter                                                                               19734370137984Animo Compton Charter                                                                               19734370137984DF1990N2023-05-192023-04-172023-06-162023-04-172023-06-16                                        E1552023-06-162023-07-15                 YV OYNN  Y2023-06-01585Q                                              24040046235824501              017005      No No                                                                                                                                                                                                                                                                                                                                                                                                                                                                                                                                                                                                                                                                                                                                                                                                                                                                                                                                                                                                                                              No No                                                                                                                                                                                                                                                                                                                                                                                                                                                                                                                                                                                                                                                                                           Y06                9NT                                                                                                                                       33841954                                                                    ZZ
021659074725Tapia                                             Neela                                                       2010-06-12F     060619734370137984Animo Compton Charter                                                                               19734370137984Animo Compton Charter                                                                               1990DF       No       No No No No                               2022-08-15EO  ENG00No    No YesYesNYesNo No No No No No No 50014 0000000191383742C0000000192068207C                                  0033343632002002Animo Compton Charter                                                                               19734370137984Animo Compton Charter                                                                               19734370137984DF1990N          Animo Compton Charter                                                                               19734370137984Animo Compton Charter                                                                               19734370137984DF1990N                                                                                                                                                                                                                                                                                                                                                                                                                                                                                      2023-05-172023-05-172023-05-192023-05-19                                        Animo Compton Charter                                                                               19734370137984Animo Compton Charter                                                                               19734370137984DF1990N2023-05-192023-04-172023-06-162023-04-172023-06-16                                        E1552023-06-162023-07-19                 YV OYNN  Y2023-06-02535Q                                              23890043234624321              017006      No Yes                                                                                                                                                                                                                                                                                                                                                                                                                                                                                                                                                                                                                                                                                                                                                                                                                                                                                                               TDS_TTS_Stim&TDS_TTS_ItemTDS_TTS_Stim&TDS_TTS_Item                                                                            No No                                                                                                                                                                                                                                                                                                                                                                                                                                                                                                                                                                                                                                                                                           Y05        004423501                                                                                                                                         33343632                                                                    ZZ
024428063718Waller                                            Josiah                        Dejuan                        2011-05-16M     060619734370137984Animo Compton Charter                                                                               19734370137984Animo Compton Charter                                                                               1990DF       No       No No No No                     2016-09-142022-10-10EO  ENG00No    No YesYesNNo No No No No YesNo No 60014 0000000191506145C0000000192066019C                                  0037968608002002Animo Compton Charter                                                                               19734370137984Animo Compton Charter                                                                               19734370137984DF1990N          Animo Compton Charter                                                                               19734370137984Animo Compton Charter                                                                               19734370137984DF1990N                                                                                                                                                                                                                                                                                                                                                                                                                                                                                      2023-05-172023-05-172023-05-192023-05-19                                        Animo Compton Charter                                                                               19734370137984Animo Compton Charter                                                                               19734370137984DF1990N2023-05-192023-04-172023-06-162023-04-172023-06-16                                        E1552023-06-162023-07-15                 YV OYNN  Y2023-06-14590Q                                              24100040237024501              017005      No No                                                                                                                                                                                                                                                                                                                                                                                                                                                                                                                                                                                                                                                                                                                                                                                                                                                                                                                                                                                                                                              No No                                                                                                                                                                                                                                                                                                                                                                                                                                                                                                                                                                                                                                                                                           Y05        004023761                                                                                                                                         37968608                                                                    ZZ
026175485472Thomas                                            Camara                        Tamisha                       2012-06-02F     050519734370118760Barack Obama Charter                                                                                19734370118760Barack Obama Charter                                                                                1062DF       No       No No No No                     2017-08-102022-08-15EO  ENG00No    No YesYesNNo No No No No YesNo No 60013 0000000187493431C0000000188396729C                                  0036606404002002Barack Obama Charter                                                                                19734370118760Barack Obama Charter                                                                                19734370118760DF1062N          Barack Obama Charter                                                                                19734370118760Barack Obama Charter                                                                                19734370118760DF1062N                                                                                                                                                                                                                                                                                                                                                                                                                                                                                      2023-05-082023-05-082023-05-092023-05-09                                        Barack Obama Charter                                                                                19734370118760Barack Obama Charter                                                                                19734370118760DF1062N2023-05-092023-04-102023-06-092023-04-102023-06-09                                        E2302023-06-092023-06-22                 YV OYNN  Y2023-05-31575Q                                              24300034239624641              017006      No Yes                                                                                                                                                                                                                                                                                                                                                                                                                                                                                                                                                                                                                                                                                                                                                                                                                                                                                                                                                                                                                                             No No                                                                                                                                                                                                                                                                                                                                                                                                                                                                                                                                                                   NEDS_SimpDirsNEDS_SimpDirs                                                                                              Y04        002724071                                                                                                                                         36606404                                                                    ZZ
023183611073Jaime                                             Anthony                                                     2011-08-02M     060619734370137984Animo Compton Charter                                                                               19734370137984Animo Compton Charter                                                                               1990DF       No       No No No No                               2022-08-15EO  ENG00No    No YesYesNYesNo No No No No No No 50012 0000000191467002C0000000192066031C                                  0033450655002002Animo Compton Charter                                                                               19734370137984Animo Compton Charter                                                                               19734370137984DF1990N          Animo Compton Charter                                                                               19734370137984Animo Compton Charter                                                                               19734370137984DF1990N                                                                                                                                                                                                                                                                                                                                                                                                                                                                                      2023-05-172023-05-172023-05-192023-05-19                                        Animo Compton Charter                                                                               19734370137984Animo Compton Charter                                                                               19734370137984DF1990N2023-05-192023-04-172023-06-162023-04-172023-06-16                                        E1552023-06-162023-07-18                 YV OYNN  Y2023-06-02630Q                                              24270038238924651              017006      No Yes                                                                                                                                                                                                                                                                                                                                                                                                                                                                                                                                                                                                                                                                                                                                                                                                                                                                                                               TDS_TTS_Stim&TDS_TTS_ItemTDS_TTS_Stim&TDS_TTS_Item                                                                            No No                                                                                                                                                                                                                                                                                                                                                                                                                                                                                                                                                                                                                                                                                           Y05        003424351                                                                                                                                         33450655                                                                    ZZ
029478187908Ramirez                                           Alexander                                                   2009-04-04M     080819734370137240Ingenium Clarion Charter Middle                                                                     19734370137240Ingenium Clarion Charter Middle                                                                     1952DF       No       No No No No 2015-04-092016-12-162014-09-012022-08-15RFEPSPA01No    No YesYesNYesNo No No No No No No 50013 0000000188250268C0000000190826615C                                  0035178444002002Ingenium Clarion Charter Middle                                                                     19734370137240Ingenium Clarion Charter Middle                                                                     19734370137240DF1952N          Ingenium Clarion Charter Middle                                                                     19734370137240Ingenium Clarion Charter Middle                                                                     19734370137240DF1952N                                                                                                                                                                                                                                                                                                                                                                                                                                                                                      2023-05-092023-05-102023-05-162023-05-17                                        Ingenium Clarion Charter Middle                                                                     19734370137240Ingenium Clarion Charter Middle                                                                     19734370137240DF1952N2023-05-172023-03-062023-06-092023-03-062023-06-09                                        E2302023-06-092023-06-23                 YV OYNN  Y2023-06-011120Q                                             25920034255826263              017005      No No                                                                                                                                                                                                                                                                                                                                                                                                                                                                                                                                                                                                                                                                                                                                                                                                                                                                                                                                                                                                                                              No No                                                                                                                                                                                                                                                                                                                                                                                                                                                                                                                                                                                                                                                                                           Y07        003325362                                                                                                                                         35178444                                                                    ZZ
025798451521Vazquez                                           Kenia                                                       2008-03-30F     080819734370137984Animo Compton Charter                                                                               19734370137984Animo Compton Charter                                                                               1990DF0137984No SLDSLDYesYesNo Yes2013-08-19          2013-08-132022-08-15EL  SPA01No    No YesYesNYesNo No No No No No No 50014 0000000192761868C0000000192952373C                                  0033630867002002Animo Compton Charter                                                                               19734370137984Animo Compton Charter                                                                               19734370137984DF1990N          Animo Compton Charter                                                                               19734370137984Animo Compton Charter                                                                               19734370137984DF1990N                                                                                                                                                                                                                                                                                                                                                                                                                                                                                      2023-05-242023-05-242023-05-262023-05-26                                        Animo Compton Charter                                                                               19734370137984Animo Compton Charter                                                                               19734370137984DF1990N2023-05-262023-04-172023-06-162023-04-172023-06-16                                        E1552023-06-162023-07-19                 YV OYNN  Y2023-06-02695Q                                              23970050234724471              017004      YesYes                                                                                                  TDS_Dictation_1TDS_Dictation_1                        NEA_NumTblNEA_NumTbl                                                                                                                               NEA_CalcNEA_Calc      NEA_MTNEA_MT                                                                                                                                                  NEA_STTNEA_STT                                                                                                                                                                                                                                                                                                                                                                                                  TDS_TTS_Stim&TDS_TTS_ItemTDS_TTS_Stim&TDS_TTS_Item                                                                            No No                                                                                                                                                                                                                                                                            NEDS_NoiseBufNEDS_NoiseBuf                                                                                                                                                                                                                                 NEDS_SSNEDS_SS              NEDS_SimpDirsNEDS_SimpDirs                                                                                              Y07        004923791                                                                                                                                         33630867                                                                    ZZ
