029784811237ZELAYA VALENCIA                                   MICHAEL                       YAHWEH                        2009-02-27M     080819647330000000Los Angeles Unified                                                                                 19647330112011William Jefferson Clinton Middle                                                                                 No       No No No No 2014-09-122017-05-162014-08-122022-08-15RFEPSPA01No    No YesYesNYesNo No No No No No No 50014 0000000191937120C0000000192116585C                                  0033914043002002Los Angeles Unified                                                                                 19647330000000William Jefferson Clinton Middle                                                                    19647330112011      N          Los Angeles Unified                                                                                 19647330000000William Jefferson Clinton Middle                                                                    19647330112011      N                                                                                                                                                                                                                                                                                                                                                                                                                                                                                      2023-05-182023-05-182023-05-192023-05-19                                        Los Angeles Unified                                                                                 19647330000000William Jefferson Clinton Middle                                                                    19647330112011      N2023-05-192023-03-062023-06-092023-03-062023-06-09                                        E2302023-06-092023-06-21                 YV OYNN  Y2023-05-301285Q                                             26690028264126974              017005      No No                                                                                                                                                                                                                                                                                                                                                                                                                                                                                                                                                                                                                                                                                                                                                                                                                                                                                                                                                                                                                                              No No                                                                                                                                                                                                                                                                                                                                                                                                                                                                                                                                                                                                                                                                                           Y07        002826173                                                                                                                                         33914043                                                                    ZZ
017158571143Rugamas                                           Gabriela                                                    2009-01-03F     080819647330111211New Heights Charter                                                                                 19647330111211New Heights Charter                                                                                 0761DF       No       No No No No                     2014-08-122022-08-16IFEPSPA01No    No YesYesNYesNo No No No No No No 50013 0000000188923151C0000000191422831C                                  0036616203002014New Heights Charter                                                                                 19647330111211New Heights Charter                                                                                 19647330111211DF0761N          New Heights Charter                                                                                 19647330111211New Heights Charter                                                                                 19647330111211DF0761N                                                                                                                                                                                                                                                                                                                                                                                                                                                                                      2023-05-102023-05-112023-05-172023-05-18                                        New Heights Charter                                                                                 19647330111211New Heights Charter                                                                                 19647330111211DF0761N2023-05-182023-02-212023-06-142023-02-212023-06-14                                        E2302023-06-142023-07-15                 YV OYNN  Y2023-06-011300L                                             26280034259426623   EXPL332    022003      No No                                                                                                                                                                                                                                                                                                                                                                                                                                                                                                                                                                                                                                                                                                                                                                                                                                                                                                                                                                                                                                              No No                                                                                                                                                                                                                                                                                                                                                                                                                                                                                                                                                                                                                                                                                           Y07        003426223                                                                                                                                         36616203                                                                    ZZ
025452743431VICENTE-VALENTIN                                  TOMAS                         BENJAMIN                      2009-01-03M     080819647330000000Los Angeles Unified                                                                                 19647336057855John Adams Middle                                                                                                No       No No No No 2014-09-102017-05-152014-08-122022-08-16RFEPSPA01No    No YesYesNYesNo No No No No No No 50015 0000000190415441C0000000192347035C                                  0033610734002002Los Angeles Unified                                                                                 19647330000000John Adams Middle                                                                                   19647336057855      N          Los Angeles Unified                                                                                 19647330000000John Adams Middle                                                                                   19647336057855      N                                                                                                                                                                                                                                                                                                                                                                                                                                                                                      2023-05-152023-05-182023-05-222023-05-22                                        Los Angeles Unified                                                                                 19647330000000John Adams Middle                                                                                   19647336057855      N2023-05-222023-03-062023-06-092023-03-062023-06-09                                        E2302023-06-092023-06-22                 YV OYNN  Y2023-06-051110Q                                             25880034255426223              017005      No No                                                                                                                                                                                                                                                                                                                                                                                                                                                                                                                                                                                                                                                                                                                                                                                                                                                                                                                                                                                                                                              No No                                                                                                                                                                                                                                                                                                                                                                                                                                                                                                                                                                                                                                                                                           Y07        004124481                                                                                                                                         33610734                                                                    ZZ
016026755241Rodriguez Saravia                                 Marvella                      Jolie                         2008-10-16F     080819647330128058Alliance College-Ready Middle Academy 12                                                            19647330128058Alliance College-Ready Middle Academy 12                                                            1533DF       No       No No No No 2013-09-112017-01-262013-08-122022-08-10RFEPSPA01No    No YesYesNYesNo No No No No No No 50012 0000000190134860C0000000190661777C                                  0038230858002014Alliance College-Ready Middle Academy 12                                                            19647330128058Alliance College-Ready Middle Academy 12                                                            19647330128058DF1533N          Alliance College-Ready Middle Academy 12                                                            19647330128058Alliance College-Ready Middle Academy 12                                                            19647330128058DF1533N                                                                                                                                                                                                                                                                                                                                                                                                                                                                                      2023-05-152023-05-152023-05-162023-05-16                                        Alliance College-Ready Middle Academy 12                                                            19647330128058Alliance College-Ready Middle Academy 12                                                            19647330128058DF1533N2023-05-162023-03-072023-06-162023-03-072023-06-16                                        E2302023-06-152023-07-24                 YV OYNN  Y2023-05-261375L                                             26630035262826983   ARGU221    022003      No No                                                                                                                                                                                                                                                                                                                                                                                                                                                                                                                                                                                                                                                                                                                                                                                                                                                                                                                                                                                                                                              No No                                                                                                                                                                                                                                                                                                                                                                                                                                                                                                                                                                                                                                                                                           Y07        003426133                                                                                                                                         38230858                                                                    ZZ
028203952992Johnson                                           Dominique                     Nevaeh                        2009-05-30F     080819647330101444KIPP Academy of Opportunity                                                                         19647330101444KIPP Academy of Opportunity                                                                         0530DF       No       No No No No                     2014-08-182022-08-15EO  ENG00No    YesYesYesNNo No No No No YesNo No 60012 0000000189407528C0000000189774872C                                  0033786133002002KIPP Academy of Opportunity                                                                         19647330101444KIPP Academy of Opportunity                                                                         19647330101444DF0530N          KIPP Academy of Opportunity                                                                         19647330101444KIPP Academy of Opportunity                                                                         19647330101444DF0530N                                                                                                                                                                                                                                                                                                                                                                                                                                                                                      2023-05-112023-05-112023-05-122023-05-12                                        KIPP Academy of Opportunity                                                                         19647330101444KIPP Academy of Opportunity                                                                         19647330101444DF0530N2023-05-122023-03-072023-06-092023-03-072023-06-09                                        E2302023-06-092023-07-12                 YV OYNN  Y2023-05-21855Q                                              24700044242625141              017005      No No                                                                                                                                                                                                                                                                                                                                                                                                                                                                                                                                                                                                                                                                                                                                                                                                                                                                                                                                                                                                                                              No No                                                                                                                                                                                                                                                                                                                                                                                                                                                                                                                                                                                                                                                                                           Y07        003025903                                                                                                                                         33786133                                                                    ZZ
027517175074CRUZ CONTRERAS                                    ARIDAIH                                                     2009-07-23F     080819647330000000Los Angeles Unified                                                                                 19647336058143Mary McLeod Bethune Middle                                                                                       No       No No YesNo 2014-09-182021-09-302022-08-152022-08-15RFEPSPA01No    No YesYesNYesNo No No No No No No 50013 0000000192430834C0000000192675245C                                  0033751561002002Los Angeles Unified                                                                                 19647330000000Mary McLeod Bethune Middle                                                                          19647336058143      N          Los Angeles Unified                                                                                 19647330000000Mary McLeod Bethune Middle                                                                          19647336058143      N                                                                                                                                                                                                                                                                                                                                                                                                                                                                                      2023-05-232023-05-232023-05-242023-05-24                                        Los Angeles Unified                                                                                 19647330000000Mary McLeod Bethune Middle                                                                          19647336058143      N2023-05-242023-03-062023-06-092023-03-062023-06-09                                        N4702022-08-142023-06-22                 YV OYNN  Y2023-05-30970Q                                              25220040248225622              017004      No Yes                                                                                                                                                                                                                                                                                                                                                                                                                                                                                                                                                                                                                                                                                                                                                                                                                                                                                                               TDS_TTS_Stim&TDS_TTS_ItemTDS_TTS_Stim&TDS_TTS_Item                                                                            No No                                                                                                                                                                                                                                                                                                                                                                                                                                                                                                                                                                                                                                                                                           Y07        003924721                                                                                                                                         33751561                                                                    ZZ
013245409707CAMPOS                                            SOPHIE                        LAYLA                         2008-10-26F     080819647330000000Los Angeles Unified                                                                                 19647336058077Washington Irving Middle School Math, Music and Engineering Magnet                                        1964733No OHIOHIYesYesNo No                     2014-08-122022-08-15EO  ENG00No    No YesYesNYesNo No No No No No No 50015 0000000178057485C0000000182686846C                                  0033447809002014Los Angeles Unified                                                                                 19647330000000Washington Irving Middle School Math, Music and Engineering Magnet                                  19647336058077      N          Los Angeles Unified                                                                                 19647330000000Washington Irving Middle School Math, Music and Engineering Magnet                                  19647336058077      N                                                                                                                                                                                                                                                                                                                                                                                                                                                                                      2023-04-132023-04-262023-04-262023-05-02                                        Los Angeles Unified                                                                                 19647330000000Washington Irving Middle School Math, Music and Engineering Magnet                                  19647336058077      N2023-05-022023-03-062023-06-092023-03-062023-06-09                                        E2302023-06-092023-06-22                 YV OYNN  Y2023-06-01980L                                              24770035244225121   NARR112    022003      No Yes                                                                                                                                                                                                                                                                                                                                                                                                                                                                                                                                                                                                                                                                                                                                                                                                                                                                                                               TDS_TTS_Item             TDS_TTS_Item                                                                                         No No                                                                                                                                                                                                                                                                                                                                                                                                                                                                                                                                       NEDS_SSNEDS_SS                                                                                                                                      Y07        005023231                                                                                                                                         33447809                                                                    ZZ
018203952992Johnson                                           Dominique                     Nevaeh                        2009-05-30F     080819647330101444KIPP Academy of Opportunity                                                                         19647330101444KIPP Academy of Opportunity                                                                         0530DF       No       No No No No                     2014-08-182022-08-15EO  ENG00No    YesYesYesNNo No No No No YesNo No 60012 0000000188767336C0000000188097047C                                  0033786133002014KIPP Academy of Opportunity                                                                         19647330101444KIPP Academy of Opportunity                                                                         19647330101444DF0530N          KIPP Academy of Opportunity                                                                         19647330101444KIPP Academy of Opportunity                                                                         19647330101444DF0530N                                                                                                                                                                                                                                                                                                                                                                                                                                                                                      2023-05-102023-05-102023-05-092023-05-10                                        KIPP Academy of Opportunity                                                                         19647330101444KIPP Academy of Opportunity                                                                         19647330101444DF0530N2023-05-102023-03-072023-06-092023-03-072023-06-09                                        E2302023-06-092023-07-12                 YV OYNN  Y2023-05-211045L                                             25070034247325412   ARGU111    022003      No No                                                                                                                                                                                                                                                                                                                                                                                                                                                                                                                                                                                                                                                                                                                                                                                                                                                                                                                                                                                                                                              No No                                                                                                                                                                                                                                                                                                                                                                                                                                                                                                                                                                                                                                                                                           Y07        003325192                                                                                                                                         33786133                                                                    ZZ
015452743431VICENTE-VALENTIN                                  TOMAS                         BENJAMIN                      2009-01-03M     080819647330000000Los Angeles Unified                                                                                 19647336057855John Adams Middle                                                                                                No       No No No No 2014-09-102017-05-152014-08-122022-08-16RFEPSPA01No    No YesYesNYesNo No No No No No No 50015 0000000185261129C0000000189188093C                                  0033610734002014Los Angeles Unified                                                                                 19647330000000John Adams Middle                                                                                   19647336057855      N          Los Angeles Unified                                                                                 19647330000000John Adams Middle                                                                                   19647336057855      N                                                                                                                                                                                                                                                                                                                                                                                                                                                                                      2023-05-022023-05-032023-05-102023-05-19                                        Los Angeles Unified                                                                                 19647330000000John Adams Middle                                                                                   19647336057855      N2023-05-192023-03-062023-06-092023-03-062023-06-09                                        E2302023-06-092023-06-22                 YV OYNN  Y2023-06-051045L                                             25080034247425422   EXPL212    022003      No No                                                                                                                                                                                                                                                                                                                                                                                                                                                                                                                                                                                                                                                                                                                                                                                                                                                                                                                                                                                                                                              No No                                                                                                                                                                                                                                                                                                                                                                                                                                                                                                                                                                                                                                                                                           Y07        003325933                                                                                                                                         33610734                                                                    ZZ
023245409707CAMPOS                                            SOPHIE                        LAYLA                         2008-10-26F     080819647330000000Los Angeles Unified                                                                                 19647336058077Washington Irving Middle School Math, Music and Engineering Magnet                                        1964733No OHIOHIYesYesNo No                     2014-08-122022-08-15EO  ENG00No    No YesYesNYesNo No No No No No No 50015 0000000190312659C0000000192317936C                                  0033447809002002Los Angeles Unified                                                                                 19647330000000Washington Irving Middle School Math, Music and Engineering Magnet                                  19647336058077      N          Los Angeles Unified                                                                                 19647330000000Washington Irving Middle School Math, Music and Engineering Magnet                                  19647336058077      N                                                                                                                                                                                                                                                                                                                                                                                                                                                                                      2023-05-152023-05-172023-05-222023-05-25                                        Los Angeles Unified                                                                                 19647330000000Washington Irving Middle School Math, Music and Engineering Magnet                                  19647336058077      N2023-05-252023-03-062023-06-092023-03-062023-06-09                                        E2302023-06-092023-06-22                 YV OYNN  Y2023-06-01410Q                                              22650110226523751              017005      YesYes                                                                                                                                                                                                                                                                                                                                 NEA_MTNEA_MT                                                                                                                                                                                                                                                                                                                                                                                                                                                                                                                                                                  TDS_TTS_Stim&TDS_TTS_ItemTDS_TTS_Stim&TDS_TTS_Item                                                                            No No                                                                                                                                                                                                                                                                                                                                                                                                                                                                                                                                       NEDS_SSNEDS_SS                                                                                                                                      Y07        013422501                                                                                                                                         33447809                                                                    ZZ
029496644783CILIO                                             DESTENY                       CRYSTAL                       2009-03-28F     080819647330000000Los Angeles Unified                                                                                 19647330112011William Jefferson Clinton Middle                                                                                 No       No No No No 2014-09-092016-04-162014-08-152022-08-15RFEPSPA01No    No YesYesNYesNo No No No No No No 50013 0000000191032979C0000000192115354C                                  0033893390002002Los Angeles Unified                                                                                 19647330000000William Jefferson Clinton Middle                                                                    19647330112011      N          Los Angeles Unified                                                                                 19647330000000William Jefferson Clinton Middle                                                                    19647330112011      N                                                                                                                                                                                                                                                                                                                                                                                                                                                                                      2023-05-162023-05-192023-05-192023-05-19                                        Los Angeles Unified                                                                                 19647330000000William Jefferson Clinton Middle                                                                    19647330112011      N2023-05-192023-03-062023-06-092023-03-062023-06-09                                        E2302023-06-092023-06-21                 YV OYNN  Y2023-05-301440Q                                             27400029271127694              017005      No No                                                                                                                                                                                                                                                                                                                                                                                                                                                                                                                                                                                                                                                                                                                                                                                                                                                                                                                                                                                                                                              No No                                                                                                                                                                                                                                                                                                                                                                                                                                                                                                                                                                                                                                                                                           Y07        002726864                                                                                                                                         33893390                                                                    ZZ
016374171351VILLASENOR                                        BRYAN                                                       2009-05-29M     080819647330000000Los Angeles Unified                                                                                 19647330112011William Jefferson Clinton Middle                                                                                 No       No No No No                     2014-08-122022-08-15EO  ENG00No    No YesYesNYesNo No No No No No No 50014 0000000189646638C0000000189897506C                                  0033667573002014Los Angeles Unified                                                                                 19647330000000William Jefferson Clinton Middle                                                                    19647330112011      N          Los Angeles Unified                                                                                 19647330000000William Jefferson Clinton Middle                                                                    19647330112011      N                                                                                                                                                                                                                                                                                                                                                                                                                                                                                      2023-05-112023-05-112023-05-122023-05-12                                        Los Angeles Unified                                                                                 19647330000000William Jefferson Clinton Middle                                                                    19647330112011      N2023-05-122023-03-062023-06-092023-03-062023-06-09                                        E2302023-06-092023-06-22                 YV OYNN  Y2023-05-31785L                                              23850044234124291   EXPL222    022003      No No                                                                                                                                                                                                                                                                                                                                                                                                                                                                                                                                                                                                                                                                                                                                                                                                                                                                                                                                                                                                                                              No No                                                                                                                                                                                                                                                                                                                                                                                                                                                                                                                                                                                                                                                                                           Y07        003424661                                                                                                                                         33667573                                                                    ZZ
027158571143Rugamas                                           Gabriela                                                    2009-01-03F     080819647330111211New Heights Charter                                                                                 19647330111211New Heights Charter                                                                                 0761DF       No       No No No No                     2014-08-122022-08-16IFEPSPA01No    No YesYesNYesNo No No No No No No 50013 0000000192876255C0000000192266492C                                  0036616203002002New Heights Charter                                                                                 19647330111211New Heights Charter                                                                                 19647330111211DF0761N          New Heights Charter                                                                                 19647330111211New Heights Charter                                                                                 19647330111211DF0761N                                                                                                                                                                                                                                                                                                                                                                                                                                                                                      2023-05-252023-05-252023-05-222023-05-22                                        New Heights Charter                                                                                 19647330111211New Heights Charter                                                                                 19647330111211DF0761N2023-05-252023-02-212023-06-142023-02-212023-06-14                                        E2302023-06-142023-07-15                 YV OYNN  Y2023-06-011045Q                                             25580037252125952              017005      No No                                                                                                                                                                                                                                                                                                                                                                                                                                                                                                                                                                                                                                                                                                                                                                                                                                                                                                                                                                                                                                              No No                                                                                                                                                                                                                                                                                                                                                                                                                                                                                                                                                                                                                                                                                           Y07        003624992                                                                                                                                         36616203                                                                    ZZ
093245409707CAMPOS                                            SOPHIE                        LAYLA                         2008-10-26F     080819647330000000Los Angeles Unified                                                                                 19647336058077Washington Irving Middle School Math, Music and Engineering Magnet                                        1964733No OHIOHIYesYesNo No                     2014-08-122022-08-15EO  ENG00No    No YesYesNYesNo No No No No No No 50015                                                                     0033447809011015Los Angeles Unified                                                                                 19647330000000Washington Irving Middle School Math, Music and Engineering Magnet                                  19647336058077      N                                                                                                                                                                                                                                                                                                                                                                                                                                                                                                                                                                                                                                                                                                                                                                                                                           Los Angeles Unified                                                                                 19647330000000Washington Irving Middle School Math, Music and Engineering Magnet                                  19647336058077      N          2023-03-062023-06-10                                                            E2302023-06-092023-06-22             NT  N  ON                                                                                                                                                                                                                                                                                                                                                                                                                                                                                                                                                                                                                                                                                                                                                                                                                                                                                                                                                                                                                                                                                                                                                                                                                                                                                                                                                                                                                                                                                                                                                                                                                                                                                                                                                                                                                                                               Y07            726                                                                                                                                           33447809                                                                    ZZ
017517175074CRUZ CONTRERAS                                    ARIDAIH                                                     2009-07-23F     080819647330000000Los Angeles Unified                                                                                 19647336058143Mary McLeod Bethune Middle                                                                                       No       No No YesNo 2014-09-182021-09-302022-08-152022-08-15RFEPSPA01No    No YesYesNYesNo No No No No No No 50013 0000000187988577C0000000188824734C                                  0033751561002014Los Angeles Unified                                                                                 19647330000000Mary McLeod Bethune Middle                                                                          19647336058143      N          Los Angeles Unified                                                                                 19647330000000Mary McLeod Bethune Middle                                                                          19647336058143      N                                                                                                                                                                                                                                                                                                                                                                                                                                                                                      2023-05-092023-05-092023-05-102023-05-10                                        Los Angeles Unified                                                                                 19647330000000Mary McLeod Bethune Middle                                                                          19647336058143      N2023-05-102023-03-062023-06-092023-03-062023-06-09                                        N4702022-08-142023-06-22                 YV OYNN  Y2023-05-301205L                                             25820034254826163   EXPL111    022003      No Yes                                                                                                                                                                                                                                                                                                                                                                                                                                                                                                                                                                                                                                                                                                                                                                                                                                                                                                               TDS_TTS_Item             TDS_TTS_Item                                                                                         No No                                                                                                                                                                                                                                                                                                                                                                                                                                                                                                                                                                                                                                                                                           Y07        003326113                                                                                                                                         33751561                                                                    ZZ
026374171351VILLASENOR                                        BRYAN                                                       2009-05-29M     080819647330000000Los Angeles Unified                                                                                 19647330112011William Jefferson Clinton Middle                                                                                 No       No No No No                     2014-08-122022-08-15EO  ENG00No    No YesYesNYesNo No No No No No No 50014 0000000191699773C0000000192738344C                                  0033667573002002Los Angeles Unified                                                                                 19647330000000William Jefferson Clinton Middle                                                                    19647330112011      N          Los Angeles Unified                                                                                 19647330000000William Jefferson Clinton Middle                                                                    19647330112011      N                                                                                                                                                                                                                                                                                                                                                                                                                                                                                      2023-05-182023-05-242023-05-242023-05-24                                        Los Angeles Unified                                                                                 19647330000000William Jefferson Clinton Middle                                                                    19647330112011      N2023-05-242023-03-062023-06-092023-03-062023-06-09                                        E2302023-06-092023-06-22                 YV OYNN  Y2023-05-31410Q                                              22650110226523751              017005      No No                                                                                                                                                                                                                                                                                                                                                                                                                                                                                                                                                                                                                                                                                                                                                                                                                                                                                                                                                                                                                                              No No                                                                                                                                                                                                                                                                                                                                                                                                                                                                                                                                                                                                                                                                                           Y07        005323591                                                                                                                                         33667573                                                                    ZZ
019496644783CILIO                                             DESTENY                       CRYSTAL                       2009-03-28F     080819647330000000Los Angeles Unified                                                                                 19647330112011William Jefferson Clinton Middle                                                                                 No       No No No No 2014-09-092016-04-162014-08-152022-08-15RFEPSPA01No    No YesYesNYesNo No No No No No No 50013 0000000187999224C0000000188573017C                                  0033893390002014Los Angeles Unified                                                                                 19647330000000William Jefferson Clinton Middle                                                                    19647330112011      N          Los Angeles Unified                                                                                 19647330000000William Jefferson Clinton Middle                                                                    19647330112011      N                                                                                                                                                                                                                                                                                                                                                                                                                                                                                      2023-05-092023-05-102023-05-102023-05-10                                        Los Angeles Unified                                                                                 19647330000000William Jefferson Clinton Middle                                                                    19647330112011      N2023-05-102023-03-062023-06-092023-03-062023-06-09                                        E2302023-06-092023-06-21                 YV OYNN  Y2023-05-301510L                                             27260039268727654   EXPL222    022003      No No                                                                                                                                                                                                                                                                                                                                                                                                                                                                                                                                                                                                                                                                                                                                                                                                                                                                                                                                                                                                                                              No No                                                                                                                                                                                                                                                                                                                                                                                                                                                                                                                                                                                                                                                                                           Y07        003426303                                                                                                                                         33893390                                                                    ZZ
019784811237ZELAYA VALENCIA                                   MICHAEL                       YAHWEH                        2009-02-27M     080819647330000000Los Angeles Unified                                                                                 19647330112011William Jefferson Clinton Middle                                                                                 No       No No No No 2014-09-122017-05-162014-08-122022-08-15RFEPSPA01No    No YesYesNYesNo No No No No No No 50014 0000000188385465C0000000189106217C                                  0033914043002014Los Angeles Unified                                                                                 19647330000000William Jefferson Clinton Middle                                                                    19647330112011      N          Los Angeles Unified                                                                                 19647330000000William Jefferson Clinton Middle                                                                    19647330112011      N                                                                                                                                                                                                                                                                                                                                                                                                                                                                                      2023-05-092023-05-092023-05-102023-05-10                                        Los Angeles Unified                                                                                 19647330000000William Jefferson Clinton Middle                                                                    19647330112011      N2023-05-102023-03-062023-06-092023-03-062023-06-09                                        E2302023-06-092023-06-21                 YV OYNN  Y2023-05-301240L                                             25990034256526333   EXPL222    022003      No No                                                                                                                                                                                                                                                                                                                                                                                                                                                                                                                                                                                                                                                                                                                                                                                                                                                                                                                                                                                                                                              No No                                                                                                                                                                                                                                                                                                                                                                                                                                                                                                                                                                                                                                                                                           Y07        003325673                                                                                                                                         33914043                                                                    ZZ
026026755241Rodriguez Saravia                                 Marvella                      Jolie                         2008-10-16F     080819647330128058Alliance College-Ready Middle Academy 12                                                            19647330128058Alliance College-Ready Middle Academy 12                                                            1533DF       No       No No No No 2013-09-112017-01-262013-08-122022-08-10RFEPSPA01No    No YesYesNYesNo No No No No No No 50012 0000000191263014C0000000191730575C                                  0038230858002002Alliance College-Ready Middle Academy 12                                                            19647330128058Alliance College-Ready Middle Academy 12                                                            19647330128058DF1533N          Alliance College-Ready Middle Academy 12                                                            19647330128058Alliance College-Ready Middle Academy 12                                                            19647330128058DF1533N                                                                                                                                                                                                                                                                                                                                                                                                                                                                                      2023-05-172023-05-172023-05-182023-05-18                                        Alliance College-Ready Middle Academy 12                                                            19647330128058Alliance College-Ready Middle Academy 12                                                            19647330128058DF1533N2023-05-182023-03-072023-06-162023-03-072023-06-16                                        E2302023-06-152023-07-24                 YV OYNN  Y2023-05-261080Q                                             25740036253826102              017005      No No                                                                                                                                                                                                                                                                                                                                                                                                                                                                                                                                                                                                                                                                                                                                                                                                                                                                                                                                                                                                                                              No No                                                                                                                                                                                                                                                                                                                                                                                                                                                                                                                                                                                                                                                                                           Y07        003325432                                                                                                                                         38230858                                                                    ZZ
017982674255Santiago                                          Oscar                         Marvin                        2006-10-10M     111119647330111583Animo Jackie Robinson High                                                                          19647330111583Animo Jackie Robinson High                                                                          0793DF       No       No No No Yes2011-10-07          2011-09-072022-08-15EL  SPA01No    No YesYesNYesNo No No No No No No 50014 0000000185869511C0000000186502105C                                  0033777761003014Animo Jackie Robinson High                                                                          19647330111583Animo Jackie Robinson High                                                                          19647330111583DF0793N          Animo Jackie Robinson High                                                                          19647330111583Animo Jackie Robinson High                                                                          19647330111583DF0793N                                                                                                                                                                                                                                                                                                                                                                                                                                                                                      2023-05-032023-05-032023-05-042023-05-04                                        Animo Jackie Robinson High                                                                          19647330111583Animo Jackie Robinson High                                                                          19647330111583DF0793N2023-05-042023-04-172023-06-162023-04-172023-06-16                                        E1552023-06-162023-07-10                 YV OYNN  Y2023-05-171125L                                             25330038249525712   ARGU220   1022003      No Yes                                                                                                                                                                                                                                                                                                                                                                                                                                                                                                                                                                                                                                                                                                                                                                                                                                                                                                               TDS_TTS_Item             TDS_TTS_Item                                                                                         No No                                                                                                                                                                                                                                                                                                                                                                                                                                                                                                                                                                   NEDS_SimpDirsNEDS_SimpDirs                                                                                                                                                                                                                                                           33777761                                                                    ZZ
027982674255Santiago                                          Oscar                         Marvin                        2006-10-10M     111119647330111583Animo Jackie Robinson High                                                                          19647330111583Animo Jackie Robinson High                                                                          0793DF       No       No No No Yes2011-10-07          2011-09-072022-08-15EL  SPA01No    No YesYesNYesNo No No No No No No 50014 0000000182547908C0000000183095000C                                  0033777761003002Animo Jackie Robinson High                                                                          19647330111583Animo Jackie Robinson High                                                                          19647330111583DF0793N          Animo Jackie Robinson High                                                                          19647330111583Animo Jackie Robinson High                                                                          19647330111583DF0793N                                                                                                                                                                                                                                                                                                                                                                                                                                                                                      2023-04-262023-04-262023-04-272023-04-27                                        Animo Jackie Robinson High                                                                          19647330111583Animo Jackie Robinson High                                                                          19647330111583DF0793N2023-04-272023-04-172023-06-162023-04-172023-06-16                                        E1552023-06-162023-07-10                 YV OYNN  Y2023-05-17990Q                                              24960048244825441             1018005      No Yes                                                                                                                                                                                                                                                                                                                                                                                                                                                                                                                                                                                                                                                                                                                                                                                                                                                                                                               TDS_TTS_Stim&TDS_TTS_ItemTDS_TTS_Stim&TDS_TTS_Item                                                                            No No                                                                                                                                                                                                                                                                                                                                                                                                                                                                                                                                                                   NEDS_SimpDirsNEDS_SimpDirs                                                                                                                                                                                                                                                           33777761                                                                    ZZ
063245409707CAMPOS                                            SOPHIE                        LAYLA                         2008-10-26F     080819647330000000Los Angeles Unified                                                                                 19647336058077Washington Irving Middle School Math, Music and Engineering Magnet                                        1964733No OHIOHIYesYesNo No                     2014-08-122022-08-15EO  ENG00No    No YesYesNYesNo No No No No No No 50015 0000000186086735C                                                   0033447809009003Los Angeles Unified                                                                                 19647330000000Washington Irving Middle School Math, Music and Engineering Magnet                                  19647336058077      N                                                                                                                                                                                                                                                                                                                                                                                                                                                                                                                                                                                                                                                                                                                                           2023-05-032023-05-15                                                            Los Angeles Unified                                                                                 19647330000000Washington Irving Middle School Math, Music and Engineering Magnet                                  19647336058077      N2023-05-152023-03-062023-06-09                                                            E2302023-06-092023-06-22                 YV OYN   Y2023-05-18                                                  368             1111           044         No Yes                                                                                                                                                                                                                                                                                                                                                                                                                                                                                                                                                                                                                                                                                                                                                                                                                                                                                                               TDS_TTS_Stim&TDS_TTS_Item                                                                                                     No                                                                                                                                                                                                                                                                                                                                                                                                                                                                                                                                          NEDS_SS                                                                                                                                                                                                                                                                                                          33447809                                                                    ZZ
069784811237ZELAYA VALENCIA                                   MICHAEL                       YAHWEH                        2009-02-27M     080819647330000000Los Angeles Unified                                                                                 19647330112011William Jefferson Clinton Middle                                                                                 No       No No No No 2014-09-122017-05-162014-08-122022-08-15RFEPSPA01No    No YesYesNYesNo No No No No No No 50014 0000000186077271C                                                   0033914043009003Los Angeles Unified                                                                                 19647330000000William Jefferson Clinton Middle                                                                    19647330112011      N                                                                                                                                                                                                                                                                                                                                                                                                                                                                                                                                                                                                                                                                                                                                           2023-05-032023-05-05                                                            Los Angeles Unified                                                                                 19647330000000William Jefferson Clinton Middle                                                                    19647330112011      N2023-05-052023-03-062023-06-09                                                            E2302023-06-092023-06-21                 YV OYN   Y2023-05-08                                                  403             2122           045         No No                                                                                                                                                                                                                                                                                                                                                                                                                                                                                                                                                                                                                                                                                                                                                                                                                                                                                                                                                                                                                                              No                                                                                                                                                                                                                                                                                                                                                                                                                                                                                                                                                                                                                                                                                                                                                                                                                                                           33914043                                                                    ZZ
067158571143Rugamas                                           Gabriela                                                    2009-01-03F     080819647330111211New Heights Charter                                                                                 19647330111211New Heights Charter                                                                                 0761DF       No       No No No No                     2014-08-122022-08-16IFEPSPA01No    No YesYesNYesNo No No No No No No 50013 0000000186451055C                                                   0036616203009003New Heights Charter                                                                                 19647330111211New Heights Charter                                                                                 19647330111211DF0761N                                                                                                                                                                                                                                                                                                                                                                                                                                                                                                                                                                                                                                                                                                                                           2023-05-042023-05-05                                                            New Heights Charter                                                                                 19647330111211New Heights Charter                                                                                 19647330111211DF0761N2023-05-052023-02-212023-06-14                                                            E2302023-06-142023-07-15                 YV OYN   Y2023-05-09                                                  405             2221           045         No No                                                                                                                                                                                                                                                                                                                                                                                                                                                                                                                                                                                                                                                                                                                                                                                                                                                                                                                                                                                                                                              No                                                                                                                                                                                                                                                                                                                                                                                                                                                                                                                                                                                                                                                                                                                                                                                                                                                           36616203                                                                    ZZ
