017569859318Hernandez                                         Cindy                                                       2009-04-29F     080819647330134023Animo Florence-Firestone Charter Middle                                                             19647330134023Animo Florence-Firestone Charter Middle                                                             1794DF       No       No No No No 2014-08-202018-06-052014-08-202022-08-15RFEPSPA01No    YesYesYesNYesNo No No No No No No 50014 0000000191955021C0000000192465590C                                  0033760519002014Animo Florence-Firestone Charter Middle                                                             19647330134023Animo Florence-Firestone Charter Middle                                                             19647330134023DF1794N          Animo Florence-Firestone Charter Middle                                                             19647330134023Animo Florence-Firestone Charter Middle                                                             19647330134023DF1794N                                                                                                                                                                                                                                                                                                                                                                                                                                                                                      2023-05-182023-05-182023-05-232023-05-23                                        Animo Florence-Firestone Charter Middle                                                             19647330134023Animo Florence-Firestone Charter Middle                                                             19647330134023DF1794N2023-05-232023-04-172023-06-162023-04-172023-06-16                                        E2302023-06-162023-07-05                 YV OYNN  Y2023-06-151115L                                             25410034250725752   EXPL111    022003      No No                                                                                                                                                                                                                                                                                                                                                                                                                                                                                                                                                                                                                                                                                                                                                                                                                                                                                                                                                                                                                                              No No                                                                                                                                                                                                                                                                                                                                                                                                                                                                                                                                                                                                                                                                                           Y07        003225422                                                                                                                                         33760519                                                                    ZZ
015148116842Ramos                                             Pedro                         Alberto                       2009-02-20M     080819647330134023Animo Florence-Firestone Charter Middle                                                             19647330134023Animo Florence-Firestone Charter Middle                                                             1794DF       No       No No No No 2014-09-022018-06-072014-08-122022-08-15RFEPSPA01No    No YesYesNYesNo No No No No No No 50013 0000000191807237C0000000192248672C                                  0033579724002014Animo Florence-Firestone Charter Middle                                                             19647330134023Animo Florence-Firestone Charter Middle                                                             19647330134023DF1794N          Animo Florence-Firestone Charter Middle                                                             19647330134023Animo Florence-Firestone Charter Middle                                                             19647330134023DF1794N                                                                                                                                                                                                                                                                                                                                                                                                                                                                                      2023-05-182023-05-182023-05-222023-05-22                                        Animo Florence-Firestone Charter Middle                                                             19647330134023Animo Florence-Firestone Charter Middle                                                             19647330134023DF1794N2023-05-222023-04-172023-06-162023-04-172023-06-16                                        E2302023-06-162023-07-07                 YV OYNN  Y2023-06-021165L                                             25660034253226002   NARR111    022003      No No                                                                                                                                                                                                                                                                                                                                                                                                                                                                                                                                                                                                                                                                                                                                                                                                                                                                                                                                                                                                                                              No No                                                                                                                                                                                                                                                                                                                                                                                                                                                                                                                                                                                                                                                                                           Y07        003225442                                                                                                                                         33579724                                                                    ZZ
018761211526LOPEZ-GONZALEZ                                    ADAMARI                                                     2008-12-22F     080819647330000000Los Angeles Unified                                                                                 19647336057962Charles Drew Middle                                                                                              No       No No No No 2014-08-202017-01-242014-08-122022-08-15RFEPSPA01No    No YesYesNNo No No No No No YesNo 70015 0000000185134566C0000000188422107C                                  0033835895002014Los Angeles Unified                                                                                 19647330000000Charles Drew Middle                                                                                 19647336057962      N          Los Angeles Unified                                                                                 19647330000000Charles Drew Middle                                                                                 19647336057962      N                                                                                                                                                                                                                                                                                                                                                                                                                                                                                      2023-05-022023-05-092023-05-092023-05-09                                        Los Angeles Unified                                                                                 19647330000000Charles Drew Middle                                                                                 19647336057962      N2023-05-092023-03-062023-06-092023-03-062023-06-09                                        E2302023-06-092023-06-23                 YV OYNN  Y2023-06-09755L                                              23710046232524171   EXPL000III 022003      No No                                                                                                                                                                                                                                                                                                                                                                                                                                                                                                                                                                                                                                                                                                                                                                                                                                                                                                                                                                                                                                              No No                                                                                                                                                                                                                                                                                                                                                                                                                                                                                                                                                                                                                                                                                           Y07        003225352                                                                                                                                         33835895                                                                    ZZ
025148116842Ramos                                             Pedro                         Alberto                       2009-02-20M     080819647330134023Animo Florence-Firestone Charter Middle                                                             19647330134023Animo Florence-Firestone Charter Middle                                                             1794DF       No       No No No No 2014-09-022018-06-072014-08-122022-08-15RFEPSPA01No    No YesYesNYesNo No No No No No No 50013 0000000191414428C0000000192321291C                                  0033579724002002Animo Florence-Firestone Charter Middle                                                             19647330134023Animo Florence-Firestone Charter Middle                                                             19647330134023DF1794N          Animo Florence-Firestone Charter Middle                                                             19647330134023Animo Florence-Firestone Charter Middle                                                             19647330134023DF1794N                                                                                                                                                                                                                                                                                                                                                                                                                                                                                      2023-05-172023-05-222023-05-222023-05-22                                        Animo Florence-Firestone Charter Middle                                                             19647330134023Animo Florence-Firestone Charter Middle                                                             19647330134023DF1794N2023-05-222023-04-172023-06-162023-04-172023-06-16                                        E2302023-06-162023-07-07                 YV OYNN  Y2023-06-021095Q                                             25800035254526152              017005      No No                                                                                                                                                                                                                                                                                                                                                                                                                                                                                                                                                                                                                                                                                                                                                                                                                                                                                                                                                                                                                                              No No                                                                                                                                                                                                                                                                                                                                                                                                                                                                                                                                                                                                                                                                                           Y07        003325422                                                                                                                                         33579724                                                                    ZZ
023329953244Robles-Rivera                                     Kairy                         Guadalupe                     2009-06-23F     080819647330134023Animo Florence-Firestone Charter Middle                                                             19647330134023Animo Florence-Firestone Charter Middle                                                             1794DF       No       No No No No 2014-09-022017-03-232014-08-122022-08-15RFEPSPA01No    No YesYesNYesNo No No No No No No 50013 0000000191431441C0000000192055953C                                  0033457688002002Animo Florence-Firestone Charter Middle                                                             19647330134023Animo Florence-Firestone Charter Middle                                                             19647330134023DF1794N          Animo Florence-Firestone Charter Middle                                                             19647330134023Animo Florence-Firestone Charter Middle                                                             19647330134023DF1794N                                                                                                                                                                                                                                                                                                                                                                                                                                                                                      2023-05-172023-05-192023-05-192023-05-19                                        Animo Florence-Firestone Charter Middle                                                             19647330134023Animo Florence-Firestone Charter Middle                                                             19647330134023DF1794N2023-05-192023-04-172023-06-162023-04-172023-06-16                                        E2302023-06-162023-07-03                 YV OYNN  Y2023-06-011035Q                                             25540038251625922              017005      No No                                                                                                                                                                                                                                                                                                                                                                                                                                                                                                                                                                                                                                                                                                                                                                                                                                                                                                                                                                                                                                              No No                                                                                                                                                                                                                                                                                                                                                                                                                                                                                                                                                                                                                                                                                           Y07        003625052                                                                                                                                         33457688                                                                    ZZ
013329953244Robles-Rivera                                     Kairy                         Guadalupe                     2009-06-23F     080819647330134023Animo Florence-Firestone Charter Middle                                                             19647330134023Animo Florence-Firestone Charter Middle                                                             1794DF       No       No No No No 2014-09-022017-03-232014-08-122022-08-15RFEPSPA01No    No YesYesNYesNo No No No No No No 50013 0000000191784183C0000000192222390C                                  0033457688002014Animo Florence-Firestone Charter Middle                                                             19647330134023Animo Florence-Firestone Charter Middle                                                             19647330134023DF1794N          Animo Florence-Firestone Charter Middle                                                             19647330134023Animo Florence-Firestone Charter Middle                                                             19647330134023DF1794N                                                                                                                                                                                                                                                                                                                                                                                                                                                                                      2023-05-182023-05-182023-05-222023-05-22                                        Animo Florence-Firestone Charter Middle                                                             19647330134023Animo Florence-Firestone Charter Middle                                                             19647330134023DF1794N2023-05-222023-04-172023-06-162023-04-172023-06-16                                        E2302023-06-162023-07-03                 YV OYNN  Y2023-06-011215L                                             25880034255426223   ARGU332    022003      No No                                                                                                                                                                                                                                                                                                                                                                                                                                                                                                                                                                                                                                                                                                                                                                                                                                                                                                                                                                                                                                              No No                                                                                                                                                                                                                                                                                                                                                                                                                                                                                                                                                                                                                                                                                           Y07        003225412                                                                                                                                         33457688                                                                    ZZ
024636842682Ramirez                                           Angel                                                       2009-03-02M     080819647330134023Animo Florence-Firestone Charter Middle                                                             19647330134023Animo Florence-Firestone Charter Middle                                                             1794DF       No       No No No No 2014-09-082017-02-172014-08-122022-08-15RFEPSPA01No    YesYesYesNYesNo No No No No No No 50013 0000000191587122C0000000192123522C                                  0033549388002002Animo Florence-Firestone Charter Middle                                                             19647330134023Animo Florence-Firestone Charter Middle                                                             19647330134023DF1794N          Animo Florence-Firestone Charter Middle                                                             19647330134023Animo Florence-Firestone Charter Middle                                                             19647330134023DF1794N                                                                                                                                                                                                                                                                                                                                                                                                                                                                                      2023-05-172023-05-182023-05-192023-05-19                                        Animo Florence-Firestone Charter Middle                                                             19647330134023Animo Florence-Firestone Charter Middle                                                             19647330134023DF1794N2023-05-192023-04-172023-06-162023-04-172023-06-16                                        E2302023-06-162023-07-07                 YV OYNN  Y2023-06-01980Q                                              25280040248825682              017005      No No                                                                                                                                                                                                                                                                                                                                                                                                                                                                                                                                                                                                                                                                                                                                                                                                                                                                                                                                                                                                                                              No No                                                                                                                                                                                                                                                                                                                                                                                                                                                                                                                                                                                                                                                                                           Y07        003724912                                                                                                                                         33549388                                                                    ZZ
011337272920LOAIZA                                            AARON                                                       2009-04-25M     080819647330000000Los Angeles Unified                                                                                 19647336057962Charles Drew Middle                                                                                              No       No No No No 2014-09-042018-01-302014-08-122022-08-15RFEPSPA01No    No YesYesNYesNo No No No No No No 50014 0000000185922874C0000000186900336C                                  0033321025002014Los Angeles Unified                                                                                 19647330000000Charles Drew Middle                                                                                 19647336057962      N          Los Angeles Unified                                                                                 19647330000000Charles Drew Middle                                                                                 19647336057962      N                                                                                                                                                                                                                                                                                                                                                                                                                                                                                      2023-05-032023-05-052023-05-052023-05-08                                        Los Angeles Unified                                                                                 19647330000000Charles Drew Middle                                                                                 19647336057962      N2023-05-082023-03-062023-06-092023-03-062023-06-09                                        E2302023-06-092023-06-22                 YV OYNN  Y2023-05-30950L                                              24640035242924991   EXPL222    022003      No No                                                                                                                                                                                                                                                                                                                                                                                                                                                                                                                                                                                                                                                                                                                                                                                                                                                                                                                                                                                                                                              No No                                                                                                                                                                                                                                                                                                                                                                                                                                                                                                                                                                                                                                                                                           Y07        003424711                                                                                                                                         33321025                                                                    ZZ
028761211526LOPEZ-GONZALEZ                                    ADAMARI                                                     2008-12-22F     080819647330000000Los Angeles Unified                                                                                 19647336057962Charles Drew Middle                                                                                              No       No No No No 2014-08-202017-01-242014-08-122022-08-15RFEPSPA01No    No YesYesNNo No No No No No YesNo 70015 0000000189094671C0000000189881420C                                  0033835895002002Los Angeles Unified                                                                                 19647330000000Charles Drew Middle                                                                                 19647336057962      N          Los Angeles Unified                                                                                 19647330000000Charles Drew Middle                                                                                 19647336057962      N                                                                                                                                                                                                                                                                                                                                                                                                                                                                                      2023-05-102023-05-102023-05-122023-05-12                                        Los Angeles Unified                                                                                 19647330000000Charles Drew Middle                                                                                 19647336057962      N2023-05-122023-03-062023-06-092023-03-062023-06-09                                        E2302023-06-092023-06-23                 YV OYNN  Y2023-06-09635Q                                              23680055231324231              017005      No No                                                                                                                                                                                                                                                                                                                                                                                                                                                                                                                                                                                                                                                                                                                                                                                                                                                                                                                                                                                                                                              No No                                                                                                                                                                                                                                                                                                                                                                                                                                                                                                                                                                                                                                                                                           Y07        007522851                                                                                                                                         33835895                                                                    ZZ
027569859318Hernandez                                         Cindy                                                       2009-04-29F     080819647330134023Animo Florence-Firestone Charter Middle                                                             19647330134023Animo Florence-Firestone Charter Middle                                                             1794DF       No       No No No No 2014-08-202018-06-052014-08-202022-08-15RFEPSPA01No    YesYesYesNYesNo No No No No No No 50014 0000000191583055C0000000192124305C                                  0033760519002002Animo Florence-Firestone Charter Middle                                                             19647330134023Animo Florence-Firestone Charter Middle                                                             19647330134023DF1794N          Animo Florence-Firestone Charter Middle                                                             19647330134023Animo Florence-Firestone Charter Middle                                                             19647330134023DF1794N                                                                                                                                                                                                                                                                                                                                                                                                                                                                                      2023-05-172023-05-182023-05-192023-05-23                                        Animo Florence-Firestone Charter Middle                                                             19647330134023Animo Florence-Firestone Charter Middle                                                             19647330134023DF1794N2023-05-232023-04-172023-06-162023-04-172023-06-16                                        E2302023-06-162023-07-05                 YV OYNN  Y2023-06-15990Q                                              25310040249125712              017005      No No                                                                                                                                                                                                                                                                                                                                                                                                                                                                                                                                                                                                                                                                                                                                                                                                                                                                                                                                                                                                                                              No No                                                                                                                                                                                                                                                                                                                                                                                                                                                                                                                                                                                                                                                                                           Y07        004224321                                                                                                                                         33760519                                                                    ZZ
021337272920LOAIZA                                            AARON                                                       2009-04-25M     080819647330000000Los Angeles Unified                                                                                 19647336057962Charles Drew Middle                                                                                              No       No No No No 2014-09-042018-01-302014-08-122022-08-15RFEPSPA01No    No YesYesNYesNo No No No No No No 50014 0000000190312222C0000000190991029C                                  0033321025002002Los Angeles Unified                                                                                 19647330000000Charles Drew Middle                                                                                 19647336057962      N          Los Angeles Unified                                                                                 19647330000000Charles Drew Middle                                                                                 19647336057962      N                                                                                                                                                                                                                                                                                                                                                                                                                                                                                      2023-05-152023-05-152023-05-162023-05-16                                        Los Angeles Unified                                                                                 19647330000000Charles Drew Middle                                                                                 19647336057962      N2023-05-162023-03-062023-06-092023-03-062023-06-09                                        E2302023-06-092023-06-22                 YV OYNN  Y2023-05-30715Q                                              24060049235724551              017005      No No                                                                                                                                                                                                                                                                                                                                                                                                                                                                                                                                                                                                                                                                                                                                                                                                                                                                                                                                                                                                                                              No No                                                                                                                                                                                                                                                                                                                                                                                                                                                                                                                                                                                                                                                                                           Y07        005123711                                                                                                                                         33321025                                                                    ZZ
025129336654Alvarez                                           Jayden                                                      2009-04-03M     080819647330134023Animo Florence-Firestone Charter Middle                                                             19647330134023Animo Florence-Firestone Charter Middle                                                             1794DF       No       No No No No                     2014-08-122022-08-15IFEPSPA01No    No YesYesNYesNo No No No No No No 50014 0000000191456418C0000000192058121C                                  0033578275002002Animo Florence-Firestone Charter Middle                                                             19647330134023Animo Florence-Firestone Charter Middle                                                             19647330134023DF1794N          Animo Florence-Firestone Charter Middle                                                             19647330134023Animo Florence-Firestone Charter Middle                                                             19647330134023DF1794N                                                                                                                                                                                                                                                                                                                                                                                                                                                                                      2023-05-172023-05-182023-05-192023-05-19                                        Animo Florence-Firestone Charter Middle                                                             19647330134023Animo Florence-Firestone Charter Middle                                                             19647330134023DF1794N2023-05-192023-04-172023-06-162023-04-172023-06-16                                        E2302023-06-162023-07-11                 YV OYNN  Y2023-06-01650Q                                              23750053232224281              017005      No No                                                                                                                                                                                                                                                                                                                                                                                                                                                                                                                                                                                                                                                                                                                                                                                                                                                                                                                                                                                                                                              No No                                                                                                                                                                                                                                                                                                                                                                                                                                                                                                                                                                                                                                                                                           Y07        004923781                                                                                                                                         33578275                                                                    ZZ
027339133520Camacho                                           Joshua                        Adelfo                        2009-07-26M     080819647330134023Animo Florence-Firestone Charter Middle                                                             19647330134023Animo Florence-Firestone Charter Middle                                                             1794DF       No       No No No No                     2014-08-122022-08-15IFEPSPA01No    No YesYesNYesNo No No No No No No 50013 0000000191419876C0000000192056272C                                  0033735805002002Animo Florence-Firestone Charter Middle                                                             19647330134023Animo Florence-Firestone Charter Middle                                                             19647330134023DF1794N          Animo Florence-Firestone Charter Middle                                                             19647330134023Animo Florence-Firestone Charter Middle                                                             19647330134023DF1794N                                                                                                                                                                                                                                                                                                                                                                                                                                                                                      2023-05-172023-05-182023-05-192023-05-19                                        Animo Florence-Firestone Charter Middle                                                             19647330134023Animo Florence-Firestone Charter Middle                                                             19647330134023DF1794N2023-05-192023-04-172023-06-162023-04-172023-06-16                                        E2302023-06-162023-07-10                 YV OYNN  Y2023-06-011235Q                                             26440029261526733              017005      No No                                                                                                                                                                                                                                                                                                                                                                                                                                                                                                                                                                                                                                                                                                                                                                                                                                                                                                                                                                                                                                              No No                                                                                                                                                                                                                                                                                                                                                                                                                                                                                                                                                                                                                                                                                           Y07        002826303                                                                                                                                         33735805                                                                    ZZ
011511585245Cisneros                                          Kamila                                                      2008-10-10F     080819647330134023Animo Florence-Firestone Charter Middle                                                             19647330134023Animo Florence-Firestone Charter Middle                                                             1794DF       No       No No No No 2013-09-042022-10-242013-08-132022-08-15RFEPSPA01No    No YesYesNYesNo No No No No No No 50012 0000000191952911C0000000192324368C                                  0033326222002014Animo Florence-Firestone Charter Middle                                                             19647330134023Animo Florence-Firestone Charter Middle                                                             19647330134023DF1794N          Animo Florence-Firestone Charter Middle                                                             19647330134023Animo Florence-Firestone Charter Middle                                                             19647330134023DF1794N                                                                                                                                                                                                                                                                                                                                                                                                                                                                                      2023-05-182023-05-182023-05-222023-05-22                                        Animo Florence-Firestone Charter Middle                                                             19647330134023Animo Florence-Firestone Charter Middle                                                             19647330134023DF1794N2023-05-222023-04-172023-06-162023-04-172023-06-16                                        E2302023-06-162023-07-12                 YV OYNN  Y2023-06-011155L                                             25590034252525932   ARGU221    022003      No No                                                                                                                                                                                                                                                                                                                                                                                                                                                                                                                                                                                                                                                                                                                                                                                                                                                                                                                                                                                                                                              No No                                                                                                                                                                                                                                                                                                                                                                                                                                                                                                                                                                                                                                                                                           Y07        003325112                                                                                                                                         33326222                                                                    ZZ
022568199353Carrillo-Mandujano                                Julio                         Cesar                         2009-05-20M     080819647330134023Animo Florence-Firestone Charter Middle                                                             19647330134023Animo Florence-Firestone Charter Middle                                                             1794DF       No       No No No No                               2022-08-15EO  ENG00No    No YesYesNYesNo No No No No No No 50015 0000000191414418C0000000192056351C                                  0033406270002002Animo Florence-Firestone Charter Middle                                                             19647330134023Animo Florence-Firestone Charter Middle                                                             19647330134023DF1794N          Animo Florence-Firestone Charter Middle                                                             19647330134023Animo Florence-Firestone Charter Middle                                                             19647330134023DF1794N                                                                                                                                                                                                                                                                                                                                                                                                                                                                                      2023-05-172023-05-182023-05-192023-05-19                                        Animo Florence-Firestone Charter Middle                                                             19647330134023Animo Florence-Firestone Charter Middle                                                             19647330134023DF1794N2023-05-192023-04-172023-06-162023-04-172023-06-16                                        E2302023-06-162023-07-05                 YV OYNN  Y2023-06-15920Q                                              24990042245725411              017005      No No                                                                                                                                                                                                                                                                                                                                                                                                                                                                                                                                                                                                                                                                                                                                                                                                                                                                                                                                                                                                                                              No No                                                                                                                                                                                                                                                                                                                                                                                                                                                                                                                                                                                                                                                                                           Y07        004124451                                                                                                                                         33406270                                                                    ZZ
018664764130Zinnerman                                         David                                                       2009-04-17M     080819647330121707KIPP Comienza Community Prep                                                                        19647330121707KIPP Comienza Community Prep                                                                        1196DF       No       No No No No 2014-08-292017-05-122014-08-122022-08-15RFEPSPA01No    No YesYesNYesNo No No No No No No 50011 0000000187760769C0000000190529809C                                  0033821282002014KIPP Comienza Community Prep                                                                        19647330121707KIPP Comienza Community Prep                                                                        19647330121707DF1196N          KIPP Comienza Community Prep                                                                        19647330121707KIPP Comienza Community Prep                                                                        19647330121707DF1196N                                                                                                                                                                                                                                                                                                                                                                                                                                                                                      2023-05-092023-05-102023-05-162023-05-18                                        KIPP Comienza Community Prep                                                                        19647330121707KIPP Comienza Community Prep                                                                        19647330121707DF1196N2023-05-182023-03-072023-06-092023-03-072023-06-09                                        E2302023-06-092023-07-13                 YV OYNN  Y2023-06-011200L                                             25810034254726153   EXPL222    022003      No No                                                                                                                                                                                                                                                                                                                                                                                                                                                                                                                                                                                                                                                                                                                                                                                                                                                                                                                                                                                                                                              No No                                                                                                                                                                                                                                                                                                                                                                                                                                                                                                                                                                                                                                                                                           Y07        003326053                                                                                                                                         33821282                                                                    ZZ
015595492352Rodas                                             Wendy                         Michelle                      2009-03-10F     080819647330134023Animo Florence-Firestone Charter Middle                                                             19647330134023Animo Florence-Firestone Charter Middle                                                             1794DF       No       No No No No 2014-09-102017-02-242014-08-122022-08-15RFEPSPA01No    YesYesYesNYesNo No No No No No No 50013 0000000191954859C0000000192328074C                                  0033606681002014Animo Florence-Firestone Charter Middle                                                             19647330134023Animo Florence-Firestone Charter Middle                                                             19647330134023DF1794N          Animo Florence-Firestone Charter Middle                                                             19647330134023Animo Florence-Firestone Charter Middle                                                             19647330134023DF1794N                                                                                                                                                                                                                                                                                                                                                                                                                                                                                      2023-05-182023-05-192023-05-222023-05-23                                        Animo Florence-Firestone Charter Middle                                                             19647330134023Animo Florence-Firestone Charter Middle                                                             19647330134023DF1794N2023-05-232023-04-172023-06-162023-04-172023-06-16                                        E2302023-06-162023-07-07                 YV OYNN  Y2023-06-011500L                                             27210039268227604   ARGU332    022003      No No                                                                                                                                                                                                                                                                                                                                                                                                                                                                                                                                                                                                                                                                                                                                                                                                                                                                                                                                                                                                                                              No No                                                                                                                                                                                                                                                                                                                                                                                                                                                                                                                                                                                                                                                                                           Y07        003325653                                                                                                                                         33606681                                                                    ZZ
022357237384Torres                                            Fernando                                                    2008-12-09M     080819647330134023Animo Florence-Firestone Charter Middle                                                             19647330134023Animo Florence-Firestone Charter Middle                                                             1794DF       No       No No No No 2014-08-202017-01-242014-08-122022-08-15RFEPSPA01No    No YesYesNYesNo No No No No No No 50013 0000000191415389C0000000192056404C                                  0033391212002002Animo Florence-Firestone Charter Middle                                                             19647330134023Animo Florence-Firestone Charter Middle                                                             19647330134023DF1794N          Animo Florence-Firestone Charter Middle                                                             19647330134023Animo Florence-Firestone Charter Middle                                                             19647330134023DF1794N                                                                                                                                                                                                                                                                                                                                                                                                                                                                                      2023-05-172023-05-172023-05-192023-05-19                                        Animo Florence-Firestone Charter Middle                                                             19647330134023Animo Florence-Firestone Charter Middle                                                             19647330134023DF1794N2023-05-192023-04-172023-06-162023-04-172023-06-16                                        E2302023-06-162023-07-05                 YV OYNN  Y2023-06-13530Q                                              23210064226523851              019000      No No                                                                                                                                                                                                                                                                                                                                                                                                                                                                                                                                                                                                                                                                                                                                                                                                                                                                                                                                                                                                                                              No No                                                                                                                                                                                                                                                                                                                                                                                                                                                                                                                                                                                                                                                                                           Y07        005223631                                                                                                                                         33391212                                                                    ZZ
024476540993Sanchez                                           Jessica G                     Guadalupe                     2008-12-27F     080819647330134023Animo Florence-Firestone Charter Middle                                                             19647330134023Animo Florence-Firestone Charter Middle                                                             1794DF       No       No No No No                     2013-08-132022-08-15IFEPSPA01No    No YesYesNYesNo No No No No No No 50012 0000000191587709C0000000192123685C                                  0033538492002002Animo Florence-Firestone Charter Middle                                                             19647330134023Animo Florence-Firestone Charter Middle                                                             19647330134023DF1794N          Animo Florence-Firestone Charter Middle                                                             19647330134023Animo Florence-Firestone Charter Middle                                                             19647330134023DF1794N                                                                                                                                                                                                                                                                                                                                                                                                                                                                                      2023-05-172023-05-182023-05-192023-05-19                                        Animo Florence-Firestone Charter Middle                                                             19647330134023Animo Florence-Firestone Charter Middle                                                             19647330134023DF1794N2023-05-192023-04-172023-06-162023-04-172023-06-16                                        E2302023-06-162023-07-05                 YV OYNN  Y2023-06-011165Q                                             26130032258126453              017005      No No                                                                                                                                                                                                                                                                                                                                                                                                                                                                                                                                                                                                                                                                                                                                                                                                                                                                                                                                                                                                                                              No No                                                                                                                                                                                                                                                                                                                                                                                                                                                                                                                                                                                                                                                                                           Y07        002826193                                                                                                                                         33538492                                                                    ZZ
023440527187Cedillo                                           Gissele                       Emily                         2009-04-28F     080819647330134023Animo Florence-Firestone Charter Middle                                                             19647330134023Animo Florence-Firestone Charter Middle                                                             1794DF       No       No No No No                     2014-08-122022-08-15EO  ENG00No    No YesYesNYesNo No No No No No No 50013 0000000191587370C0000000192124506C                                  0033464937002002Animo Florence-Firestone Charter Middle                                                             19647330134023Animo Florence-Firestone Charter Middle                                                             19647330134023DF1794N          Animo Florence-Firestone Charter Middle                                                             19647330134023Animo Florence-Firestone Charter Middle                                                             19647330134023DF1794N                                                                                                                                                                                                                                                                                                                                                                                                                                                                                      2023-05-172023-05-182023-05-192023-05-19                                        Animo Florence-Firestone Charter Middle                                                             19647330134023Animo Florence-Firestone Charter Middle                                                             19647330134023DF1794N2023-05-192023-04-172023-06-162023-04-172023-06-16                                        E2302023-06-162023-07-05                 YV OYNN  Y2023-06-01900Q                                              24910043244825341              017005      No No                                                                                                                                                                                                                                                                                                                                                                                                                                                                                                                                                                                                                                                                                                                                                                                                                                                                                                                                                                                                                                              No No                                                                                                                                                                                                                                                                                                                                                                                                                                                                                                                                                                                                                                                                                           Y07        003625072                                                                                                                                         33464937                                                                    ZZ
024208184630Rojas                                             Jibran                        Jael                          2009-06-23M     080819647330134023Animo Florence-Firestone Charter Middle                                                             19647330134023Animo Florence-Firestone Charter Middle                                                             1794DF       No       No No No Yes2014-08-18          2013-08-132022-08-15EL  SPA01No    No YesYesNYesNo No No No No No No 50014 0000000191582390C0000000192124254C                                  0033507049002002Animo Florence-Firestone Charter Middle                                                             19647330134023Animo Florence-Firestone Charter Middle                                                             19647330134023DF1794N          Animo Florence-Firestone Charter Middle                                                             19647330134023Animo Florence-Firestone Charter Middle                                                             19647330134023DF1794N                                                                                                                                                                                                                                                                                                                                                                                                                                                                                      2023-05-172023-05-172023-05-192023-05-19                                        Animo Florence-Firestone Charter Middle                                                             19647330134023Animo Florence-Firestone Charter Middle                                                             19647330134023DF1794N2023-05-192023-04-172023-06-162023-04-172023-06-16                                        E2302023-06-162023-07-03                 YV OYNN  Y2023-05-311015Q                                             25440039250525832              017005      No Yes                                                                                                                                                                                                                                                                                                                                                                                                                                                                                                                                                                                                                                                                                                                                                                                                                                                                                                               TDS_TTS_Stim&TDS_TTS_ItemTDS_TTS_Stim&TDS_TTS_Item                                                                            No No                                                                                                                                                                                                                                                                                                                                                                                                                                                                                                                                                                   NEDS_SimpDirsNEDS_SimpDirs                                                                                              Y07        003425282                                                                                                                                         33507049                                                                    ZZ
014636842682Ramirez                                           Angel                                                       2009-03-02M     080819647330134023Animo Florence-Firestone Charter Middle                                                             19647330134023Animo Florence-Firestone Charter Middle                                                             1794DF       No       No No No No 2014-09-082017-02-172014-08-122022-08-15RFEPSPA01No    YesYesYesNYesNo No No No No No No 50013 0000000191952461C0000000192324221C                                  0033549388002014Animo Florence-Firestone Charter Middle                                                             19647330134023Animo Florence-Firestone Charter Middle                                                             19647330134023DF1794N          Animo Florence-Firestone Charter Middle                                                             19647330134023Animo Florence-Firestone Charter Middle                                                             19647330134023DF1794N                                                                                                                                                                                                                                                                                                                                                                                                                                                                                      2023-05-182023-05-182023-05-222023-05-22                                        Animo Florence-Firestone Charter Middle                                                             19647330134023Animo Florence-Firestone Charter Middle                                                             19647330134023DF1794N2023-05-222023-04-172023-06-162023-04-172023-06-16                                        E2302023-06-162023-07-07                 YV OYNN  Y2023-06-01960L                                              24670035243225021   ARGU221    022003      No No                                                                                                                                                                                                                                                                                                                                                                                                                                                                                                                                                                                                                                                                                                                                                                                                                                                                                                                                                                                                                                              No No                                                                                                                                                                                                                                                                                                                                                                                                                                                                                                                                                                                                                                                                                           Y07        003524551                                                                                                                                         33549388                                                                    ZZ
014396364651SALAZAR-PEDROZA                                   WENDY                                                       2009-04-24F     080819647330000000Los Angeles Unified                                                                                 19647336057962Charles Drew Middle                                                                                              No       No No No No 2014-08-212022-06-062014-08-202022-08-15RFEPSPA01No    No YesYesNYesNo No No No No No No 50015 0000000185612536C0000000187641594C                                  0033529344002014Los Angeles Unified                                                                                 19647330000000Charles Drew Middle                                                                                 19647336057962      N          Los Angeles Unified                                                                                 19647330000000Charles Drew Middle                                                                                 19647336057962      N                                                                                                                                                                                                                                                                                                                                                                                                                                                                                      2023-05-032023-05-102023-05-082023-05-10                                        Los Angeles Unified                                                                                 19647330000000Charles Drew Middle                                                                                 19647336057962      N2023-05-102023-03-062023-06-092023-03-062023-06-09                                        E2302023-06-092023-06-23                 YV OYNN  Y2023-05-24975L                                              24750035244025101   EXPL212    022003      No No                                                                                                                                                                                                                                                                                                                                                                                                                                                                                                                                                                                                                                                                                                                                                                                                                                                                                                                                                                                                                                              No No                                                                                                                                                                                                                                                                                                                                                                                                                                                                                                                                                                                                                                                                                           Y07        003824081                                                                                                                                         33529344                                                                    ZZ
014208184630Rojas                                             Jibran                        Jael                          2009-06-23M     080819647330134023Animo Florence-Firestone Charter Middle                                                             19647330134023Animo Florence-Firestone Charter Middle                                                             1794DF       No       No No No Yes2014-08-18          2013-08-132022-08-15EL  SPA01No    No YesYesNYesNo No No No No No No 50014 0000000191954914C0000000192328159C                                  0033507049002014Animo Florence-Firestone Charter Middle                                                             19647330134023Animo Florence-Firestone Charter Middle                                                             19647330134023DF1794N          Animo Florence-Firestone Charter Middle                                                             19647330134023Animo Florence-Firestone Charter Middle                                                             19647330134023DF1794N                                                                                                                                                                                                                                                                                                                                                                                                                                                                                      2023-05-182023-05-182023-05-222023-05-23                                        Animo Florence-Firestone Charter Middle                                                             19647330134023Animo Florence-Firestone Charter Middle                                                             19647330134023DF1794N2023-05-232023-04-172023-06-162023-04-172023-06-16                                        E2302023-06-162023-07-03                 YV OYNN  Y2023-05-311105L                                             25370034250325712   EXPL111    022003      No Yes                                                                                                                                                                                                                                                                                                                                                                                                                                                                                                                                                                                                                                                                                                                                                                                                                                                                                                               TDS_TTS_Item             TDS_TTS_Item                                                                                         No No                                                                                                                                                                                                                                                                                                                                                                                                                                                                                                                                                                   NEDS_SimpDirsNEDS_SimpDirs                                                                                              Y07        003923961                                                                                                                                         33507049                                                                    ZZ
