026395735654Jimenez                                           Hannah                                                      2009-11-18F     080819647330128512KIPP Academy of Innovation                                                                          19647330128512KIPP Academy of Innovation                                                                          1586DF       No       No No No No 2014-08-112017-03-202014-08-112022-08-15RFEPSPA01No    No YesYesNYesNo No No No No No No 50014 0000000187880318C0000000188770763C                                  0033669122002002KIPP Academy of Innovation                                                                          19647330128512KIPP Academy of Innovation                                                                          19647330128512DF1586N          KIPP Academy of Innovation                                                                          19647330128512KIPP Academy of Innovation                                                                          19647330128512DF1586N                                                                                                                                                                                                                                                                                                                                                                                                                                                                                      2023-05-092023-05-092023-05-102023-05-10                                        KIPP Academy of Innovation                                                                          19647330128512KIPP Academy of Innovation                                                                          19647330128512DF1586N2023-05-102023-03-072023-06-092023-03-072023-06-09                                        E2302023-06-092023-07-13                 YV OYNN  Y2023-06-01525Q                                              23170066226523831              017005      No No                                                                                                                                                                                                                                                                                                                                                                                                                                                                                                                                                                                                                                                                                                                                                                                                                                                                                                                                                                                                                                              No No                                                                                                                                                                                                                                                                                                                                                                                                                                                                                                                                                                                                                                                                                           Y07        005223651                                                                                                                                         33669122                                                                    ZZ
015396309908Donis                                             Kateryn                       Elizabeth                     2009-08-23F     080819647330122747Magnolia Science Academy Bell                                                                       19647330122747Magnolia Science Academy Bell                                                                       1236DF       No       No No No No 2014-08-182023-01-202014-08-182022-08-16RFEPSPA01No    No YesYesNYesNo No No No No No No 50012 0000000184188286C0000000186571495C                                  0035738984002014Magnolia Science Academy Bell                                                                       19647330122747Magnolia Science Academy Bell                                                                       19647330122747DF1236N          Magnolia Science Academy Bell                                                                       19647330122747Magnolia Science Academy Bell                                                                       19647330122747DF1236N                                                                                                                                                                                                                                                                                                                                                                                                                                                                                      2023-05-012023-05-012023-05-042023-05-11                                        Magnolia Science Academy Bell                                                                       19647330122747Magnolia Science Academy Bell                                                                       19647330122747DF1236N2023-05-112023-03-062023-06-092023-03-062023-06-09                                        E2302023-06-092023-07-18                 YV OYNN  Y2023-06-01940L                                              24590036242324951   EXPL111    022003      No No                                                                                                                                                                                                                                                                                                                                                                                                                                                                                                                                                                                                                                                                                                                                                                                                                                                                                                                                                                                                                                              No No                                                                                                                                                                                                                                                                                                                                                                                                                                                                                                                                                                                                                                                                                           Y07        003325753                                                                                                                                         35738984                                                                    ZZ
029508725191Flores Cerezo                                     Cristian                                                    2009-03-08M     080819647330120014KIPP Endeavor College Preparatory Charter                                                           19647330120014KIPP Endeavor College Preparatory Charter                                                           1094DF1964733No SLDSLDYesYesNo Yes2014-09-05          2014-08-132022-08-15EL  SPA01No    No YesYesNYesNo No No No No No No 50013 0000000188994222C0000000189057829C                                  0033877948002002KIPP Endeavor College Preparatory Charter                                                           19647330120014KIPP Endeavor College Preparatory Charter                                                           19647330120014DF1094N          KIPP Endeavor College Preparatory Charter                                                           19647330120014KIPP Endeavor College Preparatory Charter                                                           19647330120014DF1094N                                                                                                                                                                                                                                                                                                                                                                                                                                                                                      2023-05-102023-05-102023-05-102023-05-11                                        KIPP Endeavor College Preparatory Charter                                                           19647330120014KIPP Endeavor College Preparatory Charter                                                           19647330120014DF1094N2023-05-112023-03-072023-06-092023-03-072023-06-09                                        E2302023-06-092023-07-12                 YV OYNN  Y2023-05-21600Q                                              23530058229524111              017005      YesYes                                                                                                                                                                                                                                                                                                                                 NEA_MTNEA_MT                                                                                                                                                                                                                                                                                                                                                                                                                                                                                                                                                                  TDS_TTS_Stim&TDS_TTS_ItemTDS_TTS_Stim&TDS_TTS_Item                                                                            No No                                                                                                                                                                                                                                                                                                                                                                                                                                                                                                                                       NEDS_SSNEDS_SS              NEDS_SimpDirsNEDS_SimpDirs                                                                                              Y07        013422501                                                                                                                                         33877948                                                                    ZZ
028542563794Lopez                                             George Albert                                               2009-08-30M     080819647330117846Para Los Niños Middle                                                                               19647330117846Para Los Niños Middle                                                                               1007DF       No       No No No No 2014-08-142016-01-252014-08-142022-08-15RFEPSPA01No    No YesYesNYesNo No No No No No No 50014 0000000184246927C0000000185232265C                                  0037047402002002Para Los Niños Middle                                                                               19647330117846Para Los Niños Middle                                                                               19647330117846DF1007N          Para Los Niños Middle                                                                               19647330117846Para Los Niños Middle                                                                               19647330117846DF1007N                                                                                                                                                                                                                                                                                                                                                                                                                                                                                      2023-05-012023-05-162023-05-022023-05-02                                        Para Los Niños Middle                                                                               19647330117846Para Los Niños Middle                                                                               19647330117846DF1007N2023-05-162023-04-172023-06-092023-04-172023-06-09                                        E2302023-06-092023-07-15                 YV OYNN  Y2023-05-21950Q                                              25140041247325552              017006      No No                                                                                                                                                                                                                                                                                                                                                                                                                                                                                                                                                                                                                                                                                                                                                                                                                                                                                                                                                                                                                                              No No                                                                                                                                                                                                                                                                                                                                                                                                                                                                                                                                                                                                                                                                                           Y07        003425242                                                                                                                                         37047402                                                                    ZZ
013473770274Rios                                              Jose                          Junior                        2009-06-05M     080819647330117846Para Los Niños Middle                                                                               19647330117846Para Los Niños Middle                                                                               1007DF1964733No SLISLIYesYesNo No 2014-09-102016-12-142014-08-122022-08-15RFEPSPA01No    No YesYesNYesNo No No No No No No 50015 0000000186598427C0000000188452485C                                  0037010759002014Para Los Niños Middle                                                                               19647330117846Para Los Niños Middle                                                                               19647330117846DF1007N          Para Los Niños Middle                                                                               19647330117846Para Los Niños Middle                                                                               19647330117846DF1007N                                                                                                                                                                                                                                                                                                                                                                                                                                                                                      2023-05-042023-05-082023-05-092023-05-09                                        Para Los Niños Middle                                                                               19647330117846Para Los Niños Middle                                                                               19647330117846DF1007N2023-05-092023-04-172023-06-092023-04-172023-06-09                                        E2302023-06-092023-07-15                 YV OYNN  Y2023-05-161165L                                             25660034253226002              026000      No No                                                                                                                                                                                                                                                                                                                                                                                                                                                                                                                                                                                                                                                                                                                                                                                                                                                                                                                                                                                                                                              No No                                                                                                                                                                                                                                                                                                                                                                                                                                                                                                                                                                                                                                                                                           Y07        003325633                                                                                                                                         37010759                                                                    ZZ
027719619353Lozada                                            Saul                                                        2008-03-09M     080819647330134205Arts in Action Community Middle                                                                     19647330134205Arts in Action Community Middle                                                                     1806DF       No       No No No Yes2013-08-14          2015-07-012022-08-15EL  SPA01No    No YesYesNYesNo No No No No No No 50013 0000000189512525C0000000190574137C                                  0037700194002002Arts in Action Community Middle                                                                     19647330134205Arts in Action Community Middle                                                                     19647330134205DF1806N          Arts in Action Community Middle                                                                     19647330134205Arts in Action Community Middle                                                                     19647330134205DF1806N                                                                                                                                                                                                                                                                                                                                                                                                                                                                                      2023-05-112023-05-112023-05-162023-05-16                                        Arts in Action Community Middle                                                                     19647330134205Arts in Action Community Middle                                                                     19647330134205DF1806N2023-05-162023-03-272023-06-092023-03-272023-06-09                                        E2302023-06-092023-07-21                 YV OYNN  Y2023-06-07745Q                                              24190048237124671              017005      No No                                                                                                                                                                                                                                                                                                                                                                                                                                                                                                                                                                                                                                                                                                                                                                                                                                                                                                                                                                                                                                              No No                                                                                                                                                                                                                                                                                                                                                                                                                                                                                                                                                                                                                                                                                           Y07        003525202                                                                                                                                         37700194                                                                    ZZ
028950173647ROMERO LEMUS                                      MARLON                        JEFFREY                       2009-06-01M     080819647330000000Los Angeles Unified                                                                                 19647336058317Robert Louis Stevenson College and Career Preparatory                                                            No       No No No No 2014-10-092017-05-242014-09-082022-10-12RFEPSPA01No    No YesNo NYesNo No No No No No No 50015 0000000189053549C0000000189565403C                                  0034055592002002Los Angeles Unified                                                                                 19647330000000Robert Louis Stevenson College and Career Preparatory                                               19647336058317      N          Los Angeles Unified                                                                                 19647330000000Robert Louis Stevenson College and Career Preparatory                                               19647336058317      N                                                                                                                                                                                                                                                                                                                                                                                                                                                                                      2023-05-102023-05-102023-05-112023-05-11                                        Los Angeles Unified                                                                                 19647330000000Robert Louis Stevenson College and Career Preparatory                                               19647336058317      N2023-05-112023-03-062023-06-092023-03-062023-06-09                                        E2302023-06-092023-06-22                 YV OYNN  Y2023-05-21725Q                                              24110048236324591              017004      No No                                                                                                                                                                                                                                                                                                                                                                                                                                                                                                                                                                                                                                                                                                                                                                                                                                                                                                                                                                                                                                              No No                                                                                                                                                                                                                                                                                                                                                                                                                                                                                                                                                                                                                                                                                           Y07        003625002                           Y06        004224011                                                                                          34055592                                                                    ZZ
025396309908Donis                                             Kateryn                       Elizabeth                     2009-08-23F     080819647330122747Magnolia Science Academy Bell                                                                       19647330122747Magnolia Science Academy Bell                                                                       1236DF       No       No No No No 2014-08-182023-01-202014-08-182022-08-16RFEPSPA01No    No YesYesNYesNo No No No No No No 50012 0000000191031310C0000000192117067C                                  0035738984002002Magnolia Science Academy Bell                                                                       19647330122747Magnolia Science Academy Bell                                                                       19647330122747DF1236N          Magnolia Science Academy Bell                                                                       19647330122747Magnolia Science Academy Bell                                                                       19647330122747DF1236N                                                                                                                                                                                                                                                                                                                                                                                                                                                                                      2023-05-162023-05-162023-05-192023-05-19                                        Magnolia Science Academy Bell                                                                       19647330122747Magnolia Science Academy Bell                                                                       19647330122747DF1236N2023-05-192023-03-062023-06-092023-03-062023-06-09                                        E2302023-06-092023-07-18                 YV OYNN  Y2023-06-01870Q                                              24760044243225201              017005      No No                                                                                                                                                                                                                                                                                                                                                                                                                                                                                                                                                                                                                                                                                                                                                                                                                                                                                                                                                                                                                                              No No                                                                                                                                                                                                                                                                                                                                                                                                                                                                                                                                                                                                                                                                                           Y07        003025773                                                                                                                                         35738984                                                                    ZZ
012120217096Reyes                                             Amanda                        Sofia                         2009-05-20F     080819647330100867KIPP Los Angeles College Preparatory                                                                19647330100867KIPP Los Angeles College Preparatory                                                                0531DF       No       No No No No                     2014-08-122022-08-15EO  ENG00No    No YesYesNYesNo No No No No No No 50013 0000000190539071C0000000191184319C                                  0033380045002014KIPP Los Angeles College Preparatory                                                                19647330100867KIPP Los Angeles College Preparatory                                                                19647330100867DF0531N          KIPP Los Angeles College Preparatory                                                                19647330100867KIPP Los Angeles College Preparatory                                                                19647330100867DF0531N                                                                                                                                                                                                                                                                                                                                                                                                                                                                                      2023-05-162023-05-162023-05-172023-05-18                                        KIPP Los Angeles College Preparatory                                                                19647330100867KIPP Los Angeles College Preparatory                                                                19647330100867DF0531N2023-05-182023-03-072023-06-092023-03-072023-06-09                                        E2302023-06-092023-07-12                 YV OYNN  Y2023-05-241225L                                             25920034255826263   EXPL332    022003      No No                                                                                                                                                                                                                                                                                                                                                                                                                                                                                                                                                                                                                                                                                                                                                                                                                                                                                                                                                                                                                                              No No                                                                                                                                                                                                                                                                                                                                                                                                                                                                                                                                                                                                                                                                                           Y07        003325272                                                                                                                                         33380045                                                                    ZZ
022625052612Tzita Gonzalez                                    Yessica                       Rosario                       2008-10-02F     080819647330120014KIPP Endeavor College Preparatory Charter                                                           19647330120014KIPP Endeavor College Preparatory Charter                                                           1094DF       No       No No No Yes2013-08-21          2013-08-212022-08-15EL  SPA01No    No YesYesNYesNo No No No No No No 50014 0000000188151968C0000000188940653C                                  0033410851002002KIPP Endeavor College Preparatory Charter                                                           19647330120014KIPP Endeavor College Preparatory Charter                                                           19647330120014DF1094N          KIPP Endeavor College Preparatory Charter                                                           19647330120014KIPP Endeavor College Preparatory Charter                                                           19647330120014DF1094N                                                                                                                                                                                                                                                                                                                                                                                                                                                                                      2023-05-092023-05-092023-05-102023-05-10                                        KIPP Endeavor College Preparatory Charter                                                           19647330120014KIPP Endeavor College Preparatory Charter                                                           19647330120014DF1094N2023-05-102023-03-072023-06-092023-03-072023-06-09                                        E2302023-06-092023-07-15                 YV OYNN  Y2023-05-19550Q                                              23290062226723911              017005      No No                                                                                                                                                                                                                                                                                                                                                                                                                                                                                                                                                                                                                                                                                                                                                                                                                                                                                                                                                                                                                                              No No                                                                                                                                                                                                                                                                                                                                                                                                                                                                                                                                                                                                                                                                                           Y07        007022961                                                                                                                                         33410851                                                                    ZZ
016084114041Madrid                                            Heidy                         Diane                         2008-09-17F     080819647330128033Alliance College-Ready Middle Academy 8                                                             19647330128033Alliance College-Ready Middle Academy 8                                                             1531DF       No       No No No Yes2013-08-12          2013-08-152022-08-10EL  SPA01No    No YesYesNYesNo No No No No No No 50014 0000000191151859C0000000191655743C                                  0038230983002014Alliance College-Ready Middle Academy 8                                                             19647330128033Alliance College-Ready Middle Academy 8                                                             19647330128033DF1531N          Alliance College-Ready Middle Academy 8                                                             19647330128033Alliance College-Ready Middle Academy 8                                                             19647330128033DF1531N                                                                                                                                                                                                                                                                                                                                                                                                                                                                                      2023-05-172023-05-172023-05-182023-05-18                                        Alliance College-Ready Middle Academy 8                                                             19647330128033Alliance College-Ready Middle Academy 8                                                             19647330128033DF1531N2023-05-182023-03-072023-06-162023-03-072023-06-16                                        E2302023-06-152023-07-25                 YV OYNN  Y2023-06-141080L                                             25250034249125592   EXPL221    022003      No No                                                                                                                                                                                                                                                                                                                                                                                                                                                                                                                                                                                                                                                                                                                                                                                                                                                                                                                                                                                                                                              No No                                                                                                                                                                                                                                                                                                                                                                                                                                                                                                                                                                                                                                                                                           Y07        003225372                                                                                                                                         38230983                                                                    ZZ
011367208652Lopez Anastacio                                   Eric                                                        2008-12-02M     080819647330123992Animo Ellen Ochoa Charter Middle                                                                    19647330123992Animo Ellen Ochoa Charter Middle                                                                    1286DF       No       No No No Yes2014-08-25          2014-08-252022-08-15EL  SPA01No    No YesYesNYesNo No No No No No No 50014 0000000188848703C0000000189821066C                                  0033325208002014Animo Ellen Ochoa Charter Middle                                                                    19647330123992Animo Ellen Ochoa Charter Middle                                                                    19647330123992DF1286N          Animo Ellen Ochoa Charter Middle                                                                    19647330123992Animo Ellen Ochoa Charter Middle                                                                    19647330123992DF1286N                                                                                                                                                                                                                                                                                                                                                                                                                                                                                      2023-05-102023-05-102023-05-122023-05-12                                        Animo Ellen Ochoa Charter Middle                                                                    19647330123992Animo Ellen Ochoa Charter Middle                                                                    19647330123992DF1286N2023-05-122023-04-172023-06-162023-04-172023-06-16                                        E2302023-06-162023-07-15                 YV OYNN  Y2023-06-11790L                                              23890043234624321   EXPL000III 022003      No Yes                                                                                                                                                                                                                                                                                                                                                                                                                                                                                                                                                                                                                                                                                                                                                                                                                                                                                                               TDS_TTS_Item             TDS_TTS_Item                                                                                         No No                                                                                                          NEDS_BD                                                                                                                                                                                                                                                                                                                                                                                                                                                  NEDS_SimpDirsNEDS_SimpDirs                                                                                              Y07        004323671                                                                                                                                         33325208                                                                    ZZ
021367208652Lopez Anastacio                                   Eric                                                        2008-12-02M     080819647330123992Animo Ellen Ochoa Charter Middle                                                                    19647330123992Animo Ellen Ochoa Charter Middle                                                                    1286DF       No       No No No Yes2014-08-25          2014-08-252022-08-15EL  SPA01No    No YesYesNYesNo No No No No No No 50014 0000000187268449C0000000188292995C                                  0033325208002002Animo Ellen Ochoa Charter Middle                                                                    19647330123992Animo Ellen Ochoa Charter Middle                                                                    19647330123992DF1286N          Animo Ellen Ochoa Charter Middle                                                                    19647330123992Animo Ellen Ochoa Charter Middle                                                                    19647330123992DF1286N                                                                                                                                                                                                                                                                                                                                                                                                                                                                                      2023-05-082023-05-082023-05-092023-05-09                                        Animo Ellen Ochoa Charter Middle                                                                    19647330123992Animo Ellen Ochoa Charter Middle                                                                    19647330123992DF1286N2023-05-092023-04-172023-06-162023-04-172023-06-16                                        E2302023-06-162023-07-15                 YV OYNN  Y2023-06-11785Q                                              24380046239224841              017005      No Yes                                                                                                                                                                                                                                                                                                                                                                                                                                                                                                                                                                                                                                                                                                                                                                                                                                                                                                               TDS_TTS_Stim&TDS_TTS_ItemTDS_TTS_Stim&TDS_TTS_Item                                                                            No No                                                                                                                                                                                                                                                                                                                                                                                                                                                                                                                                                                   NEDS_SimpDirsNEDS_SimpDirs                                                                                              Y07        007322911                                                                                                                                         33325208                                                                    ZZ
017262472363Honorato                                          Brianna                                                     2009-05-18F     080819647330123992Animo Ellen Ochoa Charter Middle                                                                    19647330123992Animo Ellen Ochoa Charter Middle                                                                    1286DF       Yes      No No No No                     2014-08-202022-08-15EO  ENG00No    No YesYesNYesNo No No No No No No 50014 0000000188831205C0000000189435327C                                  0033736540002014Animo Ellen Ochoa Charter Middle                                                                    19647330123992Animo Ellen Ochoa Charter Middle                                                                    19647330123992DF1286N          Animo Ellen Ochoa Charter Middle                                                                    19647330123992Animo Ellen Ochoa Charter Middle                                                                    19647330123992DF1286N                                                                                                                                                                                                                                                                                                                                                                                                                                                                                      2023-05-102023-05-102023-05-112023-05-11                                        Animo Ellen Ochoa Charter Middle                                                                    19647330123992Animo Ellen Ochoa Charter Middle                                                                    19647330123992DF1286N2023-05-112023-04-172023-06-162023-04-172023-06-16                                        E2302023-06-162023-07-17                 YV OYNN  Y2023-05-22890L                                              24360038239824741   EXPL110    022003      YesYes                                                                                                                                TDS_TTS_StimTDS_TTS_Stim                                                                                                                                                                                                                                                                                                                                                                                                                                                                                                                                                                                                                                                                                                                                                       TDS_TTS_Item             TDS_TTS_Item                                                                                         No No                                                                                                                                                                                                                                                                                                                                                                                                                                                                                                                                       NEDS_SSNEDS_SS                                                                                                                                      Y07        003324862                                                                                                                                         33736540                                                                    ZZ
024064213597Morales                                           Ariel                         Alyssa                        2009-08-20F     080819647330128033Alliance College-Ready Middle Academy 8                                                             19647330128033Alliance College-Ready Middle Academy 8                                                             1531DF       No       No No No No 2014-08-112016-03-302014-08-202022-08-10RFEPSPA01No    No YesYesNYesNo No No No No No No 50011 0000000191527715C0000000191580223C                                  0038226408002002Alliance College-Ready Middle Academy 8                                                             19647330128033Alliance College-Ready Middle Academy 8                                                             19647330128033DF1531N          Alliance College-Ready Middle Academy 8                                                             19647330128033Alliance College-Ready Middle Academy 8                                                             19647330128033DF1531N                                                                                                                                                                                                                                                                                                                                                                                                                                                                                      2023-05-172023-05-172023-05-172023-05-17                                        Alliance College-Ready Middle Academy 8                                                             19647330128033Alliance College-Ready Middle Academy 8                                                             19647330128033DF1531N2023-05-172023-03-072023-06-162023-03-072023-06-16                                        E2302023-06-152023-07-24                 YV OYNN  Y2023-06-141020Q                                             25460038250825842              017006      No No                                                                                                                                                                                                                                                                                                                                                                                                                                                                                                                                                                                                                                                                                                                                                                                                                                                                                                                                                                                                                                              No No                                                                                                                                                                                                                                                                                                                                                                                                                                                                                                                                                                                                                                                                                           Y07        003225612                                                                                                                                         38226408                                                                    ZZ
028034680518Monterroso                                        Camila                        Adriana                       2008-01-10F     080819647330114967Global Education Academy                                                                            19647330114967Global Education Academy                                                                            0934DF       No       No No No No 2013-09-132021-07-302013-08-132022-10-13RFEPSPA01No    No YesYesNYesNo No No No No No No 50014 0000000187247313C0000000188318890C                                  0037984128002002Global Education Academy                                                                            19647330114967Global Education Academy                                                                            19647330114967DF0934N          Global Education Academy                                                                            19647330114967Global Education Academy                                                                            19647330114967DF0934N                                                                                                                                                                                                                                                                                                                                                                                                                                                                                      2023-05-082023-05-082023-05-092023-05-11                                        Global Education Academy                                                                            19647330114967Global Education Academy                                                                            19647330114967DF0934N2023-05-112023-03-072023-06-162023-03-072023-06-16                                        E2302023-06-162023-07-17                 YV OYNN  Y2023-05-19690Q                                              23940051234324451              017005      No No                                                                                                                                                                                                                                                                                                                                                                                                                                                                                                                                                                                                                                                                                                                                                                                                                                                                                                                                                                                                                                              No No                                                                                                                                                                                                                                                                                                                                                                                                                                                                                                                                                                                                                                                                                           Y07        003425272                           Y06        003624481                                                                                          37984128                                                                    ZZ
023473770274Rios                                              Jose                          Junior                        2009-06-05M     080819647330117846Para Los Niños Middle                                                                               19647330117846Para Los Niños Middle                                                                               1007DF1964733No SLISLIYesYesNo No 2014-09-102016-12-142014-08-122022-08-15RFEPSPA01No    No YesYesNYesNo No No No No No No 50015 0000000184242650C0000000185223020C                                  0037010759002002Para Los Niños Middle                                                                               19647330117846Para Los Niños Middle                                                                               19647330117846DF1007N          Para Los Niños Middle                                                                               19647330117846Para Los Niños Middle                                                                               19647330117846DF1007N                                                                                                                                                                                                                                                                                                                                                                                                                                                                                      2023-05-012023-05-012023-05-022023-05-03                                        Para Los Niños Middle                                                                               19647330117846Para Los Niños Middle                                                                               19647330117846DF1007N2023-05-032023-04-172023-06-092023-04-172023-06-09                                        E2302023-06-092023-07-15                 YV OYNN  Y2023-05-161140Q                                             26020033256926353              017004      No No                                                                                                                                                                                                                                                                                                                                                                                                                                                                                                                                                                                                                                                                                                                                                                                                                                                                                                                                                                                                                                              No No                                                                                                                                                                                                                                                                                                                                                                                                                                                                                                                                                                                                                                                                                           Y07        003425242                                                                                                                                         37010759                                                                    ZZ
017719619353Lozada                                            Saul                                                        2008-03-09M     080819647330134205Arts in Action Community Middle                                                                     19647330134205Arts in Action Community Middle                                                                     1806DF       No       No No No Yes2013-08-14          2015-07-012022-08-15EL  SPA01No    No YesYesNYesNo No No No No No No 50013 0000000187142275C0000000190045553C                                  0037700194002014Arts in Action Community Middle                                                                     19647330134205Arts in Action Community Middle                                                                     19647330134205DF1806N          Arts in Action Community Middle                                                                     19647330134205Arts in Action Community Middle                                                                     19647330134205DF1806N                                                                                                                                                                                                                                                                                                                                                                                                                                                                                      2023-05-082023-05-082023-05-152023-05-15                                        Arts in Action Community Middle                                                                     19647330134205Arts in Action Community Middle                                                                     19647330134205DF1806N2023-05-152023-03-272023-06-092023-03-272023-06-09                                        E2302023-06-092023-07-21                 YV OYNN  Y2023-06-07955L                                              24660035243125011   NARR001MM  022003      No No                                                                                                                                                                                                                                                                                                                                                                                                                                                                                                                                                                                                                                                                                                                                                                                                                                                                                                                                                                                                                                              No No                                                                                                                                                                                                                                                                                                                                                                                                                                                                                                                                                                                                                                                                                           Y07        003524531                                                                                                                                         37700194                                                                    ZZ
021371616514Hernandez                                         Shayla                        C                             2009-03-01F     080819647330123992Animo Ellen Ochoa Charter Middle                                                                    19647330123992Animo Ellen Ochoa Charter Middle                                                                    1286DF       No       No No No No 2014-09-042017-02-172014-08-122022-08-15RFEPSPA01No    No YesYesNYesNo No No No No No No 50015 0000000187281513C0000000188095672C                                  0033327531002002Animo Ellen Ochoa Charter Middle                                                                    19647330123992Animo Ellen Ochoa Charter Middle                                                                    19647330123992DF1286N          Animo Ellen Ochoa Charter Middle                                                                    19647330123992Animo Ellen Ochoa Charter Middle                                                                    19647330123992DF1286N                                                                                                                                                                                                                                                                                                                                                                                                                                                                                      2023-05-082023-05-082023-05-092023-05-09                                        Animo Ellen Ochoa Charter Middle                                                                    19647330123992Animo Ellen Ochoa Charter Middle                                                                    19647330123992DF1286N2023-05-092023-04-172023-06-162023-04-172023-06-16                                        E2302023-06-162023-07-15                 YV OYNN  Y2023-05-21775Q                                              24330047238624801              017005      No No                                                                                                                                                                                                                                                                                                                                                                                                                                                                                                                                                                                                                                                                                                                                                                                                                                                                                                                                                                                                                                              No No                                                                                                                                                                                                                                                                                                                                                                                                                                                                                                                                                                                                                                                                                           Y07        004324251                                                                                                                                         33327531                                                                    ZZ
021380586858Bustos Negrete                                    Joseph                        Anthony                       2008-12-17M     080819647330134205Arts in Action Community Middle                                                                     19647330134205Arts in Action Community Middle                                                                     1806DF1964733No OHIOHIYesYesNo No 2014-12-122022-09-022014-12-032022-08-15RFEPSPA01No    No YesYesNYesNo No No No No No No 50013 0000000187844706C0000000190654500C                                  0037668015002002Arts in Action Community Middle                                                                     19647330134205Arts in Action Community Middle                                                                     19647330134205DF1806N          Arts in Action Community Middle                                                                     19647330134205Arts in Action Community Middle                                                                     19647330134205DF1806N                                                                                                                                                                                                                                                                                                                                                                                                                                                                                      2023-05-092023-05-092023-05-162023-05-16                                        Arts in Action Community Middle                                                                     19647330134205Arts in Action Community Middle                                                                     19647330134205DF1806N2023-05-162023-03-272023-06-092023-03-272023-06-09                                        E2302023-06-092023-07-20                 YV OYNN  Y2023-05-22475Q                                              22940073226523671              017005      YesYes                                                                                                                                                                                                                                                                                                                                 NEA_MTNEA_MT                                                                                                                                                  NEA_STTNEA_STT                                                                                                                                                                                                                                                                                                                                                                                                  TDS_TTS_Stim&TDS_TTS_ItemTDS_TTS_Stim&TDS_TTS_Item                                                                            No No                                                                                                                                                                                                                                                                                                                                NEDS_RA_Items        NEDS_RA_Items                                                                                                                                                                     NEDS_SSNEDS_SS              NEDS_SimpDirsNEDS_SimpDirs                                                                                              Y07        004624021                                                                                                                                         37668015                                                                    ZZ
062386978391Lopez Serrano                                     Melane                                                      2006-01-20F     111119647330101675Oscar De La Hoya Animo Charter High                                                                 19647330101675Oscar De La Hoya Animo Charter High                                                                 0581DF       No       No No No No 2011-10-142014-08-182011-08-182022-08-15RFEPSPA01No    YesYesYesNYesNo No No No No No No 50014 0000000192946162C                                                   0033393262009003Oscar De La Hoya Animo Charter High                                                                 19647330101675Oscar De La Hoya Animo Charter High                                                                 19647330101675DF0581N                                                                                                                                                                                                                                                                                                                                                                                                                                                                                                                                                                                                                                                                                                                                           2023-05-262023-05-26                                                            Oscar De La Hoya Animo Charter High                                                                 19647330101675Oscar De La Hoya Animo Charter High                                                                 19647330101675DF0581N2023-05-262023-04-172023-06-16                                                            E1552023-06-162023-07-18            2    YV OYN   Y2023-06-01                                                  633             3332           050         No No                                                                                                                                                                                                                                                                                                                                                                                                                                                                                                                                                                                                                                                                                                                                                                                                                                                                                                                                                                                                                                              No                                                                                                                                                                                                                                                                                                                                                                                                                                                                                                                                                                                                                                                                                                                                                                                                                                                           33393262                                                                    ZZ
019431020236Guerra                                            Zayra                         Yamileth                      2005-12-06F     111119647330101675Oscar De La Hoya Animo Charter High                                                                 19647330101675Oscar De La Hoya Animo Charter High                                                                 0581DF       No       No No No No                     2011-09-072022-08-15IFEPSPA01No    No YesYesNYesNo No No No No No No 50013 0000000192703906C0000000192853079C                                  0033888610003014Oscar De La Hoya Animo Charter High                                                                 19647330101675Oscar De La Hoya Animo Charter High                                                                 19647330101675DF0581N          Oscar De La Hoya Animo Charter High                                                                 19647330101675Oscar De La Hoya Animo Charter High                                                                 19647330101675DF0581N                                                                                                                                                                                                                                                                                                                                                                                                                                                                                      2023-05-242023-05-242023-05-252023-05-25                                        Oscar De La Hoya Animo Charter High                                                                 19647330101675Oscar De La Hoya Animo Charter High                                                                 19647330101675DF0581N2023-05-252023-04-172023-06-162023-04-172023-06-16                                        E1552023-06-162023-07-17                 YV OYNN  Y2023-06-021375L                                             26630037262627003   ARGU222   1022003      No No                                                                                                                                                                                                                                                                                                                                                                                                                                                                                                                                                                                                                                                                                                                                                                                                                                                                                                                                                                                                                                              No No                                                                                                                                                                                                                                                                                                                                                                                                                                                                                                                                                                                                                                                                                                                                                                                                                                                        33888610                                                                    ZZ
025299553654CAMPOS                                            RUBY                                                        2009-03-25F     080819647330000000Los Angeles Unified                                                                                 19647336058051Hollenbeck Middle                                                                                                No       No No No Yes2014-09-12          2014-08-122022-08-15EL  SPA01No    No YesYesNYesNo No No No No No No 50014 0000000187188046C0000000187964474C                                  0033591279002002Los Angeles Unified                                                                                 19647330000000Hollenbeck Middle                                                                                   19647336058051      N          Los Angeles Unified                                                                                 19647330000000Hollenbeck Middle                                                                                   19647336058051      N                                                                                                                                                                                                                                                                                                                                                                                                                                                                                      2023-05-082023-05-082023-05-092023-05-09                                        Los Angeles Unified                                                                                 19647330000000Hollenbeck Middle                                                                                   19647336058051      N2023-05-092023-03-062023-06-092023-03-062023-06-09                                        E2302023-06-082023-06-23                 YV OYNN  Y2023-05-17410Q                                              22650110226523751              017005      No No                                                                                                                                                                                                                                                                                                                                                                                                                                                                                                                                                                                                                                                                                                                                                                                                                                                                                                                                                                                                                                              No No                                                                                                                                                                                                                                                                                                                                                                                                                                                                                                                                                                                                                                                                                           Y07        005523501                                                                                                                                         33591279                                                                    ZZ
015299553654CAMPOS                                            RUBY                                                        2009-03-25F     080819647330000000Los Angeles Unified                                                                                 19647336058051Hollenbeck Middle                                                                                                No       No No No Yes2014-09-12          2014-08-122022-08-15EL  SPA01No    No YesYesNYesNo No No No No No No 50014 0000000184816636C0000000183925268C                                  0033591279002014Los Angeles Unified                                                                                 19647330000000Hollenbeck Middle                                                                                   19647336058051      N          Los Angeles Unified                                                                                 19647330000000Hollenbeck Middle                                                                                   19647336058051      N                                                                                                                                                                                                                                                                                                                                                                                                                                                                                      2023-05-022023-05-022023-05-012023-05-01                                        Los Angeles Unified                                                                                 19647330000000Hollenbeck Middle                                                                                   19647336058051      N2023-05-022023-03-062023-06-092023-03-062023-06-09                                        E2302023-06-082023-06-23                 YV OYNN  Y2023-05-17890L                                              24350038239724731   ARGU220    022003      No No                                                                                                                                                                                                                                                                                                                                                                                                                                                                                                                                                                                                                                                                                                                                                                                                                                                                                                                                                                                                                                              No No                                                                                                                                                                                                                                                                                                                                                                                                                                                                                                                                                                                                                                                                                           Y07        004723411                                                                                                                                         33591279                                                                    ZZ
