014392526173Perez                                             Alexis                        Mariah                        2008-08-03F     080819647330124016Animo Legacy Charter Middle                                                                         19647330124016Animo Legacy Charter Middle                                                                         1288DF1964733No SLDSLDYesYesNo No                               2022-08-15EO  ENG00No    No YesYesNYesNo No No No No No No 50013 0000000190286727C0000000190379988C                                  0033529080002014Animo Legacy Charter Middle                                                                         19647330124016Animo Legacy Charter Middle                                                                         19647330124016DF1288N          Animo Legacy Charter Middle                                                                         19647330124016Animo Legacy Charter Middle                                                                         19647330124016DF1288N                                                                                                                                                                                                                                                                                                                                                                                                                                                                                      2023-05-152023-05-152023-05-152023-05-16                                        Animo Legacy Charter Middle                                                                         19647330124016Animo Legacy Charter Middle                                                                         19647330124016DF1288N2023-05-162023-04-172023-06-162023-04-172023-06-16                                        E2302023-06-162023-07-18                 YV OYNN  Y2023-06-011095L                                             25310034249725652   ARGU112    022003      YesYes                                                                      TDS_ClosedCap1                                                                                                                                                                                                                                                                                                                                                                                                                                                                                                                                                                                                                                                                                                                                                                                                                           TDS_TTS_Item             TDS_TTS_Item                                                                                         No No                                                                                                                                                                                                                                                                                                                                                                                                                                                                                                                                       NEDS_SSNEDS_SS                                                                                                                                      Y07        004423571                                                                                                                                         33529080                                                                    ZZ
029471783791SANGUINO                                          SAUL                                                        2009-07-14M     080819646340000000Inglewood Unified                                                                                   19646346057749Crozier (George W.) Middle                                                                                       No       No No No No 2014-09-042023-03-082014-09-042022-08-22RFEPSPA01No    No YesYesNYesNo No No No No No No 50014 0000000185790774C0000000187427451C                                  0035331403002002Inglewood Unified                                                                                   19646340000000Crozier (George W.) Middle                                                                          19646346057749      N          Inglewood Unified                                                                                   19646340000000Crozier (George W.) Middle                                                                          19646346057749      N                                                                                                                                                                                                                                                                                                                                                                                                                                                                                      2023-05-032023-05-042023-05-082023-05-08                                        Inglewood Unified                                                                                   19646340000000Crozier (George W.) Middle                                                                          19646346057749      N2023-05-082023-04-172023-06-082023-04-172023-06-08                                        E2302023-06-082023-06-09                 YV OYNN  Y2023-05-17640Q                                              23700054231624241              017005      No No                                                                                                                                                                                                                                                                                                                                                                                                                                                                                                                                                                                                                                                                                                                                                                                                                                                                                                                                                                                                                                              No No                                                                                                                                                                                                                                                                                                                                                                                                                                                                                                                                                                                                                                                                                           Y07        005923331                           Y06        005523281                                                                                          35331403                                                                    ZZ
023391388155Barrios                                           Alexis                                                      2008-05-07M     080819647090107508Century Community Charter                                                                           19647090107508Century Community Charter                                                                           0672DF       No       No No No Yes2013-09-04          2012-05-072022-08-29EL  SPA01No    No YesYesNYesNo No No No No No No 50015 0000000188973064C0000000189038364C                                  0038329185002002Century Community Charter                                                                           19647090107508Century Community Charter                                                                           19647090107508DF0672N          Century Community Charter                                                                           19647090107508Century Community Charter                                                                           19647090107508DF0672N                                                                                                                                                                                                                                                                                                                                                                                                                                                                                      2023-05-102023-05-102023-05-102023-05-10                                        Century Community Charter                                                                           19647090107508Century Community Charter                                                                           19647090107508DF0672N2023-05-102023-03-142023-06-162023-03-142023-06-16                                        E2302023-06-162023-07-10                 YV OYNN  Y2023-06-09635Q                                              23680055231324231              017004      No No                                                                                                                                                                                                                                                                                                                                                                                                                                                                                                                                                                                                                                                                                                                                                                                                                                                                                                                                                                                                                                              No No                                                                                                                                                                                                                                                                                                                                                                                                                                                                                                                                                                                                                                                                                           Y07        004024551                                                                                                                                         38329185                                                                    ZZ
013453100637Hibbler                                           Kaela                         Joann                         2009-06-23F     080819646340000000Inglewood Unified                                                                                   19646346014518La Tijera K-8 Academy of Excellence Charter                                                         1591LF1964634No SLDSLDYesYesNo No                     2014-08-122022-08-22EO  ENG00No    No YesYesNNo No No No No YesNo No 60014 0000000182211928C0000000180789633C                                  0035228095002014Inglewood Unified                                                                                   19646340000000La Tijera K-8 Academy of Excellence Charter                                                         19646346014518LF1591N          Inglewood Unified                                                                                   19646340000000La Tijera K-8 Academy of Excellence Charter                                                         19646346014518LF1591N                                                                                                                                                                                                                                                                                                                                                                                                                                                                                      2023-04-262023-04-262023-04-242023-04-24                                        Inglewood Unified                                                                                   19646340000000La Tijera K-8 Academy of Excellence Charter                                                         19646346014518LF1591N2023-04-262023-04-172023-06-082023-04-172023-06-08                                        E2302023-06-082023-06-19                 YV OYNN  Y2023-06-011005L                                             24890034245525232   NARR222    022003      YesYes                                                                                                                                TDS_TTS_StimTDS_TTS_Stim                                                                                                                                                                                                                                                                                         NEA_RA_Stimuli                                                                                                                                              TDS_CCMagenta      TDS_CCMagenta                                                                                                                                                                                                                                  TDS_SLM1TDS_SLM1                TDS_TTS_Item             TDS_TTS_Item                                                                                         No No                                                                                                                          NEDS_CCNEDS_CC                                                                                                                                    NEDS_NoiseBufNEDS_NoiseBuf                                                                                                                                                                                                                                 NEDS_SSNEDS_SS              NEDS_SimpDirsNEDS_SimpDirs                                                                                              Y07        003624371                           Y06                9NT                                                                                        35228095                                                                    ZZ
026064144896Austin                                            Zy'Aire                       Shawn                         2009-09-24M     080819644510000000Downey Unified                                                                                      19644516057632Sussman (Edward A.) Middle                                                                                       No       No No No No                     2014-08-122023-04-03EO  ENG00No    No YesYesNNo No No No No YesNo No 60013 0000000183680018C0000000186204325C                                  0036604000002002Downey Unified                                                                                      19644510000000Sussman (Edward A.) Middle                                                                          19644516057632      N          Downey Unified                                                                                      19644510000000Sussman (Edward A.) Middle                                                                          19644516057632      N                                                                                                                                                                                                                                                                                                                                                                                                                                                                                      2023-05-012023-05-012023-05-042023-05-04                                        Downey Unified                                                                                      19644510000000Sussman (Edward A.) Middle                                                                          19644516057632      N2023-05-042023-03-022023-06-072023-03-022023-06-07                                        E2302023-06-072023-07-27                 YV OYNN  Y2023-05-16610Q                                              23560057229924131              017005      No No                                                                                                                                                                                                                                                                                                                                                                                                                                                                                                                                                                                                                                                                                                                                                                                                                                                                                                                                                                                                                                              No No                                                                                                                                                                                                                                                                                                                                                                                                                                                                                                                                                                                                                                                                                           Y07        004723951                           Y06        003624471                                                                                          36604000                                                                    ZZ
021778068067Pacheco                                           William                       Ottoniel                      2008-11-08M     080819647090107508Century Community Charter                                                                           19647090107508Century Community Charter                                                                           0672DF       No       No No No Yes2016-10-21          2016-10-102022-08-29EL  SPA01No    No YesNo NYesNo No No No No No No 50014 0000000180194274C0000000186910154C                                  0038328499002002Chino Valley Unified                                                                                36676780000000Ramona Junior High                                                                                  36676786061840      N          Chino Valley Unified                                                                                36676780000000Ramona Junior High                                                                                  36676786061840      N                                                                                                                                                                                                                                                                                                                                                                                                                                                                                      2023-04-202023-04-202023-05-052023-05-05                                        Chino Valley Unified                                                                                36676780000000Ramona Junior High                                                                                  36676786061840      N2023-05-052023-04-032023-05-252023-04-032023-05-25                                        E2302023-05-252023-06-19                 YV OYNN  Y2023-05-16410Q                                              22650110226523751              017005      No No                                                                                                                                                                                                                                                                                                                                                                                                                                                                                                                                                                                                                                                                                                                                                                                                                                                                                                                                                                                                                                              No No                                                                                                                                                                                                                                                                                                                                                                                                                                                                                                                                                                                                                                                                                           Y07        003924611                                                                                                                                         38328499                                                                    ZZ
023453100637Hibbler                                           Kaela                         Joann                         2009-06-23F     080819646340000000Inglewood Unified                                                                                   19646346014518La Tijera K-8 Academy of Excellence Charter                                                         1591LF1964634No SLDSLDYesYesNo No                     2014-08-122022-08-22EO  ENG00No    No YesYesNNo No No No No YesNo No 60014 0000000184581458C0000000183747105C                                  0035228095002002Inglewood Unified                                                                                   19646340000000La Tijera K-8 Academy of Excellence Charter                                                         19646346014518LF1591N          Inglewood Unified                                                                                   19646340000000La Tijera K-8 Academy of Excellence Charter                                                         19646346014518LF1591N                                                                                                                                                                                                                                                                                                                                                                                                                                                                                      2023-05-022023-05-242023-05-012023-05-17                                        Inglewood Unified                                                                                   19646340000000La Tijera K-8 Academy of Excellence Charter                                                         19646346014518LF1591N2023-05-242023-04-172023-06-082023-04-172023-06-08                                        E2302023-06-082023-06-19                 YV OYNN  Y2023-06-01720Q                                              24080049235924571              017005      YesYes                                                                                                                                                        NEA_NumTblNEA_NumTbl                                                                                                                                                                                                                                                                                                                                                                                                                                 TDS_CCMagenta      TDS_CCMagenta                                                                                                                                                                                                                                  TDS_SLM1TDS_SLM1                TDS_TTS_Stim&TDS_TTS_ItemTDS_TTS_Stim&TDS_TTS_Item                                                                            No No                                                                                                                          NEDS_CCNEDS_CC                                                                                                                                    NEDS_NoiseBufNEDS_NoiseBuf                                                                                                                                                                                                                                 NEDS_SSNEDS_SS              NEDS_SimpDirsNEDS_SimpDirs                                                                                              Y07        003724952                                                                                                                                         35228095                                                                    ZZ
011778068067Pacheco                                           William                       Ottoniel                      2008-11-08M     080819647090107508Century Community Charter                                                                           19647090107508Century Community Charter                                                                           0672DF       No       No No No Yes2016-10-21          2016-10-102022-08-29EL  SPA01No    No YesNo NYesNo No No No No No No 50014 0000000178558989C0000000184044745C                                  0038328499002014Chino Valley Unified                                                                                36676780000000Ramona Junior High                                                                                  36676786061840      N          Chino Valley Unified                                                                                36676780000000Ramona Junior High                                                                                  36676786061840      N                                                                                                                                                                                                                                                                                                                                                                                                                                                                                      2023-04-172023-04-182023-05-012023-05-01                                        Chino Valley Unified                                                                                36676780000000Ramona Junior High                                                                                  36676786061840      N2023-05-012023-04-032023-05-252023-04-032023-05-25                                        E2302023-05-252023-06-19                 YV OYNN  Y2023-05-16640L                                              23170058229023751   ARGU000III 022003      No No                                                                                                                                                                                                                                                                                                                                                                                                                                                                                                                                                                                                                                                                                                                                                                                                                                                                                                                                                                                                                                              No No                                                                                                                                                                                                                                                                                                                                                                                                                                                                                                                                                                                                                                                                                           Y07        004523541                                                                                                                                         38328499                                                                    ZZ
013391388155Barrios                                           Alexis                                                      2008-05-07M     080819647090107508Century Community Charter                                                                           19647090107508Century Community Charter                                                                           0672DF       No       No No No Yes2013-09-04          2012-05-072022-08-29EL  SPA01No    No YesYesNYesNo No No No No No No 50015 0000000188201308C0000000188352685C                                  0038329185002014Century Community Charter                                                                           19647090107508Century Community Charter                                                                           19647090107508DF0672N          Century Community Charter                                                                           19647090107508Century Community Charter                                                                           19647090107508DF0672N                                                                                                                                                                                                                                                                                                                                                                                                                                                                                      2023-05-092023-05-092023-05-092023-05-09                                        Century Community Charter                                                                           19647090107508Century Community Charter                                                                           19647090107508DF0672N2023-05-092023-03-142023-06-162023-03-142023-06-16                                        E2302023-06-162023-07-10                 YV OYNN  Y2023-06-09830L                                              24070041236624481   EXPL000III 022003      No No                                                                                                                                                                                                                                                                                                                                                                                                                                                                                                                                                                                                                                                                                                                                                                                                                                                                                                                                                                                                                                              No No                                                                                                                                                                                                                                                                                                                                                                                                                                                                                                                                                                                                                                                                                           Y07        003624421                                                                                                                                         38329185                                                                    ZZ
016064144896Austin                                            Zy'Aire                       Shawn                         2009-09-24M     080819644510000000Downey Unified                                                                                      19644516057632Sussman (Edward A.) Middle                                                                                       No       No No No No                     2014-08-122023-04-03EO  ENG00No    No YesYesNNo No No No No YesNo No 60013 0000000181253513C0000000180336177C                                  0036604000002014Downey Unified                                                                                      19644510000000Sussman (Edward A.) Middle                                                                          19644516057632      N          Downey Unified                                                                                      19644510000000Sussman (Edward A.) Middle                                                                          19644516057632      N                                                                                                                                                                                                                                                                                                                                                                                                                                                                                      2023-04-242023-04-242023-04-202023-04-27                                        Downey Unified                                                                                      19644510000000Sussman (Edward A.) Middle                                                                          19644516057632      N2023-04-272023-03-022023-06-072023-03-022023-06-07                                        E2302023-06-072023-07-27                 YV OYNN  Y2023-05-16770L                                              23800045233524251   EXPL000III 022003      No No                                                                                                                                                                                                                                                                                                                                                                                                                                                                                                                                                                                                                                                                                                                                                                                                                                                                                                                                                                                                                                              No No                                                                                                                                                                                                                                                                                                                                                                                                                                                                                                                                                                                                                                                                                           Y07        006122791                           Y06        003324471                                                                                          36604000                                                                    ZZ
027433931508Spicer                                            Kyle                          Jordan                        2008-11-30M     080819650940112706California Virtual Academy @ Los Angeles                                                            19650940112706California Virtual Academy @ Los Angeles                                                            0838DF       No       No No No No                               2022-08-18EO  ENG00No    No YesYesNNo No No No No YesNo No 60014 0000000184001663C0000000184217844C                                  0037647685002002California Virtual Academy @ Los Angeles                                                            19650940112706California Virtual Academy @ Los Angeles                                                            19650940112706DF0838N          California Virtual Academy @ Los Angeles                                                            19650940112706California Virtual Academy @ Los Angeles                                                            19650940112706DF0838N                                                                                                                                                                                                                                                                                                                                                                                                                                                                                      2023-05-012023-05-012023-05-012023-05-01                                        California Virtual Academy @ Los Angeles                                                            19650940112706California Virtual Academy @ Los Angeles                                                            19650940112706DF0838N2023-05-012023-04-242023-06-092023-04-242023-06-09                                        T1602023-06-092023-06-26                 YV OYYY  Y2023-05-16705Q                                              24000050235024501              017005      No No                                                                                                                                                                                                                                                                                                                                                                                                                                                                                                                                                                                                                                                                                                                                                                                                                                                                                                                                                                                                                                              No No                                                                                                                                                                                                                                                                                                                                                                                                                                                                                                                                                                                                                                                                                           Y07        004124411                           Y06        003524521                                                                                          37647685                                                                    ZZ
012633438068Magana                                            Liseth                        Guadalupe                     2009-07-18F     080819647330128009Alliance Virgil Roberts Leadership Academy                                                          19647330128009Alliance Virgil Roberts Leadership Academy                                                          1530DF       Yes      No No No No 2014-09-092019-06-072014-08-122022-08-10RFEPSPA01No    No YesYesNYesNo No No No No No No 50013 0000000189997018C0000000190528135C                                  0038223392002014Alliance Virgil Roberts Leadership Academy                                                          19647330128009Alliance Virgil Roberts Leadership Academy                                                          19647330128009DF1530N          Alliance Virgil Roberts Leadership Academy                                                          19647330128009Alliance Virgil Roberts Leadership Academy                                                          19647330128009DF1530N                                                                                                                                                                                                                                                                                                                                                                                                                                                                                      2023-05-152023-05-152023-05-162023-05-17                                        Alliance Virgil Roberts Leadership Academy                                                          19647330128009Alliance Virgil Roberts Leadership Academy                                                          19647330128009DF1530N2023-05-172023-03-072023-06-162023-03-072023-06-16                                        E2302023-06-152023-07-25                 YV OYNN  Y2023-05-311190L                                             25750034254126093   NARR222    022003      No Yes                                                                                                                                                                                                                                                                                                                                                                                                                                                                                                                                                                                                                                                                                                                                                                                                                                                                                                               TDS_TTS_Item             TDS_TTS_Item                                                                                         No No                                                                                                                                                                                                                                                                                                                                                                                                                                                                                                                                                                                                                                                                                           Y07        003325893                                                                                                                                         38223392                                                                    ZZ
022633438068Magana                                            Liseth                        Guadalupe                     2009-07-18F     080819647330128009Alliance Virgil Roberts Leadership Academy                                                          19647330128009Alliance Virgil Roberts Leadership Academy                                                          1530DF       Yes      No No No No 2014-09-092019-06-072014-08-122022-08-10RFEPSPA01No    No YesYesNYesNo No No No No No No 50013 0000000191675257C0000000192022717C                                  0038223392002002Alliance Virgil Roberts Leadership Academy                                                          19647330128009Alliance Virgil Roberts Leadership Academy                                                          19647330128009DF1530N          Alliance Virgil Roberts Leadership Academy                                                          19647330128009Alliance Virgil Roberts Leadership Academy                                                          19647330128009DF1530N                                                                                                                                                                                                                                                                                                                                                                                                                                                                                      2023-05-182023-05-182023-05-192023-05-19                                        Alliance Virgil Roberts Leadership Academy                                                          19647330128009Alliance Virgil Roberts Leadership Academy                                                          19647330128009DF1530N2023-05-192023-03-072023-06-162023-03-072023-06-16                                        E2302023-06-152023-07-25                 YV OYNN  Y2023-05-311095Q                                             25810035254626162              017005      No Yes                                                                                                                                                                                                                                                                                                                                                                                                                                                                                                                                                                                                                                                                                                                                                                                                                                                                                                               TDS_TTS_Stim&TDS_TTS_ItemTDS_TTS_Stim&TDS_TTS_Item                                                                            No No                                                                                                                                                                                                                                                                                                                                                                                                                                                                                                                                                                                                                                                                                           Y07        003325362                                                                                                                                         38223392                                                                    ZZ
023951479057Vega                                              Elmer Khaleb                  Khaleb                        2007-05-21M     080819647090107508Century Community Charter                                                                           19647090107508Century Community Charter                                                                           0672DF0107508YesAUTAUTYesYesNo Yes2011-09-06          2015-08-242022-08-29EL  SPA01No    No YesYesNYesNo No No No No No No 50015 0000000187336549C0000000187529305C                                  0038329547002002Century Community Charter                                                                           19647090107508Century Community Charter                                                                           19647090107508DF0672N          Century Community Charter                                                                           19647090107508Century Community Charter                                                                           19647090107508DF0672N                                                                                                                                                                                                                                                                                                                                                                                                                                                                                      2023-05-082023-05-082023-05-082023-05-08                                        Century Community Charter                                                                           19647090107508Century Community Charter                                                                           19647090107508DF0672N2023-05-082023-03-142023-06-162023-03-142023-06-16                                        E2302023-06-162023-07-11                 YV OYNN  Y2023-05-21470Q                                              22930073226523661              017005      YesYes                                                                                                                                                                                                                                                                                                                                 NEA_MTNEA_MT                                                                                                                                                                                                                                                                                                                                                                                                                                                                                                                                                                                                                                                                                                No No                                                                                                                                                                                                                                                                            NEDS_NoiseBufNEDS_NoiseBuf                          NEDS_RA_Items        NEDS_RA_Items                                                                                                                                                                     NEDS_SSNEDS_SS              NEDS_SimpDirsNEDS_SimpDirs                                                                                              Y07        005423561                           Y08        004424731                                                                                          38329547                                                                    ZZ
066064144896Austin                                            Zy'Aire                       Shawn                         2009-09-24M     080819644510000000Downey Unified                                                                                      19644516057632Sussman (Edward A.) Middle                                                                                       No       No No No No                     2014-08-122023-04-03EO  ENG00No    No YesYesNNo No No No No YesNo No 60013 0000000187781717C                                                   0036604000009003Downey Unified                                                                                      19644510000000Sussman (Edward A.) Middle                                                                          19644516057632      N                                                                                                                                                                                                                                                                                                                                                                                                                                                                                                                                                                                                                                                                                                                                           2023-05-092023-05-12                                                            Downey Unified                                                                                      19644510000000Sussman (Edward A.) Middle                                                                          19644516057632      N2023-05-122023-03-022023-06-07                                                            E2302023-06-072023-07-27                 YV OYN   Y2023-05-14                                                  370             1111           045         No No                                                                                                                                                                                                                                                                                                                                                                                                                                                                                                                                                                                                                                                                                                                                                                                                                                                                                                                                                                                                                                              No                                                                                                                                                                                                                                                                                                                                                                                                                                                                                                                                                                                                                                                                                                                                                                                                                                                           36604000                                                                    ZZ
065379034803Garcia                                            Anthony                       Daniel                        2006-07-23M     111119101990136119Animo City of Champions Charter High                                                                19101990136119Animo City of Champions Charter High                                                                1874DF       No       No No No No                               2022-08-15EO  ENG00No    No No No NYesNo No No No No No No 50013 0000000192238456C                                                   0033599010009003Animo City of Champions Charter High                                                                19101990136119Animo City of Champions Charter High                                                                19101990136119DF1874N                                                                                                                                                                                                                                                                                                                                                                                                                                                                                                                                                                                                                                                                                                                                           2023-05-222023-05-22                                                            Animo City of Champions Charter High                                                                19101990136119Animo City of Champions Charter High                                                                19101990136119DF1874N2023-05-222023-04-172023-06-16                                                            E1552023-06-162023-06-30            1    YV OYN   Y2023-05-24                                                  581             2111           049         No No                                                                                                                                                                                                                                                                                                                                                                                                                                                                                                                                                                                                                                                                                                                                                                                                                                                                                                                                                                                                                                              No                                                                                                                                                                                                                                                                                                                                                                                                                                                                                                                                                                                                                                                                                                                                                                                                                                                           33599010                                                                    ZZ
019471783791SANGUINO                                          SAUL                                                        2009-07-14M     080819646340000000Inglewood Unified                                                                                   19646346057749Crozier (George W.) Middle                                                                                       No       No No No No 2014-09-042023-03-082014-09-042022-08-22RFEPSPA01No    No YesYesNYesNo No No No No No No 50014 0000000180962660C0000000184096968C                                  0035331403002014Inglewood Unified                                                                                   19646340000000Crozier (George W.) Middle                                                                          19646346057749      N          Inglewood Unified                                                                                   19646340000000Crozier (George W.) Middle                                                                          19646346057749      N                                                                                                                                                                                                                                                                                                                                                                                                                                                                                      2023-04-242023-05-012023-05-012023-05-08                                        Inglewood Unified                                                                                   19646340000000Crozier (George W.) Middle                                                                          19646346057749      N2023-05-082023-04-172023-06-082023-04-172023-06-08                                        E2302023-06-082023-06-09                 YV OYNN  Y2023-05-171050L                                             25100034247625442   ARGU111    022003      No No                                                                                                                                                                                                                                                                                                                                                                                                                                                                                                                                                                                                                                                                                                                                                                                                                                                                                                                                                                                                                                              No No                                                                                                                                                                                                                                                                                                                                                                                                                                                                                                                                                                                                                                                                                           Y07        003325082                           Y06        003324321                                                                                          35331403                                                                    ZZ
017433931508Spicer                                            Kyle                          Jordan                        2008-11-30M     080819650940112706California Virtual Academy @ Los Angeles                                                            19650940112706California Virtual Academy @ Los Angeles                                                            0838DF       No       No No No No                               2022-08-18EO  ENG00No    No YesYesNNo No No No No YesNo No 60014 0000000184951615C0000000185190894C                                  0037647685002014California Virtual Academy @ Los Angeles                                                            19650940112706California Virtual Academy @ Los Angeles                                                            19650940112706DF0838N          California Virtual Academy @ Los Angeles                                                            19650940112706California Virtual Academy @ Los Angeles                                                            19650940112706DF0838N                                                                                                                                                                                                                                                                                                                                                                                                                                                                                      2023-05-022023-05-022023-05-022023-05-02                                        California Virtual Academy @ Los Angeles                                                            19650940112706California Virtual Academy @ Los Angeles                                                            19650940112706DF0838N2023-05-022023-04-242023-06-092023-04-242023-06-09                                        T1602023-06-092023-06-26                 YV OYYY  Y2023-05-16955L                                              24660035243125011   NARR111    022003      No No                                                                                                                                                                                                                                                                                                                                                                                                                                                                                                                                                                                                                                                                                                                                                                                                                                                                                                                                                                                                                                              No No                                                                                                                                                                                                                                                                                                                                                                                                                                                                                                                                                                                                                                                                                           Y07        003324882                           Y06        003125192                                                                                          37647685                                                                    ZZ
013951479057Vega                                              Elmer Khaleb                  Khaleb                        2007-05-21M     080819647090107508Century Community Charter                                                                           19647090107508Century Community Charter                                                                           0672DF0107508YesAUTAUTYesYesNo Yes2011-09-06          2015-08-242022-08-29EL  SPA01No    No YesYesNYesNo No No No No No No 50015 0000000188175469C0000000188443607C                                  0038329547002014Century Community Charter                                                                           19647090107508Century Community Charter                                                                           19647090107508DF0672N          Century Community Charter                                                                           19647090107508Century Community Charter                                                                           19647090107508DF0672N                                                                                                                                                                                                                                                                                                                                                                                                                                                                                      2023-05-092023-05-092023-05-092023-05-09                                        Century Community Charter                                                                           19647090107508Century Community Charter                                                                           19647090107508DF0672N2023-05-092023-03-142023-06-162023-03-142023-06-16                                        E2302023-06-162023-07-11                 YV OYNN  Y2023-05-21580L                                              22900086229023761   EXPL110    022003      YesYes                                                                                                                                TDS_TTS_StimTDS_TTS_Stim                                                                                                                                                                                                                                                                                         NEA_RA_Stimuli                                                                                                                                                                                                                                                                                                                                                                                                                                                                                                                                                                              No No                                                                                                                                                                                                                                                                            NEDS_NoiseBufNEDS_NoiseBuf                          NEDS_RA_Items        NEDS_RA_Items                                                                                                                                                                     NEDS_SSNEDS_SS              NEDS_SimpDirsNEDS_SimpDirs                                                                                              Y07        005023241                           Y08        004523791                                                                                          38329547                                                                    ZZ
016337101161JEMISON                                           NATALIA                       NICOLE FAITH                  2008-12-29F     080819646340000000Inglewood Unified                                                                                   19646346014575Woodworth-Monroe TK-8 Academy                                                                                    No       No No No No                     2014-08-252023-03-20EO  ENG00No YesNo YesYesNNo No No No No YesNo No 60011 0000000181465923E0000000182859873E                                  0036732593002014Inglewood Unified                                                                                   19646340000000Woodworth-Monroe TK-8 Academy                                                                       19646346014575      N          Inglewood Unified                                                                                   19646340000000Woodworth-Monroe TK-8 Academy                                                                       19646346014575      N                                                                                                                                                                                                                                                                                                                                                                                                                                                                                      2023-04-252023-06-102023-04-272023-06-02                                        Inglewood Unified                                                                                   19646340000000Woodworth-Monroe TK-8 Academy                                                                       19646346014575      N2023-06-102023-04-172023-06-082023-04-172023-06-08                                        E2302023-06-082023-06-09                 YV OYNN  Y2023-06-141005L                                             24900034245625242   ARGU000BBB 020003      No No                                                                                                                                                                                                                                                                                                                                                                                                                                                                                                                                                                                                                                                                                                                                                                                                                                                                                                                                                                                                                                              No No                                                                                                                                                                                                                                                                                                                                                                                                                                                                                                                                                                                                                                                                                           Y07        003424751                                                                                                                                         36732593                                                                    ZZ
027907399065MCDADE                                            KAILYN                        DECEMBER                      2008-11-30F     080819647330000000Los Angeles Unified                                                                                 19647330135681Horace Mann UCLA Community                                                                                       No       No No No No                     2022-08-242022-08-24EO  ENG00No    No YesYesNNo No No No No YesNo No 60015 0000000186311818C0000000186873280C                                  0035545328002002Los Angeles Unified                                                                                 19647330000000Horace Mann UCLA Community                                                                          19647330135681      N          Los Angeles Unified                                                                                 19647330000000Horace Mann UCLA Community                                                                          19647330135681      N                                                                                                                                                                                                                                                                                                                                                                                                                                                                                      2023-05-042023-05-042023-05-052023-05-05                                        Los Angeles Unified                                                                                 19647330000000Horace Mann UCLA Community                                                                          19647330135681      N2023-05-052023-03-062023-06-092023-03-062023-06-09                                        E1552023-06-092023-06-23                 YV OYNN  Y2023-05-21805Q                                              24470046240124931              017004      No No                                                                                                                                                                                                                                                                                                                                                                                                                                                                                                                                                                                                                                                                                                                                                                                                                                                                                                                                                                                                                                              No No                                                                                                                                                                                                                                                                                                                                                                                                                                                                                                                                                                                                                                                                                           Y07        004424151                           Y06        003424621                                                                                          35545328                                                                    ZZ
017907399065MCDADE                                            KAILYN                        DECEMBER                      2008-11-30F     080819647330000000Los Angeles Unified                                                                                 19647330135681Horace Mann UCLA Community                                                                                       No       No No No No                     2022-08-242022-08-24EO  ENG00No    No YesYesNNo No No No No YesNo No 60015 0000000184813456C0000000186082276C                                  0035545328002014Los Angeles Unified                                                                                 19647330000000Horace Mann UCLA Community                                                                          19647330135681      N          Los Angeles Unified                                                                                 19647330000000Horace Mann UCLA Community                                                                          19647330135681      N                                                                                                                                                                                                                                                                                                                                                                                                                                                                                      2023-05-022023-05-032023-05-032023-05-09                                        Los Angeles Unified                                                                                 19647330000000Horace Mann UCLA Community                                                                          19647330135681      N2023-05-092023-03-062023-06-092023-03-062023-06-09                                        E1552023-06-092023-06-23                 YV OYNN  Y2023-05-211095L                                             25310034249725652   NARR111    022003      No No                                                                                                                                                                                                                                                                                                                                                                                                                                                                                                                                                                                                                                                                                                                                                                                                                                                                                                                                                                                                                                              No No                                                                                                                                                                                                                                                                                                                                                                                                                                                                                                                                                                                                                                                                                           Y07        003225362                           Y06        003125222                                                                                          35545328                                                                    ZZ
026337101161JEMISON                                           NATALIA                       NICOLE FAITH                  2008-12-29F     080819646340000000Inglewood Unified                                                                                   19646346014575Woodworth-Monroe TK-8 Academy                                                                                    No       No No No No                     2014-08-252023-03-20EO  ENG00No YesNo YesYesNNo No No No No YesNo No 60011 0000000183812573C0000000185463280C                                  0036732593002002Inglewood Unified                                                                                   19646340000000Woodworth-Monroe TK-8 Academy                                                                       19646346014575      N          Inglewood Unified                                                                                   19646340000000Woodworth-Monroe TK-8 Academy                                                                       19646346014575      N                                                                                                                                                                                                                                                                                                                                                                                                                                                                                      2023-05-012023-05-012023-05-032023-05-03                                        Inglewood Unified                                                                                   19646340000000Woodworth-Monroe TK-8 Academy                                                                       19646346014575      N2023-05-032023-04-172023-06-082023-04-172023-06-08                                        E2302023-06-082023-06-09                 YV OYNN  Y2023-06-14780Q                                              24350046238924811              017004      No No                                                                                                                                                                                                                                                                                                                                                                                                                                                                                                                                                                                                                                                                                                                                                                                                                                                                                                                                                                                                                                              No No                                                                                                                                                                                                                                                                                                                                                                                                                                                                                                                                                                                                                                                                                           Y07        006123271                                                                                                                                         36732593                                                                    ZZ
024392526173Perez                                             Alexis                        Mariah                        2008-08-03F     080819647330124016Animo Legacy Charter Middle                                                                         19647330124016Animo Legacy Charter Middle                                                                         1288DF1964733No SLDSLDYesYesNo No                               2022-08-15EO  ENG00No    No YesYesNYesNo No No No No No No 50013 0000000191257577C0000000192949154C                                  0033529080002002Animo Legacy Charter Middle                                                                         19647330124016Animo Legacy Charter Middle                                                                         19647330124016DF1288N          Animo Legacy Charter Middle                                                                         19647330124016Animo Legacy Charter Middle                                                                         19647330124016DF1288N                                                                                                                                                                                                                                                                                                                                                                                                                                                                                      2023-05-172023-05-172023-05-262023-05-26                                        Animo Legacy Charter Middle                                                                         19647330124016Animo Legacy Charter Middle                                                                         19647330124016DF1288N2023-05-262023-04-172023-06-162023-04-172023-06-16                                        E2302023-06-162023-07-18                 YV OYNN  Y2023-06-01880Q                                              24820043243925251              019000      No Yes                                                                                                                                                                                                                                                                                                                                                                                                                                                                                                                                                                                                                                                                                                                                                                                                                                                                                                               TDS_TTS_Stim&TDS_TTS_ItemTDS_TTS_Stim&TDS_TTS_Item                                                                            No No                                                                                                                                                                                                                                                                                                                                                                                                                                                                                                                                       NEDS_SSNEDS_SS                                                                                                                                      Y07        005923321                                                                                                                                         33529080                                                                    ZZ
